:020000040800F2
:1000000058B9002055020008F711000855110008E2
:10001000F511000815040008713B000800000000FD
:100020000000000000000000000000009D0100082A
:100030008D0E000800000000F10100080D330008DB
:100040006F0200086F0200086F0200086F020008CC
:100050006F0200086F0200086F0200086F020008BC
:100060006F0200086F0200086F0200086F020008AC
:100070006F0200086F0200086F0200086F0200089C
:100080006F0200086F0200086F0200086F0200088C
:10009000190400086F0200086F0200086F020008D0
:1000A0006F0200086F0200086F0200086F0200086C
:1000B0006F0200086F0200086F0200086F0200085C
:1000C0006F0200086F0200086F0200086F0200084C
:1000D0006F020008953600086F0200086F020008E2
:1000E0006F0200086F0200086F0200086F0200082C
:1000F0006F0200086F0200086F0200086F0200081C
:100100006F020008351E00086F0200086F02000829
:100110006F0200086F0200084D3400086F020008EB
:100120006F0200086F0200086F020008BD0A000895
:100130006F0200086F0200086F0200086F020008DB
:10014000810400086F0200086F0200086F020008B7
:10015000E50A00086F0200081D0B00086F02000886
:100160006F0200086F0200086F0200086F020008AB
:100170006F0200086F0200086F0200086F0200089B
:100180006F0200086F020008DFF80CD000F0E6F8FC
:10019000004800477959000858B900202A4B1968CF
:1001A0000868B0E8F04F80F30988BFF36F8F4FF015
:1001B000000080F3118870470000000006480068C6
:1001C000006880F3088862B661B6BFF34F8FBFF353
:1001D0006F8F00DF00BF00BF08ED00E0DFF80C000C
:1001E000016841F470010160704700BF88ED00E0D4
:1001F000EFF30980BFF36F8F134B1A681EF0100FD7
:1002000008BF20ED108A20E9F04F106008B44FF0CD
:10021000100080F31188BFF34F8FBFF36F8F08F08A
:10022000BFFD4FF0000080F3118808BC1968086812
:10023000B0E8F04F1EF0100F08BFB0EC108A80F34A
:100240000988BFF36F8F704718240020EFF30580F3
:10025000704700000648804706480047FEE7FEE773
:10026000FEE7FEE7FEE7FEE7FEE7FEE7FEE7FEE766
:10027000393300088901000840EA01039B0703D0D5
:1002800009E008C9121F08C0042AFAD203E011F8D5
:10029000013B00F8013B521EF9D27047D2B201E097
:1002A00000F8012B491EFBD270470022F6E710B57B
:1002B00013460A4604461946FFF7F0FF204610BDD4
:1002C000421C10F8011B0029FBD1801A704730B581
:1002D00004460020034600E05B1C934203D2E05C2E
:1002E000CD5C401BF8D030BD034611F8012B00F85F
:1002F000012B002AF9D1184670472DE9F05F054619
:10030000002092469B4688460646814640241BE0D4
:10031000284641464746224600F041F853465A4691
:10032000C01A914110D311461846224600F028F811
:100330002D1A67EB01084F4622460120002100F0EC
:100340001FF817EB00094E41201EA4F10104DFDC69
:10035000484631462A464346BDE8F09F064C074DC5
:1003600006E0E06840F0010394E807009847103485
:10037000AC42F6D3FFF70CFF94A10008B4A100082B
:10038000202A04DB203A00FA02F100207047914055
:10039000C2F1200320FA03F3194390407047202A4A
:1003A00004DB203A21FA02F00021704721FA02F31F
:1003B000D040C2F12002914008431946704770B501
:1003C0008C1810F8015B15F0070301D110F8013B00
:1003D0002A1106D110F8012B03E010F8016B01F887
:1003E000016B5B1EF9D12B0705D40023521E0DD4DF
:1003F00001F8013BFAE710F8013BCB1A921C03E02D
:1004000013F8015B01F8015B521EF9D5A142D8D364
:10041000002070BDFEE7000010B588B000200690F7
:100420001020EFF3118480F31188BFF34F8FBFF3D7
:100430006F8F01AA00210F4800F065F901208DF8A7
:1004400000000D48006820B1002306AA694609F0A3
:1004500093F884F311880698002804BF08B010BDF3
:100460004FF0805005490860BFF34F8FBFF36F8F87
:1004700008B010BD006400404000002004ED00E022
:1004800000B587B00020069008F028FA01AA0021E4
:100490000F4800F038F901208DF800000D48006881
:1004A00020B1002306AA694609F066F808F036FA7A
:1004B0000698002804BF07B000BD4FF080500649E1
:1004C0000860BFF34F8FBFF36F8F07B000BD000010
:1004D000006800404000002004ED00E0A0F18041F1
:1004E00010B5B1F5C8414FF0010109D0880601F0FF
:1004F00037FBBDE8104000214FF0806001F030BBB9
:100500004FF0007001F02CFBBDE8104000214FF0CF
:10051000007001F025BB000030B4827A344B012119
:1005200091401A6842F001021A60DFF8C8C0DCF896
:1005300000208A43CCF80020047B2F4AD4B91468E9
:100540008C4314604488C58844EA0544857AED00EC
:1005500005F1804505F5C045C5F840460588848805
:1005600045EA0445847AE40004F1804404F5C0447B
:10057000C4F84456047B012C18D114680C43146051
:10058000847A0268E40004F1804404F5C0444FEA30
:100590003242C4F84026847A4268E40004F1804480
:1005A00004F5C0444FEA3242C4F84426C47A134AE0
:1005B000002C14680CBF8C430C4314600489104A4F
:1005C00014B914688C4314600489012C02D1146896
:1005D0000C431460407B012804D1DCF80000084380
:1005E000CCF80000186820F00100186030BC70479B
:1005F000006600401C6600400C6600400466004037
:1006000014660040002A426914BF114322EA010126
:10061000416170470368002223F00203036003680E
:1006200043F0010303604FF6FF73D0F804C01CF0E1
:10063000010F03D19A4218BF521CF6D1426812F042
:10064000010F5DD08A79012A02680CBF42F0800256
:1006500022F080020260CA79012A02680CBF42F0CF
:10066000400222F0400202600A7A012A02680CBFAE
:1006700042F0200222F0200202604A7A012A026837
:100680000CBF42F0100222F0100202608A7A012AA6
:1006900002680CBF42F0080222F008020260CA7A27
:1006A000012A02680CBF42F0040222F00402026038
:1006B0008A7891F803C04FEA827242EA0C6291F89C
:1006C00004C042EA0C4291F805C0098842EA0C5283
:1006D000A1F1010142EA0101C161016821F00101BA
:1006E00001604FF00001426812F0010F1CBF9942F7
:1006F000491CF8D1406810F0010F04BF0120704779
:100700004FF00000704700EB0113D3F8B0C11CF0AC
:10071000040C82F808C0D3F8B0C107BF4FEA5C5C94
:10072000C2F800C04FEADC0CC2F804C0D3F8B0C174
:100730000CF0020C82F809C0D3F8B4C10CF00F0C15
:1007400082F80AC0D3F8B4C14FEA1C2C82F813C057
:10075000D3F8B8C182F80BC0D3F8B8C14FEA1C2C4B
:1007600082F80CC0D3F8B8C14FEA1C4C82F80DC017
:10077000D3F8B8C14FEA1C6C82F80EC0D3F8BCC1E4
:1007800082F80FC0D3F8BCC14FEA1C2C82F810C00D
:10079000D3F8BCC14FEA1C4C82F811C0D3F8BC316D
:1007A0001B0E937421B1016941F020010161704772
:1007B000C16841F02001C1607047000009490A6822
:1007C00042F001020A600A6822F4877222F4785229
:1007D0000A600A6842EA00200860086820F0010008
:1007E000086070470066004000218171C17101728C
:1007F00041728172C1728170C17003210171022145
:10080000417101210180704710B4024600209368B5
:1008100013F0806F3ED002EB0012D2F8803103F06B
:100820000103C2F880310B7A002B42D0D2F880C18C
:100830004C684CEA030391F809C04CEAC40C43EA43
:100840000C03C2F880318B7A03F00F038B72D2F85D
:10085000843123F00F03C2F88431D2F8843191F847
:100860000AC043EA0C03C2F88431CB7AD1F80CC039
:1008700043EA0C23C2F88831CB7B096943EA0121A2
:10088000C2F88C11D2F8801141F00101C2F8801138
:1008900010BC7047906810F0006F18BF0120BAD1EB
:1008A000906810F0805F14BF02200420B3D110BC08
:1008B0007047D2F8803191F809C043EA0C03B1F8CF
:1008C00000C043EA4C53BCE770B5464905460024D6
:1008D000086810F0450F03D1086810F0450FFBD0F1
:1008E00010F0040F05D00324042001F03BFA204649
:1008F00070BD10F0010F05D00124204601F032FA3E
:10090000204670BD01F06AFAA84234D140F2FF508F
:1009100001F028FA002001F083FA334908425ED042
:1009200010F0004F1CBF1C2070BD10F0804F1CBF8A
:10093000092070BD10F0005F1CBF0A2070BD10F0D0
:10094000805F1CBF0B2070BD10F0006F1CBF0C201F
:1009500070BD10F0806F1CBF0D2070BD10F0807F47
:100960001CBF0E2070BD10F4000F1CBF0F2070BD07
:1009700010F4800F01D0102070BD10F4001F1CBFB8
:10098000112070BD10F4801F1CBF122070BD10F428
:10099000002F1CBF132070BD10F4802F1CBF14202B
:1009A00070BD10F4003F1CBF152070BD10F4803FD7
:1009B0001CBF162070BD10F4004F1CBF172070BD67
:1009C00010F4804F1CBF182070BD10F4005F1CBFD6
:1009D000192070BD10F0080F1CBF1A2070BD2046F2
:1009E00070BD0000342C014008E0FFFDD0F8A020CD
:1009F000D0F8A4C04FF0FF3352F821202CF811306A
:100A0000C2F307420121831883F8B410D0F8B03044
:100A100011461847002808BF70472DE9F0074FF02E
:100A2000FF08DDE9074C099FACEB02056DB20E78BB
:100A3000002DCEBF06FA05F56D4226FA05F505F044
:100A4000FF09CCBFCCF10805C2F10805EDB2854223
:100A500088BF05460CEB0506CCF1080C08FA06FA2F
:100A600028FA0CFC4AEA0C0C94F800A029EA0C09BC
:100A70000AEA0C0C2A444CEA090CD2B284F800C0F1
:100A8000072A07D90022002B14BF4FF0FF3C4FF07C
:100A9000010C614406F0FF0CBCF1070F07D94FF0C1
:100AA000000C002F14BF4FF0FF3601263444401BCA
:100AB00010F0FF00B8D1BDE8F007704706480068A5
:100AC00010F0C05F08BF70470120044948614FF033
:100AD000C251034800F050B80064024024000020D6
:100AE0005864024070B51020EFF3118480F3118830
:100AF000BFF34F8FBFF36F8F064D074E2946304629
:100B000000F03EF918B12946304600F04BF884F366
:100B1000118870BD00880020886402402DE9F041F2
:100B20001020EFF3118480F31188BFF34F8FBFF3D0
:100B30006F8F0D4D0D4E2946304600F021F90028EB
:100B400018BF0B4F0CD04021384602F071FF00282F
:100B5000F9D02946304600F025F8064900200870F3
:100B600084F31188BDE8F08100800028B864024059
:100B7000001001401C000020064A904234BF064885
:100B8000064811F0005F064A01EA020114BFC16085
:100B900081607047106402400060024000640240BF
:100BA0007D0F7D0F064A904234BF0648064811F07B
:100BB000005F064A01EA020114BFC160816070470C
:100BC0001064024000600240006402407D0F7D0F0F
:100BD0000029016814BF41F0010121F00101016009
:100BE000704700002DE9F003016821F00101016068
:100BF0000021016041608160C1600161212141618A
:100C0000444A45494FF03D08904202BFC1F8088070
:100C1000BDE8F0037047414A4FF47464904202BF4C
:100C20008C60BDE8F00370473D4A4FF47415904264
:100C300002BF8D60BDE8F00370473A4A4FF074661A
:100C4000904202BF8E60BDE8F0037047364B374AD2
:100C5000984202BFCA60BDE8F0037047DFF8D0C019
:100C6000344B604502BFCB60BDE8F0037047324FA4
:100C7000DFF8C8C0B84202BFC1F80CC0BDE8F0033D
:100C80007047DFF8BC904FF03D57484502BFCF603A
:100C9000BDE8F0037047DFF8AC902B49484502BF30
:100CA000C1F80080BDE8F0037047DFF8A080404540
:100CB00002BF0C60BDE8F0037047254CA04202BFA4
:100CC0000D60BDE8F0037047224CA04202BF0E60E9
:100CD000BDE8F0037047204C2049A04202BF0A60E3
:100CE000BDE8F00370471E4A904202BF0B60BDE8AA
:100CF000F00370471B4A904202BFC1F800C0BDE834
:100D0000F0037047184A904208BF0F60BDE8F00337
:100D100070470000106002400060024028600240FE
:100D20004060024058600240706002403D00002078
:100D300088600240400F0020A060024000003D207B
:100D4000B860024010640240086402402864024017
:100D50004064024058640240706402400C640240E7
:100D600088640240A0640240B8640240002901681F
:100D700014BF41F0200121F0200101607047000004
:100D8000124A0023904234BF114A124ADFF848C089
:100D900011EA0C0F04BF406900F0800006D04FF04C
:100DA0001E0C00680CEAD12C00EA0C0011F0005F68
:100DB00014BF52681268DFF824C002EA0C020A422B
:100DC0001CBF002801231846704700001064024031
:100DD00000600240006402403C0F3C0F7D0F7D0F1D
:100DE00011F0800F07D04369002A0CBF23F0800365
:100DF00043F080034361802908BF704701F01E0162
:100E0000002A02680CBF22EA010111430160704709
:100E100010B402681B4BD1F80CC01A400B6843EAAF
:100E20000C03D1E905C44CEA040C43EA0C03D1F8E5
:100E30001CC043EA0C03D1F820C043EA0C03D1F8EC
:100E400024C043EA0C03D1F828C043EA0C03D1F8CC
:100E500034C043EA0C03D1F838C043EA0C031A4308
:100E600002604269D1E90B3C22F0070243EA0C031D
:100E70001A4342610A6942604A6882608968C160B7
:100E800010BC70473F801CF0416070477047000005
:100E9000B0F1FF3F0CD0084AB2F90010884204BFFD
:100EA000491E11800021054A00EB400002F8301075
:100EB0004FF0FF3070470000A024002088A80020D9
:100EC0002DE9F04782B00024524F00944FF00809FA
:100ED000019410204FF04008C7F80090C7E90108BE
:100EE0004FF4806AC7E9034A0E462546384600F0AB
:100EF000D5FF1020FFF7E8FC00281CBF02B0BDE8BA
:100F0000F08745480089000438603720C7E90108A8
:100F1000C7E9035A3F4800F0C1FF3720FFF7D4FC70
:100F200000281CBF02B0BDE8F0874FF0FF313B48FE
:100F3000C0E90019302181600221C0E903150121B7
:100F4000416100F027FF3320C7E90050C7F810A027
:100F5000C7E902852F4800F0A1FF3320FFF7B4FC5A
:100F60005FEA00091CBF02B0BDE8F0872C4F38686B
:100F700040F22A6810EA080F08BF6D460DD14FF401
:100F8000001000F031FF20B100F082FF45F824008E
:100F9000641C386810EA080FF1D0082000F024FF24
:100FA00030B1082000F0DEFE02B00420BDE8F0877A
:100FB000022000F019FF30B1022000F0D3FE02B091
:100FC0000220BDE8F087202000F00EFF30B1202085
:100FD00000F0C8FE02B00620BDE8F0874FF40070B4
:100FE00000F002FF38B14FF4007000F0BBFE02B019
:100FF0000720BDE8F08740F2FF5000F0B3FE0098F4
:1010000000BA7060019800BA306002B04846BDE88E
:10101000F0870000002C002024000020142C002069
:10102000342C01402DE9F0010022012603270B6832
:1010300006FA02FC03EA0C0363453BD10568530042
:1010400007FA03F4A54305600D79D0F800809D40B0
:1010500045EA080505600D79012D18BF022D1AD14A
:10106000856825EA040585604D79D0F8088005FA81
:1010700003F545EA08058560456825EA0C0CC0F8CB
:1010800004C0D0F804C08D7905FA02F5ADB24CEA7F
:10109000050CC0F804C0D0F80CC02CEA040CC0F851
:1010A0000CC091F807C00CFA03F3D0F80CC043EA67
:1010B0000C03C36002F10102102AB8D3BDE8F001AD
:1010C00070474B07DB0E9A40C90800EB8100016AAC
:1010D0004FF00F0C0CFA03F399430162016A1143BC
:1010E00001627047018370472DE9F0410646D0F850
:1010F0003C01008800281CBF0024012722D035199C
:1011000095F8B4000F2817D030680078A04213D0AB
:1011100095F8440138B9D6F8382112B12146304645
:10112000904785F8B47095F844012146401E85F833
:101130004401304604F08EFC601CC4B2802CDED327
:10114000BDE8F081B6F93401FFF7A2FEA6F834013C
:10115000BDE8F081FEE70000054904480860054944
:10116000C0F8E411002107F069B90000C421002093
:101170002C2C0020006400400348006910F0100F80
:101180000CBF012000207047001002400348006996
:1011900010F0080F0CBF0120002070470010024023
:1011A0000348006910F0010018BF012070470000DB
:1011B0000000024010B5012182B0084600F0B8FCE2
:1011C000C020009001208DF8040000218DF8061049
:1011D00003218DF80510064C8DF80700694620465E
:1011E000FFF720FFC0212046FFF77CFF02B010BDB3
:1011F00000000240FEE7704742F27003C81A9942AD
:1012000008BF512000F0328300F3198142F201033C
:10121000A1EB0300994208BF282000F027837DDC62
:10122000B1F5815F08BF142000F0208313DCA1F525
:101230008050192880F06882DFE800F0FEFDFCFB9A
:10124000FAF9F8F7F6F5F4FAF3F2FAFAF1F0EFEE4C
:10125000EDFAECEBEA0041F203600B1A814208BFA1
:101260001E2000F003833DDC41F20243A1EB0300AA
:10127000994208BF192000F0F9821ADCB1F5905F9D
:1012800008BF152000F0F282B1F5945F08BF162068
:1012900000F0EC82B1F5A05F08BF172000F0E682F5
:1012A0006FF4A050C14208BF182000F0DF8200F0A8
:1012B0002BBA012808BF1A2000F0D882B0F5FF7FB2
:1012C00008BF1B2000F0D282A0F58070FF3808BF55
:1012D0001C2000F0CB82012808BF1D2000F0C68230
:1012E00000F012BA40F2FD31A3F2FD308B4208BF8C
:1012F000232000F0BB8219DCA3F58070FD3808BF05
:101300001F2000F0B382012808BF202000F0AE8229
:10131000022808BF212000F0A98200E01DE0032878
:1013200008BF222000F0A28200F0EEB9012808BF19
:10133000242000F09B82022808BF252000F096821E
:10134000032808BF262000F09182B0F5C06F08BFC7
:10135000272000F08B8200F0D7B91A2808BF3D2063
:1013600000F0848211DC1A2880F0CE81DFE800F0E2
:1013700060FCFBFAF9F860F7F6F560F4606060F382
:10138000F2F1F0EFEEEDECEBEAE9282808BF472098
:1013900000F06C820BDCA0F11F00092880F0B48102
:1013A000DFE800F0EBEAE9E8E7E6E5E4E30030280F
:1013B00008BF4C2000F05A8215DC2B2808BF4820BB
:1013C00000F054822C2808BF492000F04F822D28BD
:1013D00008BF4A2000F04A822F2808BF4B2000F0A7
:1013E000458200F091B9612808BF4D2000F03E828F
:1013F000682808BF4E2000F039826A2808BF4F20B5
:1014000000F034826B2808BF502000F02F8214E0D7
:10141000A4E1A1E19EE19BE198E195E192E18FE1F8
:101420008CE189E186E183E180E17DE17AE177E1A8
:10143000A8E073E170E16DE16AE100F065B943F69F
:10144000F273C11A984208BF7A2000F00F8277DC4D
:10145000B0F5D87F08BF662000F0088246DC12286D
:1014600008BF5C2000F002820DDC122880F04C8165
:10147000DFE800F088FD8888FC888888FBFAF9F8A6
:10148000F7F68888F5F4912808BF612000F0EE8116
:1014900014DC512808BF5D2000F0E881542808BF03
:1014A0005E2000F0E381842808BF5F2000F0DE8129
:1014B000902808BF602000F0D98125E1B0F5D07FE9
:1014C00008BF622000F0D281A0F58070A13808BF6B
:1014D000632000F0CB81012808BF642000F0C681A2
:1014E000022808BF652000F0C1810DE140F2A13360
:1014F000A0F2A131984208BF702000F0B78156DCFD
:1015000040F29223A0F29221984208BF6B2000F093
:10151000AD8138DCB0F5E07F08BF672000F0A68120
:10152000B0F5E87F08BF682000F0A081B0F5247F07
:1015300008BF692000F09A81A0F5007091381DE085
:1015400064E033E130E12DE12AE127E124E121E10A
:101550001EE11BE118E115E112E10FE10CE109E1E7
:1015600006E103E100E1FDE0FAE031E12EE12BE1EB
:1015700028E125E122E11FE11CE119E108BF6A2011
:1015800000F07481C0E0012908BF6C2000F06E817A
:10159000FE2908BF6D2000F06981FF2908BF6E2079
:1015A00066D0B1F5877F08BF6F2061D0ACE043F60D
:1015B0004A43C81A994208BF752059D015DCA1F5D5
:1015C0003060EE3808BF712052D000F6F870B0F5E8
:1015D000804008BF72204BD0392808BF732047D005
:1015E0003A2808BF742043D08EE0012808BF762037
:1015F0003ED0032808BF77203AD0052808BF7820BE
:1016000036D0062808BF792032D07DE0272908BFD0
:101610008E202DD017DCA1F10200232874D2DFE840
:1016200000F0EFEE73EDECEB73EAE9E8E773737348
:10163000737373737373E673E573E4E373E273E1D7
:1016400073E0DFDEDD00602908BF982010D032DCB7
:101650002C2908BF93200BD01CDC0AE0DFE0DCE083
:10166000D9E0D6E0D3E0D0E0CDE0CAE0B4E0B1E02C
:101670004FE0282908BF8F204BD0292908BF902090
:1016800047D02A2908BF912043D02B2908BF922098
:101690003FD039E0362908BF94203AD0372908BF17
:1016A000952036D0382908BF962032D05E2908BF51
:1016B00097202ED028E0992908BF9D2029D010DC42
:1016C000622908BF992024D0632908BF9A2020D01E
:1016D000942908BF9B201CD0972908BF9C2018D0B4
:1016E00012E09D2908BF9E2013D0B1F5687F08BF86
:1016F0009F200ED0A1F54070AE3808BFA02008D0C2
:10170000F22808BFA12004D05B4810600020704779
:101710000020ABE00120A9E00220A7E00320A5E023
:101720000420A3E00520A1E006209FE007209DE023
:1017300008209BE0092099E00A2097E00B2095E023
:101740000C2093E00D2091E00E208FE00F208DE023
:1017500010208BE0112089E0122087E0132085E023
:10176000292083E02A2081E02B207FE02C207DE0CF
:101770002D207BE02E2079E02F2077E0302075E0CF
:10178000312073E0322071E033206FE034206DE0CF
:1017900035206BE0362069E0372067E0382065E0CF
:1017A000392063E03A2061E03B205FE03C205DE0CF
:1017B0003E205BE03F2059E0402057E0412055E0CB
:1017C000422053E0432051E044204FE045204DE0CB
:1017D00046204BE0522049E0532047E045E042E0FC
:1017E0003FE03CE039E036E033E030E02DE02AE055
:1017F00027E024E021E01EE01BE018E015E012E005
:101800000FE0542032E0552030E056202EE05720E3
:101810002CE058202AE0592028E05A2026E05B20BE
:1018200024E07B2022E07C2020E07D201EE07E2042
:101830001CE07F201AE0802018E0812016E0822042
:1018400014E0832012E0842010E085200EE0862042
:101850000CE087200AE0882008E0892006E08A2042
:1018600004E08B2002E08C2000E08D20002111603C
:10187000024901EBC000704700000206289C0008E6
:101880009F2804D1087800281CBF02487047002018
:10189000704700003000090610B4C27801784FF09C
:1018A0000F0C01241AB3184A126801F1E02102F466
:1018B000E062C2F5E062C2F30722C2F104032CFA2F
:1018C00002FC42789A40837803EA0C031A4312011F
:1018D00081F80024007800F01F0104FA01F14009AA
:1018E000800000F1E020C0F8001110BC704701F04A
:1018F0001F0004FA00F04909890001F1E021C1F854
:10190000800110BC704700000CED00E0034940F07E
:10191000FD7040F080600860704700000CED00E052
:1019200010B506F005FE002010BD000038B50446D5
:10193000B0F9AC00FFF7ACFAA4F8AC00D4F8A800FA
:10194000008858B100EB8000400000230090044A5A
:101950001946204601F052FCA4F8AC00002038BD26
:10196000E31A000810B50446B0F93401FFF790FA05
:10197000A4F83401204604F0B1F8002010BDD0F8DE
:101980000C12097881B990F809220021002A88BF39
:10199000002209D9D0F8103243F82120491C90F8D0
:1019A0000932C9B28B42F5D80020704730B401EB40
:1019B000C102D0F808C002244FF0FF3304EB420408
:1019C0002CF804300023D0F808C0062404EB4202AF
:1019D0002CF8023030BCC9B206F094BB30B401EB35
:1019E000C102D0F808C004244FF0FF3304EB4204D6
:1019F0002CF804308368C9B213F812C02CF0010C23
:101A000003F812C030BC06F07DBB00002DE9F8439E
:101A1000064640694FF4C0550489B0690789DCB1B6
:101A2000BC4298BFDFF83C8016D8D6F8E8316A4649
:101A3000294630469847009941B90168C1F82C8081
:101A40000168C1F83C800068C0F85C80681C85B201
:101A5000601C84B2BC42E8D93046BDE8F84300219E
:101A600002F08EBB4D3500082DE9F05F0446406959
:101A700000270589A069002DB0F8088008BFBDE8DF
:101A8000F09F45459ABF4FF000094FF0020ABDE8AC
:101A9000F09F07EBC706A0680AEB460B30F90B0076
:101AA000FFF7F6F9A16821F80B00A168042000EB0C
:101AB000460B31F90B00FFF7EBF9A16821F80B0099
:101AC000A06800F81690A168062000EB460021F8F7
:101AD0000090781CC7B2681C85B24545D9D9BDE8CD
:101AE000F09F10B50446D0F8A80084B00088B0B1CB
:101AF00020686946007800F5E060ADF8000001203C
:101B00008DF8030000208DF8020094F87C008DF819
:101B10000400D4F8E40103F0ABF804B010BDB4F94C
:101B2000AC00FFF7B5F9A4F8AC0004B010BD00009C
:101B3000044A0029116814BF084321EA000010601C
:101B40007047000030380240044A0029116814BF71
:101B5000084321EA0000106070470000403802404E
:101B6000044A0029116814BF084321EA00001060EC
:101B70007047000020380240044A0029116814BF51
:101B8000084321EA0000106070470000443802401A
:101B9000044A0029116814BF084321EA00001060BC
:101BA0007047000024380240DFF88CC030B4DCF805
:101BB0000010224D11F00C0106D06C10042908BF52
:101BC000046002D008291DD00560DCF800100F2247
:101BD0001B4B02EA1111595C026822FA01F14160C3
:101BE000DCF80020072404EA92229A5C21FA02F22F
:101BF0008260DCF8002004EA52329A5CD140C16075
:101C000030BC70470F4A1168C1F380531168002B34
:101C100001F03F0114BFB4FBF1F1B5FBF1F1136822
:101C20001268C3F388135943C2F30142521C520095
:101C3000B1FBF2F10160C8E7083802400024F4006B
:101C4000A82400200438024038B51446D0F8E8C172
:101C50001D466A46E047009939B90179A14204D985
:101C600000680C2101EB04114550009838BD0000BC
:101C70002DE9F04782B000250446009528460195DD
:101C800000F0CEF810F0007F1EBF0E2002B0BDE8BD
:101C9000F087324E6946308980B2FFF711F900288B
:101CA0001CBF02B0BDE8F08737202D4F01994FF0DF
:101CB000060A4FF040094FF48068012C24D011F43B
:101CC000803F47D03189C7F808900904C7E9001060
:101CD000C7E90358384600F0E1F83720FEF7F4FD75
:101CE00000281CBF02B0BDE8F087C7F80890C7E91C
:101CF000005AC7E903581A4800F0D0F80620FEF74A
:101D0000E3FD02B0BDE8F08711F4802F22D03189C5
:101D1000C7F808900904C7E90010C7E9035810483C
:101D200000F0BCF83720FEF7CFFD00281CBF02B042
:101D3000BDE8F0870220C7F80890C7E9000AC7E9A4
:101D40000358074800F0AAF80620FEF7BDFD02B0D0
:101D5000BDE8F08702B02520BDE8F0872400002010
:101D6000002C00200149086070470000382C014019
:101D70000149086070470000382C01400149C1F852
:101D8000A0007047008025420149086070470000AC
:101D90008C8525420A4A01681160121D4168116054
:101DA000121D1168D0E9023C43EA0C03D0E904C0DB
:101DB0004CEA000021F0F701184308431060704717
:101DC000242C014010B50121C802FFF7E1FEBDE857
:101DD000104000214FF40060FFF7DABE01480068B0
:101DE000C0B27047102C0140034A0146002012681F
:101DF0000A4218BF01207047342C0140034A0146B3
:101E0000002012680A4218BF01207047342C01409C
:101E10000248006800F0030070470000002C0140F9
:101E2000034981B008440090006801B07047000089
:101E3000142C014000F0EABD044A0029116814BFC7
:101E4000084321EA00001060704700003C2C01406C
:101E50000E4A10B41168037DD0F808C0C46843EA84
:101E60000C03D0F804C021F0FF014CEA040C43EA53
:101E70000C03D0F800C0006943EA0C0321F4FC41D4
:101E800018430843106010BC70470000042C014048
:101E90000148006870470000802C0140094A016831
:101EA0001160121D1168D0E9013C43EA0C03D0E92E
:101EB00003C04CEA00006FF30A01184308431060A6
:101EC00070470000082C014001490860704700007D
:101ED000002C01402DE9F0430546406983B00E46D1
:101EE0004088002804BF03B0BDE8F083C6EBC601FC
:101EF00001EB410105EB8104A96994F82820498888
:101F00001044884284BF03B0BDE8F08369684FF095
:101F100080091F4F51F83000806B90F800804FF01F
:101F2000FF30A4F87400852084F82A0094F829C0B2
:101F3000238E94F832108DF800908DF801301B0A32
:101F40008DF802308DF8031000218DF804108DF803
:101F5000051004218DF8061005218DF8071028467C
:101F60006B46614606F06EF9E762A26F42B14146E8
:101F700028469047E06AB8421CBF03B0BDE8F08332
:101F8000F1B203B02846BDE8F04306F09DB800006A
:101F900000000405C1EBC10100B501EB410100EBFC
:101FA000810185B04A6B002A04BF8A6B4A630392A1
:101FB000012203ABCDE90032029201F13C0391F81A
:101FC0003220098E02F084F905B000BDC1EBC101D9
:101FD00001EB410130B400EB8101D1F838C00CEBCA
:101FE0000200202882BFFF2030BC70470020002A5A
:101FF00009D90CEB00051C5C0D44401CC0B285F8EF
:102000003C408242F5D8886B1044886330BC002085
:102010007047000070B51B4900244968032912D09D
:1020200000291CBF0129022929D1B0F5805F0AD0FF
:102030000025154EB0F5006F07D00020FFF718FE01
:10204000040013D01BE0272070BD0120FFF710FE15
:10205000040014D1357535604FF400607560C6E931
:10206000025009483561FFF7F3FE08E03575356029
:102070007560B560F56004483561FFF7E9FE2046FC
:1020800070BD000024000020E82B00202DE9F003A3
:102090009F49DFF880824C6880F856400989A0F893
:1020A0005410D8F800100A0E93090370C2F383038A
:1020B000437002F0030282700A0CC2700A0A0271B5
:1020C0004171D8F80420110E0901C180C388C2F300
:1020D000074143EA1113C38001F00F010172C2F3FB
:1020E0000721CB094372C1F380138372C1F34013FC
:1020F000C372C1F3001303730026467343460127DE
:102100009D682B0EC5F3074CC5F30729002C18BF9B
:10211000012C02D0022C3CD054E08907090D01614A
:10212000D1B2026942EA81010161016941EA931178
:102130000161C3F3C201017503F0070141754FEA64
:102140005C118175CCF38201C1754FEA8C71490F26
:102150000176027E494642EAD11202760269037E86
:102160009B1C07FA03FC521CA2FB0C394FEAEC74CF
:1021700006FB0C9C02FB04CC027A07FA02F2A3FBDA
:10218000024902650CFB029203FB0622C0E91242DF
:1021900018E09106890A0161016941EA03210161A0
:1021A000016941EA0C01016102694946521C46F18C
:1021B0000003DB0443EA5233D204C0E912234FF494
:1021C00000720265C1F3801242768906490E81765B
:1021D000827EE9B242EAD112827601F07F01C176B5
:1021E000D8F80C20110ECB090377C1F341134377C4
:1021F000C1F3820383778907090FC177C37FC2F3D5
:10220000074143EA9113C377C1F3401380F82030AC
:1022100080F8216001F0010180F82210C2F307214B
:10222000CB0980F82330C1F3801380F82430C1F348
:10223000401380F82530C1F3001380F82630C1F335
:10224000810380F8273001F0030180F82810C2F3E1
:10225000460180F8291080F82A702F4A11680B0E69
:1022600080F82C300B0C1B02C385B0F82EC0C1F3D4
:1022700007234CEA0303C385090601635168D0F8BC
:1022800030C00B0E4CEA03430363D0F830C0C1F3F7
:1022900007434CEA03230363D0F830C0C1F307239C
:1022A0004CEA0303036380F8341091680B0E80F846
:1022B00035300B0C1B068363D0F838C0C1F30723FD
:1022C0004CEA03438363836BC9B243EA0121816310
:1022D000D168836B43EA1162826390F83C30C1F3AA
:1022E000074243EA121380F83C301207120DC287EE
:1022F000C38FC1F307221A43C287C1F3460180F896
:10230000401080F841703046BDE8F003704700008F
:1023100024000020602900207029002008B50F4803
:1023200000210091008902040D4802600D224260E4
:102330004022C0E9022111010161FFF7AFFD0D202C
:10234000FEF7C2FA00281CBFFF2008BD0020FFF7DF
:1023500067FD0090C0F3432008BD0000240000206A
:10236000002C002010B5FFF7D9FF042804BF00207F
:1023700010BDFF280CBF0220012010BD30B583B076
:1023800000248DF8004031208DF8040001258DF8DF
:1023900005508DF806408DF8075001A8FFF77CFA2C
:1023A0003B208DF804008DF805508DF806408DF81F
:1023B000075001A8FFF770FA00F0C8F9FFF702FD17
:1023C00000F018FA8DF800009DF80000002835D1C3
:1023D00000F03EF88DF800009DF8000000282DD197
:1023E00018480475046044608460C4600461FFF7A9
:1023F0002FFD1548FFF74AFE8DF800009DF80000FC
:1024000098B91148B0F85400010410480160072140
:1024100041604021C0E9021409010161FFF73EFD5E
:102420000720FEF751FA8DF800009DF8000028B94A
:102430004FF40060FFF7EEFD8DF800009DF80000FE
:1024400003B030BDE82B002090290020002C002094
:102450002DE9F84F01200024ADF80000FFF7D8FC6B
:10246000002804BF2520BDE8F88FDFF8BCA1DAF80A
:102470000400042800F0D4806C4F4FF000080220C4
:10248000C7E900804FF48069C020C7F81090C7E901
:1024900002083846FFF702FD654D0024286810F059
:1024A000450F03D1286810F0450FFBD010F0040F42
:1024B00006D003240420FFF755FC002C7DD109E051
:1024C00010F0010F1ABF0124204640F2FF50FFF721
:1024D00049FCF2E70020FFF7A3FC564E30600420D1
:1024E000FFF79EFC70600820FFF79AFCB0600C209C
:1024F000FFF796FCF060DAF80400002818BF012806
:1025000003D0062818BF022847D14FF00300C7E9BF
:1025100000804FF04000C7F81090C7E90208434818
:10252000FFF7BCFC28684FF0030B6E46002410F048
:10253000450F03D1286810F0450FFBD010F0040FB1
:102540001CBF0324042002D0FFF70CFC24E010F091
:10255000010F1CBF01242046F6D1FFF73FFC584570
:1025600014D140F2FF50FFF7FDFB0020FFF758FCAD
:1025700010F4604F04BF000C30800DD010F4005FE9
:1025800018BF132408D110F4804F01D0102403E0A9
:1025900010F4004F18BF0F247CB9DAF804000428A7
:1025A0003ED0BDF80000CAF80800000438600920D9
:1025B0007860C020C7F8109000E031E0C7E9020859
:1025C0001A48FFF76BFC2868002410F0450F03D170
:1025D000286810F0450FFBD010F0040F05D003243D
:1025E0000420FFF7BFFBDCB909E010F0010F1ABFB0
:1025F0000124204640F2FF50FFF7B4FBF3E7002030
:10260000FFF70EFC0C4D28600420FFF709FC686002
:102610000820FFF705FCA8600C20FFF701FCE8602C
:102620002046BDE8F88F000024000020002C002088
:10263000342C0140702900206029002070B51F4E05
:102640000C46054690B04FF0FA513046FEF794FA2A
:1026500000213046FEF7BCFA3046FEF7C3FA4FF0D1
:10266000006000901648CDE901050020CDE9030483
:102670003115CDE905018900CDE9071009904FF426
:1026800040300A9004200B9003200C90C8020D905B
:1026900080100E9069463046FEF7BAFB01221021E9
:1026A0003046FEF79DFB20213046FEF75FFB0121FF
:1026B0003046FEF78DFA10B070BD0000586402403D
:1026C000802C014070B51F4E0D46044690B04FF06F
:1026D000FA513046FEF750FA00213046FEF778FAFC
:1026E0003046FEF77FFA4FF0006000901648CDE9C3
:1026F00001044020CDE9030500203115CDE9050195
:102700008900CDE9071009904FF440300A90042069
:102710000B9003200C90C8020D9080100E9069461B
:102720003046FEF775FB012210213046FEF758FBBC
:1027300020213046FEF71AFB01213046FEF748FA09
:1027400010B070BD58640240802C014070B582B05A
:1027500001210C20FFF7ECF9244D0C22082128461A
:10276000FEF7AFFC0C2209212846FEF7AAFC0C223A
:102770000A212846FEF7A5FC0C220B212846FEF76D
:10278000A0FC0C2211462846FEF79BFC184E0C229A
:1027900002213046FEF795FC02218DF805108DF8D8
:1027A000041000244FF470608DF806400121009061
:1027B0008DF8071069462846FEF734FC0421009185
:1027C00069463046FEF72EFCA81400908DF80740AD
:1027D00069462846FEF726FC0121C802FFF7CCF91E
:1027E00001218805FFF7A4F902B070BD000802407E
:1027F000000C02402DE9F84F4FF0000B8DF800B0AF
:102800007E487621D8460175C0F800B0C0F804B003
:10281000C0F808B0C0F80CB05C465F46D946C0F8B6
:1028200010B0FFF715FB0320FFF74EFB0120FFF769
:10283000A5FA73484FF48066C0F800B0C0F804B041
:10284000C0F808B0C0E903B6FFF728FB4FF0000A54
:10285000B50101E06D1E10D08020FFF7C5FA0028F9
:10286000F8D055B140F2FF50FFF77CFA8DF800A088
:102870009DF80000002852D102E04FF0030AF5E76E
:102880005F4D4FF4D57028600820686040202E61AD
:10289000C5E9020B2846FFF701FB5A4A4FF0000A30
:1028A0004FF48030116802E056490968401E11F06B
:1028B000450F35D010B111F0040F34D04FF0030A9A
:1028C0000420FFF74FFA8DF800A09DF800004FF0AC
:1028D000370A80B3C5E900BA40202E61C5E9020B72
:1028E0004748FFF7DBFA3720FDF7EEFF8DF80000D1
:1028F0004FF0400A3720C5F808A0C5E900B0C5E987
:1029000003B63F48FFF7CAFA3720FDF7DDFF8DF821
:1029100000009DF800104FF6FF7000294FD069E0CD
:102920000028C1D1CAE711F0400F1CBF4FF0000AC8
:102930004020C6D1C7E7FFE7334801214FF0804967
:102940004160D5E700273720C5E900704FF4806863
:10295000C5F810802A48C5E90267FFF79FFA3720BB
:10296000FDF7B2FF8DF800009DF80000D8BB45F8D8
:10297000049B292085E8C10121482D1FFFF78EFA0D
:10298000DBF8000010F0450F04D1DBF8000010F078
:10299000450FFAD010F0040F1ABF0327042040F2AD
:1029A000FF50FFF7DFF98DF800709DF80000D0B9F7
:1029B0000020FFF735FAC70F8046641C07E0564633
:1029C00049F48019DFF83CB049F0004982460FB95C
:1029D0005445B7D3544507D31B208DF800009DF80C
:1029E0000000BDE8F88F05E018F0804F02D00648DF
:1029F000022141609DF80000BDE8F88FE82B00201F
:102A0000002C0020342C01402400002010B54FF48D
:102A10008070FFF7F3F9214C40B1002020704FF493
:102A20008070FFF7A5F90120206130E00220FFF758
:102A3000E5F928B10220FFF79BF90220207026E07B
:102A40000820FFF7DBF920B10820FFF791F90420F7
:102A500007E02020FFF7D2F928B12020FFF788F9FE
:102A60000620207013E01020FFF7C8F920B11020D5
:102A7000FFF77EF90520F4E74FF40070FFF7BEF989
:102A800028B14FF40070FFF773F90720E9E7002140
:102A90004CF23A30FFF7D0F9207810BD2400002026
:102AA0002DE9F047284E0027089C15469846814698
:102AB00037703761F76025480760012140F22A30FE
:102AC000FFF7BAF90120FFF75FF921464846FFF703
:102AD000B5FD7068022803D10402690A41EAC855AD
:102AE0001B4E4FF480691020C6F81090C6E90040D4
:102AF0004FF04008C6E902873046FFF7CFF91020B3
:102B0000FDF7E2FE002818BFBDE8F0874FF0FF3167
:102B10001048C0E90014902181600221C0E9031728
:102B200001214161FFF736F91120C6F81090C6E97E
:102B30000050C6E902870648FFF7B0F9BDE8F04744
:102B40001120FDF7C1BE0000240000202C2C014004
:102B5000002C0020142C00202DE9F04F8046224844
:102B600083B015460C9F40684FF000091E4618B10F
:102B7000590241EAD556550218F0030F4FF4007A76
:102B80001BD00024002F88BF4FF0000B1FD960021C
:102B90004219CDF800A04BEB06031448FFF780FF65
:102BA00081464FF4007211494046FDF765FB641CF5
:102BB00008F50078A742EAD809E0012F0BD0CDE94B
:102BC00000A72A463346404600F012F8814603B07B
:102BD0004846BDE8F08F2A4633464046CDF800A06F
:102BE000FFF75EFFF2E7000024000020E829002044
:102BF0002DE9F05F2D4FDDE90A464FF0000815463C
:102C00009A46834687F80080C7F810804FF0010984
:102C1000C7F80C902648C0F80080494640F22A3098
:102C2000FFF70AF906FB04F15846FFF707FD0120FC
:102C3000FFF7AAF87868022803D10402690A41EA7A
:102C4000CA551C4F4FF4806B1020C7F810B0C7E96D
:102C500000404FF0400AC7E902A83846FFF71EF9C6
:102C60001020FDF731FE002818BFBDE8F09F4FF09F
:102C7000FF311148016006FB04F141609021816041
:102C80000221C0F81490C0E90318FFF783F812205E
:102C9000C7F810B0C7E90050C7E902A80548FFF718
:102CA000FDF8BDE8F05F1220FDF70EBE2400002005
:102CB0002C2C0140002C0020142C00202DE9F04188
:102CC00000251E4E691E7069002801BF306900286A
:102CD0003078002803D1002918BF491EF3D14FF0E6
:102CE0000007776116484FF0FF34016811F4005F68
:102CF0001CBF002C641EF8D1F06801280FD11148C8
:102D00000C21C0E900714021C0E9021709010161ED
:102D1000FFF7C4F80C20FDF7D7FD0546F76054EA2D
:102D2000050008BF042540F2FF50FFF71BF830787C
:102D3000002814BF30782846BDE8F0812400002028
:102D4000342C0140002C00202DE9F04100251E4EBE
:102D5000691E7069002801BF30690028307800289A
:102D600003D1002918BF491EF3D14FF00007776146
:102D700016484FF0FF34016811F4805F1CBF002C2F
:102D8000641EF8D1F06801280FD111480C21C0E968
:102D900000714021C0E9021709010161FFF77EF8C7
:102DA0000C20FDF791FD0546F76054EA050008BFC9
:102DB000042540F2FF50FEF7D5FF3078002814BFFD
:102DC00030782846BDE8F08124000020342C0140F2
:102DD000002C00202DE9F0472A4E0027089C1546BC
:102DE0009846814637703761F760274807600121B0
:102DF00040F22A30FFF720F821464846FFF762FCF0
:102E00000120FEF7C1FF7068022803D10402690A9D
:102E100041EAC8551D4E4FF040091020C6F80890F1
:102E2000C6E900404FF48068C6E903783046FFF7F2
:102E300035F81020FDF748FD002818BFBDE8F087E1
:102E40001820C6F80890C6E90050C6E903780F4874
:102E5000FFF724F81820FDF737FD002818BFBDE85C
:102E6000F0874FF0FF300A490122C1E900049020A9
:102E7000C1E90207C1E904720846FEF78BFF384634
:102E8000BDE8F087240000202C2C0140002C0020FD
:102E9000142C00202DE9F047234982B080460A9F78
:102EA0004968154600201E4619B15A0242EAD55615
:102EB0006D0218F0030F4FF400791ED00024002F8C
:102EC0008EBF4FF0000A02B0BDE8F0874FF40072E9
:102ED00041461648FDF7D0F960024219CDF800903E
:102EE0004AEB06031148FFF775FF641C08F50078EC
:102EF000A742EBD802B0BDE8F087012F09D0CDE999
:102F000000972A463346404600F012F802B0BDE86A
:102F1000F0872A4633464046CDF80090FFF75AFF27
:102F200002B0BDE8F087000024000020E82900205E
:102F30002DE9F05FDFF80891DDE90A454FF0000860
:102F400016461F46824689F80080C9F81080012085
:102F5000C9F80C003B48C0F80080012140F22A303B
:102F6000FEF76AFF05FB04F15046FFF7ABFB0120BB
:102F7000FEF70AFFD9F80400022803D10402710AFF
:102F800041EAC756304F4FF4806B1020C7F810B09D
:102F9000C7E900404FF0400AC7E902A83846FEF7EB
:102FA0007DFF1020FDF790FC002818BFBDE8F09FC2
:102FB000B9F80800000438603720C7E9010AC7E9FA
:102FC000038B2148FEF76AFF3720FDF77DFC0028C0
:102FD00018BFBDE8F09F1720C7F810B0C7E9005030
:102FE000C7E902A81848FEF759FF1720FDF76CFC47
:102FF000002818BFBDE8F09F1920C7F810B0C7E936
:103000000060C7E902A81048FEF748FF1920FDF745
:103010005BFC002818BFBDE8F09F4FF0FF300B4964
:103020000122086005FB04F048609020C1E9020815
:10303000C1E904820846FEF7ADFE4046BDE8F09FB8
:10304000240000202C2C0140002C0020142C0020F7
:103050002DE9F041012188B00846FEF769FD012104
:103060000803FEF789FD02258DF81C5000248DF819
:103070001E4003208DF81D00DFF8AC8038270126A4
:1030800006978DF81F6006A94046FDF7CBFF052285
:1030900003214046FEF715F8052204214046FEF7BD
:1030A00010F8052211464046FEF70BF801210803EF
:1030B000FEF76EFD0021E802FEF76AFDADF8004064
:1030C0004FF48270ADF802002802ADF80440ADF86C
:1030D0000860ADF80650ADF80A000720134DADF8B2
:1030E0000C70ADF81000ADF80E406946284600F0AF
:1030F0005BF80121284600F043F8FF24022128460E
:1031000000F047F80028F9D02146284600F04AF898
:103110000121284600F03DF80028F9D0284600F0AB
:103120003FF808B0BDE8F0810004024000300140E3
:1031300070B50B4C05460221204600F02AF8002805
:10314000F9D02946204600F02DF80121204600F054
:1031500020F80028F9D0204600F022F8C0B270BD57
:103160000030014001460548028822F03802028002
:10317000028811430180012100F002B800300140B3
:103180000029018814BF41F0400121F04001018075
:1031900070470246002012890A4218BF012070477A
:1031A000808970478181704710B402880B88B1F81C
:1031B00002C0CC8843EA0C03B1F804C002F44152C7
:1031C0004CEA040C43EA0C03B1F808C043EA0C03D0
:1031D000B1F80AC043EA0C03B1F80CC043EA0C038F
:1031E000B1F80EC043EA0C031A430280828B22F42A
:1031F00000628283098A018210BC70472DE9FF5F5B
:10320000DFF8909000251F46B9F9000016468A465F
:103210001F4C401CDDF8388005E00EB1217859B113
:10322000691C0DB218348542D8BF082DF5DB04B0F7
:103230004FF0FF30BDE8F09F854208BFA9F80000BD
:1032400002F0C8F983464FF6FF7138468F4228BF17
:103250004FF6FF70D9F80410594584BFA1EB0B015C
:10326000814205D90BEB0001C9F8041005F040F9C3
:10327000A6600098C4F80CA0606007EB0B00C4E9DE
:1032800004080120207004B02846BDE8F09F00002B
:1032900088A80020A02400204FF480610180202114
:1032A00001810549416001F5806101610021818151
:1032B000C181418181827047DC24002010B5044621
:1032C000D0F8C80184B069460088ADF8000000203D
:1032D0008DF802008DF80300D4F8E40101F0C8FC79
:1032E000D4F8D0112046884794F88200002804BF03
:1032F00004B010BD0121204600F042FFD4F8D411E3
:1033000004B02046BDE810400847000010B510206A
:1033100080F31188BFF34F8FBFF36F8F06F09AFAD7
:1033200018B104494FF080500860002080F31188E4
:1033300010BD000004ED00E03B4882B0016841F49C
:10334000700101603948016841F0010101603849AC
:103350004FF0000CC1F800C0026822F4102222F0E5
:1033600080720260031D334A1A60026822F48022D0
:1033700002600A1DC2F800C0CDF800C0CDF804C03C
:10338000026842F480320260026802F40032019264
:10339000009A521C0092019A1AB9009AB2F5A04FF5
:1033A000F2D1026812F4003F08BFCDF804C034D057
:1033B00001220192204AD2F800C04CF0805CC2F891
:1033C00000C01E4AD2F800C04CF4404CC2F800C005
:1033D0000A680A600A6842F400420A600A6842F415
:1033E000A0520A60164A1A60026842F080720260B7
:1033F000026812F0007FFBD0124A40F205701060A4
:10340000086820F003000860086840F002000860C7
:10341000086800F00C000828FAD10B494FF0006052
:10342000086002B07047000088ED00E000380240FC
:10343000083802401030002440380240007000403C
:1034400008544007003C024008ED00E010B5094C6C
:103450000121204600F027F8002808BF10BD0648CB
:103460000168491C01602046BDE81040012100F0C0
:103470000EB800000010004018000020002901884C
:1034800014BF41F0800121F0800101807047C943E1
:10349000018270470029018814BF41F0010121F029
:1034A000010101807047038A002280890B4200EAF3
:1034B00001001CBF0028012210467047002A8289A3
:1034C00014BF114322EA01018181704710B40288C0
:1034D0001C4BDFF874C0984218BF604511D0B0F1A2
:1034E000804F1CBFA0F18044B4F5806409D0A0F1E6
:1034F0008044B4F500641CBFA0F18044B4F540647E
:1035000003D14C8822F070022243A0F18044B4F52C
:1035100080541CBFA0F18044B4F5A05403D00C89A2
:1035200022F44072224302804A68C2620A880285FD
:10353000984212BF6045897A01864FF0010181826D
:1035400010BC704700000140000401402DE9F0412B
:10355000044690F8820020B1022A1CBF032A052AE3
:1035600003D04FF00000BDE8F0816269A088127AB4
:1035700000EBC200A1EB0000C0F3C706A16806EB98
:10358000C6054FF0020000EB4507C85FFDF780FC61
:10359000A168C853A168042000EB450831F9080070
:1035A000FDF776FCA1680022531E21F80800A068F0
:1035B000314600F81520D4F808C020462CF8073012
:1035C000A3684FF0060C0CEB450C23F80C2004F01C
:1035D00099FD0020BDE8F0812DE9F0414FF6FF7420
:1035E00001F0F8FF294E034600227068284900EBDD
:1035F000030CB6F900000028A4BF0225032723DB33
:10360000087810F0010F18D0086960450FD8486994
:10361000002808BF0D7010D0B3FBF0F800FB18387D
:10362000A0EB080008610F70A04206D204E0A0EBF6
:103630000C000861844200D90446501C02B2B6F95D
:10364000000018318242DBDD2046746004F050FF38
:10365000B6F9000000250E4C0028B8BFBDE8F08187
:10366000207810F0020F07D020F002002070A2682E
:1036700012B1E16860689047681C05B2B6F90000B5
:1036800018348542ECDDBDE8F0810000A024002064
:1036900088A800202DE9F0411020EFF3118480F379
:1036A0001188BFF34F8FBFF36F8F1A4D40F2244143
:1036B000284600F0C4F9002828D017480068174EA3
:1036C00082B271680B8893421DD34889401C48819F
:1036D000C889401C1FFA80FCA1F80EC00F89002089
:1036E000BC4508BFC8819A1A0B69C98923F8112003
:1036F00071684A890B899A4205D98881C8814881B5
:10370000888A401C8882284600F02EFA84F31188AB
:10371000BDE8F081001001408C6402401C000020D4
:103720002DE9F04F8146012197B08805FEF700FA98
:10373000DFF888B15846FDF755FA4020060103909E
:103740000024CDE90546079480020894CDE909409C
:103750004FF0030ACDE90B4ADFF864814FF00065B2
:10376000CDE900580D94694658460E94FDF750FB7C
:1037700046208DF8580004208DF859008DF85A40E5
:1037800001278DF85B7016A8FEF786F8012210213C
:103790005846FDF725FB4FF020515846FDF7ECF950
:1037A000DFF820B15846FDF71DFA0394CDE9054630
:1037B000E814CDE908404002CDE90A040794CDE9B8
:1037C0000CA4CDE90058694658460E94FDF720FB3D
:1037D000002210215846FDF703FB3B495846FDF7F0
:1037E000CBF901210846FEF7A3F901211020FEF7CD
:1037F000C3F9DFF8D880072209214046FDF761FCB4
:1038000007220A214046FDF75CFCA81402258DF82A
:1038100044508DF8455010908DF846408DF8477013
:1038200010A94046FDF7FEFB10A940461096FDF793
:10383000F9FB274E304600F07BF8ADF850400C20E5
:10384000ADF84C40ADF85200CDF84890ADF84E4080
:10385000ADF8544012A9304600F02AF925208DF821
:103860003C008DF83D508DF83E408DF83F700FA81C
:10387000FEF712F8012240F22441304600F000F930
:103880000121304600F02DF840F22441304600F08E
:10389000D6F8304600F068F901224021304600F0A9
:1038A00029F801228021304600F024F840213046DA
:1038B00000F014F817B0BDE8F08F0000B8640240C3
:1038C000041001408864024000080020000002400B
:1038D00000100140182938BF00207047C9430180FB
:1038E00070470029818914BF41F4005121F400512F
:1038F00081817047002A828A14BF114322EA0101A4
:103900008182704770B5094E04460D46002130464D
:10391000FDF75EF9F46029463046FDF7B5FA30460A
:10392000BDE870400121FDF753B9000088640240F2
:1039300010B5A0F18041B1F588312ED0A0F18041C1
:10394000B1F5884133D0A0F18041B1F5904139D033
:10395000A0F18041B1F598413FD0A0F18041B1F58F
:10396000A04145D0A0F18041B1F58A314BD0A0F102
:103970008041B1F5F04150D0A0F18041B1F5F8415E
:1039800018BF10BD0121C807FEF7EAF8BDE81040D6
:1039900000214FF00040FEF7E3B801211020FEF7B0
:1039A000F7F80021BDE810401020FEF7F1B8012122
:1039B0004804FEF7D5F8BDE8104000214FF4003070
:1039C000FEF7CEB801218804FEF7CAF8BDE8104022
:1039D00000214FF48020FEF7C3B80121C804FEF790
:1039E000BFF8BDE8104000214FF40020FEF7B8B842
:1039F00001210805FEF7B4F8BDE8104000214FF49E
:103A00008010FEF7ADB801212020FEF7C1F800219B
:103A1000BDE810402020FEF7BBB801218807FEF763
:103A20009FF8BDE8104000214FF08040FEF798B8A5
:103A30000246002012880A4218BF0120704710B4C5
:103A400001F01F020124C1F3421304FA02F24FF005
:103A5000000C012B04BF83891A4004D0022B0CBF39
:103A6000038A838A1A40090A008804FA01F108408F
:103A7000002A1CBF00284FF0010C604610BC7047A4
:103A8000C1F3421301F01F014FF0010C0CFA01F1D8
:103A9000012B08BF0C3003D0022B0CBF10301430A8
:103AA000002A026814BF114322EA01010160704735
:103AB00030B50446008A85B00D46C98820F44050D0
:103AC00008432082A089A9882A8920F40370114321
:103AD0006A8920F4A05010430843A081A08AA989D4
:103AE00020F440700843A0826846FEF75DF8A4F118
:103AF0008040B0F588301BBFA4F18040B0F58A301B
:103B000003980298A18911F4004F00EBC00101EB6A
:103B10000010296814BF49008900B0FBF1F0114A78
:103B20006FF0180CA2FB0031490909010B0903FBD6
:103B30000CF300EB8300A38913F4004F4FF0320322
:103B400014BF03EBC00003EB0010A2FB00204FEA00
:103B5000501014BF00F0070000F00F000843208150
:103B600005B030BD1F85EB518088C0F30800704759
:103B7000FEE700002DE9F0410446014612A000F0E6
:103B8000F7F8134D24030027C5F88072062005F5C9
:103B90002075FFF7CDFA01262E6000F087F82F6020
:103BA0002020FFF7C5FAC4F30740FFF7C1FAC4F3BA
:103BB0000720FFF7BDFAE0B2FFF7BAFA2E60BDE8C2
:103BC000F04100F073B8000066653A25780D0A00F0
:103BD0000080404270B582B001210220FDF7A8FFAD
:103BE00001248DF8044000258DF8065003208DF83F
:103BF000050000948DF8074069461448FDF712FA55
:103C0000134EC6F8804206F52076FFF721FA002011
:103C1000FFF7A8FA35609020FFF78AFA0020FFF737
:103C200087FA0020FFF784FA0020FFF781FAFF20CF
:103C3000FFF77EFA45EA0025FF20FFF779FA2843CF
:103C400034600449088002B070BD000000040240E6
:103C5000008040423C0000202DE9F041124F054613
:103C6000002016460C46C7F880020320FFF760FAD2
:103C7000C4F30740FFF75CFAC4F30720FFF758FAD4
:103C8000E0B2FFF755FA0024002E07D9FF20FFF716
:103C90004FFA2855601C84B2A642F7D80120C7F815
:103CA0008002BDE8F08100000080404270B5002530
:103CB000074C0126C4F880520520FFF739FAFF208F
:103CC000FFF736FAC4F8806210F0010FF2D170BD30
:103CD000008040422DE9F05F0746C8B2C0F580740D
:103CE0000E461546A24298BF14464FF00009DFF871
:103CF00078804FF0010BC8F880920620FFF718FA81
:103D0000C8F880B2C8F880920220FFF711FAC6F313
:103D10000740FFF70DFAC6F30720FFF709FAF0B2E4
:103D2000FFF706FA4FF0000A002C09D917F80A002D
:103D3000FFF7FEF90AF101001FFA80FA5445F5D8A1
:103D4000C8F880B2FFF7B2FFA54208BFBDE8F09FF8
:103D50002744281B85B22644B5F5807F94BF2C46A6
:103D60004FF48074C7E700000080404270470000B5
:103D70000FB4054B10B503A9044A029800F0A0F84F
:103D800010BC5DF814FB0000C1550008BC240020E5
:103D90000FB4084B10B504A902AA039800F090F8DC
:103DA000044602A9002000F019FB204610BC5DF873
:103DB00014FB0000DD43000802E008C8121F08C120
:103DC000002AFAD170477047002001E001C1121F9C
:103DD000002AFBD1704700002DE9F84F9A46DDE933
:103DE0000A491546D0F8E8310C9F6A4698470646BE
:103DF0000098002818BFBDE8F88F3079A8429CBF12
:103E00002348BDE8F88F4FB1306800EB051000780B
:103E100010F0010F1CBF1F48BDE8F88FBAF1000F6A
:103E200004BF4FF00060BDE8F88F0421306801EB5B
:103E30000518226850F80810914282BF2160164888
:103E4000BDE8F88F012101EB0511405C89F8000005
:103E50003068082101EB051150F8087041583A46C6
:103E60005046FCF709FA99F8000009280BD1306890
:103E7000216850F80800884205D200200AF807009F
:103E8000781C206000E027600020BDE8F88F00006B
:103E9000110009060100010605000405704770477E
:103EA0007047704770477047704770477047016AA6
:103EB0000978002918BF70478122002101F0DDBD7B
:103EC0002DE9FF4F8DB09B460F460446002606E0C5
:103ED00025280BD05A460F999047641C761C2078F1
:103EE0000028F5D111B03046BDE8F08F0025A84676
:103EF0000122984900E0054314F8013F203B02FAF3
:103F000003F00842F7D120782E2817D114F8010FBA
:103F100045F004052A280ED06FF02F022078A0F17A
:103F2000300109290AD808EB880102EB410100EBB6
:103F30000108641CF2E757F8048B641C20786C2895
:103F40000DD004DC4C2812D06A2811D104E074286A
:103F50000DD07A280CD10AE045F4001507E061780D
:103F600045F48015814202D1641C05F58015641C5E
:103F70002278692A45D008DC002AB3D0582A69D0B3
:103F8000632A10D0642A08D13BE0702A67D0732AD4
:103F900013D0752A5CD0782A5CD010465A460F9907
:103FA0009047761CD3E017F8040B8DF80000002032
:103FB0008DF80100E946012003E057F8049B4FF01B
:103FC000FF3069074FF0000501D40AE06D1C45453C
:103FD0000DDA8542FADB19F805100029F6D106E062
:103FE0006D1C8542FCDB19F805100029F8D12E4420
:103FF00004E019F8010B5A460F9990476D1EF8D24C
:10400000A5E00A200021CDE90801C5F302500228ED
:104010000DD001CFC117031E71F100030DDA4FF06F
:10402000000CD0EB0C006CEB01012D2308E0FF1D10
:1040300027F00707F7E80201EDE72B0504D52B234E
:104040008DF8283001233BE0EB0739D02023F7E738
:104050000A2000E010200021CDE9080107E010202F
:10406000002145F00405CDE908014FF00808C5F32B
:10407000025002280FD001CF00214FF0000A2B0779
:104080001FD5702A0DD0DDE908C38CF0100C5CEA56
:10409000030C0CD015E0FF1D27F00707F7E802011D
:1040A000EBE740228DF828204FF0010A0BE050EAA0
:1040B000010306D030238DF828308DF82920022303
:1040C0009A46582A04D024A20DF120090B9209E047
:1040D00026A2F9E7DDE90823FCF70FF90B9B9B5CAF
:1040E00009F8013D50EA0102F4D1ADEB090020309E
:1040F0000890680701D44FF001080899884502DD4F
:10410000A8EB010000E000208046002506E00AA898
:104110005A46405D0F9990476D1C761C5545F6DB5D
:1041200004E030205A460F999047761CB8F1000100
:10413000A8F10108F5DC05E019F8010B5A460F99C2
:104140009047761C0899481E08900029F4DC641CEE
:10415000C5E60000092801003031323334353637E6
:1041600038396162636465660000000030313233C3
:104170003435363738394142434445460000000063
:104180002DE9F04F044688466169002503200E8919
:10419000A16983B00F8994F88210002918BF002EFE
:1041A00074D04FF0000ACDF800A0CDF804A0CDF8EF
:1041B00008A0BE4298BF4FF0060967D8032807D071
:1041C000052864D00B2877D003B0FF20BDE8F08F1E
:1041D000606850F836008169096811F0004F53D1CA
:1041E000806AB8F1000F3ED00178002948D0F0294C
:1041F0001ED8A26805EBC50112F811305B1CDBB2BA
:1042000002F811300278934212D1A0686A4600F891
:1042100011A0CDF800A0CDF804A029462046CDF885
:1042200008A000F0A3FB002808BF05202CD148E01F
:104230000078FC2801D018B326E005EBC50BA06878
:1042400009EB4B0142182946204600F08FFB00285D
:10425000A06810F81B1014BF21F0010141F001010A
:1042600000F81B1010E00078FF2818BFFE280BD1C3
:10427000A06805EBC50110F8110010F0010F03D183
:104280002946204603F03EFF0B201AE01CE005EB18
:10429000C502A06809EB42021044DDE90023DDF805
:1042A00008C002604360C0F808C06946D4F8E40161
:1042B00000F0DEFCE8E7FFE7681CC5B2701C86B2C0
:1042C0000320BE427FF67AAF03B00020BDE8F08F36
:1042D0002DE9FF4F81B01446DDE90E67D0F8E831D3
:1042E00080466A46029998470546009800281CBFF8
:1042F00005B0BDE8F08F2879A0429EBF344805B0D4
:10430000BDE8F08F4FB1286800EB04100078022858
:1043100002BF304805B0BDE8F08F0121286801EBED
:10432000041110F801A0042101EB041147580C21DD
:1043300001EB041150F801903068002818BFB84212
:1043400081BF3760244805B0BDE8F08FD8F824203D
:10435000504604999047009000281CBF05B0BDE866
:10436000F08F0820296800EB041B326851F80B001D
:104370000499FBF781FFBAF1090F07D13068B84201
:1043800004D22A68002152F80B2011543760B9F189
:10439000000F09D0224629464046C8470090002811
:1043A0001CBF05B0BDE8F08F286800EB0410007852
:1043B00010F0040004BF05B0BDE8F08F2246D8F825
:1043C000EC3140460299984705B0BDE8F08F0000F7
:1043D0001100090602000106100007060A68531CB6
:1043E0000B6010707047704700207047074A917A41
:1043F000D07A814204BF00207047505C491CC9B28A
:1044000091720A2924BF0021917270474C29002023
:1044100001460020A1F18042B2F5803256D0A1F1D0
:104420008042B2F5823253D0A1F18042B2F5A0327F
:1044300004BF4FF480307047A1F18042B2F5A23240
:1044400004BF4FF400307047A1F18042B2F5A432AE
:1044500004BF4FF480207047B1F1804F36D0A1F1F6
:104460008042B2F5806233D0A1F18042B2F50062A1
:1044700004BF04207047A1F18042B2F5406204BF3E
:1044800008207047A1F18042B2F5805204BF10208D
:104490007047A1F18042B2F5A05204BF20207047BE
:1044A000A1F18042B2F5C05204BF40207047A1F193
:1044B0008042B2F5E05204BF80207047A1F18042F3
:1044C000B2F5005208BF4FF480707047012070476A
:1044D0000220704710B5044682B04FF44070FDF7DB
:1044E00015FA1821201DFFF7F5F92849206008600A
:1044F0002068FEF7D1FE4FF4FA20FFF711F920688B
:1045000001884068FFF7FEF900F098F8FCF752FECA
:10451000FFF760FBFDF732FF1D4C94F82C101DA037
:10452000FFF726FCB4F8541021A0FFF721FCD4E9D2
:104530001210090D41EA003121A0FFF719FC26A055
:10454000216DFFF715FC94F8561028A0FFF710FC1A
:1045500001222CA12C4800F0BFFD2C4901AA0870B3
:10456000694628A000F027FD0098810A28A0FFF7DF
:10457000FFFB2CA0FFF7FCFB0198810A2BA0FFF7A3
:10458000F7FB28A0FFF7F4FB02B010BD20000020CD
:104590009029002043617264204D616E75666163ED
:1045A000747572657249443A25640D0A0000000072
:1045B00043617264205243413A25640D0A000000B1
:1045C000436172642043617061636974793A256460
:1045D000204D420D0A0000004361726420426C6F5E
:1045E000636B53697A653A25640D0A00436172640E
:1045F0002043617264547970653A25640D0A0D0A8E
:1046000000000000313A00003C2C00205000002047
:10461000534420546F74616C2053697A653A256461
:10462000000000004D420D0A0D0A000053442046D0
:104630007265652053697A653A25640070B5002477
:104640001F4882B021468472C47204734FF4FA7317
:10465000A0F13002022502EB011003810571847282
:10466000C4720473481CC1B20329F4D31548106006
:10467000154810611548106201211120FDF758FA04
:104680008DF804408DF8064001241020104E8DF85E
:10469000074000908DF8055069463046FCF7C2FC93
:1046A0000821009169463046FCF7BCFC8DF80750A4
:1046B000694608480094FCF7B5FC02B070BD0000E4
:1046C0004C290020791100088D110008A111000863
:1046D00000100240000002402DE9F0470025DFF8FD
:1046E000BC804FF0010904272E4608EB0514206812
:1046F00080470028207936D0042838BF277147D357
:1047000008283CBF401C207142D3A07A38B905EB81
:104710004500401C84F80A90C0B200F041F820899E
:10472000002835D0E18881420CD2481C80B2E0805C
:10473000218988422CD105EB4500C01CC0B200F095
:104740002FF825E0E07A18B3207B401CC0B220731C
:10475000E17A88421CD305EB4500401C2673C0B2A9
:1047600000F01EF814E0042888BF27710ED8002836
:104770000DBFA07A401E2071012807D105EB45002E
:1047800000F10200A672C0B200F00AF8E6802673BB
:10479000681CC5B2032DA8D3BDE8F0871C290020F2
:1047A0000549CA7A8854C87A401CC0B2C8720A281F
:1047B00024BF0020C87270474C2900202DE9FF4F0C
:1047C000DFF88C91634D644E644FDFF8948185B0BF
:1047D00092468B460446484518BFAC4204D0B442CA
:1047E0001CBFBC42444505D1FFF712FE0121FDF775
:1047F000C3F904E0FFF70CFE0121FDF7A5F9BBF1B9
:10480000000F1BD057484C4518BFAC4208D0B442EB
:1048100018BFBC4204D044451CBF0068400800D10A
:104820000068BBF1640F10D242F20F714A1CB0FB5A
:10483000F2F0B0FBFBF0401E80B219E000212046F0
:10484000FEF728FE09B0BDE8F08F40F6B8318B4581
:1048500009D2454A6321A2FB00204009B0FBFBF0CE
:10486000401E80B204E0B0FBFBF00021401E80B28D
:1048700001900020ADF80010ADF80800ADF802007E
:104880008DF80A0069462046FEF720FE01212046E9
:10489000FEF7F4FD012211462046FEF70FFE01212E
:1048A0002046FEF7F7FD00204C4514BFBC421920FE
:1048B0003DD0B4F1804F08BF1C2038D0A4F1804116
:1048C000B1F5806108BF1D2031D0A4F18041B1F560
:1048D000006108BF1E202AD0A4F18041B1F54061DB
:1048E00008BF322023D0A4F18041B1F5805108BF28
:1048F00036201CD0A4F18041B1F5A05108BF37206B
:1049000015D0AC421ABFA4F18041B1F5E0512C2082
:104910000DD0B44208BF182009D0444508BF1A2062
:1049200005D0A4F18041B1F5C05108BF2B208DF80E
:104930000C008DF80DA008988DF80E0001208DF860
:104940000F0003A8FCF7A8FF09B0BDE8F08F000036
:1049500000000140000401400040014000440140CB
:1049600000480140042400201F85EB512DE9F74F3A
:1049700088B017460898426910895289C00000EB38
:10498000C1030898D20002EBC1014068002601EB88
:1049900000090344D9F800003546B246D0F808B003
:1049A000186880690088C0F30A003880BE70CDF8AE
:1049B00010A0CDF814A01820D9F8001000EB0610B4
:1049C00008580268110C12F0FF042ED005EB040801
:1049D000B8F1400F29D8631E012202EBD3030693DE
:1049E00000880DF1180C039207ABCDF800C0CDE99B
:1049F000013AC0F30720024604AB0898FFF7ECF930
:104A000018B10BB0FF20BDE8F08F07EBD50105F022
:104A10000700091DCDE9001000231A46CDF808A0B3
:104A200004A92046FBF7F6FF4546701CC6B29BF86A
:104A30000000B042BBD8691E012000EBD100F87025
:104A40000BB00020BDE8F08F0A88D3090F2B28BFD8
:104A50007047DFE803F01808341F1F1F1F1F1F1FB8
:104A60001F2626342D00802A06D090F87F20002AA9
:104A700008BF704701F094B890F88010002908BF73
:104A8000704702F02DBF026A1278002A08BF7047F3
:104A900001F099B890F88220002A08BF704701F011
:104AA0007DB990F87E20002A08BF704701F0ACBAAB
:104AB00090F88120002A08BF704701F0E3B87047E2
:104AC0002DE9F34F83B00126039800248DF8096087
:104AD000654FA0F180428DF80A404FF0020BDFF8DD
:104AE00084A18DB28DF80B604FF0060907F10C0818
:104AF000B2F5C842314658465DD0FDF719F8092293
:104B000005215046FCF7DDFA092206215046FCF744
:104B1000D8FA8DF804B060208DF805B000908DF8BB
:104B200006408DF8076069465046FCF77BFA012184
:104B30008806FDF709F80398FBF7D0FC3846FBF729
:104B400053FEBC71FC713C727C72BC72FC72BC7016
:104B5000FC700520387187F805903D803946039830
:104B6000FBF758FD0E20FBF729FE0E2088F80A00FF
:104B700088F80B4088F80C60A8F80040A8F80240BC
:104B8000A8F80440A8F80640A8F8084088F80D6086
:104B900007F10C00FBF7C0FC012202210398FBF790
:104BA00031FD40208DF8080002A8FCF775FE05B025
:104BB0000120BDE8F08FFCF7BBFF09220821504619
:104BC000FCF77FFA092211465046FCF77AFA8DF875
:104BD00004B04FF440708DF805B000908DF8064099
:104BE0008DF8076069465046FCF71CFA012148061B
:104BF000FCF7AAFF0398FBF771FC1B48FBF7F4FDD9
:104C0000BC71FE713C727C72BC72FC72BC70FC7038
:104C10000520387187F805903D8013490398FBF70C
:104C2000F9FC88F80A4088F80B4088F80C60A8F86E
:104C30000040A8F80240A8F80440A8F80640A8F8E8
:104C4000084088F80D600948FBF766FC0122022144
:104C50000398FBF7D7FC14208DF8080002A8FCF796
:104C60001BFEA4E7000402406CA8002078A80020E6
:104C700010B586B00A880092002201928B788DF8D8
:104C800009308DF80820CA788DF80A20CB780022E8
:104C9000002B88BF6B460CD901EB020C9C189CF8CA
:104CA00004C084F80BC0521C91F803C0D2B29445E2
:104CB000F2D86946FBF7A8FD04280CBFFF200020AE
:104CC00006B010BD8AB0002000900190024602900C
:104CD0001821142004F03CFA284F294E002838608F
:104CE0001CBF6D4604AC2ED00023642204A9386892
:104CF00004F05AFA0028F7D00598ADF800009DF8A6
:104D00001D008DF802009DF81E1000208DF8031084
:104D1000002908DD21182A18C97B11719DF803109C
:104D2000401C8142F6DCBDF800009DF8101000F038
:104D30007F000129D8D10528D6D2DFE800F0030C86
:104D400010141800D0E70FA0FFF712F842F210700D
:104D500003F084FEF7E730680028C5D00AE07068E9
:104D60000028C1D006E0B0680028BDD002E0F0689D
:104D70000028B9D06946FFF767FEB5E7400000207C
:104D80002C2C0020437265617420746865204341B7
:104D90004E4F70656E205175657565206661696C52
:104DA000656421200D0A000000B583B00B490F2077
:104DB000CDE9000100234FF4007209A10A4804F074
:104DC00071FC0A48406800281CBF03B000BD08A061
:104DD00003B05DF804EBFEF7CBBF000044000020F9
:104DE00043414E4F70656E00C54C000840000020E6
:104DF00043414E4F70656E206461746170726F63E1
:104E00006573732074687265616420637265617490
:104E10006564206661696C6564210D0A000000000C
:104E200010B504460020E070401EE062204600F00D
:104E300039FE00281CBF042010BD94F82F0294F8FE
:104E40002E1241EA0020A0F52A4155391CBF03204B
:104E500010BD94F83000E9281CBFEB28E82820D1C9
:104E6000124804F166014FF0030211F8013B10F8FB
:104E700001CB521EA3EB0C0302D0002BF5D000E0B7
:104E80008BB10B4804F18201052211F8013B10F8A7
:104E900001CB521EA3EB0C0302D0002BF5D000E097
:104EA0000BB1022010BD002010BD0000A455000869
:104EB000A855000810B501281CBF012010BDFDF742
:104EC0005DFA002818BF022010BD08B501281CBFDC
:104ED000042008BD009300230846FDF73DFE10B9ED
:104EE000FDF7ECFE08B1012008BDFDF73BFA0028F4
:104EF000FBD108BD012814BF01200020704708B570
:104F000001281CBF042008BD009300230846FDF7BC
:104F1000C1FF10B9FDF718FF08B1012008BDFDF76A
:104F200021FA0028FBD108BD70B5050013D0164E3C
:104F30003068854204BF002070BD03F0CFFC6C696F
:104F400003F0ECFCF06B84421CBF306C84420BD14C
:104F50004FF0020070BD4FF0100080F31188BFF3D6
:104F60004F8FBFF36F8FFEE70848844205D1A86AD0
:104F7000002808BF0320EBD170BD0548844216BF4E
:104F8000002C0420012070BD1824002030300020A7
:104F90001C30002010B50446054B002241F20301ED
:104FA000FCF752FED4F80C020021017010BD000085
:104FB0007F190008704730B583B00D4600211446B4
:104FC000009101AA694600F013F800281CBF03B045
:104FD00030BD019B59695B89891E01FB03FC009967
:104FE0004B434FEA5C0129605908216003B030BD92
:104FF0002DE9F74386B0144689460022694606A883
:1050000000F0F6F85FEA00085AD100982060009896
:10501000D0E90416B21E914298BFC9F800104FD9CA
:1050200001780025012907BF02240290076A0024A5
:1050300018D1214602A800F02CFBB0F1FF3F0AD0A6
:1050400001280BD0002808BF6D1C0098641C406923
:105050008442EED32CE04FF0010829E04FF0020823
:1050600026E054B939467F1C009800F01BFD5FEA2A
:1050700000081DD100980146037801EB0400022BC3
:1050800000F1300220D0D07892F802C04CEA002023
:1050900092F801C012784CEA002042EA002030F079
:1050A000704008BF6D1C201DC0F30804761ED8D1C7
:1050B000C9F8005000980561017941F001010171C2
:1050C00009B04046BDE8F0835078127852EA0020DB
:1050D00008BF6D1CA01CE7E717B581B01446029805
:1050E0000090684600F040FB0028BEBF0B2004B0D3
:1050F00010BD0C4B002253F82010002918BF0A7075
:105100000199002918BF0A7043F82010002C02BF33
:10511000002004B010BD002201A902A800F068F828
:1051200004B010BD48A900202DE9F04383B01F460C
:10513000DDE90A8516468946044602AB00F074FA9A
:10514000A8BB012E02D0022E06D030E09DF8081038
:10515000204602F0B9FF2AE09DF80800C0EBC0002D
:1051600000EB400004EB8000B0F97400FBF790FE08
:1051700001469DF80800C0EBC00000EB400004EBC6
:105180008000A0F874109DF808008521C0EBC000D5
:1051900000EB400004EB800080F82A109DF8080026
:1051A000C0EBC00000EB400004EB8000C562802330
:1051B0008DF800308DF801703B0A8DF802308DF8C3
:1051C00004502B0A8DF805302B0C8DF806302B0E71
:1051D0008DF80730204631464A468DF803806B46ED
:1051E00003F030F8002818BFFF2003B0BDE8F083BB
:1051F0002DE9F04F85B0002790460E460F6000F075
:10520000B3FA050042BF0B2005B0BDE8F08FE448BB
:1052100050F82540002C02BF0C2005B0BDE8F08FEF
:105220003460207808F0FE0628B16078FFF762FE4F
:1052300010F0010F15D02770E8B26070FFF73AFE4A
:1052400010F0010F1EBF032005B0BDE8F08F002E47
:1052500018BF10F0040F0DD005B04FF00A00BDE8E4
:10526000F08F002E14BF10F0040F0020F4D105B011
:10527000BDE8F08F4FF0000529462046FFF7D0FD2E
:105280004FF0FF394AF6552A022804BF0021E846AC
:1052900062D104EB011090F8F22100F5F770002ABA
:1052A00008BF002009D0C27A837A43EA0222437AF7
:1052B000007A43EA022240EA022048F82100491C11
:1052C0000429E6D3002658F8265095B1E770294600
:1052D0002046C4F82C9000F0E5FB002818BF0420FD
:1052E00035D194F82F0294F82E1241EA002050454F
:1052F00001D003202BE094F83000E9281CBFEB28F4
:10530000E82823D104F16601A6A04FF0030211F8AA
:10531000013B10F801CB521EA3EB0C0302D0002B73
:10532000F5D000E073B104F182019FA0052211F8CD
:10533000013B10F801CB521EA3EB0C0304D0002B51
:10534000F5D003E0002002E0002BFBD00220022871
:1053500002D3761C042EB6D3042802BF012005B068
:10536000BDE8F08F022869D294F83C0094F83B1015
:1053700041EA0020B0F5007F60D194F8470094F82E
:10538000461051EA00210DD194F8570094F85610B8
:1053900041EA002094F8551041EA002094F8541096
:1053A00041EA0021A16194F84000A070012818BFD3
:1053B00002286AD194F83D6000FB01F86681EEB3E3
:1053C000A6F10100064260D194F8420094F8412011
:1053D00042EA0022228112F00F0F56D194F84400C5
:1053E00094F8433053EA00200DD194F8530094F818
:1053F000523043EA002094F8513043EA002094F8F8
:10540000503043EA002094F83F3094F83EC05CEA04
:1054100003233AD003EB080C0CEB121C844534D860
:10542000A0EB0C00B0FBF6F040B1DFF884B1002631
:10543000584598BF03264FF6F57B00E025E0584518
:1054400098BF022640F6F57B584598BF012600D943
:10545000DEB1801CAC44C4F828C02B446061C4E9B0
:105460000753032E15D082B103EB08026262022EAD
:105470000FBF400000F0010200EB400002EB5000C3
:1054800000F2FF10B1EB502F1ED205B00D20BDE889
:10549000F08F94F85B3094F85AC05CEA032308BF9D
:1054A000002AF2D194F85F2094F85E304FEA800031
:1054B00043EA022294F85D3043EA022294F85C3019
:1054C00043EA02226262DBE7C4F810904FF08000EA
:1054D000C4F80C902071032E57D194F8610094F811
:1054E000601041EA002001284FD1691C204600F0DD
:1054F000D9FAE0BB277194F82F0294F82E1241EAF2
:105500000020504541D194F8330094F8321041EA1C
:10551000002094F8311041EA002094F8301041EA5C
:1055200000202449884230D194F8170294F81612CA
:1055300041EA002094F8151241EA002094F8141270
:1055400041EA00201C4988421FD194F81B0294F8BC
:105550001A1241EA002094F8191241EA002094F846
:10556000181241EA0020206194F81F0200E00CE0CC
:1055700094F81E1241EA002094F81D1241EA00201E
:1055800094F81C1241EA0020E0600C49267008885B
:10559000401C0880E08005B00020BDE8F08F0000CE
:1055A00048A90020464154004641543332000000CF
:1055B000F5FFFF0F5252614172724161B824002021
:1055C00003490A8812F0400FFBD0C2B28A807047AC
:1055D0000010014003498868096888428CBF401A5E
:1055E000081A704794240020006800787047002350
:1055F000C3EBC30C0CEB4C0C00EB8C0C9CF82AC0DE
:10560000BCF1000F05D05B1C13F0FF03F0D0FF20AE
:1056100070471370C3EBC30202EB420200EB82003F
:1056200080F829100020704730B44FF0000CCCEB0C
:10563000CC0404EB440400EB840494F82A50002DBD
:1056400018BF852D0ED094F828508D4204BF94F8D1
:105650002940944206D1002B18BF83F800C00020D7
:1056600030BC70470CF1010C1CF0FF0CDFD030BCDB
:10567000FF207047C1EBC10101EB410100EB81004C
:10568000416B00290EBF0020806B081A10600020BB
:1056900070472DE9F04104680D46022924BF606976
:1056A000A84209D920784FF0FF36012808D0F70D1D
:1056B00002282BD003283BD001263046BDE8F081DC
:1056C000206A05EB550700EB5721204600F0EAF968
:1056D0000028F2D1C7F3080020447F1C90F83080E6
:1056E000206A00EB5721204600F0DCF90028E4D1C5
:1056F000C7F30800204415F0010F90F8300048EA85
:10570000002014BF0609C0F30B06D6E7206A00EBA1
:105710001521204600F0C6F90028CED107EA450041
:10572000204490F8311090F8300040EA0126C4E798
:10573000206A00EBD511204600F0B4F90028BCD156
:1057400007EA8500204490F8331090F8322042EAAE
:10575000012190F8312090F8300042EA012140EA1E
:10576000012020F07046A8E710B4016884464FF08D
:10577000FF340B0014D011F8012B212A13D33A2A3D
:10578000F9D11A78A2F1300009289CBF981C8842F0
:1057900006D1A2F130000328BCBF0446CCF80010AB
:1057A000204610BC704710BC00207047F8B5054675
:1057B0001D4B002241F21701FCF746FA002685F83E
:1057C000E061D5F89C003446007800281AD9D5F855
:1057D000A00030F824000004000C0CD000EB800086
:1057E0004300124A214628460096FDF707FDD5F8EA
:1057F000A41021F81400601CC4B2D5F89C000078F5
:10580000A042E4D8D5F8A8000088002808BFF8BD59
:1058100000EB80004300064A002128460093FDF774
:10582000EDFCA5F8AC00F8BD2D190008ED09000845
:10583000E31A00082DE9F8439146DDE90875C1EB4C
:10584000C10C00260CEB4C02984600EB8204022DA2
:1058500018BF032D29D0042D18BF052D25D0B4F96C
:105860007400FBF715FBA4F8740084F82890A4F8E2
:10587000308084F8327084F82A5084F82B60666394
:10588000A66384F85C6084F85D6084F85E602666D8
:10589000666684F8686084F8696084F86A6084F8F1
:1058A00073600020A667BDE8F88347F23053024AD0
:1058B0000096FDF7A3FCD6E7D51E0008024800219C
:1058C00081604160704700009424002010B50446B8
:1058D000FFF76CFF2046BDE8104000F0FFB870B540
:1058E00006460546D0F89C0000240078002810D910
:1058F000D5F8A40030F91400FBF7CAFAD5F8A410C3
:1059000021F81400601CC4B2D5F89C000078A042B5
:10591000EED8B5F9AC00FBF7BBFAA5F8AC00B6F9C8
:105920003401FBF7B5FAA6F8340170BDC1EBC10133
:1059300001EB410110B400EB8101D1F838C00CEB50
:105940000200202899BF4C6BA042FF2010BC88BFEA
:1059500070470020002A09D90CEB00040C4494F88D
:105960003C401C54401CC0B28242F5D8886B1044A5
:10597000886310BC0020704782B02348FEF7AAFD60
:10598000224C2148606103F05FF821460320CDE9F5
:10599000000100234FF400721DA1204803F082FE95
:1059A0000420211DCDE90001C20100231CA11F48D4
:1059B00003F078FE04F108010520CDE90001002381
:1059C0004FF400721AA11D4803F06CFE04F10C01A3
:1059D0000620CDE9000100234FF4007218A11B48F6
:1059E00003F060FEFFF7E0F9FFF768FFFBF7B4FB99
:1059F00003211748FFF764F803F01CFB206102F055
:105A000095FE03F085F9FEE7C02400200000002089
:105A1000765461736B5461736B310000358E0008EE
:105A2000765461736B5461736B320000BD8F000854
:105A3000765461736B5461736B330000DD8F000823
:105A4000765461736B5461736B340000FD8F0008F2
:105A50000064004000B583B041F4E061ADF800108F
:105A600001218DF8021000218DF80310D0F8E40117
:105A70006946FFF7FDF803B000BD00B583B0002311
:105A8000ADF800308DF802308DF8042002238DF837
:105A900005108DF80330D0F8E4016946FFF7E8F807
:105AA00003B000BD70B50446C06A0D460026A8428A
:105AB00011D0204602F014FE06000CD160780123BC
:105AC0002A4604F13001FFF700FA00281CBF4FF00E
:105AD000FF350126E562304670BD000038B504464A
