:020000040800F2
:1000000028820020650200088D16000839150008B6
:10001000891600088D040008053F00080000000054
:10002000000000000000000000000000AD0100081A
:10003000811100080000000001020008CD3800080E
:100040007F0200087F0200087F0200087F0200088C
:100050007F0200087F0200087F0200087F0200087C
:100060007F0200087F0200087F0200087F0200086C
:100070007F0200087F0200087F0200087F0200085C
:100080007F0200087F0200087F0200087F0200084C
:10009000910400087F0200087F0200087F02000828
:1000A0007F0200087F0200087F0200087F0200082C
:1000B0007F0200087F0200087F0200087F0200081C
:1000C0007F0200087F0200087F0200087F0200080C
:1000D0007F0200080D3B00087F0200087F02000835
:1000E0007F0200087F0200087F0200087F020008EC
:1000F0007F0200087F0200087F0200087F020008DC
:100100007F020008211C00087F0200087F0200080F
:100110007F0200087F020008693900087F0200089A
:100120007F0200087F0200087F0200087F020008AB
:100130007F0200087F0200087F0200087F0200089B
:10014000ED0400087F0200087F0200087F0200081B
:100150003D0D00087F0200085D0D00087F020008C9
:100160007F0200087F0200087F0200087F0200086B
:100170007F0200087F0200087F0200087F0200085B
:100180007F0200087F020008DFF80CD000F0EEF8D4
:1001900000480047515300082882002030BF72B643
:1001A000704762B6704780F3088870472A4B196819
:1001B0000868B0E8F04F80F30988BFF36F8F4FF005
:1001C000000080F3118870470000000006480068B6
:1001D000006880F3088862B661B6BFF34F8FBFF343
:1001E0006F8F00DF00BF00BF08ED00E0DFF80C00FC
:1001F000016841F470010160704700BF88ED00E0C4
:10020000EFF30980BFF36F8F134B1A681EF0100FC6
:1002100008BF20ED108A20E9F04F106008B44FF0BD
:10022000100080F31188BFF34F8FBFF36F8F09F079
:100230002BFD4FF0000080F3118808BC1968086896
:10024000B0E8F04F1EF0100F08BFB0EC108A80F33A
:100250000988BFF36F8F704728000020EFF30580F7
:10026000704700000648804706480047FEE7FEE763
:10027000FEE7FEE7FEE7FEE7FEE7FEE7FEE7FEE756
:10028000013900088901000840EA01039B0703D0F7
:1002900009E008C9121F08C0042AFAD203E011F8C5
:1002A000013B00F8013B521EF9D27047D2B201E087
:1002B00000F8012B491EFBD270470022F6E710B56B
:1002C00013460A4604461946FFF7F0FF204610BDC4
:1002D000421C10F8011B0029FBD1801A704730B571
:1002E00004460020034600E05B1C934203D2E05C1E
:1002F000CD5C401BF8D030BD034611F8012B00F84F
:10030000012B002AF9D1184670472DE9F05F054608
:10031000002092469B4688460646814640241BE0C4
:10032000284641464746224600F041F853465A4681
:10033000C01A914110D311461846224600F028F801
:100340002D1A67EB01084F4622460120002100F0DC
:100350001FF817EB00094E41201EA4F10104DFDC59
:10036000484631462A464346BDE8F09F064C074DB5
:1003700006E0E06840F0010394E807009847103475
:10038000AC42F6D3FFF704FF08A8000828A800082D
:10039000202A04DB203A00FA02F100207047914045
:1003A000C2F1200320FA03F3194390407047202A3A
:1003B00004DB203A21FA02F00021704721FA02F30F
:1003C000D040C2F120029140084319467047000016
:1003D0001CB51948012100234A02CDE9001017A1DC
:1003E00019480AF049F81948022100230A02CDE908
:1003F000001017A119480AF03FF8194803210023FB
:100400004FF40072CDE9001016A119480AF034F833
:10041000184804210023CA01CDE9001016A119488B
:100420000AF02AF804F04AFC04F01EFF03211648E3
:1004300004F0D0FA1CBD0000000000207654617367
:100440006B5461736B310000719D00080400002043
:10045000765461736B5461736B320000ED9E00083B
:1004600008000020765461736B5461736B33000095
:10047000159F00080C000020765461736B54617363
:100480006B3400003D9F00080064004000BFFEE7A1
:1004900000B587B00020009009F050F902AA0021B1
:1004A0000F4800F084F901208DF804000D48006821
:1004B00030B100236A4601A90A48006809F01AFF12
:1004C00009F066F9009848B1009838B14FF08050B3
:1004D00005490860BFF34F8FBFF36F8F07B000BDB2
:1004E00000640040A800002004ED00E000B587B0E3
:1004F0000020009009F022F902AA00210F4800F024
:1005000056F901208DF804000D48006830B1002331
:100510006A4601A90A48006809F0ECFE09F038F9BA
:10052000009848B1009838B14FF0805005490860F4
:10053000BFF34F8FBFF36F8F07B000BD006800405F
:10054000A800002004ED00E010B504460B488442EA
:1005500009D10121480601F011FA00214FF0007085
:1005600001F00CFA08E00121880601F007FA0021E9
:100570004FF0806001F002FA10BD000000640040FE
:1005800010B50021837A012202FA03F13D4A126874
:1005900042F001023B4B1A603A4A1C3212688A430D
:1005A000384B1C331A60027BCAB9364A0C321268C7
:1005B0008A43344B0C331A604288C38842EA0343AF
:1005C000304A4032847A42F834300288838842EAE2
:1005D00003432C4A4032847A02EBC4025360027B0C
:1005E000012A19D1274A0C3212680A43254B0C33D1
:1005F0001A604288038842EA0343224A4032847ADE
:1006000042F83430C288838842EA03431D4A4032AC
:10061000847A02EBC4025360C27A3AB9194A121DB5
:1006200012688A43174B1B1D1A6006E0154A121DFB
:1006300012680A43134B1B1D1A60028932B9114A12
:10064000143212688A430F4B14331A600289012A4C
:1006500006D10C4A143212680A430A4B14331A604A
:10066000427B012A06D1074A1C3212680A43054B15
:100670001C331A60034A126822F00102014B1A600F
:1006800010BD0000006600401AB143690B4343618E
:1006900002E043698B434361704730B50246002056
:1006A0000023146824F002041460146844F0010468
:1006B000146000E05B1C546804F001041CB94FF6A0
:1006C000FF74A342F6D1546804F001040CB9002071
:1006D0006CE08C79012C04D1146844F0800414601F
:1006E00003E0146824F080041460CC79012C04D158
:1006F000146844F04004146003E0146824F04004DB
:1007000014600C7A012C04D1146844F020041460A5
:1007100003E0146824F0200414604C7A012C04D106
:10072000146844F01004146003E0146824F010040A
:1007300014608C7A012C04D1146844F0080414600D
:1007400003E0146824F008041460CC7A012C04D16E
:10075000146844F00404146003E0146824F00404F2
:1007600014608C78A407CD7844EA05640D7944EAD6
:1007700005444D7944EA05540D886D1E2C43D4611F
:10078000146824F001041460002300E05B1C54682A
:1007900004F001041CB14FF6FF74A342F6D1546873
:1007A00004F001040CB1002000E0012030BD10B5C0
:1007B00000F5D87303EB01131B6803F004031372F5
:1007C000137A53B900F5D87303EB01131B6840F299
:1007D000FF7404EA5353136009E000F5D87303EB88
:1007E00001131B686FF0604404EAD303536000F503
:1007F000D87303EB01131B6803F00203537200F577
:10080000D87303EB01135B6803F00F03937200F5D9
:10081000D87303EB01135B681B0AD37400F5D8731C
:1008200003EB01139B68D37200F5D87303EB01133C
:100830009B681C0A147300F5D87303EB01139B68C3
:100840001C0C547300F5D87303EB01139B681B0E4B
:10085000937300F5D87303EB0113DB68D37300F5D2
:10086000D87303EB0113DB681C0A147400F5D8730A
:1008700003EB0113DB681C0C547400F5D87303EB15
:100880000113DB681B0E937421B9C36843F0200386
:10089000C36003E0036943F02003036110BD00005F
:1008A0000B49096841F00101094A116011460968C4
:1008B00043F60E729143064A11601146096841EAF7
:1008C000002111601146096821F001011160704793
:1008D0000066004000218171C17101724172817214
:1008E000C1728170C1700321017102214171012126
:1008F0000180704710B502460020936803F08063C2
:10090000B3F1806F00D110E0936803F00063B3F19E
:10091000006F01D1012008E0936803F08053B3F128
:10092000805F01D1022000E00420042874D002F589
:10093000C07303EB00131B6803F0010402F5C073DE
:1009400003EB00131C600B7A7BB94B7A0C8843EAEB
:10095000445302F5C07404EB00142468234302F5E9
:10096000C07404EB0014236010E00B7A4C6843EA77
:10097000C4034C7A234302F5C07404EB00142468CA
:10098000234302F5C07404EB001423608B7A03F058
:100990000F038B7202F5C07303EB00135B6823F047
:1009A0000F0402F5C07303EB00135C6002F5C07323
:1009B00003EB00135B688C7A234302F5C07404EBED
:1009C000001463608B7B1C064B7B44EA03440B7B67
:1009D00044EA0323CC7A234302F5C07404EB0014E9
:1009E000A3608B7C1C064B7C44EA03440B7C44EAEA
:1009F0000323CC7B234302F5C07404EB0014E360B3
:100A000002F5C07303EB00131B6843F0010402F509
:100A1000C07303EB00131C6010BD70B500254FF4CC
:100A2000803404E0802001F0E7F800B103E0201EEC
:100A3000A4F10104F6D100BF0CB9032070BD40F24F
:100A4000FF5001F0AFF82846F8E7000070B5044603
:100A500005E01648056805F0450000B100E0F8E73C
:100A600000BF042001F0C8F820B1042001F09AF87A
:100A7000032070BD012001F0BFF820B1012001F07A
:100A800091F80120F5E7094824380068A04201D018
:100A90001020EEE740F2FF5001F084F803482038C0
:100AA000006808210840C0B2E3E70000342C014090
:100AB00070B500264FF4803505E01148046804F055
:100AC000450000B103E0281EA5F10105F5D100BFE6
:100AD00015B104F0040028B10326042001F062F8E7
:100AE000304670BD012001F087F818B101260120C1
:100AF00001F058F840F2FF5001F054F83046F0E7AA
:100B0000342C014010B505E00B48046804F04500A2
:100B100000B100E0F8E700BF042001F06DF820B15B
:100B2000042001F03FF8032010BD40F2FF5001F017
:100B300039F80020F8E70000342C01402DE9F0419D
:100B400005460E464FF0000805E02048076807F00C
:100B5000450000B100E0F8E700BF042001F04CF8C8
:100B600028B1042001F01EF80320BDE8F081012027
:100B700001F042F820B1012001F014F80120F4E75F
:100B8000124824380068A84201D01020EDE740F256
:100B9000FF5001F007F80D482038046804F4604065
:100BA00018B9200C30804046DFE704F4005008B14B
:100BB0001320DAE704F4804008B11020D5E704F4EC
:100BC000004008B10F20D0E74046CEE7342C01406A
:100BD00070B500264FF4803505E00F48046804F036
:100BE000450000B103E0281EA5F10105F5D100BFC5
:100BF00015B104F0040028B10326042000F0D2FF50
:100C0000304670BD04F0400018B10026402000F0CE
:100C1000C9FF3046F5E70000342C014070B50446AA
:100C20000D46D4F8A00050F82500C0F307464FF059
:100C3000FF30D4F8A41021F81500012104F1B4000C
:100C4000815531462046D4F8B020904770BD2DE93B
:100C5000FF4FDDE90D456CE0A5EB020A4FFA8AF380
:100C6000002B04DD91F800A00AFA03FA05E091F8E0
:100C700000A0C3F1000B4AFA0BFA0AF0FF0C002B9C
:100C800002DDC5F1080A01E0C2F1080A0AF0FF0816
:100C9000804501DD824600E0C246564605EB060B64
:100CA0004FF0FF0A0AFA0BFAC5F1080E4FF0FF0BDE
:100CB0004BFA0EFB4AEA0B0A0AF0FF072CEA070977
:100CC00094F800A00AEA070A84F800A094F800A0AB
:100CD0004AEA090A84F800A002EB060A0AF0FF0AB1
:100CE0005246BAF1070F0BDD0022DDF80CA0BAF175
:100CF000000F02D04FF0FF3A01E04FF0010A5144DB
:100D000005EB060A0AF0FF0A5546BAF1070F0BDD9C
:100D10000025DDF83CA0BAF1000F02D04FF0FF3AF9
:100D200001E04FF0010A5444A0EB060A0AF0FF006C
:100D300000BF002890DCBDE8FF8F000010B505491A
:100D4000054800F0A1F918B10249034800F03EF847
:100D500010BD0000008800208864024010B50A49D8
:100D60000A4800F091F968B100BF4021084803F03B
:100D700003F80028F9D00449044800F027F80020BF
:100D80000449087010BD000000800028B8640240CB
:100D900000100140900000200246094B9A4201D207
:100DA000084801E00648103801F000531BB1064B1B
:100DB0000B40C36002E0044B0B40836070470000AF
:100DC00010640240006002407D0F7D0F0246094B17
:100DD0009A4201D2084801E00648103801F0005359
:100DE0001BB1064B0B40C36002E0044B0B40836019
:100DF0007047000010640240006002407D0F7D0FCC
:100E000021B1026842F00102026003E0026822F0B0
:100E1000010202607047000000B591B00121880511
:100E200000F08CFD344800F06DF84FF00060029047
:100E30003248039040200590002007904FF48060D6
:100E40000890002009900A900B904FF480300C908D
:100E500000200D9003200E9000200F90109002A90A
:100E6000254800F061F946208DF8040004208DF833
:100E7000050000208DF8060001208DF8070001A86C
:100E800000F006FC012210211B4800F02FF94FF062
:100E900020511948FFF780FF1748303800F032F82A
:100EA0004FF00060029015480390002005900790D5
:100EB0004FF480600890002009900A904FF48070F1
:100EC0000B9040020C9000200D9003200E9000200B
:100ED0000F90109002A90848303800F025F9002240
:100EE00010210548303800F001F905490248303832
:100EF000FFF752FF11B000BDB8640240041001407A
:100F000000080020016821F001010160002101605A
:100F100041608160C1600161212141614A4988428B
:100F200004D13D21484A103A91608CE0464918317D
:100F3000884205D14FF47461434A103A916082E0CF
:100F400041493031884205D14FF474113E4A103A7C
:100F5000916078E03C494831884205D14FF0746196
:100F6000394A103A91606EE037496031884204D1C5
:100F70003649354A103AD16065E0334978318842C4
:100F800004D13349304A103AD1605CE02E499031A7
:100F9000884204D12F492C4A103AD16053E02A49A3
:100FA000A831884205D14FF03D51274A103AD1600F
:100FB00049E02949884204D13D21274A083A116075
:100FC00041E025491831884205D14FF47461224A25
:100FD000083A116037E020493031884205D14FF49A
:100FE00074111D4A083A11602DE01B4948318842AE
:100FF00005D14FF07461184A083A116023E0164990
:101000006031884204D11149134A121F11601AE05D
:1010100011497831884204D10D490F4A121F1160DD
:1010200011E00D499031884204D10A490A4A121F41
:10103000116008E00849A831884204D14FF03D51C1
:10104000054A121F11607047106002403D000020E9
:10105000400F002000003D201064024021B10268D2
:1010600042F02002026003E0026822F020020260E7
:101070007047014600200A6802F001020AB101200F
:1010800000E000207047000070B5024600200024F8
:101090000025124EB24201D2114B01E00F4B103B22
:1010A000104E0E4036B11E2606EAD124166806EA16
:1010B000040502E0566906F0800501F000560EB105
:1010C0005C6800E01C68084E344004EA010616B172
:1010D0000DB1012000E0002070BD0000106402404E
:1010E000006002403C0F3C0F7D0F7D0F10B501F0FA
:1010F00080034BB122B1436943F08003436103E0B5
:10110000436923F08003436180290BD02AB103682F
:1011100001F01E042343036004E0036801F01E0491
:10112000A343036010BD000010B500220268134BFA
:101130001A40CC680B6823434C6923438C692343D2
:10114000CC6923430C6A23434C6A23438C6A2343B0
:101150004C6B23438C6B23431A430260426922F099
:101160000702D1E90B3423431A4342610B69436000
:101170004B6883608B68C36010BD00003F801CF02B
:10118000704700000146481C80B10A48B0F90000D1
:10119000814205D107480088401E00B2054A1080F0
:1011A000002001EB4102044B03F832004FF0FF3006
:1011B00070470000C8000020647D00202DE9FC413C
:1011C00007460D46002600240020009001900820CC
:1011D0005B49086010204860402088600020C8609B
:1011E0004FF480600861084600F052FD1020FFF7C0
:1011F0002DFC044614B12046BDE8FC81514800880E
:1012000000044F4908603720486040208860002073
:10121000C8604FF480600861084600F039FD37204F
:10122000FFF714FC04460CB12046E5E74FF0FF3011
:101230004549086008204860302088600220C86066
:101240000020086101204861084600F0BBFC002036
:101250003B49086033204860402088600020C86017
:101260004FF480600861084600F012FD3320FFF75C
:10127000EDFB04460CB12046BEE70CE04FF4001035
:1012800000F0BAFC38B1314800684DF82600761CF1
:10129000022E00D307E02D484C38006840F22A6146
:1012A00008400028EAD000BF082000F0A5FC20B1CB
:1012B000082000F077FC04209EE7022000F09CFC50
:1012C00020B1022000F06EFC022095E7202000F003
:1012D00093FC20B1202000F065FC06208CE74FF441
:1012E000007000F089FC28B14FF4007000F05AFC47
:1012F000072081E740F2FF5000F054FC0098000600
:10130000009901F47F4140EA0120009901F47F0136
:1013100040EA1120009940EA1160686001980006D7
:10132000019901F47F4140EA0120019901F47F0114
:1013300040EA1120019940EA1160286020465BE7ED
:10134000A07A00209C000020B47A0020802C01406C
:10135000F0B50A4600210023002400BF3DE001252E
:1013600005FA01F3156805EA03049C4234D10568C7
:101370004F000326BE40B543056015794E00B540C9
:101380000668354305601579012D02D01579022DC7
:1013900016D185684F000326BE40B5438560557958
:1013A0004E00B540866835438560456801268E400D
:1013B000B5434560456896798E40B6B23543456081
:1013C000C5684F000326BE40B543C560D5794E00C1
:1013D000B540C6683543C560491C1029BFD3F0BD70
:1013E000F0B5002300244D07ED0E02FA05F3CE10F0
:1013F00000F1200555F826504E07F70E0F26BE4087
:10140000B543CF1000F1200646F82750CE1000F16A
:10141000200555F8265045EA0304CE1000F12005BA
:1014200045F82640F0BD0183704770B504460E466E
:10143000D4F83C01008860B3002527E004F1B40033
:10144000405D0F2820D020680078A8421CD004F509
:10145000A270405D00280BDCD4F8380120B1294689
:101460002046D4F838219047012104F1B4004155B9
:1014700004F5A270405D401EC1B204F5A270415552
:101480002946204603F074FF681CC5B2802DD5DBC9
:1014900005E0B4F93401FFF775FEA4F8340170BD1E
:1014A0002349096888B223490968098881423EDBDB
:1014B000204909684989491C1E4A126851811D4901
:1014C0000968C989491C1B4A1268D18119490968F0
:1014D000C989184A12681289914203D10021154A1C
:1014E0001268D181134909680988091A114A1268DA
:1014F0001269104B1B68DB8922F813100D4909682B
:1015000049890C4A12681289914210DD0021094A6A
:1015100012689181074A1268D181064A1268518186
:1015200004490968898A491C024A126891827047F5
:101530008C6402409400002000BFFEE71CB5044606
:101540000020019000902248008800042149086092
:101550000D204860402088600020C8604FF4806003
:101560000861084600F094FB1B480068009002E008
:10157000194800680090009800F045000028F7D056
:10158000012000F039FB20B1012000F00BFB01200D
:101590001CBD042000F030FB20B1042000F002FB51
:1015A0000320F5E70C48243800680D2801D01020EE
:1015B000EEE740F2FF5000F0F5FA074820380068E7
:1015C00001900198C0F3432020700020E0E7000064
:1015D0009C000020A07A0020342C014004480069BF
:1015E00000F0100008B9012070470020FCE700005F
:1015F000001002400448006900F0080008B901200A
:1016000070470020FCE70000001002400448006919
:1016100000F0010008B1012070470020FCE7000045
:10162000000002401CB50121084600F087F9C020E7
:10163000009001208DF8040000208DF806000320A2
:101640008DF8050001208DF8070069460348FFF773
:101650007FFEC0210148FFF7E6FE1CBD00000240EE
:10166000014678220A800A220A81054A4A60054A10
:101670000A6100228A81CA814A818A8270470000F9
:10168000B8790020307A002000BFFEE770470000E4
:1016900070B5002100230F22C4781CB3174C2468B6
:1016A00004F4E064C4F5E064C4F30721C1F1040468
:1016B000E3B20A4144789C40E1B28478144021436B
:1016C0000C07210E0E4C05786155047804F01F05B7
:1016D0000124AC4005786D11AD0005F1E025C5F899
:1016E000004109E0047804F01F050124AC40054DD9
:1016F0000678761145F8264070BD00000CED00E03C
:1017000000E400E080E100E002490143024A116088
:10171000704700000000FA050CED00E070B50446CB
:101720000D461646204607F059FE002070BD000009
:10173000F8B504460E461746A834B4F90400FFF77E
:1017400021FDA08054F8A809008880B1D4F8A80031
:10175000058805EB4500C0EBC5100023054A194676
:101760000090204601F0D8FFA4F8AC0000BF002094
:10177000F8BD0000F518000870B504460D46164681
:10178000204603F04FFE204603F006FE002070BD09
:1017900030B503460C46D3F80C02007860B900213E
:1017A00006E00020D3F8105245F82100481CC1B2D1
:1017B00093F809028842F4DC002030BD70B505467C
:1017C0000C464FF0FF3004EBC402A96801EB420164
:1017D0004880002004EBC402A96801EB4201C880E4
:1017E000E1B2284607F0D6FA70BD70B505460C4642
:1017F0004FF0FF3004EBC402A96801EB420188807E
:1018000004EBC401A86810F8110020F0010004EBFB
:10181000C402A96801F81200E1B2284607F0BAFA3A
:1018200070BD00002DE9F84304464FF4C0576069CD
:101830000589A069B0F80880BDB114E06A46394650
:101840002046D4F8E83198470646009830B90A494E
:101850003068C1623068C1633068C165781C87B286
:10186000681C85B200BF4545E8DD0021204602F036
:1018700055FDBDE8F8830000B93900082DE9F041B5
:101880000446002560690689A069078986B32DE0B2
:1018900005EBC502A16801EB4201B1F90200FFF7B7
:1018A00071FC05EBC502A16801EB4201488005EB24
:1018B000C502A16801EB4201B1F90400FFF762FC27
:1018C00005EBC502A16801EB42018880002005EB11
:1018D000C502A16801F8120005EBC502A16801EB81
:1018E0004201C880681CC5B2701C86B2BE42CFDD02
:1018F000BDE8F081FEB504460E46D4F8A800008885
:10190000A8B12068007800F5E065ADF8005001202E
:101910008DF8030000208DF8020094F87C008DF80B
:1019200004006946D4F8E40103F022F905E0B4F9B3
:10193000AC00FFF727FCA4F8AC00FEBD29B1064AB5
:1019400012680243044B1A6004E0034A126882439F
:10195000014B1A60704700003038024029B1064A36
:1019600012680243044B1A6004E0034A126882437F
:10197000014B1A60704700004038024029B1064A06
:1019800012680243044B1A6004E0034A126882435F
:10199000014B1A60704700002038024029B1064A06
:1019A00012680243044B1A6004E0034A126882433F
:1019B000014B1A60704700004438024029B1064AC2
:1019C00012680243044B1A6004E0034A126882431F
:1019D000014B1A607047000024380240F0B5002126
:1019E00000220024022500260223324F3F6807F020
:1019F0000C0121B1042905D0082937D105E02E4F6B
:101A0000076036E02D4F076033E02A4F3F1F3F68E5
:101A1000C7F38056274F3F1F3F6807F03F036EB163
:101A2000264FB7FBF3F7DFF88CC0ACF1040CDCF801
:101A300000C0CCF3881C07FB0CF40CE01E4FB7FB76
:101A4000F3F7DFF870C0ACF1040CDCF800C0CCF3A5
:101A5000881C07FB0CF4174F3F1F3F68C7F3014773
:101A60007F1C7D00B4FBF5F7076002E0124F0760B2
:101A700000BF00BF0F4F3F6807F0F0010909104F8A
:101A80007A5C0768D74047600A4F3F6807F4E05127
:101A9000890A0B4F7A5C4768D7408760054F3F68DB
:101AA00007F46041490B064F7A5C4768D740C7602E
:101AB000F0BD0000083802400024F40000127A0053
:101AC000180000202DE9F8430546884614461E46B6
:101AD0006A4641462846D5F8E831984707460098B7
:101AE00030B93879A04203DD386800EB0410C660D5
:101AF0000098BDE8F88300007CB50546002400206E
:101B00000090019000260DB1022600E00026224838
:101B1000006800F0007008B10E207CBD1F490988E4
:101B200088B26946FFF74AFB04460CB12046F4E749
:101B3000019800F4802060B3184800880004184918
:101B4000086037204860402088600020C8604FF45B
:101B500080600861084600F09BF83720FEF776FFAA
:101B600004460CB12046D8E70D48066006200C4913
:101B70004860402088600020C8604FF480600861A1
:101B8000084600F085F80620FEF760FF0446204670
:101B9000C3E72520C1E70000142C01409C00002071
:101BA000A07A00200149086070470000382C0140ED
:101BB0000146034A106820F0FF0008431060704798
:101BC000042C014000210B4B02681A601B1D426867
:101BD0001A601A1D116821F0F701D0E902231A4397
:101BE00003691A4343691A431143024A08321160D8
:101BF00070470000242C014001460020034A12686F
:101C00000A400AB1012000E000207047342C014056
:101C10000248006800F0030070470000002C0140FB
:101C200010B500F0B1FD10BD00210A4A116847F659
:101C3000FF629143027D83681A4343681A43C36875
:101C40001A4303681A4303691A431143014A116096
:101C500070470000042C014000200B490860091D5A
:101C60000860091D0860091D0860074924310860E3
:101C7000091D0860091D08600448034938310860DF
:101C80000020091D08607047002C0140FF07C000BC
:101C90000021094B02681A601A1D11686FF30A01CE
:101CA000D0E901231A43C3681A4303691A43114355
:101CB000014A121D11607047082C0140014908605B
:101CC00070470000002C01402DE9FC4104460D4600
:101CD0006069468866B1C5EBC50000EB400104F1C0
:101CE000280010F821003044A1694988884201DDAC
:101CF000BDE8FC81C5EBC50000EB400204F1280003
:101D000010F822003044616851F83000806B077889
:101D10004FF0FF31C5EBC50000EB400204F1280095
:101D200000EB8200A0F84C108521C5EBC50000EB4C
:101D3000400204F1280000EB820081702D49C5EBC0
:101D4000C50000EB400204F1280000EB8200807A1D
:101D5000CDE90001C5EBC50000EB400C04F1280003
:101D600000EB8C000389C5EBC50000EB400C04F1CF
:101D7000280010F82C20C5EBC50000EB400C04F146
:101D8000280000EB8C004178204607F014F919492F
:101D9000C5EBC50000EB400204F1280000EB820017
:101DA0004160C5EBC50000EB400104F1280000EBE9
:101DB0008100006D58B1C5EBC50000EB400104F196
:101DC000280000EB81003946026D20469047C5EBA4
:101DD000C50000EB400104F1280000EB81004068E1
:101DE0000449884203D1E9B2204606F0A2FF00BFB1
:101DF0007EE70000000004052DE9FF4104460D4682
:101E0000C5EBC50000EB400104F1280000EB8100A8
:101E1000C06888B9C5EBC50000EB400104F128009B
:101E200000EB81000169C5EBC50000EB400204F145
:101E3000280000EB8200C160C5EBC50000EB40014B
:101E400004F1280000EB8100C0680390012003AA80
:101E5000CDE900200290C5EBC50000EB400704F17E
:101E6000280000EB870000F11403C5EBC50000EB70
:101E7000400704F1280000EB8700827AC5EBC5001B
:101E800000EB400704F1280000EB870001892046A1
:101E900002F010FB06461EB1304604B0BDE8F081EA
:101EA0000020FAE7F0B504461546C1EBC10000EB8F
:101EB000400704F1280000EB87000069284420282F
:101EC00001D9FF20F0BDC1EBC10000EB400704F1D8
:101ED000280000EB8700066900220FE09F5CC1EB41
:101EE000C10000EB400C04F1280000EB8C00143022
:101EF00006EB020C00F80C70501CC2B2AA42EDD3E3
:101F0000C1EBC10000EB400704F1280000EB8700A3
:101F100000694719C1EBC10000EB400C04F1280037
:101F200000EB8C0007610020CCE7000070B590B09A
:101F300004460E46154600BF1A48FFF79AF80028D7
:101F4000FAD11848FEF7DEFF4FF000600190164806
:101F50000290039404950020059006904FF4806051
:101F60000790800008908000099000200A904FF4AC
:101F700040300B9004200C9003200D904FF4000093
:101F80000E9080100F9001A90648FFF7CDF8202190
:101F90000448FFF763F801210248FEF731FF10B053
:101FA00070BD000058640240802C014070B50446AA
:101FB000002516480078032802D12725284670BD41
:101FC0001248007838B111480078012803D00F4832
:101FD0000078022817D1B4F5805F02D12725284662
:101FE000EDE7E0B2FFF788FD054665B908480068EF
:101FF00020F4C05006490860084600682043086085
:102000000846006808602846D9E7000098000020CC
:10201000042C0140F0B5014600200022BE4B1B7885
:1020200081F85630BD4B1B88A1F85430BC4B1B685F
:102030001A0E93090B70C2F383034B7002F0030373
:102040008B70B74B1B68C3F30742CA70B44B1B8835
:10205000C3F307220A71B24B1A784A715B681A0EF1
:102060001301CB80AE4B5B68C3F30742CB8843EAD6
:102070001213CB8002F00F030B72A94B9B88C3F3A2
:102080000722D3094B72C2F380138B72C2F3401341
:10209000CB72C2F300130B7300234B739E4B1B7860
:1020A0003BB19D4B1B78012B03D09B4B1B78032B23
:1020B0004FD193071B0D0B61994B1A790B6943EABA
:1020C00082030B61964B9B681A0E0B6943EA9213CD
:1020D0000B61C2F3C2030B7502F007034B75904B03
:1020E0009B68C3F3074253098B75C2F38203CB7518
:1020F00093075B0F0B768A4B1B89C3F307220B7E7A
:1021000043EAD2130B760B695B1C0024C1E912343D
:102110000B7E9B1C012404FA03F3DC17D1E9125651
:10212000A5FB037C06FB03C305FB0433C1E9127363
:102130000C7A0123A3400B650024D1E912650B6DD5
:10214000A6FB037C05FB03C306FB0433C1E9127342
:102150002EE0714B1B78022B2AD1714B1A79930612
:102160009B0A0B616E4B9B681A0E0B6943EA0223B4
:102170000B616B4B9B68C3F307420B6913430B6105
:10218000674B1B89C3F307220B695B1C4FF4007478
:10219000A3FB04464FF480630025A4FB037C06FBED
:1021A00003C304FB0533C1E912734FF400730B65DD
:1021B000C2F3801301F8193F93065B0E4B70584B26
:1021C0001A7A4B7843EAD2134B7002F07F038B707C
:1021D000534BDB681A0ED309CB70C2F341130B715A
:1021E000C2F382034B7193071B0F8B714C4BDB685F
:1021F000C3F307428B7943EA92138B71C2F3401306
:10220000CB7100230B7202F001034B72444B9B898C
:10221000C3F30722D3098B72C2F38013CB72C2F3CC
:1022200040130B73C2F300134B73C2F381038B7320
:1022300002F00303CB733A4B1A7B53080B74012350
:102240004B74384B1B681A0ECA741939354B1B680E
:10225000C3F307421402CC85324B1B88C3F3072219
:10226000CB8D1343CB852F4B1A7814060C635B6818
:102270001A0E0B6B43EA02440C632A4B5B68C3F3F0
:1022800007420B6B43EA02240C63264B9B88C3F383
:1022900007220B6B13430B63224B1A7934235A54D6
:1022A000204B9B681A0E35235A541E4B9B68C3F370
:1022B000074214068C631B4B1B89C3F307228B6BED
:1022C00043EA02448C63174B1A7A8B6B43EA02246D
:1022D0008C63144BDB681A0E8B6B13438B63114BAF
:1022E000DB68C3F307423C235B5C43EA12143C23E4
:1022F0005C5413071C0DCC870A4B9B89C3F3072240
:10230000CB8F1343CB87074B1A7B540840235C5475
:10231000012441235C54F0BD980000209C00002063
:10232000CC7A0020DC7A00203EB5002401213F4811
:10233000FFF704FB0121C802FFF730FB0121C802AF
:10234000FFF73CFB4FF4F850019002208DF8080095
:102350008DF8090000208DF80A0001208DF80B008F
:1023600001A93348FEF7F4FF0420019001A9314888
:10237000FEF7EEFF0C2208212D48FFF731F80C2262
:1023800009212B48FFF72CF80C220A212848FFF7D7
:1023900027F80C220B212648FFF722F80C221146C1
:1023A0002348FFF71DF80C2202212248FFF718F8F6
:1023B00000214FF40060FFF701FBFFF74DFC3120D7
:1023C0008DF8000000208DF801008DF8020001203A
:1023D0008DF803006846FFF75BF900F0E3F8044668
:1023E00014B900F02DF804461CB91348FFF712FE8B
:1023F000044634B91049B1F85410080400F06CFDDB
:10240000044624B94FF40060FFF7D0FD04461CB128
:102410000A480078032806D10020FFF7C9FB0020F6
:1024200000F072FD044620463EBD00000C00400056
:1024300000080240000C0240F07A002098000020C2
:1024400038B5002401200090FFF7E2FB10B92524E5
:10245000204638BD4D480078042824D000204C493F
:10246000086002204860C02088600020C8604FF4E7
:10247000806008610846FFF70BFCFEF719FB044675
:102480000CB12046E5E743480068434908604148ED
:10249000001D006848603F480830006888603D487B
:1024A0000C300068C8603948007858B13748007867
:1024B000012807D035480078062803D03348007833
:1024C000022816D1002032490860032048604020CD
:1024D00088600020C8604FF4806008610846FFF7FC
:1024E000D7FB69460320FEF729FB04460CB12046C2
:1024F000AFE726480078032816D1BDF80000000495
:102500002349086003204860402088600020C8609C
:102510004FF4806008610846FFF7BAFBFEF7C8FA7F
:1025200004460CB1204694E71848007804282AD0C5
:10253000BDF8000019490860BDF800000004144906
:10254000086009204860C02088600020C8604FF4FF
:10255000806008610846FFF79BFBFEF7A9FA044676
:102560000CB1204675E70B4800680D490860094822
:10257000001D00684860074808300068886005480A
:102580000C300068C860002063E70000980000205D
:10259000A07A0020142C0140DC7A00209C0000204E
:1025A000CC7A00202DE9F0470027002400260025E2
:1025B000A046A14676206E49087500200860486054
:1025C0008860C86008610846FFF72EFB0320FFF70C
:1025D00075FB6848006840F480706649086000BF79
:1025E00012E000206449086048608860C8604FF4C9
:1025F000806008610846FFF74BFBFEF70EFA0446C1
:1026000004B903E0781CC7B24A2FEADB00BF14B15B
:102610002046BDE8F0874FF4D57057490860082080
:102620004860402088600020C8604FF480600861E6
:102630000846FFF72DFBFEF7CBFA044624B901202C
:102640004E4908704FF0804900204B490860372000
:102650004860402088600020C8604FF480600861B6
:102660000846FFF715FB3720FEF7F0F90446002C6B
:102670004CD135E0002040490860372048604020B8
:1026800088600020C8604FF4806008610846FFF74A
:10269000FFFA3720FEF7DAF904460CB12046B8E716
:1026A000374849EA00003449086029204860402042
:1026B00088600020C8604FF4806008610846FFF71A
:1026C000E7FAFEF71FFA04460CB12046A1E72948B5
:1026D00010300668012080EAD67080F001086D1C79
:1026E000B8F1000F03D14FF6FF708542C2D34FF609
:1026F000FF70854202D31B2420468AE706F0804003
:10270000061E33D002201D4908702FE01DE01D4831
:102710001949086001204860402088600020C86096
:102720004FF4806008610846FFF7B2FAFEF7EAF955
:1027300004460CB120466CE70E48103006680120B4
:1027400080EAD67080F001086D1CB8F1000F03D14B
:102750004FF6FF708542DAD34FF6FF70854202D301
:102760001B24204655E7032004490870204650E703
:10277000887A0020042C0140A07A002098000020D4
:10278000000010800080FF8010B54FF48070FFF7CC
:1027900033FA78B34C480078012814D100204B4913
:1027A00008600C204860402088600020C8604FF41A
:1027B000806008610846FFF76BFA0C20FEF746F9C7
:1027C0004349087002E00020414908704148006810
:1027D00040F480703F490860081D00684CF23A31AF
:1027E00088433C49091D086001203B49087038486E
:1027F000007810BDFFE70220FFF7FEF978B1022054
:10280000FFF7D0F93348001D00684CF23A31884395
:102810003049091D086002202D490870E9E70820A9
:10282000FFF7EAF978B10820FFF7BCF92948001D45
:1028300000684CF23A3188432649091D086004209B
:1028400023490870D5E72020FFF7D6F978B120207A
:10285000FFF7A8F91F48001D00684CF23A31884381
:102860001C49091D0860062019490870C1E710209D
:10287000FFF7C2F978B11020FFF794F91548001D51
:1028800000684CF23A3188431249091D086005205E
:102890000F490870ADE74FF40070FFF7ADF980B154
:1028A0004FF40070FFF77EF90A48001D00684CF2F3
:1028B0003A3188430749091D086007200449087018
:1028C00097E7002095E70000A1000020A07A0020F3
:1028D000A2000020382C0140A30000202DE9F84F71
:1028E0008146174698460A9C4FF0000AD3464D464B
:1028F0004FF0FF36B9F1000F02D12620BDE8F88F66
:1029000000208649086086480078022805D1040224
:10291000780A40EAC8574FEA682800208149886051
:102920004860401E0860012048610020C8600861BE
:102930000846FFF747F979481838006800F000703A
:1029400008B10E20DAE7002C21DDB4F5006F1EDCA3
:10295000601E2040D8B9204602F0E2F9009072488B
:102960000460102070494860402088600020C860E2
:102970004FF4806008610846FFF78AF91020FEF7DF
:1029800065F88246BAF1000F03D05046B6E726201C
:10299000B4E70098000163498860084644604FF03E
:1029A000FF300860012048610220C86000200861F3
:1029B0000846FFF707F95C48076011205A4948604C
:1029C000402088600020C8604FF48060086108469D
:1029D000FFF75EF91120FEF739F88246BAF1000FD1
:1029E00001D050468AE75148007800285CD1FDF7B5
:1029F000D6FB18E04FF40040FFF7FEF878B14FF037
:102A0000000B06E045485430006845F82B000BF1F8
:102A1000010BBBF1080FF5D32035454E03E00EB98D
:102A200004206BE7761E3D480830006840F22A61BA
:102A300008400028DED00820FFF7DEF820B108208B
:102A4000FFF7B0F8042059E70220FFF7D5F820B1CE
:102A50000220FFF7A7F8022050E72020FFF7CCF86C
:102A600020B12020FFF79EF8062047E74FF40070C2
:102A7000FFF7C2F828B14FF40070FFF793F8072072
:102A80003CE704E025485430006828602D1D4FF4D1
:102A90000010FFF7B1F80028F4D1FDF782FB40F2F7
:102AA000FF50FFF77FF836E020480078012832D148
:102AB00000202049087020490870204908701748F4
:102AC0001030006840F22A31084314491031086080
:102AD0001248006840F008001049086000222146B2
:102AE0004846FFF723FA00E0761E1548006800F01C
:102AF000006038B91148007820B90E48007808B94C
:102B0000002EF1D10EB90420F8E60A48007810B181
:102B1000084890F800A05046F0E600002C2C014038
:102B200098000020B47A0020A07A0020A0000020A5
:102B3000FFFF7F00A2000020A1000020A3000020D2
:102B4000006402402DE9FE4F83460E469146002068
:102B50000290002534462148007818B1680240EA06
:102B6000D45564020BF00300F0B14FF0000A18E0F6
:102B70004FF4007000904FEA4A20071945EBE073CC
:102B80003A461748FFF7AAFE02904FF40072144924
:102B90005846FDF779FB0BF5007B0AF1010000F0C8
:102BA000FF0ACA45E4DB16E0B9F1010F09D14FF481
:102BB000007022462B4600905846FFF78FFE029089
:102BC00009E04FF4007022462B46CDE90009584633
:102BD00000F008F802900298BDE8FE8F98000020EF
:102BE000487B00202DE9FF5F17469846DDE90E4639
:102BF0004FF00009CA464FF0FF35AC490098086015
:102C00000020AB490860AB480078022805D10402D7
:102C1000780A40EAC8574FEA68280020A649886029
:102C20004860401E0860012048610020C8600861BB
:102C30000846FEF7C7FF9E481838006800F000708D
:102C400018B10E2004B0BDE8F09F002C21DDB4F5D2
:102C5000006F1EDC601E2040D8B9204602F060F8EC
:102C6000834696480460102094494860402088605C
:102C70000020C8604FF4806008610846FFF708F83C
:102C80001020FDF7E3FE8146B9F1000F03D048465E
:102C9000D8E72620D6E7012E71D906FB04F0B0F163
:102CA000007F01D32620CDE74FEA0B1082498860D0
:102CB00006FB04F048604FF0FF30086001204861D7
:102CC0000220C860002008610846FEF77BFF7B48B1
:102CD0000760122079494860402088600020C86061
:102CE0004FF4806008610846FEF7D2FF1220FDF71E
:102CF000ADFE8146B9F1000F01D04846A2E7704809
:102D0000007800287ED1FDF74AFA1EE04FF400401B
:102D1000FEF772FFA8B14FF0000A08E06448543093
:102D200000686249096841F82A000AF1010ABAF10B
:102D3000080FF3D35D48006820305C490860614D9E
:102D400003E00DB904207DE76D1E59480830006886
:102D500040F22A3108400028D8D00820FEF74CFF66
:102D600020B10820FEF71EFF04206BE70220FEF7CB
:102D700043FF28B10220FEF715FF022062E792E030
:102D80002020FEF739FF20B12020FEF70BFF0620A0
:102D900058E74FF40070FEF72FFF28B14FF4007092
:102DA000FEF700FF07204DE70AE041485430006875
:102DB0003E49096808603D480068001D3B490860BD
:102DC0004FF40010FEF718FF0028EED14FF480708A
:102DD000FEF712FF20B33748007838B13548007845
:102DE000012803D033480078022819D10020334944
:102DF00008600C204860402088600020C8604FF4C4
:102E0000806000E013E008610846FEF741FF0C20F7
:102E1000FDF71CFE8146B9F1000F01D0484611E7CD
:102E2000FDF7BFF940F2FF50FEF7BCFE3BE024483F
:102E30000078012837D10020234908700120234958
:102E4000087000202249087019481030006840F2CC
:102E50002A3108431649103108601548006840F0CF
:102E600008001349086006FB04F100220098FFF7F0
:102E70005DF800E06D1E1748006800F0006008B9BA
:102E8000002DF7D10DB90420DCE600BF1048007812
:102E900018B90D4800780028F8D00B48007810B118
:102EA000094890F800904846CCE60000A4000020B5
:102EB0002C2C014098000020B47A0020A07A002039
:102EC000A0000020FFFF7F00A2000020A100002042
:102ED000A30000200064024010B5044609480460C5
:102EE000072008494860402088600020C8604FF4EF
:102EF000806008610846FEF7CBFE0720FDF7A6FDBF
:102F000010BD0000A07A002001460020012900D059
:102F100011B9024B197000E026207047A000002074
:102F20002DE9FF5F86B017469846149D00260020C5
:102F300005900490002481460390824602900195FA
:102F4000DDF818B0DDF818B0BBF1000F03D1262072
:102F50000AB0BDE8F09F0020C9490860C9498860EF
:102F60004860401E0860012048610020C860086178
:102F70000846FEF727FEC2481838006800F00070C7
:102F800008B10E20E4E7C0480078022805D1050208
:102F9000780A40EAC8574FEA6828002D1FDDB5F5CA
:102FA000006F1CDC681E2840C8B9284601F0B8FE36
:102FB0000590B64805601020B449486040208860FC
:102FC0000020C8604FF4806008610846FEF760FE8C
:102FD0001020FDF73BFD06461EB13046B8E726201F
:102FE000B6E7AB4800880004A84908600D20486097
:102FF000402088600020C8604FF480600861084667
:10300000FEF746FE0D20FDF721FD06460EB13046C7
:103010009EE79B481838006803904FF0FF341CE08F
:10302000641E9B4800880004984908600D20486091
:10303000402088600020C8604FF480600861084626
:10304000FEF726FE0D20FDF701FD06460EB13046C7
:103050007EE78B48183800680390039800F480706E
:1030600008B9002CDCD10CB9292071E7874807602A
:10307000182086494860402088600020C8604FF4CE
:10308000806008610846FEF703FE1820FDF7DEFCAD
:1030900006460EB130465BE700207E490870059871
:1030A000000178498860084645604FF0FF300860AD
:1030B000012048610020C86008610846FEF782FDD3
:1030C0004FF0FF347448007800287ED1FDF767F890
:1030D00045E04FF48040FEF78FFDD8B30198A0EB98
:1030E0000900202822D20198A0EB090000F003007B
:1030F00020B90198A0EB0900800804E00198A0EB3A
:1031000009008008401C02904FF0000A0AE05C4968
:103110005431DBF8000008600AF1010A0BF1040BDE
:1031200009F1040902988245F1D310E04FF0000A3A
:1031300006E05BF82A005249543108600AF1010A9E
:10314000BAF1080FF5D30BF1200B09F120096FF04C
:10315000404404E0FFE70CB90420F9E6641E484847
:103160000830006840F21A6108400028B1D00820F9
:10317000FEF742FD20B10820FEF714FD0420E7E62B
:103180000220FEF739FD20B10220FEF70BFD0220E0
:10319000DEE61020FEF730FD20B11020FEF702FD24
:1031A0000520D5E64FF40070FEF726FD30B14FF450
:1031B0000070FEF7F7FC0720CAE606E0FCF7F1FF17
:1031C00040F2FF50FEF7EEFC41E033480078012862
:1031D0003DD10020314908702E49087030490870EF
:1031E00027481030006840F21A3108432449103152
:1031F0000860402229460698FEF798FE204800689D
:1032000040F008001E49086000E0641E2548006880
:1032100000F0006008B9002CF7D11CB9FFF784F862
:10322000042095E64FF0FF3400E0641E1C4800784F
:1032300020B91A48007808B9002CF6D10CB904203E
:1032400086E61648007810B11448007880E640F20F
:10325000FF50FEF7A7FC04A8FEF770F9064603E04E
:1032600004A8FEF76BF906463EB99DF81000072842
:10327000F6D09DF810000628F2D0304668E600002F
:103280002C2C0140B47A002098000020A07A002065
:103290009C000020A1000020A0000020A20000202F
:1032A000A3000020006402402DE9FE4F0646894637
:1032B00092460020029000254C462148007818B123
:1032C000680240EAD455640206F00300F0B14FF002
:1032D000000B18E04FF4007231461A48FCF7D4FF97
:1032E0004FF4007000904FEA4B20071945EBE07354
:1032F0003A461448FFF714FE029006F500760BF1EB
:10330000010000F0FF0BD345E4DB16E0BAF1010F3A
:1033100009D14FF4007022462B4600903046FFF74B
:10332000FFFD029009E04FF4007022462B46CDE9E4
:10333000000A304600F008F802900298BDE8FE8FBF
:1033400098000020487B00202DE9FF5F84B0DDE974
:1033500012470026002003900290002580468146F7
:10336000019007FB04FBDDF810A0DDF810A0BAF116
:10337000000F03D1262008B0BDE8F09F0020DC49F3
:103380000860DC4988604860401E08600120486190
:103390000020C86008610846FEF714FCD4481838BD
:1033A000006800F0007008B10E20E4E7D248007811
:1033B000022808D10402DDE90601400A40EAC150B2
:1033C0004912CDE90601002C1FDDB4F5006F1CDCAD
:1033D000601E2040C8B9204601F0A2FC0390C748F7
:1033E00004601020C5494860402088600020C86003
:1033F0004FF4806008610846FEF74AFC1020FDF794
:1034000025FB06461EB13046B5E72620B3E7012F5F
:103410006FD907FB04F0B0F1007F01D32620AAE7A3
:10342000B548007838B1B4480078012803D0B248D4
:10343000007802282DD1B24800880004AF49086006
:1034400037204860402088600020C8604FF48060CA
:1034500008610846FEF71CFC3720FDF7F7FA064620
:103460000EB1304687E7A54807601720A34948609A
:10347000402088600020C8604FF4806008610846E2
:10348000FEF706FC1720FDF7E1FA06460EB13046BE
:1034900071E79A49069808601920486040208860C2
:1034A0000020C8604FF4806008610846FEF7F0FB1A
:1034B0001920FDF7CBFA06460EB130465BE70398BC
:1034C00000018C49886007FB04F048604FF0FF3032
:1034D0000860012048610020C86008610846FEF7C6
:1034E00071FB88480078002874D1451EFCF757FE10
:1034F00042E0E4E04FF48040FEF77EFBB8B3ABEB74
:10350000080020281FD2ABEB080000F0030018B918
:10351000ABEB0800800803E0ABEB08008008401C20
:1035200001904FF000090AE071495431DAF80000C7
:10353000086009F101090AF1040A08F10408019878
:103540008145F1D310E04FF0000906E05AF8290058
:1035500067495431086009F10109B9F1080FF5D341
:103560000AF1200A08F120086FF0404504E0FFE767
:103570000DB90420FFE66D1E5D480830006840F27A
:103580001A3108400028B5D00820FEF735FB20B1DD
:103590000820FEF707FB0420EDE60220FEF72CFBD7
:1035A00020B10220FEF7FEFA0220E4E61020FEF72A
:1035B00023FB20B11020FEF7F5FA0520DBE64FF4DF
:1035C0000070FEF719FB30B14FF40070FEF7EAFA15
:1035D0000720D0E62CE04FF48070FEF70DFB00B31F
:1035E0004548007838B144480078012803D0424863
:1035F0000078022815D10020404908600C2048605E
:10360000402088600020C8604FF480600861084650
:10361000FEF73EFB0C20FDF719FA06460EB13046C8
:10362000A9E6FCF7BEFD40F2FF50FEF7BBFA46E00C
:1036300034480078012842D1002033490870012025
:10364000324908700020324908702948103000685B
:1036500040F21A31084326491031086007FB04F193
:1036600040220498FEF762FC2148006840F0080000
:103670001F4908604FF0FF3500E06D1E25480068C7
:1036800000F0006008B9002DF7D11DB9FEF74CFE1F
:10369000042070E64FF0FF3500E06D1E1C480078F6
:1036A00020B91948007808B9002DF6D10DB90420C9
:1036B00061E61548007810B1134800785BE640F2E7
:1036C000FF50FEF76FFA02A8FDF738FF064603E049
:1036D00002A8FDF733FF06463EB99DF8080007280B
:1036E000F6D09DF808000628F2D0304643E60000E8
:1036F0002C2C0140B47A002098000020A07A0020F1
:103700009C000020A0000020A2000020A1000020BA
:10371000A3000020006402402DE9F05F82468B4642
:10372000914698460026274C40E0B9F1000F3AD068
:103730002078B8BB2448B0F90000401C864205D16F
:1037400021480088401C00B21F49088001F0AEFBF0
:10375000054647464FF6FF70874201D2384601E0E2
:103760004FF6FF70074619480068A8420AD9174863
:103770000068401BB84205D9E8191449086038466A
:1037800005F0B0FDC4F80890C4F804A0C4F80CB06B
:1037900008EB050020610A98606101202070304626
:1037A000BDE8F09FFFE7701C06B218340648B0F978
:1037B0000000401C864201DC082EB6DB4FF0FF30D3
:1037C000EEE70000647D0020C8000020C400002057
:1037D0000CB50020019000903448006840F480301F
:1037E0003249086000BF3148006800F400300090A2
:1037F0000198401C0190009818B90198B0F5A04FAD
:10380000F1D12A48006800F4003010B10120009086
:1038100001E0002000900098012846D12348403064
:10382000006840F08050214940310860204800681D
:1038300040F440401E4908601C48083000681B499D
:10384000083108600846006840F4004008600846F7
:10385000006840F4A05008601648091F0860081F5F
:10386000006840F08070091F086000BF0F480068C2
:1038700000F000700028F9D040F205700E49086091
:103880000A480830006820F0030008490831086041
:103890000846006840F00200086000BF0348083096
:1038A000006800F00C000828F8D10CBD0038024078
:1038B0000070004008544007003C024070B50446C8
:1038C0000D46204605F0A0FB70BD000010B500BFFE
:1038D000102080F31188BFF34F8FBFF36F8F00BFAD
:1038E00006F0FAFD18B14FF080500449086000BF9F
:1038F000002080F3118800BF10BD000004ED00E03F
:1039000010B51548006840F470001349086013486A
:10391000006840F001001149086000200F4908319B
:1039200008600E4800680E4908400C4908600D48C0
:10393000091D0860081F006820F48020091F086026
:10394000002006490C310860FFF742FF4FF000608D
:1039500001498039086010BD88ED00E00038024060
:10396000FFFFF6FE1030002410B50121064800F0DC
:1039700012F840B105480068401C04490860012164
:10398000014800F005F810BD0010004014000020B0
:10399000CA430282704730B502460020002300244B
:1039A000158A05EA0103958905EA010413B10CB1F2
:1039B000012000E0002030BD2DE9F04104460E4614
:1039C00017468220005DE0B3022F04D0032F03D0FE
:1039D000052F37D101E000BF00BF61690989606828
:1039E00000EBC108A6EB0800C0F3C70505EBC50254
:1039F000A16801EB4201B1F90200FDF7C3FB05EB41
:103A0000C502A16801EB4201488005EBC502A1682F
:103A100001EB4201B1F90400FDF7B4FB05EBC5026F
:103A2000A16801EB42018880002005EBC502A16876
:103A300001F8120029462046FDF7C0FE0020BDE82F
:103A4000F08101E000BF00BF0020F8E72DE9F04160
:103A50004FF6FF7601F02AFA07462948006800EB86
:103A600007080025274C25E0207800F00100F0B180
:103A70002069404513D8606910B90220207016E013
:103A80006069B7FBF0F100FB11706169081A2061F1
:103A9000032020702069B04209D2266907E020691E
:103AA000A0EB080020612069B04200D22669681CA2
:103AB00005B218341448B0F900008542D4DD10482E
:103AC0000660304605F00EFC00250E4C10E0207814
:103AD00000F0020048B1207820F002002070A068B9
:103AE00018B1D4E9022160689047681C05B2183407
:103AF0000548B0F900008542E9DDBDE8F08100002D
:103B0000C4000020647D0020C800002010B540F2F1
:103B10002441064800F03DF930B1FDF7C1FC40F208
:103B20002441024800F08BF810BD00000010014055
:103B300010B588B00446FDF76FF901210846FDF77E
:103B4000FDFE01211020FDF729FF07220921314840
:103B5000FDF746FC07220A212E48FDF741FC4FF4F1
:103B60000070029002208DF80C008DF80D000020EE
:103B70008DF80E0001208DF80F0002A92548FDF7F1
:103B8000E7FB4FF48060029002A92248FDF7E0FBBA
:103B9000214800F079F804940020ADF81400ADF845
:103BA0001600ADF81800ADF81C000C20ADF81A0096
:103BB00004A9194800F03CF925208DF804000520DF
:103BC0008DF8050000208DF8060001208DF8070013
:103BD00001A8FDF75DFD012240F224410E4800F0EE
:103BE00002F901210C4800F039F840F224410A485A
:103BF00000F025F801224021074800F03BF801229F
:103C00008021054800F036F84021034800F00EF806
:103C100008B010BD00000240001001400246182903
:103C200001D20020704713461846FBE701F40072EA
:103C3000B2F5007F00D100BFCA430280704710B5C3
:103C40000022002340F66A14A14200D100BF0A12EC
:103C500001249440A3B2DC43048010BD21B18289C9
:103C600042F40052828104E082894DF6FF731A40CB
:103C7000828170471AB1838A0B43838202E0838A70
:103C80008B4383827047000010B50446324884425B
:103C900008D101211020FDF791FE00211020FDF731
:103CA0008DFE57E02D48844209D101214804FDF7DB
:103CB00065FE00214FF40030FDF760FE4AE0284821
:103CC000844209D101218804FDF758FE00214FF4F8
:103CD0008020FDF753FE3DE02248844209D10121B6
:103CE000C804FDF74BFE00214FF40020FDF746FE0F
:103CF00030E01D48844209D101210805FDF73EFE50
:103D000000214FF48010FDF739FE23E0174884426C
:103D100008D101212020FDF751FE00212020FDF7D0
:103D20004DFE17E01248844209D101218807FDF7B2
:103D300025FE00214FF08040FDF720FE0AE00D48EF
:103D4000844207D101214005FDF718FE00216005DE
:103D5000FDF714FE10BD00000010014000440040BB
:103D600000480040004C004000500040001401405A
:103D700000780040007C004002460020B1F5007F42
:103D800000D100BF13880B400BB1012000E00020E0
:103D9000704770B50246002400230025002040F63D
:103DA0006A16B14200D100BFC1F3421501F01F03F2
:103DB000012606FA03F3012D02D19689334006E06D
:103DC000022D02D1168A334001E0968A33400C124C
:103DD000012606FA04F41688344013B10CB1012010
:103DE00000E0002070BDF0B5034600240026002549
:103DF000002040F66A17B94200D100BF1846C1F34F
:103E0000421401F01F06012707FA06F5012C01D123
:103E10000C3004E0022C01D1103000E014301AB153
:103E200007682F43076002E00768AF430760F0BDF3
:103E30002DE9FF4705460E460024A14600BFA046D7
:103E4000B08900B100BF2C8A24F44054F0880443A8
:103E50002C82AC8941F20C608443B08831890843DC
:103E6000718908430443AC81AC8A24F44074B0895E
:103E70000443AC826846FDF7B1FD2048854202D07C
:103E80001F48854202D1DDF80C9001E0DDF8089072
:103E9000A88900F4004040B109EBC90000EB09100B
:103EA00031684900B0FBF1F707E009EBC90000EB0E
:103EB000091031688900B0FBF1F76420B7FBF0F01E
:103EC00004012009642101FB1078A88900F4004056
:103ED00040B1322000EBC800B0FBF1F000F0070069
:103EE000044308E0322000EB08106421B0FBF1F03D
:103EF00000F00F0004432C81BDE8FF870010014053
:103F00000014014000BFFEE70FB4054B10B503A934
:103F1000044A029800F0A2F810BC5DF814FB0000FF
:103F2000914E0008D00000200FB4084B10B504A932
:103F300002AA039800F092F8044602A9002000F0BB
:103F400055FB204610BC5DF814FB0000ED45000851
:103F500002E008C8121F08C1002AFAD17047704752
:103F6000002001E001C1121F002AFBD170470000B0
:103F70002DE9FC5F81468A4614469846DDE90C6BC4
:103F800001AA51464846D9F8E831984705460198B4
:103F900010B10198BDE8FC9F2879A04209DC2C48AB
:103FA00000231A4621460090504600F024FB284882
:103FB000F0E70E9880B1286800EB0410007800F05C
:103FC000010048B1234800231A462146009050467C
:103FD00000F011FB1F48DDE7B8F1000F02D14FF0F0
:103FE0000060D7E7286800EB041040683168884219
:103FF00006D9286800EB0410406830601648C9E70D
:10400000286800EB041040788BF80000286800EB6B
:1040100004104768286800EB04103A46816840465F
:10402000FCF732F99BF80000092801D037600DE059
:10403000286800EB041040683168884205D20020EF
:1040400008F80700781C306000E037600020A1E726
:104050001100090601000106050004052DE9FF4FC6
:104060008DB09B460F460446002606E025280BD05F
:104070005A460F999047641C761C20780028F5D189
:1040800011B03046BDE8F08F0025A84601229849BE
:1040900000E0054314F8013F203B02FA03F0084218
:1040A000F7D120782E2817D114F8010F45F0040518
:1040B0002A280ED06FF02F022078A0F130010929B4
:1040C0000AD808EB880102EB410100EB0108641CEF
:1040D000F2E757F8048B641C20786C280DD004DCC0
:1040E0004C2812D06A2811D104E074280DD07A2807
:1040F0000CD10AE045F4001507E0617845F480151D
:10410000814202D1641C05F58015641C2278692A5D
:1041100045D008DC002AB3D0582A69D0632A10D0D1
:10412000642A08D13BE0702A67D0732A13D0752A1D
:104130005CD0782A5CD010465A460F999047761C7E
:10414000D3E017F8040B8DF8000000208DF8010073
:10415000E946012003E057F8049B4FF0FF30690760
:104160004FF0000501D40AE06D1C45450DDA85428B
:10417000FADB19F805100029F6D106E06D1C85421E
:10418000FCDB19F805100029F8D12E4404E019F8D9
:10419000010B5A460F9990476D1EF8D2A5E00A20F0
:1041A0000021CDE90801C5F3025002280DD001CF4E
:1041B000C117031E71F100030DDA4FF0000CD0EBB4
:1041C0000C006CEB01012D2308E0FF1D27F0070711
:1041D000F7E80201EDE72B0504D52B238DF82830F5
:1041E00001233BE0EB0739D02023F7E70A2000E06A
:1041F00010200021CDE9080107E01020002145F042
:104200000405CDE908014FF00808C5F30250022863
:104210000FD001CF00214FF0000A2B071FD5702AC5
:104220000DD0DDE908C38CF0100C5CEA030C0CD057
:1042300015E0FF1D27F00707F7E80201EBE7402232
:104240008DF828204FF0010A0BE050EA010306D058
:1042500030238DF828308DF8292002239A46582AD9
:1042600004D024A20DF120090B9209E026A2F9E75F
:10427000DDE90823FCF749F80B9B9B5C09F8013D3D
:1042800050EA0102F4D1ADEB090020300890680734
:1042900001D44FF001080899884502DDA8EB010020
:1042A00000E000208046002506E00AA85A46405D4E
:1042B0000F9990476D1C761C5545F6DB04E03020C5
:1042C0005A460F999047761CB8F10001A8F10108F1
:1042D000F5DC05E019F8010B5A460F999047761C5A
:1042E0000899481E08900029F4DC641CC5E600000B
:1042F00009280100303132333435363738396162BC
:10430000636465660000000030313233343536377F
:104310003839414243444546000000002DE9FE4F34
:1043200004460F46002500264FF003096069B0F8E7
:1043300008806069B0F80AA0A069B0F808B08220CF
:10434000005D10B90020BDE8FE8FB8F1000F73D0FA
:104350000020009001900290A6E0B9F1030F06D072
:10436000B9F1050F6AD0B9F10B0F68D18CE0606824
:1043700050F838008069006800F0004010B14FF03C
:104380000B0990E0606850F83800866A4FB33078C7
:10439000012826DB3078F02823DC05EBC501A06876
:1043A00010F81100401CC0B205EBC502A16801F86D
:1043B00012003178884214D1002005EBC502A168B3
:1043C00001F812000090019002906A4629462046AA
:1043D00000F03CFA10B14FF00B0964E04FF0050912
:1043E00049E057B33078FC282AD105EBC501A06815
:1043F00000EB4100821D2946204600F027FA60B1FB
:1044000005EBC501A06810F8110020F0010005EBD4
:10441000C502A16801F812000BE005EBC501A06818
:1044200010F8110040F0010005EBC502A16801F889
:1044300012004FF00B0936E03AE001E01CE030E0FA
:104440000FB1307870B1A7B93078FF2802D030783A
:10445000FE280ED105EBC501A06810F8110000F090
:10446000010030B92946204604F094FC4FF00B09B6
:1044700001E04FF00B0916E06A462946204604F099
:1044800033FD4FF00B090EE0681CC5B208F10100C6
:104490001FFA80F80AF101001FFA80FA4FF00309B1
:1044A00001E0FF204FE700BFD8457FF756AF00BFC0
:1044B000002048E72DE9FF4F83B080468B46154624
:1044C000109C02AA59464046D8F8E831984706465B
:1044D000029818B1029807B0BDE8F08F3079A84271
:1044E00009DC3F480090002229465846236800F026
:1044F00082F83B48EFE7119878B1306800EB05107F
:104500000078022809D137480090002229465846F1
:10451000236800F070F83348DDE7306800EB0510E1
:1045200090F80190306800EB05104768306800EBA8
:104530000510D0F80CA0206810B12068B84243D80C
:10454000D8F824204846069990470290029848B12E
:10455000029800903A4629465846236800F04BF8E6
:104560000298B8E7316801EB05118868226806995E
:10457000FBF78AFEB9F1090F09D12068B84206D2CB
:104580000020316801EB0511896822688854276092
:10459000BAF1000F08D02A4631464046D047029073
:1045A000029808B1029896E7306800EB0510007891
:1045B00000F0040030B12A4659464046D8F8EC31A4
:1045C000984788E7002086E72760074800903A462A
:1045D00029465846236800F00EF803487BE70000A0
:1045E0001100090602000106100007060A68531CA4
:1045F0000B601070704730B50546039C002030BD3D
:1046000070B50546304800EB051420688047002847
:104610003ED02079052802DA0520207152E0207969
:104620000A2803DA2079401C20714BE0A07A38B9BF
:104630000120A07205EB4501491CC8B200F0F6F854
:10464000208900283EDDE088218988420DDAE08853
:10465000401C80B2E0802189884233D105EB4501BE
:10466000C91CC8B200F0E2F82CE0E07A002829DD8D
:10467000207B401CC0B22073E17A884222DB0020FC
:10468000207305EB4501491CC8B200F0CFF819E0D2
:104690002079052802DD0520207110E0207918B16D
:1046A0002079401E20710AE0A07A012807D100205D
:1046B000A07205EB4501891CC8B200F0B7F80020D4
:1046C000E080207370BD0000447A00200B48807A9F
:1046D0000A4AD27A904201D1002070470748807A76
:1046E000064A115C1046807A401CC0B290720A28BB
:1046F00001DB002090720846EFE70000747A00208A
:1047000010B504464FF44070FCF7FEFF1821201D41
:10471000FFF784FA20600949206808602068FCF7E8
:104720009FFF4FF4E130FFF703FA00F009F8FCF7C0
:1047300079FFFDF7F9FD04F0DDFD10BD94000020C8
:1047400010B500F02DF800F001F810BD1CB50121E6
:104750001120FDF7F3F800208DF804008DF8060015
:1047600001208DF8070002208DF805001020009030
:1047700069460948FCF7ECFD0820009069460648A8
:10478000FCF7E6FD02208DF8070001200090694645
:104790000248FCF7DDFD1CBD001002400000024095
:1047A0000021174A9172D1721173002018E0642120
:1047B000144A02EB001211810221124A02EB00128C
:1047C000117100210F4A02EB001291720D4A02EBA7
:1047D0000012D1720B4A02EB00121173411CC8B2D5
:1047E0000328E4DB642207490A830522CA760649C6
:1047F000044A1160054911610549116270470000C2
:10480000747A0020447A0020DD150008F5150008B0
:104810000D16000810B5002404E02046FFF7F0FE56
:10482000601CC4B2032CF8DB10BD00000649C97A35
:10483000054A50541146C97A491CC9B2D1720A2995
:1048400001DB0021D1727047747A00202DE9F04F0E
:104850008DB004468846154661690989606800EB99
:10486000C10000EBC8000C9061694989606800EBE9
:10487000C10000EBC80B4FF000090026DBF8000078
:1048800080680B900C98006880690088C0F30A006B
:1048900028800020A87000BF00200890099009F12E
:1048A0000100DBF8001001EB0010D0F808A0DAF8E6
:1048B0000000000C07909AF800707FB3F0194028B0
:1048C0002CD8781E012101EBD0000690BAF8000028
:1048D000C0F307200590012000210AAA06ABCDE90C
:1048E0000032CDE9021008AB2046059A0799FFF780
:1048F0003FFB18B1FF200DB0BDE8F08F002206F09D
:104900000700291D01EBD601CDE901020091F8B2A3
:10491000134608A9FCF79BF93E4400BF09F10100CA
:1049200000F0FF090B9800784845B5DC701E0121A6
:1049300001EBD000E8700020DDE770B504460D46BD
:104940002E88F0110F2843D2DFE800F03A08191A38
:104950001B1C1D1E1F2021292A423200802E06D139
:104960008020005D50B1204603F0D8FD06E07F2096
:10497000005D18B12946204600F0A4FD28E000BFE4
:1049800000BF00BF00BF00BF00BF00BF00BF82204C
:10499000005D18B12946204600F0AEFE18E000BFC9
:1049A0007E20005D18B12946204601F013F80FE083
:1049B0008120005D18B12946204600F011FE07E075
:1049C000206A007818B12946204600F098FD00BF03
:1049D00000BF70BD3EB505460C4601208DF80100B4
:1049E00000208DF8020001208DF803005C4885420C
:1049F00058D101210220FCF7A1FF092208215948C2
:104A0000FCF7EEFC092211465648FCF7E9FC4FF48E
:104A10004070019002208DF808008DF809000020F8
:104A20008DF80A0001208DF80B0001A94D48FCF714
:104A30008FFC01214806FCF791FF2846FBF784FD17
:104A40004948FBF747FF002047498871C871087241
:104A500048728872C8728870C87005200871062074
:104A600048710C802846FBF718FE00203F498872E9
:104A7000C872012008730020088048808880C880A0
:104A80000881012048730846FBF77AFD01220221C4
:104A90002846FBF7F9FD14208DF800006846FCF766
:104AA000F7FD5AE001210220FCF748FF0922052109
:104AB0002C48FCF795FC092206212A48FCF790FCBB
:104AC0006020019002208DF808008DF80900002078
:104AD0008DF80A0001208DF80B0001A92148FCF790
:104AE00037FC01218806FCF739FF2846FBF72CFD2F
:104AF0001D48FBF7EFFE00201B498871C871087242
:104B000048728872C8728870C870052008710620C3
:104B100048710C802846FBF7C0FD0E20FBF7C0FE55
:104B20000E20124988720020C872012008730020EC
:104B3000088048808880C880088101204873084622
:104B4000FBF71EFD012202212846FBF79DFD4020B8
:104B50008DF800006846FCF79BFD01203EBD00007B
:104B60000064004000040240487D0020547D002085
:104B7000F0B585B007460C462088009000200190D3
:104B8000A0788DF8090000208DF80800E0788DF8F5
:104B90000A00002506E0201D415D0DF10B00415586
:104BA000681CC5B2E078A842F5DC69463846FBF7D8
:104BB000A1FE0646042E02D1002005B0F0BD012062
:104BC000FBE700008AB000200790089009900022BF
:104BD0001821142005F058FA264908600846006894
:104BE00040B906E024A0FFF78FF94FF47A7004F083
:104BF0007DFEF7E73CE00023642201A91D48006820
:104C000005F06EFA002833D024A0FFF77DF9029852
:104C100080B2ADF81C009DF811008DF81E009DF8C3
:104C200012008DF81F00002405E00DF11300015D56
:104C300008A80155641C9DF81F00A042F5DC1E4821
:104C4000006848B19DF80400012805D11A49086898
:104C500007A9FFF772FE0BE01748406840B19DF8C6
:104C60000400022804D11449486807A9FFF765FE2B
:104C7000C1E70000A80000204372656174207468D9
:104C8000652043414E4F70656E20517565756520F6
:104C90006661696C656421200D0A000074687265A4
:104CA00061642067657420612063616E20706163B8
:104CB0006B6567650D0A0000B00000201CB5084850
:104CC00004210023CA01CDE9001006A1074805F020
:104CD000D3FB0348006810B905A0FFF715F91CBD08
:104CE000AC00002043414E4F70656E00C54B00087C
:104CF00043414E4F70656E206461746170726F63E2
:104D00006573732074687265616420637265617491
:104D10006564206661696C6564210D0A000000000D
:104D20000146002002E04910421CD0B20129FAD10C
:104D3000704700002DE9F04107463E4656B900BFD6
:104D4000102080F31188BFF34F8FBFF36F8F00BF28
:104D500000BFFEE713480068864201D100241EE030
:104D600004F0ECFC756904F013FD0F4800688542FF
:104D700003D00E480068854201D102240FE00C48A0
:104D8000854205D1B06A08B9032408E0022406E090
:104D90000848854200D00DB9042400E001242046D3
:104DA000BDE8F081280000202C0000203000002009
:104DB000A40100209001002010B50446054B0022FC
:104DC00041F203012046FCF77DFE0020D4F80C12CE
:104DD000087010BD9117000870472DE9FE4F04467A
:104DE0000F4615469946DDE90CA802AB2A4639461E
:104DF000204600F092F8064636B9012D04D19DF800
:104E00000810204603F095FF9EBB022D31D19DF87E
:104E10000810C1EBC10101EB410204F1280101EBD3
:104E20008201B1F94C00FCF7ADF99DF80810C1EB17
:104E3000C10101EB410204F1280101EB8201A1F85B
:104E40004C0085219DF80800C0EBC00000EB40023B
:104E500004F1280000EB820081709DF80800C0EB8F
:104E6000C00000EB400104F1280000EB8100C0F815
:104E700004804B463A4629462046CDE900A804F076
:104E80009AF8064616B1FF20BDE8FE8F0020FBE72A
:104E900000BF054A128802F04002002AF9D0C2B2CF
:104EA000014B9A80704700000010014006480168DD
:104EB00006480068814203D904480068081A704710
:104EC00002480068401AFAE7BC000020C000002039
:104ED000014608680078704730B503460C4600214B
:104EE00017E0C1EBC10000EB400503F1280000EB27
:104EF0008500807858B91170C1EBC10000EB400506
:104F000003F1280000EB85004470002030BD481CF0
:104F1000C1B20129E5DBFF20F8E770B504460D4674
:104F200000212FE0C1EBC10000EB400604F1280096
:104F300000EB8600807818B3C1EBC10000EB40069F
:104F400004F1280000EB86008078852818D0C1EB9A
:104F5000C10000EB400604F1280010F82600A8422A
:104F60000ED1C1EBC10000EB400604F1280000EBBC
:104F700086004078904203D103B11970002070BDC3
:104F8000481CC1B20129CDDBFF20F8E730B503464C
:104F9000C1EBC10000EB400403F1280000EB8400EA
:104FA000C06810B90020106013E0C1EBC10000EB35
:104FB000400403F1280000EB8400C468C1EBC10089
:104FC00000EB400503F1280000EB85000069201A82
:104FD0001060002030BD0000F8B50446204B0022D0
:104FE00041F217012046FCF76DFD002084F8E00136
:104FF000002516E0D4F8A00030F8250086B276B17E
:105000000020009006EB4600C0EBC613154A294667
:105010002046FEF781FBD4F8A41021F81500681C87
:10502000C5B2D4F89C000078A842E3DCD4F8A8000C
:10503000008898B1D4F8A800068806EB4600C0EBBB
:10504000C610009006EB4600C0EBC613064A0021CE
:105050002046FEF761FBA4F8AC0000BFF8BD0000DD
:10506000311700081D0C0008F518000870B504463B
:1050700000250BE0D4F8A41031F91500FCF782F8F4
:10508000D4F8A41021F81500681CC5B2D4F89C000F
:105090000078A842EEDCB4F9AC00FCF773F8A4F891
:1050A000AC0070BD2DE9F84304460D4617469846FE
:1050B000DDE90896022E05D0032E03D0042E01D080
:1050C000052E12D10020664B664A294600902046E4
:1050D000FEF722FBC5EBC50101EB410204F12801FB
:1050E00001EB8201A1F84C0015E0C5EBC50101EB15
:1050F000410204F1280101EB8201B1F94C00FCF7F7
:1051000041F8C5EBC50101EB410204F1280101EBB7
:105110008201A1F84C00C5EBC50000EB400104F191
:10512000280000F82170C5EBC50000EB400104F138
:10513000280000EB8100A0F80880C5EBC50000EB5B
:10514000400104F1280000EB810080F80A90C5EBD3
:10515000C50000EB400104F1280000EB81008670DF
:105160000021C5EBC50000EB400204F1280000EB74
:105170008200C170C5EBC50000EB400204F12800BD
:1051800000EB8200C160C5EBC50000EB400204F1FA
:10519000280000EB82000161C5EBC50000EB400276
:1051A00004F1280000EB820080F83410C5EBC50044
:1051B00000EB400204F1280000EB820080F835107B
:1051C000C5EBC50000EB400204F1280000EB8200B3
:1051D00080F83610C5EBC50000EB400204F1280052
:1051E00000EB82008163C5EBC50000EB400204F1D7
:1051F000280000EB8200C163C5EBC50000EB400254
:1052000004F1280000EB820080F84010C5EBC500D7
:1052100000EB400204F1280000EB820080F841100E
:10522000C5EBC50000EB400204F1280000EB820052
:1052300080F84210C5EBC50000EB400204F12800E5
:1052400000EB820080F84B10C5EBC50000EB40027C
:1052500004F1280000EB820001650020BDE8F8831E
:10526000D8B80500C91C000800200249086002499E
:1052700008607047BC000020B800002010B504464C
:105280002046FFF7A9FE204600F086F810BD10B5B5
:1052900004462046FFF7EAFE204600F0C3F810BDA2
:1052A000F0B504461D46C1EBC10000EB400704F118
:1052B000280000EB870000691044202801D9FF2056
:1052C000F0BDC1EBC10000EB400704F1280000EB8A
:1052D000870000698718C1EBC10000EB400C04F1A6
:1052E000280000EB8C00C068874201D9FF20E7E767
:1052F000C1EBC10000EB400704F1280000EB870080
:10530000066900230DE0C1EBC10000EB400704F18A
:10531000280000EB87001430F718C05DE854581CD3
:10532000C3B29342EFD3C1EBC10000EB400704F1DD
:10533000280000EB870000698718C1EBC10000EB73
:10534000400C04F1280000EB8C0007610020B7E757
:105350000548FFF7D5F9044804490860FBF738F819
:1053600004F042FC00BFFEE7D40000201000002043
:10537000FEB504460D4645F4E066ADF80060012038
:105380008DF8020000208DF803006946D4F8E4018E
:10539000FFF7EEFBFEBD0000F8B504461F4B0022F0
:1053A00041F20C012046FCF78DFB1C4B002241F220
:1053B0000D012046FCF786FBD4F83C01008860B361
:1053C000D4F84001007840B3D4F83C01068806EBDD
:1053D0004600C0EBC610009006EB4600C0EBC613BB
:1053E0000F4A00212046FEF797F9A4F83401002562
:1053F00010E004F1B400405D0F2809D02068007867
:10540000A84205D0D4F84001017804F5A2704155B6
:10541000681CC5B2802DECDB00BFF8BD7917000811
:105420002B14000810B50446B4F93401FBF7AAFEAA
:10543000A4F8340110BDF0B587B004460D46202015
:105440000690012005AA06ABCDE901200093039048
:10545000C5EBC50000EB400704F1280000EB870016
:1054600000F11403C5EBC50000EB400704F1280070
:1054700000EB8700827AC5EBC50000EB400704F122
:10548000280000EB870001892046FEF771FD0646E3
:1054900016B1304607B0F0BDC5EBC50000EB4002C9
:1054A00004F1280000EB82000699C1600021C5EBE1
:1054B000C50000EB400204F1280000EB820001610E
:1054C0000020E7E72DE9F84305460C46E078082878
:1054D00001D0BDE8F883207800F07F06217960795B
:1054E00041EA002794F80680E01D009043463A46C2
:1054F00031462846D5F83CC2E04700BFE9E770B521
:1055000004460D4694F87C007F2807D094F87C0070
:10551000052803D094F87C0004285FD1687920B175
:10552000687921680978884258D12879802824D060
:1055300004DC012807D002284FD111E0812829D0AE
:1055400082284AD132E094F87C007F2803D094F876
:105550007C00042803D10521204603F05DFE3CE0D9
:1055600094F87C007F2803D094F87C00052803D1B0
:105570000421204603F050FE2FE094F87C0005281B
:1055800003D094F87C00042803D17F21204603F047
:1055900043FE22E0D4F8940018B12046D4F89410C9
:1055A00088470021204603F037FE16E02046FFF72B
:1055B0008FFC0646D4F8980018B12046D4F898100D
:1055C0008847FF20216808703146204603F03AFDE5
:1055D0000021204603F020FE00BF00BF70BD000088
:1055E0002DE9FE4F04460F46387800F07F05B87865
:1055F000012829D120680078A84279D12068007854
:1056000000F5E066ADF8006001208DF80300002091
:105610008DF8020094F87C008DF8040094F8E00105
:1056200048B19DF8040040F080008DF8040000208F
:1056300084F8E00102E0012084F8E0016946D4F832
:10564000E401FFF795FA53E0387900F07F08D4F8C9
:105650004001017804F5A27041559038405D404505
:1056600009D0424629462046D4F8DC31984704F157
:10567000B40000F8058004F1B400405D20B929466B
:105680002046D4F8D821904704F1B400405D0F289B
:105690002DD0002625E0D4F8A00050F82600C0F355
:1056A00007494D451BD1D4F8A00030F826001FFA59
:1056B00080FAD4F8A41031F91600FBF763FD00203E
:1056C00000900AEB4A00C0EBCA130A4A3146204652
:1056D000FEF722F8D4F8A41021F8160000BF701CC1
:1056E000C6B2D4F89C000078B042D4DC00BF00BF42
:1056F000BDE8FE8F1D0C00082DE9F04F8DB004466B
:105700000F4600200B90824683460A9002200990A3
:105710004FF00008002500200C90B87800287DD1BB
:1057200060698688A06980880790002E77D0ACE0F9
:105730000998022802D004280CD113E0606850F8C0
:10574000360080690A900A9800683988884202D138
:105750000420099098E0681CC5B2701C86B2022033
:10576000099091E06069C688A069C0880790606868
:1057700000EBC60050F8350080680B9000200C90BC
:105780005CE0002005900690606800EBC60050F8D1
:1057900035100C98401C01EB0010D0F808A0BAF1AD
:1057A000000F03D1FF200DB0BDE8F08F9AF80090F4
:1057B000B9F1000F3DD008EB0900F978B0EBC10F4B
:1057C00037DC002005AACDE90020CDE902084FEA28
:1057D000E87008EB5070C010A8EBC000C2B2381DD2
:1057E00000EBE80100234846FBF731FAA9F101007C
:1057F000012101EBE00004900120002104AACDE981
:1058000000210290BAF80000C0F30722DAF8000085
:10581000010C05AB2046FEF74DFE01E03AE0C0E08A
:105820000890089808B1FF20BDE708EB090000F0D8
:10583000FF080C98401CC0B20C9000BF0B98017878
:105840000C9881429DDCE068E0B1606850F8360059
:10585000806D00880690069898B1E16831F91500CE
:10586000FBF790FC00200090069800EB4001C1EB94
:10587000C013294620462269FDF74EFFE16821F852
:10588000150000BF00208EE700BF079886427FF713
:105890004FAF9DE0B8780128FBD109906069068977
:1058A000A06900890790002E7BD08DE0099801281F
:1058B00004D0042816D005280CD175E0606850F893
:1058C000360080690A900A9800683988884202D1B7
:1058D0000420099077E0681CC5B2701C86B20120D4
:1058E000099070E0606850F83600D0F828B09BF856
:1058F0000000FD2802D10520099064E09BF800001B
:10590000FC2816D105EBC501A06810F8110000F0C5
:10591000010058B105EBC503A26802EB4302911DDB
:10592000D4F8E401FFF724F900203CE705200990B2
:1059300049E09BF80000FF2803D09BF80000FE28F8
:1059400030D105EBC502A16801EB4201B1F90200BB
:10595000FBF718FC05EBC502A16801EB420148808A
:1059600005EBC502A16801EB4201B1F90400FBF7A8
:1059700009FC05EBC502A16801EB4201888005EB3B
:10598000C501A06810F8110020F0010005EBC50268
:10599000A16801F8120029462046FBF70FFF0020FE
:1059A00001E715E0FF20FEE604AA29462046FEF79F
:1059B0004DFF08B1FF20F6E604A9D4F8E401FFF793
:1059C000D7F80020EFE600BF079886427FF76EAF5A
:1059D0000020E8E603B599B000201690149003204B
:1059E00012900020099003201290199840690088B5
:1059F0000890199880690088079000200A900898FC
:105A000050B324E019984168089801EBC000007970
:105A1000012802DCFF201BB000BD199841680898DE
:105A200051F8300081690991099801681A98008835
:105A3000814204D1012012900A9813900BE00A9839
:105A4000401CC0B20A900898401C80B20890DDE962
:105A500007108842D6DD00BF129803283DD119985F
:105A60004069408808901998806940880790002014
:105A70000A90089888B32BE019984168089801EBC0
:105A8000C0000079032801DCFF20C4E719984168B1
:105A9000089851F83000816A0991099801681A98AC
:105AA000008881420CD1022012900A981390199814
:105AB0004168089851F83000806B007814900BE032
:105AC0000A98401CC0B20A900898401C80B2089006
:105AD000DDE907108842CFDD00BF1298032801D10D
