:020000040800F2
:1000000058B90020550200082B190008891800086B
:1000100029190008150400081D410008000000000F
:100020000000000000000000000000009D0100082A
:100030008D0E000800000000F1010008B93800082A
:100040006F0200086F0200086F0200086F020008CC
:100050006F0200086F0200086F0200086F020008BC
:100060006F0200086F0200086F0200086F020008AC
:100070006F0200086F0200086F0200086F0200089C
:100080006F0200086F0200086F0200086F0200088C
:10009000190400086F0200086F0200086F020008D0
:1000A0006F0200086F0200086F0200086F0200086C
:1000B0006F0200086F0200086F0200086F0200085C
:1000C0006F0200086F0200086F0200086F0200084C
:1000D0006F020008413C00086F0200086F02000830
:1000E0006F0200086F0200086F0200086F0200082C
:1000F0006F0200086F0200086F0200086F0200081C
:100100006F020008692500086F0200086F020008EE
:100110006F0200086F020008F93900086F0200083A
:100120006F0200086F0200086F020008BD0A000895
:100130006F0200086F0200086F0200086F020008DB
:10014000810400086F0200086F0200086F020008B7
:10015000E50A00086F0200081D0B00086F02000886
:100160006F0200086F0200086F0200086F020008AB
:100170006F0200086F0200086F0200086F0200089B
:100180006F0200086F020008DFF80CD000F0E6F8FC
:10019000004800475961000858B900202A4B1968E7
:1001A0000868B0E8F04F80F30988BFF36F8F4FF015
:1001B000000080F3118870470000000006480068C6
:1001C000006880F3088862B661B6BFF34F8FBFF353
:1001D0006F8F00DF00BF00BF08ED00E0DFF80C000C
:1001E000016841F470010160704700BF88ED00E0D4
:1001F000EFF30980BFF36F8F134B1A681EF0100FD7
:1002000008BF20ED108A20E9F04F106008B44FF0CD
:10021000100080F31188BFF34F8FBFF36F8F09F089
:1002200027FA4FF0000080F3118808BC19680868AD
:10023000B0E8F04F1EF0100F08BFB0EC108A80F34A
:100240000988BFF36F8F704718240020EFF30580F3
:10025000704700000648804706480047FEE7FEE773
:10026000FEE7FEE7FEE7FEE7FEE7FEE7FEE7FEE766
:10027000E53800088901000840EA01039B0703D024
:1002800009E008C9121F08C0042AFAD203E011F8D5
:10029000013B00F8013B521EF9D27047D2B201E097
:1002A00000F8012B491EFBD270470022F6E710B57B
:1002B00013460A4604461946FFF7F0FF204610BDD4
:1002C000421C10F8011B0029FBD1801A704730B581
:1002D00004460020034600E05B1C934203D2E05C2E
:1002E000CD5C401BF8D030BD034611F8012B00F85F
:1002F000012B002AF9D1184670472DE9F05F054619
:10030000002092469B4688460646814640241BE0D4
:10031000284641464746224600F041F853465A4691
:10032000C01A914110D311461846224600F028F811
:100330002D1A67EB01084F4622460120002100F0EC
:100340001FF817EB00094E41201EA4F10104DFDC69
:10035000484631462A464346BDE8F09F064C074DC5
:1003600006E0E06840F0010394E807009847103485
:10037000AC42F6D3FFF70CFF68AA000888AA000871
:10038000202A04DB203A00FA02F100207047914055
:10039000C2F1200320FA03F3194390407047202A4A
:1003A00004DB203A21FA02F00021704721FA02F31F
:1003B000D040C2F12002914008431946704770B501
:1003C0008C1810F8015B15F0070301D110F8013B00
:1003D0002A1106D110F8012B03E010F8016B01F887
:1003E000016B5B1EF9D12B0705D40023521E0DD4DF
:1003F00001F8013BFAE710F8013BCB1A921C03E02D
:1004000013F8015B01F8015B521EF9D5A142D8D364
:10041000002070BDFEE7000010B588B000200690F7
:100420001020EFF3118480F31188BFF34F8FBFF3D7
:100430006F8F01AA00210F4800F065F901208DF8A7
:1004400000000D48006820B1002306AA694609F0A3
:10045000FDFC84F311880698002804BF08B010BD85
:100460004FF0805005490860BFF34F8FBFF36F8F87
:1004700008B010BD006400403C00002004ED00E026
:1004800000B587B00020069008F026FE01AA0021E2
:100490000F4800F038F901208DF800000D48006881
:1004A00020B1002306AA694609F0D0FC08F034FE0A
:1004B0000698002804BF07B000BD4FF080500649E1
:1004C0000860BFF34F8FBFF36F8F07B000BD000010
:1004D000006800403C00002004ED00E0A0F18041F5
:1004E00010B5B1F5C8414FF0010109D0880601F0FF
:1004F000D1FEBDE8104000214FF0806001F0CABE7F
:100500004FF0007001F0C6FEBDE8104000214FF032
:10051000007001F0BFBE000030B4827A344B01217C
:1005200091401A6842F001021A60DFF8C8C0DCF896
:1005300000208A43CCF80020047B2F4AD4B91468E9
:100540008C4314604488C58844EA0544857AED00EC
:1005500005F1804505F5C045C5F840460588848805
:1005600045EA0445847AE40004F1804404F5C0447B
:10057000C4F84456047B012C18D114680C43146051
:10058000847A0268E40004F1804404F5C0444FEA30
:100590003242C4F84026847A4268E40004F1804480
:1005A00004F5C0444FEA3242C4F84426C47A134AE0
:1005B000002C14680CBF8C430C4314600489104A4F
:1005C00014B914688C4314600489012C02D1146896
:1005D0000C431460407B012804D1DCF80000084380
:1005E000CCF80000186820F00100186030BC70479B
:1005F000006600401C6600400C6600400466004037
:1006000014660040002A426914BF114322EA010126
:10061000416170470368002223F00203036003680E
:1006200043F0010303604FF6FF73D0F804C01CF0E1
:10063000010F03D19A4218BF521CF6D1426812F042
:10064000010F5DD08A79012A02680CBF42F0800256
:1006500022F080020260CA79012A02680CBF42F0CF
:10066000400222F0400202600A7A012A02680CBFAE
:1006700042F0200222F0200202604A7A012A026837
:100680000CBF42F0100222F0100202608A7A012AA6
:1006900002680CBF42F0080222F008020260CA7A27
:1006A000012A02680CBF42F0040222F00402026038
:1006B0008A7891F803C04FEA827242EA0C6291F89C
:1006C00004C042EA0C4291F805C0098842EA0C5283
:1006D000A1F1010142EA0101C161016821F00101BA
:1006E00001604FF00001426812F0010F1CBF9942F7
:1006F000491CF8D1406810F0010F04BF0120704779
:100700004FF00000704700EB0113D3F8B0C11CF0AC
:10071000040C82F808C0D3F8B0C107BF4FEA5C5C94
:10072000C2F800C04FEADC0CC2F804C0D3F8B0C174
:100730000CF0020C82F809C0D3F8B4C10CF00F0C15
:1007400082F80AC0D3F8B4C14FEA1C2C82F813C057
:10075000D3F8B8C182F80BC0D3F8B8C14FEA1C2C4B
:1007600082F80CC0D3F8B8C14FEA1C4C82F80DC017
:10077000D3F8B8C14FEA1C6C82F80EC0D3F8BCC1E4
:1007800082F80FC0D3F8BCC14FEA1C2C82F810C00D
:10079000D3F8BCC14FEA1C4C82F811C0D3F8BC316D
:1007A0001B0E937421B1016941F020010161704772
:1007B000C16841F02001C1607047000009490A6822
:1007C00042F001020A600A6822F4877222F4785229
:1007D0000A600A6842EA00200860086820F0010008
:1007E000086070470066004000218171C17101728C
:1007F00041728172C1728170C17003210171022145
:10080000417101210180704710B4024600209368B5
:1008100013F0806F3ED002EB0012D2F8803103F06B
:100820000103C2F880310B7A002B42D0D2F880C18C
:100830004C684CEA030391F809C04CEAC40C43EA43
:100840000C03C2F880318B7A03F00F038B72D2F85D
:10085000843123F00F03C2F88431D2F8843191F847
:100860000AC043EA0C03C2F88431CB7AD1F80CC039
:1008700043EA0C23C2F88831CB7B096943EA0121A2
:10088000C2F88C11D2F8801141F00101C2F8801138
:1008900010BC7047906810F0006F18BF0120BAD1EB
:1008A000906810F0805F14BF02200420B3D110BC08
:1008B0007047D2F8803191F809C043EA0C03B1F8CF
:1008C00000C043EA4C53BCE770B5464905460024D6
:1008D000086810F0450F03D1086810F0450FFBD0F1
:1008E00010F0040F05D00324042001F0D5FD2046AC
:1008F00070BD10F0010F05D00124204601F0CCFDA1
:10090000204670BD01F004FEA84234D140F2FF50F1
:1009100001F0C2FD002001F01DFE334908425ED007
:1009200010F0004F1CBF1C2070BD10F0804F1CBF8A
:10093000092070BD10F0005F1CBF0A2070BD10F0D0
:10094000805F1CBF0B2070BD10F0006F1CBF0C201F
:1009500070BD10F0806F1CBF0D2070BD10F0807F47
:100960001CBF0E2070BD10F4000F1CBF0F2070BD07
:1009700010F4800F01D0102070BD10F4001F1CBFB8
:10098000112070BD10F4801F1CBF122070BD10F428
:10099000002F1CBF132070BD10F4802F1CBF14202B
:1009A00070BD10F4003F1CBF152070BD10F4803FD7
:1009B0001CBF162070BD10F4004F1CBF172070BD67
:1009C00010F4804F1CBF182070BD10F4005F1CBFD6
:1009D000192070BD10F0080F1CBF1A2070BD2046F2
:1009E00070BD0000342C014008E0FFFDD0F8A020CD
:1009F000D0F8A4C04FF0FF3352F821202CF811306A
:100A0000C2F307420121831883F8B410D0F8B03044
:100A100011461847002808BF70472DE9F0074FF02E
:100A2000FF08DDE9074C099FACEB02056DB20E78BB
:100A3000002DCEBF06FA05F56D4226FA05F505F044
:100A4000FF09CCBFCCF10805C2F10805EDB2854223
:100A500088BF05460CEB0506CCF1080C08FA06FA2F
:100A600028FA0CFC4AEA0C0C94F800A029EA0C09BC
:100A70000AEA0C0C2A444CEA090CD2B284F800C0F1
:100A8000072A07D90022002B14BF4FF0FF3C4FF07C
:100A9000010C614406F0FF0CBCF1070F07D94FF0C1
:100AA000000C002F14BF4FF0FF3601263444401BCA
:100AB00010F0FF00B8D1BDE8F007704706480068A5
:100AC00010F0C05F08BF70470120044948614FF033
:100AD000C251034800F050B80064024024000020D6
:100AE0005864024070B51020EFF3118480F3118830
:100AF000BFF34F8FBFF36F8F064D074E2946304629
:100B000000F03EF918B12946304600F04BF884F366
:100B1000118870BD00880020886402402DE9F041F2
:100B20001020EFF3118480F31188BFF34F8FBFF3D0
:100B30006F8F0D4D0D4E2946304600F021F90028EB
:100B400018BF0B4F0CD04021384603F047FA00285D
:100B5000F9D02946304600F025F8064900200870F3
:100B600084F31188BDE8F08100800028B864024059
:100B7000001001401C000020064A904234BF064885
:100B8000064811F0005F064A01EA020114BFC16085
:100B900081607047106402400060024000640240BF
:100BA0007D0F7D0F064A904234BF0648064811F07B
:100BB000005F064A01EA020114BFC160816070470C
:100BC0001064024000600240006402407D0F7D0F0F
:100BD0000029016814BF41F0010121F00101016009
:100BE000704700002DE9F003016821F00101016068
:100BF0000021016041608160C1600161212141618A
:100C0000444A45494FF03D08904202BFC1F8088070
:100C1000BDE8F0037047414A4FF47464904202BF4C
:100C20008C60BDE8F00370473D4A4FF47415904264
:100C300002BF8D60BDE8F00370473A4A4FF074661A
:100C4000904202BF8E60BDE8F0037047364B374AD2
:100C5000984202BFCA60BDE8F0037047DFF8D0C019
:100C6000344B604502BFCB60BDE8F0037047324FA4
:100C7000DFF8C8C0B84202BFC1F80CC0BDE8F0033D
:100C80007047DFF8BC904FF03D57484502BFCF603A
:100C9000BDE8F0037047DFF8AC902B49484502BF30
:100CA000C1F80080BDE8F0037047DFF8A080404540
:100CB00002BF0C60BDE8F0037047254CA04202BFA4
:100CC0000D60BDE8F0037047224CA04202BF0E60E9
:100CD000BDE8F0037047204C2049A04202BF0A60E3
:100CE000BDE8F00370471E4A904202BF0B60BDE8AA
:100CF000F00370471B4A904202BFC1F800C0BDE834
:100D0000F0037047184A904208BF0F60BDE8F00337
:100D100070470000106002400060024028600240FE
:100D20004060024058600240706002403D00002078
:100D300088600240400F0020A060024000003D207B
:100D4000B860024010640240086402402864024017
:100D50004064024058640240706402400C640240E7
:100D600088640240A0640240B8640240002901681F
:100D700014BF41F0200121F0200101607047000004
:100D8000124A0023904234BF114A124ADFF848C089
:100D900011EA0C0F04BF406900F0800006D04FF04C
:100DA0001E0C00680CEAD12C00EA0C0011F0005F68
:100DB00014BF52681268DFF824C002EA0C020A422B
:100DC0001CBF002801231846704700001064024031
:100DD00000600240006402403C0F3C0F7D0F7D0F1D
:100DE00011F0800F07D04369002A0CBF23F0800365
:100DF00043F080034361802908BF704701F01E0162
:100E0000002A02680CBF22EA010111430160704709
:100E100010B402681B4BD1F80CC01A400B6843EAAF
:100E20000C03D1E905C44CEA040C43EA0C03D1F8E5
:100E30001CC043EA0C03D1F820C043EA0C03D1F8EC
:100E400024C043EA0C03D1F828C043EA0C03D1F8CC
:100E500034C043EA0C03D1F838C043EA0C031A4308
:100E600002604269D1E90B3C22F0070243EA0C031D
:100E70001A4342610A6942604A6882608968C160B7
:100E800010BC70473F801CF0416070477047000005
:100E9000B0F1FF3F0CD0084AB2F90010884204BFFD
:100EA000491E11800021054A00EB400002F8301075
:100EB0004FF0FF3070470000A024002088A80020D9
:100EC00010B582B00B4C0120CDE900040A484FF464
:100ED00000720AA103680C4809F04EF82068002847
:100EE0001CBF02B010BD09A002B0BDE8104003F065
:100EF00061B90000440000202C2C002045504F53C5
:100F000032696E6974000000310F000845504F537C
:100F10003220696E6974207468726561642063723E
:100F20006561746564206661696C6564210D0A0001
:100F30002DE9F04F93B0814601270AAA46F24001FD
:100F400000F0F4FC00680AAA46F2410184684846B1
:100F500000F0ECFC006800254FF0040B866840F2BE
:100F60008110CDF820B00DF12008CDE90250CDE977
:100F7000008503AB01224FF4A051484603F062FC08
:100F800040F28120CDE90250CDE9008503AB01227A
:100F900041F20141484603F055FC40F28130CDE971
:100FA0000250CDE9008503AB012241F202414846DF
:100FB00003F048FC40F28140CDE90250CDE90085C4
:100FC00003AB012241F20341484603F03BFCFE48DB
:100FD000CDE90085CDE9025003AB01224FF4C051A9
:100FE000484603F02FFCF948CDE90085CDE90250D1
:100FF00003AB012241F60101484603F023FCF4480B
:10100000CDE90085CDE9025003AB012241F6020192
:10101000484603F017FCEF48CDE90085CDE90250C2
:1010200003AB012241F60301484603F00BFCFF200D
:101030008DF81800CDE900854FF0010ACDF820A009
:1010400006AB02224FF4A0514846029503F0FAFB8A
:10105000FF208DF81800CDE9008506AB022241F291
:1010600001414846029503F0EDFBFF208DF8180082
:10107000CDE9008506AB02224FF4C05148460295E7
:1010800003F0E0FB0220CDE9008508900322ADF8D3
:10109000105004ABD1024846029503F0D3FB022066
:1010A0008DF81C00CDE90085CDF820A007AB00220B
:1010B0004FF4B0514846029503F0C4FBC648059072
:1010C000CDE90085CDF820B005AB01224FF4B05139
:1010D0004846029503F0B6FBC0480590CDE900856F
:1010E000CDF820B005AB02224FF4B051484602952E
:1010F00003F0A8FBCDE900858DF81CA0CDF820A059
:1011000007AB002241F201614846029503F09AFBC9
:10111000B3480590CDE90085CDF820B005AB01229C
:1011200041F201614846029503F08CFBCDE9008550
:101130008DF81CA0CDF820A007AB00224FF4D051B1
:101140004846029503F07EFBA6480590CDE9008550
:10115000CDF820B005AB01224FF4D051484602959E
:1011600003F070FB46F2410A4FF0000BD9F8E8C1DA
:101170005D4610AA51464846E04700684FF0030814
:101180005B4641784068CDE90015029052463946E9
:10119000484607F07FFBD0B902F054FB0DF1440A3A
:1011A000DFF844B207F098FF02AB324639464846B2
:1011B000CDF800A004F07DFD054607F0ADFF9BF8DB
:1011C0000000012803D04545ECD0012D05D00222B6
:1011D0003946484604F09CF9C4E7307810F0080F0F
:1011E0000BD0802020800020CDE90040034646F24D
:1011F00040023946484602F093FF8022394648466D
:1012000005F02DF80A2008F027F800250DF10C0A4A
:1012100007F50070CDE900A5039001234FF4A0521B
:101220003946484602F07CFF06A8CDE900050223B6
:101230004FF4A0523946484602F072FF69480590C3
:101240000DF11C08CDE900858DF81C5000234FF4EA
:10125000B0523946484602F063FF05A8CDE90005C3
:1012600001234FF4B0523946484602F059FFCDE908
:1012700000854FF0010B8DF81CB000234FF4B052E5
:101280003946484602F04CFF07F1804000F5C07037
:1012900003901420CDE900A5ADF8100001234FF410
:1012A000C0523946484602F03BFF06A8CDE900058A
:1012B00002234FF4C0523946484602F031FF04A8D9
:1012C000CDE900050323DA023946484602F028FF3B
:1012D00007F1804000F52070CDE900A50390ADF83E
:1012E0001050012341F601023946484602F018FF2A
:1012F00006A8CDE90005022341F601023946484619
:1013000002F00EFF04A8CDE90005032341F6010217
:101310003946484602F004FF3448CDE900A5384478
:101320000390012341F602023946484602F0F8FED6
:101330002F48CDE900A538440390012341F603026C
:101340003946484602F0ECFE23480590CDE9008579
:101350008DF81C5000234FF4D0523946484602F015
:10136000DFFE05A8CDE9000501234FF4D052394630
:10137000484602F0D5FE1948059005A8CDE90005BC
:1013800002234FF4D0523946484602F0C9FE0220EB
:10139000CDE900858DF81C0000234FF4D05239466A
:1013A000484602F0BDFE0E480590CDE900858DF857
:1013B0001C50002341F601223946484602F0B0FE97
:1013C00005A8012316E0000001020040010300C04F
:1013D000010400C0010500C02000646010007860B6
:1013E000100041602000622048000020800300C0FF
:1013F000800400C0CDE9000541F601223946484687
:1014000002F08EFECDE900858DF81CB0002341F678
:1014100001223946484602F083FE0521484607F07E
:101420000BFC0A2007F018FF01223946484604F059
:1014300016FF0A2007F010FF0DF1240ACDE900A5E0
:101440008DF824B0002346F260023946484602F087
:1014500067FE0BA80B95CDE90005002346F27A0242
:101460003946484602F05CFE4FF496700C900CA88A
:10147000CDE90005002346F281023946484602F0D4
:101480004FFE0DA8CDE9000541F28838002346F251
:1014900083023946CDF83480484602F041FE0EA85A
:1014A000CDE90005002346F284023946CDF83880A4
:1014B000484602F035FEADF83CB00FA8CDE9000576
:1014C000002346F286023946484602F029FE25806E
:1014D000002346F2400239464846CDE9004502F075
:1014E0001FFE0A2007F0B8FE31884FF4A070884331
:1014F0000028FDD106202080002346F24002394614
:101500004846CDE9004502F00BFE0A2007F0A4FE94
:10151000318840F2211088430028FDD10F2020801F
:10152000002346F2400239464846CDE9004502F024
:10153000F7FD0A2007F090FE318840F2371088430B
:101540000028FDD13F202080002346F2400239468A
:101550004846CDE9004502F0E3FD0A2007F07CFE95
:10156000308810F4806FFCD0FF20CDE900A58DF805
:101570002400002346F260023946484602F0D0FDBE
:101580000A2007F069FE044C206807F08BFE2560F6
:1015900013B0BDE8F08F0000440000202DE9F047B3
:1015A00082B00024524F00944FF00809019410209B
:1015B0004FF04008C7F80090C7E901084FF4806A6F
:1015C000C7E9034A0E462546384601F001F81020C7
:1015D000FFF77AF900281CBF02B0BDE8F087454844
:1015E0000089000438603720C7E90108C7E9035AB9
:1015F0003F4800F0EDFF3720FFF766F900281CBFD9
:1016000002B0BDE8F0874FF0FF313B48C0E9001958
:10161000302181600221C0E903150121416100F000
:1016200053FF3320C7E90050C7F810A0C7E902856F
:101630002F4800F0CDFF3320FFF746F95FEA00099D
:101640001CBF02B0BDE8F0872C4F386840F22A6812
:1016500010EA080F08BF6D460DD14FF4001000F0DE
:101660005DFF20B100F0AEFF45F82400641C38682F
:1016700010EA080FF1D0082000F050FF30B1082028
:1016800000F00AFF02B00420BDE8F087022000F05D
:1016900045FF30B1022000F0FFFE02B00220BDE89D
:1016A000F087202000F03AFF30B1202000F0F4FE57
:1016B00002B00620BDE8F0874FF4007000F02EFF66
:1016C00038B14FF4007000F0E7FE02B00720BDE82B
:1016D000F08740F2FF5000F0DFFE009800BA706023
:1016E000019800BA306002B04846BDE8F0870000BB
:1016F000002C002024000020142C0020342C014059
:101700002DE9F0010022012603270B6806FA02FCEE
:1017100003EA0C0363453BD10568530007FA03F461
:10172000A54305600D79D0F800809D4045EA080585
:1017300005600D79012D18BF022D1AD1856825EAA3
:10174000040585604D79D0F8088005FA03F545EA6F
:1017500008058560456825EA0C0CC0F804C0D0F87F
:1017600004C08D7905FA02F5ADB24CEA050CC0F85B
:1017700004C0D0F80CC02CEA040CC0F80CC091F8DE
:1017800007C00CFA03F3D0F80CC043EA0C03C360A3
:1017900002F10102102AB8D3BDE8F00170474B07EF
:1017A000DB0E9A40C90800EB8100016A4FF00F0C74
:1017B0000CFA03F399430162016A11430162704715
:1017C0000183704770B403464069002642889869D7
:1017D000B0F802C052B1002062459CBF04255B688E
:1017E00019D805EBC2041C5D032C02D870BCFF2085
:1017F000704753F83240A46B24788C4204BF70BC0D
:101800007047521C401C92B2C0B26245E9D9002E0A
:101810001CBF70BC7047FE2070BC70472DE9F041C2
:101820000646D0F83C01008800281CBF0024012790
:1018300022D0351995F8B4000F2817D030680078F9
:10184000A04213D095F8440138B9D6F8382112B126
:1018500021463046904785F8B47095F844012146FA
:10186000401E85F84401304604F0E6FC601CC4B21A
:10187000802CDED3BDE8F081B6F93401FFF708FB18
:10188000A6F83401BDE8F081FEE7000005490448F0
:1018900008600549C0F8E411002107F0CDB9000047
:1018A000C42100202C2C0020006400400348006963
:1018B00010F0100F0CBF01200020704700100240F4
:1018C0000348006910F0080F0CBF0120002070478A
:1018D000001002400348006910F0010018BF012009
:1018E000704700000000024010B5012182B0084698
:1018F00000F0B8FCC020009001208DF80400002109
:101900008DF8061003218DF80510064C8DF80700A0
:1019100069462046FFF7F4FEC0212046FFF750FF3E
:1019200002B010BD00000240FEE7704742F27003B3
:10193000C81A994208BF512000F0328300F3198180
:1019400042F20103A1EB0300994208BF282000F0F6
:1019500027837DDCB1F5815F08BF142000F0208370
:1019600013DCA1F58050192880F06882DFE800F0D0
:10197000FEFDFCFBFAF9F8F7F6F5F4FAF3F2FAFAE1
:10198000F1F0EFEEEDFAECEBEA0041F203600B1A36
:10199000814208BF1E2000F003833DDC41F2024378
:1019A000A1EB0300994208BF192000F0F9821ADC6C
:1019B000B1F5905F08BF152000F0F282B1F5945F99
:1019C00008BF162000F0EC82B1F5A05F08BF172019
:1019D00000F0E6826FF4A050C14208BF182000F06A
:1019E000DF8200F02BBA012808BF1A2000F0D8824D
:1019F000B0F5FF7F08BF1B2000F0D282A0F58070F9
:101A0000FF3808BF1C2000F0CB82012808BF1D2032
:101A100000F0C68200F012BA40F2FD31A3F2FD30B0
:101A20008B4208BF232000F0BB8219DCA3F5807035
:101A3000FD3808BF1F2000F0B382012808BF202016
:101A400000F0AE82022808BF212000F0A98200E049
:101A50001DE0032808BF222000F0A28200F0EEB9AA
:101A6000012808BF242000F09B82022808BF2520FF
:101A700000F09682032808BF262000F09182B0F57E
:101A8000C06F08BF272000F08B8200F0D7B91A285A
:101A900008BF3D2000F0848211DC1A2880F0CE813E
:101AA000DFE800F060FCFBFAF9F860F7F6F560F4A7
:101AB000606060F3F2F1F0EFEEEDECEBEAE928287C
:101AC00008BF472000F06C820BDCA0F11F00092842
:101AD00080F0B481DFE800F0EBEAE9E8E7E6E5E46E
:101AE000E300302808BF4C2000F05A8215DC2B2878
:101AF00008BF482000F054822C2808BF492000F07D
:101B00004F822D2808BF4A2000F04A822F2808BFA4
:101B10004B2000F0458200F091B9612808BF4D20AC
:101B200000F03E82682808BF4E2000F039826A2803
:101B300008BF4F2000F034826B2808BF502000F00F
:101B40002F8214E0A4E1A1E19EE19BE198E195E1FF
:101B500092E18FE18CE189E186E183E180E17DE141
:101B60007AE177E1A8E073E170E16DE16AE100F00C
:101B700065B943F6F273C11A984208BF7A2000F0A3
:101B80000F8277DCB0F5D87F08BF662000F00882AE
:101B900046DC122808BF5C2000F002820DDC12280F
:101BA00080F04C81DFE800F088FD8888FC88888818
:101BB000FBFAF9F8F7F68888F5F4912808BF612058
:101BC00000F0EE8114DC512808BF5D2000F0E881B0
:101BD000542808BF5E2000F0E381842808BF5F20FE
:101BE00000F0DE81902808BF602000F0D98125E157
:101BF000B0F5D07F08BF622000F0D281A0F58070E0
:101C0000A13808BF632000F0CB81012808BF642001
:101C100000F0C681022808BF652000F0C1810DE1F7
:101C200040F2A133A0F2A131984208BF702000F029
:101C3000B78156DC40F29223A0F29221984208BF6D
:101C40006B2000F0AD8138DCB0F5E07F08BF672085
:101C500000F0A681B0F5E87F08BF682000F0A08101
:101C6000B0F5247F08BF692000F09A81A0F50070CC
:101C700091381DE064E033E130E12DE12AE127E114
:101C800024E121E11EE11BE118E115E112E10FE180
:101C90000CE109E106E103E100E1FDE0FAE031E1F8
:101CA0002EE12BE128E125E122E11FE11CE119E110
:101CB00008BF6A2000F07481C0E0012908BF6C20D1
:101CC00000F06E81FE2908BF6D2000F06981FF29B8
:101CD00008BF6E2066D0B1F5877F08BF6F2061D046
:101CE000ACE043F64A43C81A994208BF752059D060
:101CF00015DCA1F53060EE3808BF712052D000F637
:101D0000F870B0F5804008BF72204BD0392808BF6A
:101D1000732047D03A2808BF742043D08EE00128B2
:101D200008BF76203ED0032808BF77203AD0052888
:101D300008BF782036D0062808BF792032D07DE051
:101D4000272908BF8E202DD017DCA1F102002328FF
:101D500074D2DFE800F0EFEE73EDECEB73EAE9E844
:101D6000E7737373737373737373E673E573E4E309
:101D700073E273E173E0DFDEDD00602908BF9820C5
:101D800010D032DC2C2908BF93200BD01CDC0AE0D9
:101D9000DFE0DCE0D9E0D6E0D3E0D0E0CDE0CAE09F
:101DA000B4E0B1E04FE0282908BF8F204BD02929AB
:101DB00008BF902047D02A2908BF912043D02B2963
:101DC00008BF92203FD039E0362908BF94203AD08E
:101DD000372908BF952036D0382908BF962032D041
:101DE0005E2908BF97202ED028E0992908BF9D20A2
:101DF00029D010DC622908BF992024D0632908BFAC
:101E00009A2020D0942908BF9B201CD0972908BF76
:101E10009C2018D012E09D2908BF9E2013D0B1F558
:101E2000687F08BF9F200ED0A1F54070AE3808BF74
:101E3000A02008D0F22808BFA12004D05B48106081
:101E4000002070470020ABE00120A9E00220A7E0BD
:101E50000320A5E00420A3E00520A1E006209FE0E8
:101E600007209DE008209BE0092099E00A2097E0E8
:101E70000B2095E00C2093E00D2091E00E208FE0E8
:101E80000F208DE010208BE0112089E0122087E0E8
:101E9000132085E0292083E02A2081E02B207FE0A9
:101EA0002C207DE02D207BE02E2079E02F2077E094
:101EB000302075E0312073E0322071E033206FE094
:101EC00034206DE035206BE0362069E0372067E094
:101ED000382065E0392063E03A2061E03B205FE094
:101EE0003C205DE03E205BE03F2059E0402057E091
:101EF000412055E0422053E0432051E044204FE090
:101F000045204DE046204BE0522049E0532047E079
:101F100045E042E03FE03CE039E036E033E030E0ED
:101F20002DE02AE027E024E021E01EE01BE018E09D
:101F300015E012E00FE0542032E0552030E056204A
:101F40002EE057202CE058202AE0592028E05A2083
:101F500026E05B2024E07B2022E07C2020E07D2026
:101F60001EE07E201CE07F201AE0802018E0812007
:101F700016E0822014E0832012E0842010E0852007
:101F80000EE086200CE087200AE0882008E0892007
:101F900006E08A2004E08B2002E08C2000E08D2007
:101FA00000211160024901EBC000704700000206E9
:101FB000FCA400089F2804D1087800281CBF024810
:101FC00070470020704700003000090610B4C27846
:101FD00001784FF00F0C01241AB3184A126801F16E
:101FE000E02102F4E062C2F5E062C2F30722C2F12E
:101FF00004032CFA02FC42789A40837803EA0C032B
:102000001A43120181F80024007800F01F0104FA3D
:1020100001F14009800000F1E020C0F8001110BC7F
:10202000704701F01F0004FA00F04909890001F12E
:10203000E021C1F8800110BC704700000CED00E009
:10204000034940F0FD7040F0806008607047000078
:102050000CED00E010B506F069FE002010BD000098
:1020600038B50446B0F9AC00FEF712FFA4F8AC0096
:10207000D4F8A800008858B100EB8000400000238D
:102080000090044A1946204601F07CFBA4F8AC00FD
:10209000002038BD1722000810B50446B0F93401FD
:1020A000FEF7F6FEA4F83401204604F009F90020FA
:1020B00010BDD0F80C12097881B990F809220021DE
:1020C000002A88BF002209D9D0F8103243F8212015
:1020D000491C90F80932C9B28B42F5D800207047EC
:1020E00030B401EBC102D0F808C002244FF0FF3336
:1020F00004EB42042CF804300023D0F808C0062476
:1021000004EB42022CF8023030BCC9B206F0F8BB36
:1021100030B401EBC102D0F808C004244FF0FF3303
:1021200004EB42042CF804308368C9B213F812C0DF
:102130002CF0010C03F812C030BC06F0E1BB00002B
:102140002DE9F843064640694FF4C0550489B0694B
:102150000789DCB1BC4298BFDFF83C8016D8D6F8BE
:10216000E8316A46294630469847009941B90168E6
:10217000C1F82C800168C1F83C800068C0F85C8020
:10218000681C85B2601C84B2BC42E8D93046BDE808
:10219000F843002102F0AEBAF93A00082DE9F05FE9
:1021A0000446406900270589A069002DB0F8088021
:1021B00008BFBDE8F09F45459ABF4FF000094FF0BA
:1021C000020ABDE8F09F07EBC706A0680AEB460BC2
:1021D00030F90B00FEF75CFEA16821F80B00A16846
:1021E000042000EB460B31F90B00FEF751FEA1680D
:1021F00021F80B00A06800F81690A168062000EBFB
:10220000460021F80090781CC7B2681C85B245458D
:10221000D9D9BDE8F09F10B50446D0F8A80084B025
:102220000088B0B120686946007800F5E060ADF83C
:10223000000001208DF8030000208DF8020094F8C2
:102240007C008DF80400D4F8E40103F03FF804B0FA
:1022500010BDB4F9AC00FEF71BFEA4F8AC0004B04E
:1022600010BD0000044A0029116814BF084321EA88
:10227000000010607047000030380240044A002916
:10228000116814BF084321EA000010607047000085
:1022900040380240044A0029116814BF084321EA6B
:1022A000000010607047000020380240044A0029F6
:1022B000116814BF084321EA000010607047000055
:1022C00044380240044A0029116814BF084321EA37
:1022D000000010607047000024380240DFF88CC016
:1022E00030B4DCF80010224D11F00C0106D06C1057
:1022F000042908BF046002D008291DD00560DCF85D
:1023000000100F221B4B02EA1111595C026822FADD
:1023100001F14160DCF80020072404EA92229A5C73
:1023200021FA02F28260DCF8002004EA52329A5C60
:10233000D140C16030BC70470F4A1168C1F380536F
:102340001168002B01F03F0114BFB4FBF1F1B5FBA4
:10235000F1F113681268C3F388135943C2F30142C1
:10236000521C5200B1FBF2F10160C8E7083802408C
:102370000024F400A82400200438024038B5144694
:10238000D0F8E8C11D466A46E047009939B901799D
:10239000A14204D900680C2101EB041145500098BA
:1023A00038BD00002DE9F04782B0002504460095B5
:1023B0002846019500F0CEF810F0007F1EBF0E20D9
:1023C00002B0BDE8F087324E6946308980B2FFF72F
:1023D000E5F800281CBF02B0BDE8F08737202D4F7C
:1023E00001994FF0060A4FF040094FF48068012C24
:1023F00024D011F4803F47D03189C7F808900904F0
:10240000C7E90010C7E90358384600F0E1F8372063
:10241000FEF75AFA00281CBF02B0BDE8F087C7F8E3
:102420000890C7E9005AC7E903581A4800F0D0F8E5
:102430000620FEF749FA02B0BDE8F08711F4802FBC
:1024400022D03189C7F808900904C7E90010C7E90C
:102450000358104800F0BCF83720FEF735FA002882
:102460001CBF02B0BDE8F0870220C7F80890C7E99A
:10247000000AC7E90358074800F0AAF80620FEF74B
:1024800023FA02B0BDE8F08702B02520BDE8F0874E
:1024900024000020002C0020014908607047000043
:1024A000382C01400149086070470000382C014079
:1024B0000149C1F8A0007047008025420149086029
:1024C000704700008C8525420A4A01681160121D80
:1024D00041681160121D1168D0E9023C43EA0C0307
:1024E000D0E904C04CEA000021F0F701184308438A
:1024F00010607047242C014010B50121C802FFF77D
:10250000E1FEBDE8104000214FF40060FFF7DABEA5
:1025100001480068C0B27047102C0140034A0146D0
:10252000002012680A4218BF01207047342C014075
:10253000034A0146002012680A4218BF0120704772
:10254000342C01400248006800F00300704700008E
:10255000002C0140034981B008440090006801B09C
:1025600070470000142C014000F0EABD044A002925
:10257000116814BF084321EA000010607047000092
:102580003C2C01400E4A10B41168037DD0F808C0FD
:10259000C46843EA0C03D0F804C021F0FF014CEA00
:1025A000040C43EA0C03D0F800C0006943EA0C03B2
:1025B00021F4FC4118430843106010BC7047000030
:1025C000042C01400148006870470000802C014045
:1025D000094A01681160121D1168D0E9013C43EA03
:1025E0000C03D0E903C04CEA00006FF30A01184362
:1025F0000843106070470000082C01400149086042
:1026000070470000002C01402DE9F0430546406969
:1026100083B00E464088002804BF03B0BDE8F083B5
:10262000C6EBC60101EB410105EB8104A96994F8F1
:10263000282049881044884284BF03B0BDE8F08355
:1026400069684FF080091F4F51F83000806B90F897
:1026500000804FF0FF30A4F87400852084F82A0031
:1026600094F829C0238E94F832108DF800908DF8DC
:1026700001301B0A8DF802308DF8031000218DF80F
:1026800004108DF8051004218DF8061005218DF831
:10269000071028466B46614606F0D2F9E762A26F42
:1026A00042B1414628469047E06AB8421CBF03B099
:1026B000BDE8F083F1B203B02846BDE8F04306F070
:1026C00001B9000000000405C1EBC10100B501EB38
:1026D000410100EB810185B04A6B002A04BF8A6B7F
:1026E0004A630392012203ABCDE90032029201F169
:1026F0003C0391F83220098E02F0A4F805B000BD29
:10270000C1EBC10101EB410130B400EB8101D1F813
:1027100038C00CEB0200202882BFFF2030BC70477D
:102720000020002A09D90CEB00051C5C0D44401C5C
:10273000C0B285F83C408242F5D8886B104488636B
:1027400030BC00207047000070B51B490024496868
:10275000032912D000291CBF0129022929D1B0F573
:10276000805F0AD00025154EB0F5006F07D000201D
:10277000FFF718FE040013D01BE0272070BD0120D6
:10278000FFF710FE040014D1357535604FF400607A
:102790007560C6E9025009483561FFF7F3FE08E0AD
:1027A000357535607560B560F56004483561FFF7D3
:1027B000E9FE204670BD000024000020E82B002028
:1027C0002DE9F0039F49DFF880824C6880F856407D
:1027D0000989A0F85410D8F800100A0E9309037064
:1027E000C2F38303437002F0030282700A0CC270CA
:1027F0000A0A02714171D8F80420110E0901C18042
:10280000C388C2F3074143EA1113C38001F00F01EB
:102810000172C2F30721CB094372C1F380138372A3
:10282000C1F34013C372C1F3001303730026467350
:10283000434601279D682B0EC5F3074CC5F30729B6
:10284000002C18BF012C02D0022C3CD054E0890788
:10285000090D0161D1B2026942EA81010161016998
:1028600041EA93110161C3F3C201017503F007014D
:1028700041754FEA5C118175CCF38201C1754FEA55
:102880008C71490F0176027E494642EAD1120276E6
:102890000269037E9B1C07FA03FC521CA2FB0C3945
:1028A0004FEAEC7406FB0C9C02FB04CC027A07FA9C
:1028B00002F2A3FB024902650CFB029203FB062213
:1028C000C0E9124218E09106890A0161016941EAF2
:1028D00003210161016941EA0C0101610269494674
:1028E000521C46F10003DB0443EA5233D204C0E930
:1028F00012234FF400720265C1F3801242768906FA
:10290000490E8176827EE9B242EAD112827601F0E6
:102910007F01C176D8F80C20110ECB090377C1F3E3
:1029200041134377C1F3820383778907090FC17786
:10293000C37FC2F3074143EA9113C377C1F3401346
:1029400080F8203080F8216001F0010180F8221029
:10295000C2F30721CB0980F82330C1F3801380F83C
:102960002430C1F3401380F82530C1F3001380F800
:102970002630C1F3810380F8273001F0030180F88D
:102980002810C2F3460180F8291080F82A702F4AD7
:1029900011680B0E80F82C300B0C1B02C385B0F8AD
:1029A0002EC0C1F307234CEA0303C3850906016364
:1029B0005168D0F830C00B0E4CEA03430363D0F8E3
:1029C00030C0C1F307434CEA03230363D0F830C09F
:1029D000C1F307234CEA0303036380F834109168C2
:1029E0000B0E80F835300B0C1B068363D0F838C013
:1029F000C1F307234CEA03438363836BC9B243EA01
:102A000001218163D168836B43EA1162826390F88C
:102A10003C30C1F3074243EA121380F83C301207FE
:102A2000120DC287C38FC1F307221A43C287C1F3B5
:102A3000460180F8401080F841703046BDE8F00350
:102A40007047000024000020602900207029002029
:102A500008B50F4800210091008902040D4802606A
:102A60000D2242604022C0E9022111010161FFF7FD
:102A7000AFFD0D20FDF728FF00281CBFFF2008BD7B
:102A80000020FFF767FD0090C0F3432008BD000061
:102A900024000020002C002010B5FFF7D9FF0428E7
:102AA00004BF002010BDFF280CBF0220012010BD74
:102AB00030B583B000248DF8004031208DF804003B
:102AC00001258DF805508DF806408DF8075001A8B6
:102AD000FFF77CFA3B208DF804008DF805508DF847
:102AE00006408DF8075001A8FFF770FA00F0C8F90A
:102AF000FFF702FD00F018FA8DF800009DF80000C5
:102B0000002835D100F03EF88DF800009DF8000057
:102B100000282DD118480475046044608460C460A6
:102B20000461FFF72FFD1548FFF74AFE8DF80000FE
:102B30009DF8000098B91148B0F8540001041048FD
:102B40000160072141604021C0E9021409010161CF
:102B5000FFF73EFD0720FDF7B7FE8DF800009DF85A
:102B6000000028B94FF40060FFF7EEFD8DF800007B
:102B70009DF8000003B030BDE82B00209029002014
:102B8000002C00202DE9F84F01200024ADF80000B2
:102B9000FFF7D8FC002804BF2520BDE8F88FDFF838
:102BA000BCA1DAF80400042800F0D4806C4F4FF088
:102BB00000080220C7E900804FF48069C020C7F8F0
:102BC0001090C7E902083846FFF702FD654D002462
:102BD000286810F0450F03D1286810F0450FFBD08E
:102BE00010F0040F06D003240420FFF755FC002C3E
:102BF0007DD109E010F0010F1ABF0124204640F2F8
:102C0000FF50FFF749FCF2E70020FFF7A3FC564E08
:102C100030600420FFF79EFC70600820FFF79AFCEC
:102C2000B0600C20FFF796FCF060DAF80400002892
:102C300018BF012803D0062818BF022847D14FF03B
:102C40000300C7E900804FF04000C7F81090C7E9C3
:102C500002084348FFF7BCFC28684FF0030B6E46A0
:102C6000002410F0450F03D1286810F0450FFBD069
:102C700010F0040F1CBF0324042002D0FFF70CFC4B
:102C800024E010F0010F1CBF01242046F6D1FFF70D
:102C90003FFC584514D140F2FF50FFF7FDFB0020E8
:102CA000FFF758FC10F4604F04BF000C30800DD0CB
:102CB00010F4005F18BF132408D110F4804F01D026
:102CC000102403E010F4004F18BF0F247CB9DAF889
:102CD000040004283ED0BDF80000CAF80800000433
:102CE000386009207860C020C7F8109000E031E01B
:102CF000C7E902081A48FFF76BFC2868002410F0A7
:102D0000450F03D1286810F0450FFBD010F0040FD9
:102D100005D003240420FFF7BFFBDCB909E010F065
:102D2000010F1ABF0124204640F2FF50FFF7B4FB09
:102D3000F3E70020FFF70EFC0C4D28600420FFF79E
:102D400009FC68600820FFF705FCA8600C20FFF76D
:102D500001FCE8602046BDE8F88F00002400002058
:102D6000002C0020342C0140702900206029002014
:102D700070B51F4E0C46054690B04FF0FA513046E4
:102D8000FDF7FAFE00213046FDF722FF3046FDF741
:102D900029FF4FF0006000901648CDE901050020A2
:102DA000CDE903043115CDE905018900CDE907100E
:102DB00009904FF440300A9004200B9003200C90AF
:102DC000C8020D9080100E9069463046FEF720F83C
:102DD000012210213046FEF703F820213046FDF78E
:102DE000C5FF01213046FDF7F3FE10B070BD0000B5
:102DF00058640240802C014070B51F4E0D460446B9
:102E000090B04FF0FA513046FDF7B6FE0021304643
:102E1000FDF7DEFE3046FDF7E5FE4FF00060009066
:102E20001648CDE901044020CDE903050020311505
:102E3000CDE905018900CDE9071009904FF4403034
:102E40000A9004200B9003200C90C8020D90801073
:102E50000E9069463046FDF7DBFF01221021304617
:102E6000FDF7BEFF20213046FDF780FF01213046EF
:102E7000FDF7AEFE10B070BD58640240802C0140DA
:102E800070B582B001210C20FFF7ECF9244D0C2223
:102E900008212846FEF783FC0C2209212846FEF76C
:102EA0007EFC0C220A212846FEF779FC0C220B211D
:102EB0002846FEF774FC0C2211462846FEF76FFCEC
:102EC000184E0C2202213046FEF769FC02218DF8D3
:102ED00005108DF8041000244FF470608DF8064042
:102EE000012100908DF8071069462846FEF708FC7E
:102EF0000421009169463046FEF702FCA8140090B8
:102F00008DF8074069462846FEF7FAFB0121C80202
:102F1000FFF7CCF901218805FFF7A4F902B070BDD5
:102F200000080240000C02402DE9F84F4FF0000B62
:102F30008DF800B07E487621D8460175C0F800B003
:102F4000C0F804B0C0F808B0C0F80CB05C465F46EA
:102F5000D946C0F810B0FFF715FB0320FFF74EFB72
:102F60000120FFF7A5FA73484FF48066C0F800B05F
:102F7000C0F804B0C0F808B0C0E903B6FFF728FBFA
:102F80004FF0000AB50101E06D1E10D08020FFF760
:102F9000C5FA0028F8D055B140F2FF50FFF77CFA8F
:102FA0008DF800A09DF80000002852D102E04FF0FB
:102FB000030AF5E75F4D4FF4D5702860082068607C
:102FC00040202E61C5E9020B2846FFF701FB5A4A53
:102FD0004FF0000A4FF48030116802E0564909684A
:102FE000401E11F0450F35D010B111F0040F34D050
:102FF0004FF0030A0420FFF74FFA8DF800A09DF868
:1030000000004FF0370A80B3C5E900BA40202E61B6
:10301000C5E9020B4748FFF7DBFA3720FDF754FC00
:103020008DF800004FF0400A3720C5F808A0C5E928
:1030300000B0C5E903B63F48FFF7CAFA3720FDF7ED
:1030400043FC8DF800009DF800104FF6FF7000293A
:103050004FD069E00028C1D1CAE711F0400F1CBF72
:103060004FF0000A4020C6D1C7E7FFE733480121EF
:103070004FF080494160D5E700273720C5E900704F
:103080004FF48068C5F810802A48C5E90267FFF749
:103090009FFA3720FDF718FC8DF800009DF800001E
:1030A000D8BB45F8049B292085E8C10121482D1F84
:1030B000FFF78EFADBF8000010F0450F04D1DBF8C3
:1030C000000010F0450FFAD010F0040F1ABF0327CC
:1030D000042040F2FF50FFF7DFF98DF800709DF8F3
:1030E0000000D0B90020FFF735FAC70F8046641CF6
:1030F00007E0564649F48019DFF83CB049F0004932
:1031000082460FB95445B7D3544507D31B208DF8D9
:1031100000009DF80000BDE8F88F05E018F0804F32
:1031200002D00648022141609DF80000BDE8F88FFA
:10313000E82B0020002C0020342C0140240000202B
:1031400010B54FF48070FFF7F3F9214C40B1002027
:1031500020704FF48070FFF7A5F90120206130E066
:103160000220FFF7E5F928B10220FFF79BF90220C2
:10317000207026E00820FFF7DBF920B10820FFF7D8
:1031800091F9042007E02020FFF7D2F928B1202090
:10319000FFF788F90620207013E01020FFF7C8F928
:1031A00020B11020FFF77EF90520F4E74FF40070FE
:1031B000FFF7BEF928B14FF40070FFF773F907204D
:1031C000E9E700214CF23A30FFF7D0F9207810BD42
:1031D000240000202DE9F047284E0027089C1546C2
:1031E0009846814637703761F760254807600121AE
:1031F00040F22A30FFF7BAF90120FFF75FF92146C4
:103200004846FFF7B5FD7068022803D10402690A39
:1032100041EAC8551B4E4FF480691020C6F8109043
:10322000C6E900404FF04008C6E902873046FFF784
:10323000CFF91020FDF748FB002818BFBDE8F08744
:103240004FF0FF311048C0E9001490218160022145
:10325000C0E9031701214161FFF736F91120C6F8D3
:103260001090C6E90050C6E902870648FFF7B0F99A
:10327000BDE8F0471120FDF727BB00002400002027
:103280002C2C0140002C0020142C00202DE9F04FA4
:103290008046224883B015460C9F40684FF00009D5
:1032A0001E4618B1590241EAD556550218F0030FCF
:1032B0004FF4007A1BD00024002F88BF4FF0000B82
:1032C0001FD960024219CDF800A04BEB0603144849
:1032D000FFF780FF81464FF4007211494046FCF72A
:1032E000CBFF641C08F50078A742EAD809E0012F5B
:1032F0000BD0CDE900A72A463346404600F012F82D
:10330000814603B04846BDE8F08F2A463346404622
:10331000CDF800A0FFF75EFFF2E7000024000020D8
:10332000E82900202DE9F05F2D4FDDE90A464FF036
:10333000000815469A46834687F80080C7F8108033
:103340004FF00109C7F80C902648C0F800804946A4
:1033500040F22A30FFF70AF906FB04F15846FFF75E
:1033600007FD0120FFF7AAF87868022803D10402BC
:10337000690A41EACA551C4F4FF4806B1020C7F808
:1033800010B0C7E900404FF0400AC7E902A838462C
:10339000FFF71EF91020FDF797FA002818BFBDE8C7
:1033A000F09F4FF0FF311148016006FB04F14160CE
:1033B000902181600221C0F81490C0E90318FFF742
:1033C00083F81220C7F810B0C7E90050C7E902A877
:1033D0000548FFF7FDF8BDE8F05F1220FDF774BA6D
:1033E000240000202C2C0140002C0020142C002054
:1033F0002DE9F04100251E4E691E7069002801BFAD
:10340000306900283078002803D1002918BF491EF0
:10341000F3D14FF00007776116484FF0FF34016891
:1034200011F4005F1CBF002C641EF8D1F068012865
:103430000FD111480C21C0E900714021C0E90217E9
:1034400009010161FFF7C4F80C20FDF73DFA0546BC
:10345000F76054EA050008BF042540F2FF50FFF76B
:103460001BF83078002814BF30782846BDE8F0817A
:1034700024000020342C0140002C00202DE9F041D4
:1034800000251E4E691E7069002801BF30690028A2
:103490003078002803D1002918BF491EF3D14FF01E
:1034A0000007776116484FF0FF34016811F4805F20
:1034B0001CBF002C641EF8D1F06801280FD1114800
:1034C0000C21C0E900714021C0E902170901016126
:1034D000FFF77EF80C20FDF7F7F90546F76054EA90
:1034E000050008BF042540F2FF50FEF7D5FF3078F5
:1034F000002814BF30782846BDE8F0812400002061
:10350000342C0140002C00202DE9F0472A4E0027E2
:10351000089C15469846814637703761F760274802
:103520000760012140F22A30FFF720F82146484683
:10353000FFF762FC0120FEF7C1FF7068022803D18B
:103540000402690A41EAC8551D4E4FF04009102097
:10355000C6F80890C6E900404FF48068C6E90378D1
:103560003046FFF735F81020FDF7AEF9002818BFF8
:10357000BDE8F0871820C6F80890C6E90050C6E9F3
:1035800003780F48FFF724F81820FDF79DF900286D
:1035900018BFBDE8F0874FF0FF300A490122C1E9AA
:1035A00000049020C1E90207C1E904720846FEF751
:1035B0008BFF3846BDE8F087240000202C2C01400A
:1035C000002C0020142C00202DE9F047234982B064
:1035D00080460A9F4968154600201E4619B15A02C6
:1035E00042EAD5566D0218F0030F4FF400791ED051
:1035F0000024002F8EBF4FF0000A02B0BDE8F08714
:103600004FF4007241461648FCF736FE600242193C
:10361000CDF800904AEB06031148FFF775FF641CD4
:1036200008F50078A742EBD802B0BDE8F087012F7B
:1036300009D0CDE900972A463346404600F012F8FB
:1036400002B0BDE8F0872A4633464046CDF80090E8
:10365000FFF75AFF02B0BDE8F08700002400002009
:10366000E82900202DE9F05FDFF80891DDE90A453F
:103670004FF0000816461F46824689F80080C9F8B8
:1036800010800120C9F80C003B48C0F800800121DF
:1036900040F22A30FEF76AFF05FB04F15046FFF7BF
:1036A000ABFB0120FEF70AFFD9F80400022803D182
:1036B0000402710A41EAC756304F4FF4806B102064
:1036C000C7F810B0C7E900404FF0400AC7E902A8A8
:1036D0003846FEF77DFF1020FDF7F6F8002818BFEA
:1036E000BDE8F09FB9F80800000438603720C7E94A
:1036F000010AC7E9038B2148FEF76AFF3720FDF76F
:10370000E3F8002818BFBDE8F09F1720C7F810B0F5
:10371000C7E90050C7E902A81848FEF759FF17206B
:10372000FDF7D2F8002818BFBDE8F09F1920C7F8B0
:1037300010B0C7E90060C7E902A81048FEF748FFCB
:103740001920FDF7C1F8002818BFBDE8F09F4FF021
:10375000FF300B490122086005FB04F0486090200F
:10376000C1E90208C1E904820846FEF7ADFE404601
:10377000BDE8F09F240000202C2C0140002C0020EC
:10378000142C00202DE9FF5FDFF8909000251F46E4
:10379000B9F9000016468A461F4C401CDDF83880F7
:1037A00005E00EB1217859B1691C0DB2183485427B
:1037B000D8BF082DF5DB04B04FF0FF30BDE8F09F17
:1037C000854208BFA9F8000002F066FA83464FF66A
:1037D000FF7138468F4228BF4FF6FF70D9F80410AA
:1037E000594584BFA1EB0B01814205D90BEB0001C8
:1037F000C9F8041005F07AFAA6600098C4F80CA085
:10380000606007EB0B00C4E904080120207004B0DD
:103810002846BDE8F09F000088A80020A0240020D2
:103820004FF480610180202101810549416001F54B
:103830008061016100218181C18141818182704764
:10384000DC24002038B5074C0020207006F066FC10
:103850004FF47A710091024600230121606806F05E
:1038600013FE38BD4800002010B50446D0F8C8014A
:1038700084B069460088ADF8000000208DF8020091
:103880008DF80300D4F8E40101F020FDD4F8D01144
:103890002046884794F88200002804BF04B010BD79
:1038A0000121204600F026FFD4F8D41104B02046B0
:1038B000BDE810400847000010B5102080F31188C3
:1038C000BFF34F8FBFF36F8F06F02EFC18B1044982
:1038D0004FF080500860002080F3118810BD000078
:1038E00004ED00E03B4882B0016841F470010160E2
:1038F0003948016841F00101016038494FF0000C7E
:10390000C1F800C0026822F4102222F08072026026
:10391000031D334A1A60026822F4802202600A1DE5
:10392000C2F800C0CDF800C0CDF804C0026842F46F
:1039300080320260026802F400320192009A521C46
:103940000092019A1AB9009AB2F5A04FF2D102681A
:1039500012F4003F08BFCDF804C034D00122019218
:10396000204AD2F800C04CF0805CC2F800C01E4A69
:10397000D2F800C04CF4404CC2F800C00A680A609B
:103980000A6842F400420A600A6842F4A0520A60DF
:10399000164A1A60026842F080720260026812F0F1
:1039A000007FFBD0124A40F205701060086820F0DA
:1039B00003000860086840F002000860086800F032
:1039C0000C000828FAD10B494FF00060086002B0E3
:1039D0007047000088ED00E00038024008380240DF
:1039E0001030002440380240007000400854400766
:1039F000003C024008ED00E010B5094C01212046D2
:103A000000F027F8002808BF10BD06480168491CCF
:103A100001602046BDE81040012100F00EB8000012
:103A200000100040180000200029018814BF41F058
:103A3000800121F0800101807047C94301827047F5
:103A40000029018814BF41F0010121F0010101802A
:103A50007047038A002280890B4200EA01001CBFE4
:103A60000028012210467047002A828914BF1143A2
:103A700022EA01018181704710B402881C4BDFF8F3
:103A800074C0984218BF604511D0B0F1804F1CBF80
:103A9000A0F18044B4F5806409D0A0F18044B4F56D
:103AA00000641CBFA0F18044B4F5406403D14C888D
:103AB00022F070022243A0F18044B4F580541CBF70
:103AC000A0F18044B4F5A05403D00C8922F44072D4
:103AD000224302804A68C2620A880285984212BF65
:103AE0006045897A01864FF00101818210BC7047E0
:103AF00000000140000401402DE9F041044690F827
:103B0000820020B1022A1CBF032A052A03D04FF0ED
:103B10000000BDE8F0816269A088127A00EBC20063
:103B2000A1EB0000C0F3C706A16806EBC6054FF085
:103B3000020000EB4507C85FFDF7AAF9A168C8536A
:103B4000A168042000EB450831F90800FDF7A0F951
:103B5000A1680022531E21F80800A068314600F831
:103B60001520D4F808C020462CF80730A3684FF081
:103B7000060C0CEB450C23F80C2004F0C1FE0020D1
:103B8000BDE8F0812DE9F0414FF6FF7402F084F8B2
:103B9000294E034600227068284900EB030CB6F951
:103BA00000000028A4BF0225032723DB087810F0BB
:103BB000010F18D0086960450FD84869002808BF70
:103BC0000D7010D0B3FBF0F800FB1838A0EB080024
:103BD00008610F70A04206D204E0A0EB0C0008615F
:103BE000844200D90446501C02B2B6F900001831D4
:103BF0008242DBDD2046746005F078F8B6F90000FB
:103C000000250E4C0028B8BFBDE8F081207810F0E8
:103C1000020F07D020F002002070A26812B1E16804
:103C200060689047681C05B2B6F9000018348542F8
:103C3000ECDDBDE8F0810000A024002088A8002071
:103C40002DE9F0411020EFF3118480F31188BFF3C8
:103C50004F8FBFF36F8F1A4D40F22441284600F07A
:103C6000C4F9002828D017480068174E82B271683E
:103C70000B8893421DD34889401C4881C889401C49
:103C80001FFA80FCA1F80EC00F890020BC4508BFB8
:103C9000C8819A1A0B69C98923F8112071684A8969
:103CA0000B899A4205D98881C8814881888A401C3D
:103CB0008882284600F02EFA84F31188BDE8F0814E
:103CC000001001408C6402401C0000202DE9F04FE0
:103CD0008146012197B08805FEF7C4FADFF888B164
:103CE0005846FCF77FFF4020060103900024CDE9F1
:103CF0000546079480020894CDE909404FF0030A75
:103D0000CDE90B4ADFF864814FF00065CDE900583A
:103D10000D94694658460E94FDF77AF846208DF8C2
:103D2000580004208DF859008DF85A4001278DF86D
:103D30005B7016A8FEF74AF9012210215846FDF7DC
:103D40004FF84FF020515846FCF716FFDFF820B12E
:103D50005846FCF747FF0394CDE90546E814CDE942
:103D600008404002CDE90A040794CDE90CA4CDE94E
:103D70000058694658460E94FDF74AF80022102173
:103D80005846FDF72DF83B495846FCF7F5FE012152
:103D90000846FEF767FA01211020FEF787FADFF8E0
:103DA000D880072209214046FDF7F9FC07220A21A5
:103DB0004046FDF7F4FCA81402258DF844508DF818
:103DC000455010908DF846408DF8477010A9404638
:103DD000FDF796FC10A940461096FDF791FC274E82
:103DE000304600F07BF8ADF850400C20ADF84C4068
:103DF000ADF85200CDF84890ADF84E40ADF85440C3
:103E000012A9304600F02AF925208DF83C008DF8E3
:103E10003D508DF83E408DF83F700FA8FEF7D6F864
:103E2000012240F22441304600F000F901213046E1
:103E300000F02DF840F22441304600F0D6F830462C
:103E400000F068F901224021304600F029F80122F3
:103E50008021304600F024F84021304600F014F86C
:103E600017B0BDE8F08F0000B864024004100140B4
:103E70008864024000080020000002400010014059
:103E8000182938BF00207047C943018070470029B6
:103E9000818914BF41F4005121F4005181817047A0
:103EA000002A828A14BF114322EA010181827047ED
:103EB00070B5094E04460D4600213046FCF788FED9
:103EC000F46029463046FCF7DFFF3046BDE870401D
:103ED0000121FCF77DBE00008864024010B5A0F10E
:103EE0008041B1F588312ED0A0F18041B1F58841F3
:103EF00033D0A0F18041B1F5904139D0A0F180419B
:103F0000B1F598413FD0A0F18041B1F5A04145D035
:103F1000A0F18041B1F58A314BD0A0F18041B1F5DB
:103F2000F04150D0A0F18041B1F5F84118BF10BD6B
:103F30000121C807FEF7AEF9BDE8104000214FF09F
:103F40000040FEF7A7B901211020FEF7BBF90021C0
:103F5000BDE810401020FEF7B5B901214804FEF776
:103F600099F9BDE8104000214FF40030FEF792B9F6
:103F700001218804FEF78EF9BDE8104000214FF4BE
:103F80008020FEF787B90121C804FEF783F9BDE858
:103F9000104000214FF40020FEF77CB901210805F4
:103FA000FEF778F9BDE8104000214FF48010FEF7CD
:103FB00071B901212020FEF785F90021BDE81040EC
:103FC0002020FEF77FB901218807FEF763F9BDE8DD
:103FD000104000214FF08040FEF75CB902460020FF
:103FE00012880A4218BF0120704710B401F01F0266
:103FF0000124C1F3421304FA02F24FF0000C012B2A
:1040000004BF83891A4004D0022B0CBF038A838A21
:104010001A40090A008804FA01F10840002A1CBF6E
:1040200000284FF0010C604610BC7047C1F34213EA
:1040300001F01F014FF0010C0CFA01F1012B08BF38
:104040000C3003D0022B0CBF10301430002A026851
:1040500014BF114322EA01010160704730B50446E4
:10406000008A85B00D46C98820F44050084320825C
:10407000A089A9882A8920F4037011436A8920F451
:10408000A05010430843A081A08AA98920F4407061
:104090000843A0826846FEF721F9A4F18040B0F5FC
:1040A00088301BBFA4F18040B0F58A300398029895
:1040B000A18911F4004F00EBC00101EB0010296849
:1040C00014BF49008900B0FBF1F0114A6FF0180CE1
:1040D000A2FB0031490909010B0903FB0CF300EBBA
:1040E0008300A38913F4004F4FF0320314BF03EB96
:1040F000C00003EB0010A2FB00204FEA501014BFD9
:1041000000F0070000F00F000843208105B030BD2B
:104110001F85EB518088C0F308007047FEE7000060
:104120002DE9F04786B01E469246DDE90E95884699
:10413000D0F8E831074604AA5146984700680121A3
:1041400001EB0611042202EB0612415C8058002D9F
:1041500014BF042402243346CDE90001CDE90295C1
:1041600052464146384605F0BDFB00281EBFEF20F1
:1041700006B0BDE8F087FFF765FB0C4E04F0ACFF1E
:1041800005AA4146384601F04AFE054604F0C4FF40
:104190003078012805D0A542F0D006B02846BDE809
:1041A000F08706B0EE20BDE8F08700004800002050
:1041B000704700000FB4054B10B503A9044A0298DC
:1041C00000F0A0F810BC5DF814FB0000855C00084E
:1041D000BC2400200FB4084B10B504A902AA039810
:1041E00000F090F8044602A9002000F0B1FB204640
:1041F00010BC5DF814FB00005149000802E008C83B
:10420000121F08C1002AFAD170477047002001E050
:1042100001C1121F002AFBD1704700002DE9F84FA1
:104220009A46DDE90A491546D0F8E8310C9F6A46FE
:10423000984706460098002818BFBDE8F88F3079E7
:10424000A8429CBF2348BDE8F88F4FB1306800EB0F
:104250000510007810F0010F1CBF1F48BDE8F88F53
:10426000BAF1000F04BF4FF00060BDE8F88F0421E1
:10427000306801EB0518226850F80810914282BF9F
:1042800021601648BDE8F88F012101EB0511405C63
:1042900089F800003068082101EB051150F808701A
:1042A00041583A465046FBF7E7FF99F800000928C5
:1042B0000BD13068216850F80800884205D20020F0
:1042C0000AF80700781C206000E027600020BDE8A5
:1042D000F88F000011000906010001060500040521
:1042E0007047704770477047704770477047704716
:1042F0007047016A0978002918BF704781220021A0
:1043000001F0ADBF2DE9FF4F8DB09B460F4604462F
:10431000002606E025280BD05A460F999047641CCA
:10432000761C20780028F5D111B03046BDE8F08F1A
:104330000025A8460122984900E0054314F8013FF2
:10434000203B02FA03F00842F7D120782E2817D13B
:1043500014F8010F45F004052A280ED06FF02F0243
:104360002078A0F1300109290AD808EB880102EB76
:10437000410100EB0108641CF2E757F8048B641C50
:1043800020786C280DD004DC4C2812D06A2811D17A
:1043900004E074280DD07A280CD10AE045F4001509
:1043A00007E0617845F48015814202D1641C05F56F
:1043B0008015641C2278692A45D008DC002AB3D015
:1043C000582A69D0632A10D0642A08D13BE0702AA9
:1043D00067D0732A13D0752A5CD0782A5CD0104637
:1043E0005A460F999047761CD3E017F8040B8DF8C6
:1043F000000000208DF80100E946012003E057F895
:10440000049B4FF0FF3069074FF0000501D40AE02C
:104410006D1C45450DDA8542FADB19F805100029B7
:10442000F6D106E06D1C8542FCDB19F80510002969
:10443000F8D12E4404E019F8010B5A460F99904721
:104440006D1EF8D2A5E00A200021CDE90801C5F3D0
:10445000025002280DD001CFC117031E71F10003D5
:104460000DDA4FF0000CD0EB0C006CEB01012D23AA
:1044700008E0FF1D27F00707F7E80201EDE72B052D
:1044800004D52B238DF8283001233BE0EB0739D0EE
:104490002023F7E70A2000E010200021CDE90801E1
:1044A00007E01020002145F00405CDE908014FF098
:1044B0000808C5F3025002280FD001CF00214FF0A9
:1044C000000A2B071FD5702A0DD0DDE908C38CF038
:1044D000100C5CEA030C0CD015E0FF1D27F0070759
:1044E000F7E80201EBE740228DF828204FF0010A9F
:1044F0000BE050EA010306D030238DF828308DF808
:10450000292002239A46582A04D024A20DF120091A
:104510000B9209E026A2F9E7DDE90823FBF7EDFE9F
:104520000B9B9B5C09F8013D50EA0102F4D1ADEB15
:10453000090020300890680701D44FF0010808995D
:10454000884502DDA8EB010000E000208046002540
:1045500006E00AA85A46405D0F9990476D1C761CEC
:104560005545F6DB04E030205A460F999047761CFB
:10457000B8F10001A8F10108F5DC05E019F8010B1C
:104580005A460F999047761C0899481E08900029B2
:10459000F4DC641CC5E60000092801003031323328
:1045A000343536373839616263646566000000006F
:1045B0003031323334353637383941424344454659
:1045C000000000002DE9F04F87B01C46DDE9108A9D
:1045D00091460546DDF848B0FDF7F4F80290FE2854
:1045E00024BF07B0BDE8F08F03AB01460222284686
:1045F00001F0E0FB28B103AA0221284601F0BDFB2F
:1046000018B107B0FF20BDE8F08F5FEA0B0009F09A
:10461000FF074FEA19264FF0000B28D00520CDE9FF
:1046200000404B469DF80C102846029A01F0F2FC1F
:104630009DF80C0004A9C0EBC00000EB400005EBA6
:10464000800080F87380A0208DF810008DF8117024
:1046500010208DF812608DF814008DF8134005209D
:1046600001F800B0401CC0B20828F9D324E00320B0
:10467000CDE900404B469DF80C102846029A01F007
:10468000C9FC9DF80C0004A9C0EBC00000EB400081
:1046900005EB800080F8738040208DF810008DF8C5
:1046A00011708DF812608DF81340042001F800B0ED
:1046B000401CC0B20828F9D39DF80C000B46C0EB93
:1046C000C00000EB400005EB80000221C0F878A09C
:1046D0002846029A04F0B4F9002804BF07B0BDE8E8
:1046E000F08F9DF80C10284604F0ECF807B0FF207E
:1046F000BDE8F08F2DE9F04F04468846616900253A
:1047000003200E89A16983B00F8994F882100029D3
:1047100018BF002E74D04FF0000ACDF800A0CDF8DD
:1047200004A0CDF808A0BE4298BF4FF0060967D894
:10473000032807D0052864D00B2877D003B0FF20CA
:10474000BDE8F08F606850F836008169096811F0A3
:10475000004F53D1806AB8F1000F3ED00178002994
:1047600048D0F0291ED8A26805EBC50112F8113017
:104770005B1CDBB202F811300278934212D1A068C0
:104780006A4600F811A0CDF800A0CDF804A0294693
:104790002046CDF808A000F017FC002808BF05202F
:1047A0002CD148E00078FC2801D018B326E005EBB6
:1047B000C50BA06809EB4B0142182946204600F0C2
:1047C00003FC0028A06810F81B1014BF21F00101A1
:1047D00041F0010100F81B1010E00078FF2818BF1D
:1047E000FE280BD1A06805EBC50110F8110010F0F0
:1047F000010F03D12946204604F082F80B201AE06D
:104800001CE005EBC502A06809EB42021044DDE99B
:104810000023DDF808C002604360C0F808C06946A4
:10482000D4F8E40100F052FDE8E7FFE7681CC5B2E8
:10483000701C86B20320BE427FF67AAF03B0002020
:10484000BDE8F08F2DE9FF4F81B01446DDE90E671A
:10485000D0F8E83180466A460299984705460098A4
:1048600000281CBF05B0BDE8F08F2879A0429EBF8C
:10487000344805B0BDE8F08F4FB1286800EB041054
:104880000078022802BF304805B0BDE8F08F012152
:10489000286801EB041110F801A0042101EB0411B8
:1048A00047580C2101EB041150F8019030680028A2
:1048B00018BFB84281BF3760244805B0BDE8F08F0B
:1048C000D8F82420504604999047009000281CBF37
:1048D00005B0BDE8F08F0820296800EB041B3268A2
:1048E00051F80B000499FBF7C7FCBAF1090F07D187
:1048F0003068B84204D22A68002152F80B201154C3
:104900003760B9F1000F09D0224629464046C84712
:10491000009000281CBF05B0BDE8F08F286800EBB0
:104920000410007810F0040004BF05B0BDE8F08F5B
:104930002246D8F8EC3140460299984705B0BDE8C8
:10494000F08F0000110009060200010610000706A2
:104950000A68531C0B601070704770470020704746
:104960002DE9F04F87B01E46DDE9104BDDE912A8B6
:10497000DDF8549017460546202C14D8FCF722FF8A
:104980000290FE2824BF07B0BDE8F08F03AB0146BC
:104990000222284601F00EFA28B103AA0221284675
:1049A00001F0EBF918B107B0FF20BDE8F08FB9F1C5
:1049B000000F13D00420CDE900603B469DF80C1099
:1049C0002846029A01F026FB9DF80C00C0EBC000BF
:1049D00000EB400005EB8000046609E00220CDE911
:1049E00000603B469DF80C102846029A01F012FB2D
:1049F0009DF80C000021C0EBC00000EB400005EB6F
:104A00008000002C44639DF80C00C0EBC00000EB5C
:104A1000400005EB800080F873B00FD99DF80C00C2
:104A20001AF80120C0EBC00000EB400005EB80004D
:104A30000844491C80F83C208C42EFD804AAB9F104
:104A4000000F0DD0C2208DF810000021C80024FAFC
:104A500000F053181871481CC1B20429F6D328E09D
:104A6000042C19D8C4F10400232141EA80008DF8F8
:104A700010009DF80C000421C0EBC00000EB4000CA
:104A800005EB8000431893F838305354491CC9B2E1
:104A90000829F7D384630CE021208DF81000002052
:104AA000C10024FA01F11318401CC0B21971042886
:104AB000F6D38DF81170380A8DF812009DF80C00AD
:104AC0008DF81360C0EBC00000EB400005EB8000E8
:104AD0001346C0F8788002212846029A03F0B0FFFE
:104AE000002804BF07B0BDE8F08F9DF80C102846E1
:104AF00003F0E8FE07B0FF20BDE8F08F074A917A87
:104B0000D07A814204BF00207047505C491CC9B272
:104B100091720A2924BF0021917270474C2900200C
:104B200001460020A1F18042B2F5803256D0A1F1B9
:104B30008042B2F5823253D0A1F18042B2F5A03268
:104B400004BF4FF480307047A1F18042B2F5A23229
:104B500004BF4FF400307047A1F18042B2F5A43297
:104B600004BF4FF480207047B1F1804F36D0A1F1DF
:104B70008042B2F5806233D0A1F18042B2F500628A
:104B800004BF04207047A1F18042B2F5406204BF27
:104B900008207047A1F18042B2F5805204BF102076
:104BA0007047A1F18042B2F5A05204BF20207047A7
:104BB000A1F18042B2F5C05204BF40207047A1F17C
:104BC0008042B2F5E05204BF80207047A1F18042DC
:104BD000B2F5005208BF4FF4807070470120704753
:104BE0000220704710B5044682B04FF44070FDF7C4
:104BF00027FA1821201DFFF743F9184920600860A3
:104C00002068FEF70DFE4FF4FA20FFF75FF82068EA
:104C100001884068FFF74CF900F03EF8FCF764FEAD
:104C200001220FA10F4800F0B9FD0F4901AA087039
:104C300069460BA000F021FD0098810A0BA0FFF748
:104C4000B9FA0FA0FFF7B6FA0198810A0EA0FFF794
:104C5000B1FA0BA0FFF7AEFA02B010BD20000020A1
:104C6000313A00003C2C00205000002053442054D6
:104C70006F74616C2053697A653A25640000000006
:104C80004D420D0A0D0A000053442046726565200E
:104C900053697A653A25640070B500241F4882B0D4
:104CA00021468472C47204734FF4FA73A0F1300287
:104CB000022502EB0110038105718472C472047332
:104CC000481CC1B20329F4D315481060154810617F
:104CD0001548106201211120FDF7C4FA8DF8044037
:104CE0008DF8064001241020104E8DF807400090EA
:104CF0008DF8055069463046FCF702FD0821009109
:104D000069463046FCF7FCFC8DF8075069460848B8
:104D10000094FCF7F5FC02B070BD00004C290020A7
:104D2000AD180008C1180008D5180008001002408E
:104D3000000002402DE9F0470025DFF8BC804FF06D
:104D4000010904272E4608EB051420688047002837
:104D5000207936D0042838BF277147D308283CBFB4
:104D6000401C207142D3A07A38B905EB4500401CA5
:104D700084F80A90C0B200F041F82089002835D0AC
:104D8000E18881420CD2481C80B2E08021898842AF
:104D90002CD105EB4500C01CC0B200F02FF825E077
:104DA000E07A18B3207B401CC0B22073E17A8842BD
:104DB0001CD305EB4500401C2673C0B200F01EF862
:104DC00014E0042888BF27710ED800280DBFA07AF0
:104DD000401E2071012807D105EB450000F10200BB
:104DE000A672C0B200F00AF8E6802673681CC5B24D
:104DF000032DA8D3BDE8F0871C2900200549CA7AF5
:104E00008854C87A401CC0B2C8720A2824BF002047
:104E1000C87270474C2900202DE9FF4FDFF88C91B4
:104E2000634D644E644FDFF8948185B092468B46A3
:104E30000446484518BFAC4204D0B4421CBFBC4233
:104E4000444505D1FFF76CFE0121FDF72FFA04E080
:104E5000FFF766FE0121FDF711FABBF1000F1BD031
:104E600057484C4518BFAC4208D0B44218BFBC42AA
:104E700004D044451CBF0068400800D10068BBF165
:104E8000640F10D242F20F714A1CB0FBF2F0B0FB7B
:104E9000FBF0401E80B219E000212046FEF7D0FD55
:104EA00009B0BDE8F08F40F6B8318B4509D2454ACC
:104EB0006321A2FB00204009B0FBFBF0401E80B242
:104EC00004E0B0FBFBF00021401E80B20190002006
:104ED000ADF80010ADF80800ADF802008DF80A003A
:104EE00069462046FEF7C8FD01212046FEF79CFDDD
:104EF000012211462046FEF7B7FD01212046FEF7AC
:104F00009FFD00204C4514BFBC4219203DD0B4F198
:104F1000804F08BF1C2038D0A4F18041B1F58061DA
:104F200008BF1D2031D0A4F18041B1F5006108BF58
:104F30001E202AD0A4F18041B1F5406108BF322083
:104F400023D0A4F18041B1F5805108BF36201CD098
:104F5000A4F18041B1F5A05108BF372015D0AC4273
:104F60001ABFA4F18041B1F5E0512C200DD0B4421C
:104F700008BF182009D0444508BF1A2005D0A4F165
:104F80008041B1F5C05108BF2B208DF80C008DF881
:104F90000DA008988DF80E0001208DF80F0003A8D1
:104FA000FDF714F809B0BDE8F08F000000000140E3
:104FB000000401400040014000440140004801401D
:104FC000042400201F85EB512DE9F74F88B01746C8
:104FD0000898426910895289C00000EBC103089803
:104FE000D20002EBC1014068002601EB0009034436
:104FF000D9F800003546B246D0F808B01868806984
:105000000088C0F30A003880BE70CDF810A0CDF83B
:1050100014A01820D9F8001000EB061008580268F8
:10502000110C12F0FF042ED005EB0408B8F1400F6C
:1050300029D8631E012202EBD303069300880DF1E9
:10504000180C039207ABCDF800C0CDE9013AC0F3CC
:105050000720024604AB0898FFF7E0F818B10BB040
:10506000FF20BDE8F08F07EBD50105F00700091D13
:10507000CDE9001000231A46CDF808A004A9204667
:10508000FBF7C8FC4546701CC6B29BF80000B04256
:10509000BBD8691E012000EBD100F8700BB00020D6
:1050A000BDE8F08F0A88D3090F2B28BF7047DFE8CF
:1050B00003F01808341F1F1F1F1F1F1F1F26263431
:1050C0002D00802A06D090F87F20002A08BF704764
:1050D00001F058B990F88010002908BF704702F01D
:1050E000F1BF026A1278002A08BF704701F05DB96B
:1050F00090F88220002A08BF704701F041BA90F86A
:105100007E20002A08BF704701F070BB90F8812014
:10511000002A08BF704701F0A7B970472DE9F34F87
:1051200083B00126039800248DF80960654FA0F133
:1051300080428DF80A404FF0020BDFF884A18DB257
:105140008DF80B604FF0060907F10C08B2F5C84264
:10515000314658465DD0FDF785F8092205215046B5
:10516000FCF71DFB092206215046FCF718FB8DF8C1
:1051700004B060208DF805B000908DF806408DF8E1
:10518000076069465046FCF7BBFA01218806FDF727
:1051900075F80398FBF7A2F93846FBF725FBBC71BD
:1051A000FC713C727C72BC72FC72BC70FC7005209D
:1051B000387187F805903D8039460398FBF72AFA45
:1051C0000E20FBF7FBFA0E2088F80A0088F80B4047
:1051D00088F80C60A8F80040A8F80240A8F804403D
:1051E000A8F80640A8F8084088F80D6007F10C0000
:1051F000FBF792F9012202210398FBF703FA402002
:105200008DF8080002A8FCF7E1FE05B00120BDE81A
:10521000F08FFDF727F8092208215046FCF7BFFA66
:10522000092211465046FCF7BAFA8DF804B04FF443
:1052300040708DF805B000908DF806408DF807603D
:1052400069465046FCF75CFA01214806FDF716F85E
:105250000398FBF743F91B48FBF7C6FABC71FE71D4
:105260003C727C72BC72FC72BC70FC7005203871A0
:1052700087F805903D8013490398FBF7CBF988F830
:105280000A4088F80B4088F80C60A8F80040A8F89D
:105290000240A8F80440A8F80640A8F8084088F89A
:1052A0000D600948FBF738F9012202210398FBF74A
:1052B000A9F914208DF8080002A8FCF787FEA4E7DE
:1052C000000402406CA8002078A8002010B586B029
:1052D0000A880092002201928B788DF809308DF8AF
:1052E0000820CA788DF80A20CB780022002B88BFCE
:1052F0006B460CD901EB020C9C189CF804C084F896
:105300000BC0521C91F803C0D2B29445F2D8694642
:10531000FBF77AFA04280CBFFF20002006B010BD6E
:105320008AB00020009001900246029018211420BB
:1053300004F078FB284F294E002838601CBF6D46CA
:1053400004AC2ED00023642204A9386804F096FB34
:105350000028F7D00598ADF800009DF81D008DF8E5
:1053600002009DF81E1000208DF80310002908DDB2
:1053700021182A18C97B11719DF80310401C814225
:10538000F6DCBDF800009DF8101000F07F00012948
:10539000D8D10528D6D2DFE800F0030C101418008D
:1053A000D0E70FA0FEF706FF42F2107003F054FFA3
:1053B000F7E730680028C5D00AE070680028C1D03F
:1053C00006E0B0680028BDD002E0F0680028B9D03F
:1053D0006946FFF767FEB5E73C0000202C2C002053
:1053E0004372656174207468652043414E4F706557
:1053F0006E205175657565206661696C6564212054
:105400000D0A000000B583B00B490F20CDE9000163
:1054100000234FF4007209A10A4804F0ADFD0A48C8
:10542000406800281CBF03B000BD08A003B05DF8B1
:1054300004EBFEF7BFBE00004000002043414E4F8A
:1054400070656E00215300083C00002043414E4F20
:1054500070656E206461746170726F636573732030
:105460007468726561642063726561746564206646
:1054700061696C6564210D0A0000000010B50446E6
:105480000020E070401EE062204600F0FDFE002893
:105490001CBF042010BD94F82F0294F82E1241EA8C
:1054A0000020A0F52A4155391CBF032010BD94F8F7
:1054B0003000E9281CBFEB28E82820D1124804F16D
:1054C00066014FF0030211F8013B10F801CB521EA8
:1054D000A3EB0C0302D0002BF5D000E08BB10B48FE
:1054E00004F18201052211F8013B10F801CB521E94
:1054F000A3EB0C0302D0002BF5D000E00BB102208F
:1055000010BD002010BD0000685C00086C5C000845
:10551000F8B515460646FCF755F9FE2824BF852048
:10552000F8BD34466A460021C1EBC10303EB4303D7
:1055300004EB830393F82AC0BCF1000F0CD093F85E
:1055400028C0844504BF93F82930AB4204D1002A17
:1055500018BF1170002004E0491C11F0FF01E3D0D6
:10556000FF2000281CBFFF20F8BD9DF8001020463A
:1055700003F0A8F90020F8BD10B501281CBF0120D8
:1055800010BDFDF795FA002818BF022010BD08B520
:1055900001281CBF042008BD009300230846FDF726
:1055A00075FE10B9FDF724FF08B1012008BDFDF715
:1055B00073FA0028FBD108BD012814BF0120002088
:1055C000704708B501281CBF042008BD00930023C4
:1055D0000846FDF7F9FF10B9FDF750FF08B10120AB
:1055E00008BDFDF759FA0028FBD108BD70B50500CC
:1055F00013D0164E3068854204BF002070BD03F002
:105600006BFD6C6903F088FDF06B84421CBF306C4D
:1056100084420BD14FF0020070BD4FF0100080F3B8
:105620001188BFF34F8FBFF36F8FFEE708488442A6
:1056300005D1A86A002808BF0320EBD170BD05483A
:10564000844216BF002C0420012070BD18240020C5
:10565000303000201C30002010B50446054B0022DD
:1056600041F20301FCF78AFED4F80C02002101701C
:1056700010BD0000B3200008704730B583B00D4660
:1056800000211446009101AA694600F013F8002891
:105690001CBF03B030BD019B59695B89891E01FBAA
:1056A00003FC00994B434FEA5C01296059082160D3
:1056B00003B030BD2DE9F74386B014468946002279
:1056C000694606A800F0F6F85FEA00085AD100988B
:1056D00020600098D0E90416B21E914298BFC9F824
:1056E00000104FD901780025012907BF022402903C
:1056F000076A002418D1214602A800F0B9FBB0F1D6
:10570000FF3F0AD001280BD0002808BF6D1C00986D
:10571000641C40698442EED32CE04FF0010829E07C
:105720004FF0020826E054B939467F1C009800F07B
:10573000ABFD5FEA00081DD100980146037801EB3C
:105740000400022B00F1300220D0D07892F802C081
:105750004CEA002092F801C012784CEA002042EA9C
:10576000002030F0704008BF6D1C201DC0F30804FD
:10577000761ED8D1C9F8005000980561017941F032
:105780000101017109B04046BDE8F08350781278FC
:1057900052EA002008BF6D1CA01CE7E717B581B0D6
:1057A000144602980090684600F0CDFB0028BEBF6A
:1057B0000B2004B010BD0C4B002253F82010002920
:1057C00018BF0A700199002918BF0A7043F8201009
:1057D000002C02BF002004B010BD002201A902A8C5
:1057E00000F068F804B010BD48A900202DE9F0438E
:1057F00083B01F46DDE90A8516468946044602AB9A
:1058000000F0D8FAA8BB012E02D0022E06D030E05C
:105810009DF80810204603F055F82AE09DF808008E
:10582000C0EBC00000EB400004EB8000B0F9740056
:10583000FBF72EFB01469DF80800C0EBC00000EB13
:10584000400004EB8000A0F874109DF8080085214A
:10585000C0EBC00000EB400004EB800080F82A1091
:105860009DF80800C0EBC00000EB400004EB800096
:10587000C56280238DF800308DF801703B0A8DF8E9
:1058800002308DF804502B0A8DF805302B0C8DF862
:1058900006302B0E8DF80730204631464A468DF8EB
:1058A00003806B4603F0CCF8002818BFFF2003B03C
:1058B000BDE8F0832DE9F04F85B0002790460E46F5
:1058C0000F6000F040FB050042BF0B2005B0BDE8B3
:1058D000F08FE44850F82540002C02BF0C2005B0A2
:1058E000BDE8F08F3460207808F0FE0628B16078BB
:1058F000FFF762FE10F0010F15D02770E8B260705C
:10590000FFF73AFE10F0010F1EBF032005B0BDE8FF
:10591000F08F002E18BF10F0040F0DD005B04FF01F
:105920000A00BDE8F08F002E14BF10F0040F002015
:10593000F4D105B0BDE8F08F4FF0000529462046B0
:10594000FFF79CFD4FF0FF394AF6552A022804BFA5
:105950000021E84662D104EB011090F8F22100F535
:10596000F770002A08BF002009D0C27A837A43EA80
:105970000222437A007A43EA022240EA022048F8EF
:105980002100491C0429E6D3002658F8265095B179
:10599000E77029462046C4F82C9000F075FC0028DA
:1059A00018BF042035D194F82F0294F82E1241EA42
:1059B0000020504501D003202BE094F83000E92866
:1059C0001CBFEB28E82823D104F16601A6A04FF004
:1059D000030211F8013B10F801CB521EA3EB0C039C
:1059E00002D0002BF5D000E073B104F182019FA03A
:1059F000052211F8013B10F801CB521EA3EB0C035A
:105A000004D0002BF5D003E0002002E0002BFBD0F7
:105A10000220022802D3761C042EB6D3042802BF2B
:105A2000012005B0BDE8F08F022869D294F83C004F
:105A300094F83B1041EA0020B0F5007F60D194F863
:105A4000470094F8461051EA00210DD194F8570010
:105A500094F8561041EA002094F8551041EA0020CD
:105A600094F8541041EA0021A16194F84000A0701C
:105A7000012818BF02286AD194F83D6000FB01F8A4
:105A80006681EEB3A6F10100064260D194F84200AF
:105A900094F8412042EA0022228112F00F0F56D1E1
:105AA00094F8440094F8433053EA00200DD194F860
:105AB000530094F8523043EA002094F8513043EAFE
:105AC000002094F8503043EA002094F83F3094F8D6
:105AD0003EC05CEA03233AD003EB080C0CEB121C2B
