:020000040800F2
:1000000040B7002055020008C51F0008391F00082E
:10001000C11F000879040008FF310008000000003B
:100020000000000000000000000000009D0100082A
:100030002F10000800000000F1010008D92A000874
:100040006F0200086F0200086F0200086F020008CC
:100050006F0200086F0200086F0200086F020008BC
:100060006F0200086F0200086F0200086F020008AC
:100070006F0200086F0200086F0200086F0200089C
:100080006F0200086F0200086F0200086F0200088C
:100090007D0400086F0200086F0200086F0200086C
:1000A0006F0200086F0200086F0200086F0200086C
:1000B0006F0200086F0200086F0200086F0200085C
:1000C0006F0200086F0200086F0200086F0200084C
:1000D0006F020008E12D00086F0200086F0200089F
:1000E0006F0200086F0200086F0200086F0200082C
:1000F0006F0200086F0200086F0200086F0200081C
:100100006F020008E52400086F0200086F02000873
:100110006F0200086F020008752B00086F020008CC
:100120006F0200086F0200086F0200086F020008EB
:100130006F0200086F0200086F0200086F020008DB
:10014000F10400086F0200086F0200086F02000847
:10015000A50B00086F020008E50B00086F020008FD
:100160006F0200086F0200086F0200086F020008AB
:100170006F0200086F0200086F0200086F0200089B
:100180006F0200086F020008DFF80CD000F0BCF826
:10019000004800479554000840B700202A4B1968D2
:1001A0000868B0E8F04F80F30988BFF36F8F4FF015
:1001B000000080F3118870470000000006480068C6
:1001C000006880F3088862B661B6BFF34F8FBFF353
:1001D0006F8F00DF00BF00BF08ED00E0DFF80C000C
:1001E000016841F470010160704700BF88ED00E0D4
:1001F000EFF30980BFF36F8F134B1A681EF0100FD7
:1002000008BF20ED108A20E9F04F106008B44FF0CD
:10021000100080F31188BFF34F8FBFF36F8F09F089
:10022000E3FE4FF0000080F3118808BC19680868ED
:10023000B0E8F04F1EF0100F08BFB0EC108A80F34A
:100240000988BFF36F8F704760240020EFF30580AB
:10025000704700000648804706480047FEE7FEE773
:10026000FEE7FEE7FEE7FEE7FEE7FEE7FEE7FEE766
:100270000D2B00088901000840EA01039B0703D009
:1002800009E008C9121F08C0042AFAD203E011F8D5
:10029000013B00F8013B521EF9D27047D2B201E097
:1002A00000F8012B491EFBD270470022F6E710B57B
:1002B00013460A4604461946FFF7F0FF204610BDD4
:1002C00030B504460020034600E05B1C934203D295
:1002D000E05CCD5C401BF8D030BD30B50B4601462C
:1002E00000202022012409E021FA02F59D4205D3D5
:1002F00003FA02F5491B04FA02F52844151EA2F17F
:100300000102F1DC30BD0000064C074D06E0E0685C
:1003100040F0010394E8070098471034AC42F6D34C
:10032000FFF736FF38B3000858B3000870B58C18D3
:1003300010F8015B15F0070301D110F8013B2A11F9
:1003400006D110F8012B03E010F8016B01F8016BE6
:100350005B1EF9D12B0705D40023521E0DD401F8E2
:10036000013BFAE710F8013BCB1A921C03E013F8AB
:10037000015B01F8015B521EF9D5A142D8D30020E0
:1003800070BD000010B509F01CFF0249086009F0BB
:100390003BFB10BD140000201CB5204802210023A7
:1003A0000A02CDE900101EA120480AF095FA204863
:1003B000032100234FF40072CDE900101DA1204855
:1003C0000AF08AFA1F4804210023CA01CDE900106F
:1003D0001DA120480AF080FA1F48052100234FF490
:1003E0000072CDE900101DA11F480AF075FA04F053
:1003F00005FC04F0DBFF1D481D4908601D48096825
:10040000C1F8E4011A490868002109F093F90321B1
:10041000184804F07DFA00F027FE1CBD0000002003
:10042000765461736B5461736B310000D1A0000886
:1004300004000020765461736B5461736B320000CA
:1004400009A1000808000020765461736B546173A1
:100450006B33000029A100080C0000207654617362
:100460006B5461736B34000049A100080C2200201A
:100470003C0000200064004000BFFEE710B588B0DB
:100480000020019000BF1021EFF3118081F311884B
:10049000BFF34F8FBFF36F8F00BF044603AA002145
:1004A000104800F086F901208DF808000E48006819
:1004B00030B1002301AA02A90B4800680AF04AF9EA
:1004C00000BF84F3118800BF019848B1019838B18A
:1004D0004FF0805005490860BFF34F8FBFF36F8F17
:1004E00008B010BD006400403400002004ED00E0BE
:1004F00000B587B00020009009F014FB02AA00218B
:100500000F4800F056F901208DF804000D480068EE
:1005100030B100236A4601A90A4800680AF01AF9B6
:1005200009F02AFB009848B1009838B14FF080508C
:1005300005490860BFF34F8FBFF36F8F07B000BD51
:10054000006800403400002004ED00E010B50446CF
:100550000B48844209D10121480601F0A7FE002181
:100560004FF0007001F0A2FE08E00121880601F0C2
:100570009DFE00214FF0806001F098FE10BD00004C
:100580000064004010B50021837A012202FA03F1D1
:100590003D4A126842F001023B4B1A603A4A1C3253
:1005A00012688A43384B1C331A60027BCAB9364A38
:1005B0000C3212688A43344B0C331A604288C38869
:1005C00042EA0343304A4032847A42F834300288A7
:1005D000838842EA03432C4A4032847A02EBC40205
:1005E0005360027B012A19D1274A0C3212680A4350
:1005F000254B0C331A604288038842EA0343224A9F
:100600004032847A42F83430C288838842EA034315
:100610001D4A4032847A02EBC4025360C27A3AB96E
:10062000194A121D12688A43174B1B1D1A6006E0F7
:10063000154A121D12680A43134B1B1D1A600289CA
:1006400032B9114A143212688A430F4B14331A60BC
:100650000289012A06D10C4A143212680A430A4B55
:1006600014331A60427B012A06D1074A1C321268F1
:100670000A43054B1C331A60034A126822F0010238
:10068000014B1A6010BD0000006600401AB14369BA
:100690000B43436102E043698B434361704730B5CC
:1006A000024600200023146824F002041460146839
:1006B00044F00104146000E05B1C546804F0010481
:1006C0001CB94FF6FF74A342F6D1546804F001043C
:1006D0000CB900206CE08C79012C04D1146844F032
:1006E0008004146003E0146824F080041460CC7962
:1006F000012C04D1146844F04004146003E0146831
:1007000024F0400414600C7A012C04D1146844F0E5
:100710002004146003E0146824F0200414604C7A70
:10072000012C04D1146844F01004146003E0146830
:1007300024F0100414608C7A012C04D1146844F065
:100740000804146003E0146824F008041460CC7AF0
:10075000012C04D1146844F00404146003E014680C
:1007600024F0040414608C78A407CD7844EA05646E
:100770000D7944EA05444D7944EA05540D886D1E0F
:100780002C43D461146824F001041460002300E0B9
:100790005B1C546804F001041CB14FF6FF74A342C3
:1007A000F6D1546804F001040CB1002000E00120EF
:1007B00030BD10B500F5D87303EB01131B6803F0CF
:1007C00004031372137A53B900F5D87303EB0113C2
:1007D0001B6840F2FF7404EA5353136009E000F50C
:1007E000D87303EB01131B686FF0604404EAD30372
:1007F000536000F5D87303EB01131B6803F0020389
:10080000537200F5D87303EB01135B6803F00F0319
:10081000937200F5D87303EB01135B681B0AD37462
:1008200000F5D87303EB01139B68D37200F5D873FE
:1008300003EB01139B681C0A147300F5D87303EBD8
:1008400001139B681C0C547300F5D87303EB011360
:100850009B681B0E937300F5D87303EB0113DB68E1
:10086000D37300F5D87303EB0113DB681C0A14740F
:1008700000F5D87303EB0113DB681C0C547400F50E
:10088000D87303EB0113DB681B0E937421B9C368A3
:1008900043F02003C36003E0036943F020030361D6
:1008A00010BD00000B49096841F00101094A1160BF
:1008B0001146096843F60E729143064A11601146CB
:1008C000096841EA002111601146096821F001011F
:1008D000116070470066004000218171C171017292
:1008E00041728172C1728170C17003210171022154
:1008F000417101210180704710B5024600209368C4
:1009000003F08063B3F1806F00D110E0936803F0CF
:100910000063B3F1006F01D1012008E0936803F098
:100920008053B3F1805F01D1022000E0042004284D
:1009300074D002F5C07303EB00131B6803F00104CD
:1009400002F5C07303EB00131C600B7A7BB94B7A82
:100950000C8843EA445302F5C07404EB0014246885
:10096000234302F5C07404EB0014236010E00B7AFB
:100970004C6843EAC4034C7A234302F5C07404EB89
:1009800000142468234302F5C07404EB00142360B0
:100990008B7A03F00F038B7202F5C07303EB001325
:1009A0005B6823F00F0402F5C07303EB00135C6077
:1009B00002F5C07303EB00135B688C7A234302F5E6
:1009C000C07404EB001463608B7B1C064B7B44EA11
:1009D00003440B7B44EA0323CC7A234302F5C0741F
:1009E00004EB0014A3608B7C1C064B7C44EA03449C
:1009F0000B7C44EA0323CC7B234302F5C07404EB55
:100A00000014E36002F5C07303EB00131B6843F0AE
:100A1000010402F5C07303EB00131C6010BD00005D
:100A200070B5044605E01648056805F0450000B1BC
:100A300000E0F8E700BF042001F048FD20B10420E9
:100A400001F03EFD032070BD012001F03FFD20B10B
:100A5000012001F035FD0120F5E709482438006840
:100A6000A04201D01020EEE740F2FF5001F028FD37
:100A700003482038006808210840C0B2E3E70000BE
:100A8000342C014070B504460D46D4F8A00050F84F
:100A90002500C0F307464FF0FF30D4F8A41021F82A
:100AA0001500012104F1B400815531462046D4F8E7
:100AB000B020904770BD2DE9FF4FDDE90D456CE09A
:100AC000A5EB020A4FFA8AF3002B04DD91F800A08F
:100AD0000AFA03FA05E091F800A0C3F1000B4AFA04
:100AE0000BFA0AF0FF0C002B02DDC5F1080A01E049
:100AF000C2F1080A0AF0FF08804501DD824600E0E5
:100B0000C246564605EB060B4FF0FF0A0AFA0BFAEF
:100B1000C5F1080E4FF0FF0B4BFA0EFB4AEA0B0A29
:100B20000AF0FF072CEA070994F800A00AEA070A6E
:100B300084F800A094F800A04AEA090A84F800A00A
:100B400002EB060A0AF0FF0A5246BAF1070F0BDD64
:100B50000022DDF80CA0BAF1000F02D04FF0FF3AEE
:100B600001E04FF0010A514405EB060A0AF0FF0AC2
:100B70005546BAF1070F0BDD0025DDF83CA0BAF1B0
:100B8000000F02D04FF0FF3A01E04FF0010A544449
:100B9000A0EB060A0AF0FF0000BF002890DCBDE8C9
:100BA000FF8F000010B500BF1021EFF3118081F31B
:100BB0001188BFF34F8FBFF36F8F00BF0446074903
:100BC000074800F09FF918B10449054800F052F8B1
:100BD00000BF84F3118800BF10BD00000088002012
:100BE0008864024010B500BF1021EFF3118081F33B
:100BF0001188BFF34F8FBFF36F8F00BF04460C49BE
:100C00000C4800F07FF968B100BF40210A4802F0AB
:100C10002BFA0028F9D00649064800F02BF80020EE
:100C20000649087000BF84F3118800BF10BD0000A2
:100C300000800028B8640240001001401C00002021
:100C40000246094B9A4201D2084801E00648103892
:100C500001F000531BB1064B0B40C36002E0044B94
:100C60000B40836070470000106402400060024047
:100C70007D0F7D0F0246094B9A4201D2084801E0E0
:100C80000648103801F000531BB1064B0B40C360FF
:100C900002E0044B0B408360704700001064024088
:100CA000006002407D0F7D0F21B1026842F0010219
:100CB000026003E0026822F0010202607047000057
:100CC00000B591B00121880501F0D0FA344800F058
:100CD0006DF84FF00060029032480390402005907C
:100CE000002007904FF480600890002009900A903F
:100CF0000B904FF480300C9000200D9003200E904C
:100D000000200F90109002A9254800F04BF94620D2
:100D10008DF8040004208DF8050000208DF80600F1
:100D200001208DF8070001A801F04EF901221021E1
:100D30001B4800F019F94FF020511948FFF780FFC8
:100D40001748303800F032F84FF000600290154834
:100D500003900020059007904FF4806008900020D9
:100D600009900A904FF480700B9040020C90002084
:100D70000D9003200E9000200F90109002A90848BB
:100D8000303800F00FF9002210210548303800F00B
:100D9000EBF8054902483038FFF752FF11B000BDAB
:100DA000B86402400410014000080020016821F0EE
:100DB000010101600021016041608160C160016149
:100DC000212141614A49884204D13D21484A103AD3
:100DD00091608CE046491831884205D14FF4746126
:100DE000434A103A916082E041493031884205D14E
:100DF0004FF474113E4A103A916078E03C49483112
:100E0000884205D14FF07461394A103A91606EE022
:100E100037496031884204D13649354A103AD160A9
:100E200065E033497831884204D13349304A103A79
:100E3000D1605CE02E499031884204D12F492C4A80
:100E4000103AD16053E02A49A831884205D14FF0C9
:100E50003D51274A103AD16049E02949884204D1DE
:100E60003D21274A083A116041E02549183188425E
:100E700005D14FF47461224A083A116037E02049E5
:100E80003031884205D14FF474111D4A083A11607F
:100E90002DE01B494831884205D14FF07461184A52
:100EA000083A116023E016496031884204D11149A3
:100EB000134A121F11601AE011497831884204D197
:100EC0000D490F4A121F116011E00D4990318842FF
:100ED00004D10A490A4A121F116008E00849A831E2
:100EE000884204D14FF03D51054A121F11607047EE
:100EF000106002403D000020400F002000003D2017
:100F00001064024070B50246002000240025124EF5
:100F1000B24201D2114B01E00F4B103B104E0E407C
:100F200036B11E2606EAD124166806EA040502E058
:100F3000566906F0800501F000560EB15C6800E0CD
:100F40001C68084E344004EA010616B10DB10120B8
:100F500000E0002070BD000010640240006002400C
:100F60003C0F3C0F7D0F7D0F10B501F080034BB19E
:100F700022B1436943F08003436103E0436923F0F6
:100F80008003436180290BD02AB1036801F01E045D
:100F90002343036004E0036801F01E04A3430360DD
:100FA00010BD000010B500220268134B1A40CC6837
:100FB0000B6823434C6923438C692343CC69234347
:100FC0000C6A23434C6A23438C6A23434C6B2343B0
:100FD0008C6B23431A430260426922F00702D1E975
:100FE0000B3423431A4342610B6943604B688360AF
:100FF0008B68C36010BD00003F801CF041607047EB
:10100000C160704770B505460E461446002128465B
:10101000FFF74AFE31462846FFF7F2FF21462846F1
:10102000FFF7ECFF01212846FFF73EFE70BD704739
:101030000146481C80B10A48B0F90000814205D140
:1010400007480088401E00B2054A1080002001EBCE
:101050004102044B03F832004FF0FF3070470000AC
:10106000EC24002080A600201CB509480121CDE910
:10107000001008484A0208A103680A4809F02CFC3D
:101080000348006810B908A002F00AF91CBD00006E
:10109000480000203C00002045504F5332696E69E3
:1010A000740000001D12000845504F533220696E35
:1010B0006974207468726561642063726561746527
:1010C00064206661696C6564210D0A001CB50C48DA
:1010D000007898B100200A4908700A480121CDE93A
:1010E000001009484A0209A103680B4809F0F4FB03
:1010F0000448006810B909A002F0D2F81CBD000035
:1011000044000020500000203C00002045504F5378
:101110003269706D000000006919000845504F5396
:10112000322069706D207468726561642063726535
:1011300061746564206661696C6564210D0A000054
:101140001CB509480121CDE9001008484A0208A150
:1011500003680B4809F0C0FB0348006810B909A0F8
:1011600002F09EF81CBD0000540000203C0000204E
:1011700045504F533272657475726E7A65726F00A6
:10118000DD19000845504F53322072657475726E38
:101190007A65726F2074687265616420637265613C
:1011A000746564206661696C6564210D0A00000045
:1011B0001CB509480121CDE9001008484A0208A1E0
:1011C00003680B4809F088FB0348006810B909A0C0
:1011D00002F066F81CBD00004C0000203C0000201E
:1011E00045504F53327365747A65726F000000008A
:1011F000111B000845504F5332207365747A657295
:101200006F207468726561642063726561746564DF
:10121000206661696C6564210D0A000001B58CB01F
:10122000012004900C980B9004200890049800F57D
:10123000C0700990002008AACDE9002009AB012266
:101240004FF4A05102900B9802F070FE049800F544
:1012500020700990002008AACDE9002009AB0122E6
:1012600041F2014102900B9802F060FE049800F5F3
:1012700060700990002008AACDE9002009AB012286
:1012800041F2024102900B9802F050FE049800F5E2
:1012900090600990002008AACDE9002009AB012246
:1012A00041F2034102900B9802F040FEFE4904987F
:1012B00008440990002008AACDE9002009AB0122CA
:1012C0004FF4C05102900B9802F030FEF749049899
:1012D00008440990002008AACDE9002009AB0122AA
:1012E00041F6010102900B9802F020FEF0490498AB
:1012F00008440990002008AACDE9002009AB01228A
:1013000041F6020102900B9802F010FEE9490498A0
:1013100008440990002008AACDE9002009AB012269
:1013200041F6030102900B9802F000FE01200890A4
:10133000FF200A90002008AACDE900200AAB022273
:101340004FF4A05102900B9802F0F0FDFF200A909C
:10135000002008AACDE900200AAB022241F2014197
:1013600002900B9802F0E2FDFF200A90002008AAEC
:10137000CDE900200AAB02224FF4C05102900B9835
:1013800002F0D4FD022008900A200690002008AA4E
:10139000CDE9002006AB0322D10202900B9802F0A7
:1013A000C5FD0220079001200890002008AACDE981
:1013B000002007AB02464FF4B05102900B9802F0A8
:1013C000B5FDBD48059004200890002008AACDE98D
:1013D000002005AB01224FF4B05102900B9802F0AF
:1013E000A5FDB648059004200890002008AACDE984
:1013F000002005AB02224FF4B05102900B9802F08E
:1014000095FD012007900890002008AACDE9002052
:1014100007AB024641F2016102900B9802F086FD93
:10142000A748059004200890002008AACDE90020D4
:1014300005AB012241F2016102900B9802F076FDAA
:10144000012007900890002008AACDE9002007ABF2
:1014500002464FF4D05102900B9802F067FD994874
:10146000059004200890002008AACDE9002005ABD3
:1014700001224FF4D05102900B9802F057FD12E078
:1014800000209149034646F24102CDE9001004993B
:101490000B9800F0AFFF012800D105E0022204996B
:1014A0000B9803F0DFFBEBE700BF8748007800F004
:1014B000080060B18020854908800020034646F27C
:1014C0004002CDE9001004990B9801F09BFE8022A8
:1014D00004990B9804F005F8012008F02DFC0498FD
:1014E00000F500700990002009A901234FF4A052D3
:1014F000CDE9001004990B9801F084FE00200AA9A0
:1015000002234FF4A052CDE9001004990B9801F08A
:1015100079FE002007906B480590002007A903463C
:101520004FF4B052CDE9001004990B9801F06AFE17
:10153000002005A901234FF4B052CDE90010049911
:101540000B9801F05FFE01200790002007A90346D9
:101550004FF4B052CDE9001004990B9801F052FEFF
:10156000514980390498084409906420069000206D
:1015700009A901234FF4C052CDE9001004990B983A
:1015800001F040FE00200AA902234FF4C052CDE929
:10159000001004990B9801F035FE002006A90323E2
:1015A000DA02CDE9001004990B9801F02BFE3E49B8
:1015B00080310498084409900020069009A901236D
:1015C00041F60102CDE9001004990B9801F01AFED2
:1015D00000200AA9022341F60102CDE90010049976
:1015E0000B9801F00FFE002006A9032341F601022B
:1015F000CDE9001004990B9801F004FE2B498031CD
:10160000049808440990002009A9012341F6020228
:10161000CDE9001004990B9801F0F4FD24498031C4
:10162000049808440990002009A9012341F6030207
:10163000CDE9001004990B9801F0E4FD002007901B
:101640001D480590002007A903464FF4D052CDE96C
:10165000001004990B9801F0D5FD002005A9012385
:101660004FF4D052CDE9001004990B9801F0CAFD57
:1016700012480590002005A902234FF4D052CDE96D
:10168000001004990B9801F0BDFD02200790002086
:1016900007A903464FF4D052CDE9001004990B98E6
:1016A00001F0B0FD002013E000020040000300C084
:1016B000000400C0000500C0200064601000F42099
:1016C000100041604000C120680200206602002036
:1016D000079091480590002007A9034641F6012292
:1016E000CDE9001004990B9801F08CFD002005A9AC
:1016F000012341F60122CDE9001004990B9801F075
:1017000081FD01200790002007A9034641F6012230
:10171000CDE9001004990B9801F074FD05210B9898
:1017200008F008F8012008F007FB012204990B9843
:1017300003F0D7FE012008F0FFFA0020039003A970
:10174000062346F2C402CDE9001004990B9801F07B
:1017500059FD01200390002003A9062346F2C4028C
:10176000CDE9001004990B9801F04CFD0020029087
:101770001DE06A490298085C01060022684B029845
:1017800053F820006FF07F43184093184141654A99
:10179000029852F82000C21718185141624A03C239
:1017A000012008F0C9FA0298401CC0B202900298C9
:1017B0001028DEDB002003A9042346F2C402CDE991
:1017C000001004990B9800F015FE9DF80C001028ED
:1017D00002D156A001F064FD01205A490870002092
:1017E000034646F26002CDE9001004990B9801F01F
:1017F00009FD002054490860034646F27A02CDE90B
:10180000001004990B9801F0FDFC4FF47A704F49D9
:1018100008600020034646F28102CDE900100499D9
:101820000B9801F0EFFC41F2883049490860002034
:10183000034646F28302CDE9001004990B9801F0AB
:10184000E1FC41F28830434908600020034646F23B
:101850008402CDE9001004990B9801F0D3FC01201B
:101860003D4908800020034646F28602CDE900107B
:1018700004990B9801F0C6FC002038490880034603
:1018800046F24002CDE9001004990B9801F0BAFC31
:10189000012008F051FA00BF3148008800F4A07020
:1018A000B0F5A07FF8D106202C490880002003461F
:1018B00046F24002CDE9001004990B9801F0A2FC19
:1018C000012008F039FA00BF2548008840F22111B4
:1018D00008408842F8D10F202049088000200346A4
:1018E00046F24002CDE9001004990B9801F08AFC01
:1018F000012008F021FA00BF1948008840F2371192
:1019000008408842F8D11748006808F043FA0020E0
:10191000144908600DB000BD1000416060AD0008C2
:1019200070AD0008B0AD00088001002077726974C6
:1019300065206669666F20737563636573730D0A4E
:1019400000000000700200209C020020B002002075
:10195000B4020020B8020020C0020020660200206D
:1019600068020020480000207CB504460126254678
:101970000720164908700020034646F26002CDE9B0
:1019800000103146284601F03DFC1F201049088018
:101990000020034646F24002CDE9001031462846B9
:1019A00001F030FC012008F0C7F900BF09480088A9
:1019B00000F48060B0F5806FF8D10748006808F047
:1019C000E9F90020044908607CBD00007002002095
:1019D000660200206802002050000020FEB5054687
:1019E00001272E460020029002A9062346F2C402D7
:1019F000CDE900103946304601F004FC0120029088
:101A0000002002A9062346F2C402CDE9001039469F
:101A1000304601F0F7FB002418E03248005D010673
:101A20000022314850F824006FF07F43184092188C
:101A300041412E4850F82400C317101859412C4A30
:101A400003C2012008F078F9601CC4B2102CE4DB5A
:101A50000120284908700020034646F26002CDE9C3
:101A600000103946304601F0CDFB002022490860C5
:101A7000034646F27A02CDE900103946304601F0BD
:101A8000C1FB4FF4FA601D4908600020034646F28E
:101A90008102CDE900103946304601F0B3FB3F200A
:101AA000174908800020034646F24002CDE90010A5
:101AB0003946304601F0A6FB012008F03DF900BF91
:101AC0001048008800F48060B0F5806FF8D10120E4
:101AD0000D4908700D48006808F05CF900200B49BA
:101AE0000860FEBD60AD000870AD0008B0AD000834
:101AF00080010020700200209C020020B002002023
:101B000066020020680200204400002054000020EB
:101B1000FEB5054601272E460020029002A90623A5
:101B200046F2C402CDE900103946304601F06AFBA6
:101B300001200290002002A9062346F2C402CDE94A
:101B400000103946304601F05DFB002418E05D4886
:101B5000005D010600225C4850F824006FF07F43CE
:101B6000184093184141594850F82400C2171818DA
:101B70005141574A03C2012008F0DEF8601CC4B28C
:101B8000102CE4DB0120534908700020034646F284
:101B90006002CDE900103946304601F033FB41F2D6
:101BA00088304D4908600020034646F27A02CDE9AC
:101BB00000103946304601F025FB4FF4FA604749E2
:101BC00008600020034646F28102CDE90010394644
:101BD000304601F017FB3F204149088000200346B2
:101BE00046F24002CDE900103946304601F00AFBCA
:101BF000012008F0A1F800BF3A48008800F4806096
:101C0000B0F5806FF8D123203749087000200346D3
:101C100046F29802CDE900103946304601F0F2FA5A
:101C2000002032490860034642F28102CDE90010EB
:101C30003946304601F0E6FA00202D490860034697
:101C400042F28102CDE900103946304601F0DAFA5D
:101C50000620204908700020034646F26002CDE9C4
:101C600000103946304601F0CDFA0F201C4908809B
:101C70000020034646F24002CDE9001039463046C6
:101C800001F0C0FA1F20164908800020034646F2E2
:101C90004002CDE900103946304601F0B3FA00BFEA
:101CA0001048008800F4A050B0F5A05FF8D10120E2
:101CB000104908701048006808F06CF800200E49C0
:101CC0000860FEBD60AD000870AD0008B0AD000852
:101CD00080010020700200209C020020B002002041
:101CE0006602002068020020C8020020780100205F
:101CF000A0020020440000204C000020F0B50A465D
:101D000000210023002400BF3DE0012505FA01F376
:101D1000156805EA03049C4234D105684F00032688
:101D2000BE40B543056015794E00B54006683543A1
:101D300005601579012D02D01579022D16D185681F
:101D40004F000326BE40B543856055794E00B5402F
:101D5000866835438560456801268E40B5434560F9
:101D6000456896798E40B6B235434560C5684F00E8
:101D70000326BE40B543C560D5794E00B540C66860
:101D80003543C560491C1029BFD3F0BDF0B5002311
:101D900000244D07ED0E02FA05F3CE1000F12005E8
:101DA00055F826504E07F70E0F26BE40B543CF100C
:101DB00000F1200646F82750CE1000F1200555F816
:101DC000265045EA0304CE1000F1200545F82640D0
:101DD000F0BD01837047F0B502460C4600265069FD
:101DE00041889069478809B9FF20F0BD002314E0BD
:101DF000506800EBC1000079032801DCFF20F4E704
:101E0000506850F83100806B0578A54201D1012659
:101E100005E0481C81B2581CC3B2B942E8DD00BFDE
:101E20000EB9FE20E1E71846DFE770B504460E461E
:101E3000D4F83C01008860B3002527E004F1B40029
:101E4000405D0F2820D020680078A8421CD004F5FF
:101E5000A270405D00280BDCD4F8380120B129467F
:101E60002046D4F838219047012104F1B4004155AF
:101E700004F5A270405D401EC1B204F5A270415548
:101E80002946204603F01AFB681CC5B2802DD5DB1D
:101E900005E0B4F93401FFF7CBF8A4F8340170BDC4
:101EA0002349096888B223490968098881423EDBD1
:101EB000204909684989491C1E4A126851811D49F7
:101EC0000968C989491C1B4A1268D18119490968E6
:101ED000C989184A12681289914203D10021154A12
:101EE0001268D181134909680988091A114A1268D0
:101EF0001269104B1B68DB8922F813100D49096821
:101F000049890C4A12681289914210DD0021094A60
:101F100012689181074A1268D181064A126851817C
:101F200004490968898A491C024A126891827047EB
:101F30008C6402402000002000BFFEE704480069D6
:101F400000F0100008B9012070470020FCE70000F5
:101F5000001002400448006900F0080008B90120A0
:101F600070470020FCE700000010024004480069B0
:101F700000F0010008B1012070470020FCE70000DC
:101F8000000002401CB50121084600F06FF9C02096
:101F9000009001208DF8040000208DF80600032039
:101FA0008DF8050001208DF8070069460348FFF70A
:101FB000A5FEC0210148FFF70CFF1CBD0000024038
:101FC00000BFFEE77047000070B5002100230F221C
:101FD000C4781CB3174C246804F4E064C4F5E064CE
:101FE000C4F30721C1F10404E3B20A4144789C40E0
:101FF000E1B28478144021430C07210E0E4C057881
:102000006155047804F01F050124AC4005786D117A
:10201000AD0005F1E025C5F8004109E0047804F0C1
:102020001F050124AC40054D0678761145F8264081
:1020300070BD00000CED00E000E400E080E100E095
:1020400002490143024A1160704700000000FA058E
:102050000CED00E070B504460D461646204607F02C
:10206000F1FB002070BD0000F8B504460E4617468F
:10207000A834B4F90400FEF7DBFFA08054F8A809E7
:10208000008860B1D4F8A80005880023054A1946E5
:102090002046009500F01CFCA4F8AC0000BF002016
:1020A000F8BD00002522000870B504460D4616460E
:1020B000204603F06DFA204603F02AFA002070BD96
:1020C00030B503460C46D3F80C02007860B9002105
:1020D00006E00020D3F8105245F82100481CC1B298
:1020E00093F809028842F4DC002030BD70B5054643
:1020F0000C464FF0FF3004EBC402A96801EB42012B
:102100004880002004EBC402A96801EB4201C880AA
:10211000E1B2284607F0CCF870BD70B505460C4614
:102120004FF0FF3004EBC402A96801EB4201888044
:1021300004EBC401A86810F8110020F0010004EBC2
:10214000C402A96801F81200E1B2284607F0B0F80D
:1021500070BD00002DE9F84304464FF4C057606994
:102160000589A069B0F80880BDB114E06A46394617
:102170002046D4F8E83198470646009830B90A4915
:102180003068C1623068C1633068C165781C87B24D
:10219000681C85B200BF4545E8DD0021204601F0FE
:1021A000F9FDBDE8F88300008D2C00082DE9F04111
:1021B0000446002560690689A069078986B32DE079
:1021C00005EBC502A16801EB4201B1F90200FEF77F
:1021D0002FFF05EBC502A16801EB4201488005EB2A
:1021E000C502A16801EB4201B1F90400FEF720FF2E
:1021F00005EBC502A16801EB42018880002005EBD8
:10220000C502A16801F8120005EBC502A16801EB47
:102210004201C880681CC5B2701C86B2BE42CFDDC8
:10222000BDE8F081FEB504460E46D4F8A80000884B
:10223000A8B12068007800F5E065ADF800500120F5
:102240008DF8030000208DF8020094F87C008DF8D2
:1022500004006946D4F8E40102F02AFC05E0B4F970
:10226000AC00FEF7E5FEA4F8AC00FEBD29B1064ABD
:1022700012680243044B1A6004E0034A1268824366
:10228000014B1A60704700003038024029B1064AFD
:1022900012680243044B1A6004E0034A1268824346
:1022A000014B1A60704700004038024029B1064ACD
:1022B00012680243044B1A6004E0034A1268824326
:1022C000014B1A60704700002038024029B1064ACD
:1022D00012680243044B1A6004E0034A1268824306
:1022E000014B1A60704700004438024029B1064A89
:1022F00012680243044B1A6004E0034A12688243E6
:10230000014B1A607047000024380240F0B50021EC
:1023100000220024022500260223324F3F6807F0E6
:102320000C0121B1042905D0082937D105E02E4F31
:10233000076036E02D4F076033E02A4F3F1F3F68AC
:10234000C7F38056274F3F1F3F6807F03F036EB12A
:10235000264FB7FBF3F7DFF88CC0ACF1040CDCF8C8
:1023600000C0CCF3881C07FB0CF40CE01E4FB7FB3D
:10237000F3F7DFF870C0ACF1040CDCF800C0CCF36C
:10238000881C07FB0CF4174F3F1F3F68C7F301473A
:102390007F1C7D00B4FBF5F7076002E0124F076079
:1023A00000BF00BF0F4F3F6807F0F0010909104F51
:1023B0007A5C0768D74047600A4F3F6807F4E051EE
:1023C000890A0B4F7A5C4768D7408760054F3F68A2
:1023D00007F46041490B064F7A5C4768D740C760F5
:1023E000F0BD0000083802400024F40000127A001A
:1023F000F42400202DE9FF4F85B0074690461C4687
:10240000DDF84C9004AA41463846D7F8E8319847A1
:102410008246DAF8000000EB041090F801B0DAF818
:10242000000000EB041040680390B9F1000F01D0E8
:10243000052500E0032523464246CDE900B938468C
:10244000069906F0E3FEE0B900F028FB18E007F07B
:1024500069FB02A803AB00903846129A069902F075
:10246000B1FC064607F088FB07480078012803D135
:10247000EE2009B0BDE8F08FAE4201D03046F8E75B
:10248000E5E7EF20F5E700005C0000202DE9F843C8
:102490000546884614461E466A4641462846D5F8F3
:1024A000E83198470746009830B93879A04203DDF3
:1024B000386800EB0410C6600098BDE8F88300009F
:1024C0000149086070470000382C01400146002097
:1024D000034A12680A400AB1012000E00020704758
:1024E000342C014010B500F049F910BD0021094B12
:1024F00002681A601A1D11686FF30A01D0E90123FE
:102500001A43C3681A4303691A431143014A121D4F
:1025100011607047082C01402DE9FC4104460D462E
:102520006069468866B1C5EBC50000EB400104F167
:10253000280010F821003044A1694988884201DD53
:10254000BDE8FC81C5EBC50000EB400204F12800AA
:1025500010F822003044616851F83000806B077831
:102560004FF0FF31C5EBC50000EB400204F128003D
:1025700000EB8200A0F84C108521C5EBC50000EBF4
:10258000400204F1280000EB820081702D49C5EB68
:10259000C50000EB400204F1280000EB8200807AC5
:1025A000CDE90001C5EBC50000EB400C04F12800AB
:1025B00000EB8C000389C5EBC50000EB400C04F177
:1025C000280010F82C20C5EBC50000EB400C04F1EE
:1025D000280000EB8C004178204606F07AFF19496C
:1025E000C5EBC50000EB400204F1280000EB8200BF
:1025F0004160C5EBC50000EB400104F1280000EB91
:102600008100006D58B1C5EBC50000EB400104F13D
:10261000280000EB81003946026D20469047C5EB4B
:10262000C50000EB400104F1280000EB8100406888
:102630000449884203D1E9B2204606F009FE00BFF2
:102640007EE70000000004052DE9FF4104460D4629
:10265000C5EBC50000EB400104F1280000EB810050
:10266000C06888B9C5EBC50000EB400104F1280043
:1026700000EB81000169C5EBC50000EB400204F1ED
:10268000280000EB8200C160C5EBC50000EB4001F3
:1026900004F1280000EB8100C0680390012003AA28
:1026A000CDE900200290C5EBC50000EB400704F126
:1026B000280000EB870000F11403C5EBC50000EB18
:1026C000400704F1280000EB8700827AC5EBC500C3
:1026D00000EB400704F1280000EB87000189204649
:1026E00001F024FC06461EB1304604B0BDE8F0817E
:1026F0000020FAE7F0B504461546C1EBC10000EB37
:10270000400704F1280000EB8700006928442028D6
:1027100001D9FF20F0BDC1EBC10000EB400704F17F
:10272000280000EB8700066900220FE09F5CC1EBE8
:10273000C10000EB400C04F1280000EB8C001430C9
:1027400006EB020C00F80C70501CC2B2AA42EDD38A
:10275000C1EBC10000EB400704F1280000EB87004B
:1027600000694719C1EBC10000EB400C04F12800DF
:1027700000EB8C0007610020CCE7000010B54FF49F
:102780008070FFF7A3FE78B34C480078012814D17D
:1027900000204B4908600C204860402088600020E1
:1027A000C8604FF4806008610846FFF79FFE0C2068
:1027B000FEF736F94349087002E0002041490870ED
:1027C0004148006840F480703F490860081D006877
:1027D0004CF23A3188433C49091D086001203B49CD
:1027E00008703848007810BDFFE70220FFF76EFE42
:1027F00078B10220FFF764FE3348001D00684CF2F8
:102800003A3188433049091D086002202D4908707B
:10281000E9E70820FFF75AFE78B10820FFF750FEDD
:102820002948001D00684CF23A3188432649091DA9
:102830000860042023490870D5E72020FFF746FEF2
:1028400078B12020FFF73CFE1F48001D00684CF2C5
:102850003A3188431C49091D08600620194908704F
:10286000C1E71020FFF732FE78B11020FFF728FEF5
:102870001548001D00684CF23A3188431249091D81
:10288000086005200F490870ADE74FF40070FFF7AE
:102890001DFE80B14FF40070FFF712FE0A48001DC4
:1028A00000684CF23A3188430749091D0860072047
:1028B0000449087097E7002095E700002D000020EC
:1028C000C02900202E000020382C01402F000020BD
:1028D0002DE9F05F82468B46914698460026274CAC
:1028E00040E0B9F1000F3AD02078B8BB2448B0F9E5
:1028F0000000401C864205D121480088401C00B2DF
:102900001F49088002F048FA054647464FF6FF7017
:10291000874201D2384601E04FF6FF70074619485A
:102920000068A8420AD917480068401BB84205D978
:10293000E81914490860384606F062FFC4F80890A8
:10294000C4F804A0C4F80CB008EB050020610A9894
:102950006061012020703046BDE8F09FFFE7701CE9
:1029600006B218340648B0F90000401C864201DC6B
:10297000082EB6DB4FF0FF30EEE7000080A6002007
:10298000EC240020E82400200CB5002001900090E9
:102990003448006840F480303249086000BF314854
:1029A000006800F4003000900198401C01900098ED
:1029B00018B90198B0F5A04FF1D12A48006800F489
:1029C000003010B10120009001E00020009000983C
:1029D000012846D123484030006840F0805021490A
:1029E000403108602048006840F440401E490860BB
:1029F0001C48083000681B49083108600846006818
:102A000040F4004008600846006840F4A0500860A8
:102A10001648091F0860081F006840F08070091FF1
:102A2000086000BF0F48006800F000700028F9D06F
:102A300040F205700E4908600A480830006820F02E
:102A400003000849083108600846006840F00200A9
:102A5000086000BF03480830006800F00C00082838
:102A6000F8D10CBD00380240007000400854400707
:102A7000003C024001464FF480620A8020220A8115
:102A8000044A4A60044A0A6100228A81CA814A8152
:102A90008A827047242500202429002038B5002090
:102AA0000749087007F058FF0446642000232246B7
:102AB000012100900348006808F010F938BD0000BB
:102AC0005C0000205800002070B504460D462046EA
:102AD00006F028FD70BD000010B500BF102080F387
:102AE0001188BFF34F8FBFF36F8F00BF07F03AFF1E
:102AF00018B14FF080500449086000BF002080F3F7
:102B0000118800BF10BD000004ED00E010B51548AD
:102B1000006840F47000134908601348006840F0F2
:102B200001001149086000200F49083108600E4873
:102B300000680E4908400C4908600D48091D0860EE
:102B4000081F006820F48020091F08600020064943
:102B50000C310860FFF718FF4FF000600149803921
:102B6000086010BD88ED00E000380240FFFFF6FE6F
:102B70001030002410B50121064800F02AF840B1B9
:102B800005480068401C044908600121014800F024
:102B900011F810BD001000401800002021B102887B
:102BA00042F08002028004E002884FF67F731A40F0
:102BB00002807047CA430282704721B1028842F006
:102BC0000102028004E002884FF6FE731A40028080
:102BD000704730B50246002000230024158A05EA1C
:102BE0000103958905EA010413B10CB1012000E04D
:102BF000002030BD1AB183890B43838102E08389B1
:102C00008B4383817047000000220288184B984252
:102C10000ED0184B98420BD0B0F1804F08D0164B15
:102C2000984205D0154B984202D0154B984204D1DA
:102C30004FF68F731A404B881A43124B984207D0B5
:102C4000114B984204D04FF6FF431A400B891A43A8
:102C500002804B68C3620B880385054B984202D003
:102C6000044B984201D18B7A0386012383827047FB
:102C70000000014000040140000400400008004042
:102C8000000C004000100040001400402DE9F0410D
:102C900004460E4617468220005DE0B3022F04D0A2
:102CA000032F03D0052F37D101E000BF00BF6169BA
:102CB0000989606800EBC108A6EB0800C0F3C705EE
:102CC00005EBC502A16801EB4201B1F90200FEF774
:102CD000AFF905EBC502A16801EB4201488005EBA5
:102CE000C502A16801EB4201B1F90400FEF7A0F9A9
:102CF00005EBC502A16801EB42018880002005EBCD
:102D0000C502A16801F8120029462046FFF7EEF936
:102D10000020BDE8F08101E000BF00BF0020F8E71F
:102D20002DE9F0414FF6FF7602F036F807462948C4
:102D3000006800EB07080025274C25E0207800F00C
:102D40000100F0B12069404513D8606910B9022034
:102D5000207016E06069B7FBF0F100FB117061694B
:102D6000081A2061032020702069B04209D2266928
:102D700007E02069A0EB080020612069B04200D282
:102D80002669681C05B218341448B0F90000854261
:102D9000D4DD10480660304606F032FD00250E4CAA
:102DA00010E0207800F0020048B1207820F0020006
:102DB0002070A06818B1D4E9022160689047681CAF
:102DC00005B218340548B0F900008542E9DDBDE8D8
:102DD000F0810000E824002080A60020EC240020E0
:102DE00010B500BF1021EFF3118081F31188BFF3FC
:102DF0004F8FBFF36F8F00BF044640F22441074856
:102E000000F03FF920B1FFF74BF8044800F0F2F969
:102E100000BF84F3118800BF10BD00000010014006
:102E200010B588B00446FDF74BFF01210846FFF7B7
:102E30001DFA01211020FFF749FA07220921334822
:102E4000FEF7A4FF07220A213048FEF79FFF4FF448
:102E50000070029002208DF80C008DF80D0000200B
:102E60008DF80E0001208DF80F0002A92748FEF70B
:102E700045FF4FF48060029002A92448FEF73EFF10
:102E8000234800F079F804940020ADF81400ADF860
:102E90001600ADF81800ADF81C000C20ADF81A00B3
:102EA00004A91B4800F03CF925208DF804000220FD
:102EB0008DF8050000208DF8060001208DF8070030
:102EC00001A8FFF781F8012240F22441104800F0E8
:102ED00002F901210E4800F02EF840F224410C487E
:102EE00000F0CFF80A4800F085F901224021084897
:102EF00000F02DF801228021054800F028F840213B
:102F0000034800F00FF808B010BD000000000240B8
:102F1000001001400246182901D2002070471346D4
:102F20001846FBE701F40072B2F5007F00D100BF44
:102F3000CA430280704721B1828942F400528281E3
:102F400004E082894DF6FF731A40828170471AB1FE
:102F5000838A0B43838202E0838A8B438382704798
:102F600070B504460D462A4621460248FEF74AF847
:102F700070BD00008864024010B5044632488442A7
:102F800008D101211020FFF7B1F900211020FFF72F
:102F9000ADF957E02D48844209D101214804FFF7DB
:102FA00085F900214FF40030FFF780F94AE0284806
:102FB000844209D101218804FFF778F900214FF4F8
:102FC0008020FFF773F93DE02248844209D10121B6
:102FD000C804FFF76BF900214FF40020FFF766F9F2
:102FE00030E01D48844209D101210805FFF75EF950
:102FF00000214FF48010FFF759F923E0174884426D
:1030000008D101212020FFF771F900212020FFF7CE
:103010006DF917E01248844209D101218807FFF7B2
:1030200045F900214FF08040FFF740F90AE00D48D4
:10303000844207D101214005FFF738F900216005DE
:10304000FFF734F910BD00000010014000440040BB
:1030500000480040004C0040005000400014014077
:1030600000780040007C004002460020B1F5007F5F
:1030700000D100BF13880B400BB1012000E00020FD
:10308000704770B50246002400230025002040F65A
:103090006A16B14200D100BFC1F3421501F01F030F
:1030A000012606FA03F3012D02D19689334006E08A
:1030B000022D02D1168A334001E0968A33400C1269
:1030C000012606FA04F41688344013B10CB101202D
:1030D00000E0002070BDF0B5034600240026002566
:1030E000002040F66A17B94200D100BF1846C1F36C
:1030F000421401F01F06012707FA06F5012C01D141
:103100000C3004E0022C01D1103000E014301AB170
:1031100007682F43076002E00768AF430760F0BD10
:103120002DE9FF4705460E460024A14600BFA046F4
:10313000B08900B100BF2C8A24F44054F0880443C5
:103140002C82AC8941F20C608443B08831890843F9
:10315000718908430443AC81AC8A24F44074B0897B
:103160000443AC826846FFF7D1F82048854202D07C
:103170001F48854202D1DDF80C9001E0DDF808908F
:10318000A88900F4004040B109EBC90000EB091028
:1031900031684900B0FBF1F707E009EBC90000EB2B
:1031A000091031688900B0FBF1F76420B7FBF0F03B
:1031B00004012009642101FB1078A88900F4004073
:1031C00040B1322000EBC800B0FBF1F000F0070086
:1031D000044308E0322000EB08106421B0FBF1F05A
:1031E00000F00F0004432C81BDE8FF870010014070
:1031F0000014014001468888C0F30800704700BFF2
:10320000FEE700002DE9FF4F89B0074690461C46B7
:10321000DDE916B908AA41463846D7F8E83198479B
:103220008246DAF8000000EB041040780790DAF8E4
:10323000000000EB041040680690B9F1000F01D0C7
:10324000042500E00225DDE90601234642468DE81B
:103250000308CDF80C9038460A9906F097FFC8B9D4
:10326000FFF71CFC15E006F05DFC05AA38460A993C
:1032700001F016FF064606F07FFC0748007801289B
:1032800003D1EE200DB0BDE8F08FAE4201D0304644
:10329000F8E7E8E7EF20F5E75C0000207047000062
:1032A0000FB4054B10B503A9044A029800F0A4F826
:1032B00010BC5DF814FB00007D4D000804250020C3
:1032C00002E008C8121F08C1002AFAD170477047EF
:1032D000002001E001C1121F002AFBD1704700004D
:1032E0002DE9FC5F81468A4614469846DDE90C6B61
:1032F00001AA51464846D9F8E83198470546019851
:1033000010B10198BDE8FC9F2879A04209DC2C4847
:1033100000231A4621460090504600F0A6FF284898
:10332000F0E70E9880B1286800EB0410007800F0F8
:10333000010048B1234800231A4621460090504618
:1033400000F093FF1F48DDE7B8F1000F02D14FF006
:103350000060D7E7286800EB0410406831688842B5
:1033600006D9286800EB0410406830601648C9E7A9
:10337000286800EB041040788BF80000286800EB08
:1033800004104768286800EB04103A4681684046FC
:10339000FCF772FF9BF80000092801D037600DE0B0
:1033A000286800EB041040683168884205D200208C
:1033B00008F80700781C306000E037600020A1E7C3
:1033C0001100090601000106050004057047704759
:1033D0007047704770477047704710B5029C10BD2A
:1033E000704710B50446206A007820B98122002178
:1033F000204602F076F810BD2DE9FF4F8BB09A46BB
:103400000F460546002606E025280BD052460D99AA
:1034100090476D1C761C28780028F5D10FB03046F7
:10342000BDE8F08F0024A0460122604900E004437B
:1034300015F8013F203B02FA03F00842F7D1287843
:103440002E2817D115F8010F44F004042A280ED0B5
:103450006FF02F022878A0F1300109290AD808EB73
:10346000880102EB410100EB01086D1CF2E757F8FF
:10347000048B6D1C287869283ED006DC0028CDD04E
:1034800063280BD0642804D136E0732810D0752847
:103490004BD052460D999047761C85E017F8040BE7
:1034A0008DF8000000208DF80100E946012003E0BE
:1034B00057F8049B4FF0FF3061074FF0000401D430
:1034C0000AE0641C44450DDA8442FADB19F8041062
:1034D0000029F6D106E0641C8442FCDB19F80410D4
:1034E0000029F8D1264404E019F8010B52460D9941
:1034F0009047641EF8D257E001CF4FF00A0B002826
:1035000002DA40422D2102E0210504D52B218DF85D
:103510002410012103E0E10705D02021F7E70DF198
:10352000200908910CE00021F9E701CF4FF00A0BC8
:10353000F9E75946FCF7D1FE01F1300209F8012DF7
:103540000028F6D1ADEB090000F1200B600701D493
:103550004FF00108D84502DDA8EB0B0000E0002089
:103560008046002406E009A85246005D0D99904768
:10357000641C761C08988442F5DB04E03020524637
:103580000D999047761CB8F10001A8F10108F5DC0F
:1035900005E019F8010B52460D999047761CBBF1D6
:1035A0000001ABF1010BF4DC6D1C34E709280100CC
:1035B0002DE9FF4F85B0804615461F46DDE912AB69
:1035C00040460699FEF707FC8146B9F1FE0F03DB82
:1035D000484609B0BDE8F08F04AB02224946404698
:1035E00001F0D2FC06460EB9FF20F2E704AA022140
:1035F000404601F0A8FC06460EB1FF20E9E714980A
:1036000068B305202B464A46CDE900709DF810109E
:10361000404601F0E9FD9DF81000C0EBC00000EB52
:10362000400108F1280000EB810080F84BA0A020A9
:103630008DF80800E8B28DF80900280A8DF80A0014
:103640008DF80B7010208DF80C00052404E000208C
:1036500002A90855601CC4B2082CF8DB29E003203D
:103660002B464A46CDE900709DF81010404601F007
:10367000BBFD9DF81000C0EBC00000EB400108F15D
:10368000280000EB810080F84BA040208DF8080056
:10369000E8B28DF80900280A8DF80A008DF80B7041
:1036A000042404E0002002A90855601CC4B2082CC0
:1036B000F8DB9DF81000C0EBC00000EB400108F102
:1036C000280000EB8100C0F850B002AB4A4602214E
:1036D000404605F0ADFE064636B19DF81010404656
:1036E00005F0B6FDFF2074E7002072E770B50546CF
:1036F0000B4642F27404181BA34272D072DC42F2F1
:103700000504A3EB0400A3426DD078DC41F2014430
:10371000A3EB0400A34268D02EDC41F21204A3EB19
:103720000400A34271D00EDCA3F5805012286DD2A4
:10373000DFE800F0F1F06CEF6CEE6C6CED6C6C6C33
:10374000ECEB6C6CEAE9062861D008DC01285FD05C
:1037500002285ED004285DD0052857D1C9E10E2883
:1037600059D0B0F5F77F57D0A0F26E20002854D082
:10377000B0F5C07FF1D1C4E140F20246841BB042F3
:1037800078D01DDC40F20126A0EB0604B04272D0D6
:103790000ADC012870D002286FD0A0F2FF100028A8
:1037A0006CD00128D9D1B6E1012C68D0B4F5FF7FE7
:1037B0007ED0A4F2FF14002C7BD0012CCDD1B9E136
:1037C00040F2FD76A01BB44274D00FDCA4F2FD14CD
:1037D000002C70D0012C6FD0022C6ED0032CBCD1E9
:1037E000B5E128E253E0BEE109E08CE101287BD09D
:1037F00002287AD0032879D00428AED1B1E11D285F
:1038000075D01CDC1D2892D208E06AE1F1E072E17B
:1038100069E16AE16BE170E171E1AAE2DFE800F0E1
:10382000E9E8E9E7E6E5E9E4E9E9E9E3E2E1E0DF3F
:10383000DEDDDCDBDAD9D8E9E9E9E9D7D6002928E9
:103840006AD00BDCA0F11E000B28DCD2DFE800F010
:10385000DFDEDDDCDBDAD9D1D1D8D700662876D03F
:103860000EDC2B2874D02C2873D05D2872D06428ED
:1038700098D1D6E160E150E147E148E149E14EE10C
:10388000672868D06B2867D06C288BD1D1E143F6CC
:10389000F076841BB0427DD07DDCB0F5DE7F7BD03E
:1038A0003BDC4D2879D012DCA0F104000B2805E0A8
:1038B00037E13DE14DE141E142E146E1A3D2DFE8FC
:1038C00000F0E7E6E5E4E3E29898E1E0DF00B0F538
:1038D000CE7F6ED00CDC50286CD080286BD08C282A
:1038E0006AD08D2889D1C2E135E136E137E168E15E
:1038F000A0F29D10002866D0012865D0022864D06F
:103900000F28B5D1BDE1EAE0E7E0E4E0E1E0DEE088
:10391000DBE0D8E0D5E0D2E07BE140F68B76841B9B
:10392000B04267D024DC40F28F26A0EB0604B04200
:1039300061D012DCB0F5E67F5ED0B0F5237F5CD0BD
:10394000A0F28D20002859D0012891D1A3E16AE18D
:1039500061E162E163E168E169E1FD2C58D0FE2C90
:1039600057D0A4F20D14002C54D0012C8DD19CE121
:1039700043F25D06A01BB4424DD011DCA4F54054C7
:10398000A4F10804002C74D0392C73D03A2C72D0D6
:10399000542C03E09FE110E075E160E1A2D18EE1DB
:1039A000022869D0042868D0052867D0062899D154
:1039B0008FE15EE155E156E157E1262C5FD040DC16
:1039C000262C16D228E056E157E158E1F7E0F4E062
:1039D000F1E0EEE0EBE0E8E0E5E0E2E0DFE0DCE0B3
:1039E000D9E0D4E0D1E0CEE0CBE0C8E0C1E0BEE079
:1039F000BBE001E15BE150E147E148E149E106E17B
:103A000003E100E1FDE0FAE0F7E0E0E0DDE0DAE02C
:103A100045E146E147E154E1DFE804F0EEEDEEEC8C
:103A2000EBEAEEE9E8E7E6EEEEEEEEEEEEEEEEEED7
:103A3000E5EEE4EEE3E2EEE1EEE0EEDFDEDDDCEE2D
:103A4000EEDB602C6FD024DC342C6DD008DC272C0E
:103A50006BD0282C6AD0292C69D02A2C86D16AE117
:103A6000352C6FD0362C6ED05C2C6DD05E2C95D161
:103A70006BE11EE11FE120E125E126E127E152E1B2
:103A8000EBE0E8E0E5E0E2E0DFE0DCE0D9E0D6E032
:103A9000D3E09B2C6FD008DC612C6DD0922C6CD0C5
:103AA000952C6BD0972CD9D159E1A4F29E34002CDF
:103AB0006FD00E2C6ED0B4F5807FCFD157E10021AE
:103AC0005DE101215BE1022159E1032157E104217C
:103AD00055E1052153E1062151E107214FE108217C
:103AE0004DE109214BE10A2149E10B2147E10C217C
:103AF00045E10D2143E10E2141E10F213FE110217C
:103B00003DE111213BE1122139E1132137E114217B
:103B100035E1152133E1162131E117212FE118217B
:103B20002DE119212BE112E107E1FEE0FFE000E1C8
:103B30001A2124E11B2122E11C2120E11D211EE18B
:103B40001E211CE1FBE0FCE0FDE01F2117E120212C
:103B500015E1212113E1222111E123210FE124218B
:103B60000DE125210BE1262109E1272107E128218B
:103B700005E1292103E1F4E0EBE0ECE0EDE02A21AE
:103B8000FDE02B21FBE02C21F9E02D21F7E02E2197
:103B9000F5E0E8E0E9E02F21F1E03021EFE031212C
:103BA000EDE03221EBE03321E9E03421E7E035219B
:103BB000E5E03621E3E03721E1E03821DFE039219B
:103BC000DDE03A21DBE03B21D9E03C21D7E03D219B
:103BD000D5E0A6E0A3E0A0E09DE09AE097E094E0C5
:103BE00091E08EE08BE088E085E082E07FE07CE0A1
:103BF00079E076E073E070E0BDE03E21BFE03F2178
:103C0000BDE04021BBE04121B9E04221B7E04321C2
:103C1000B5E04421B3E04521B1E04621AFE04721C2
:103C2000ADE04821ABE04921A9E04A21A7E04B21C2
:103C3000A5E04C21A3E04D21A1E04E219FE04F21C2
:103C40009DE050219BE0512199E0522197E05321C2
:103C500095E0542193E0552191E056218FE05721C2
:103C60008DE058218BE0592189E05A2187E05B21C2
:103C700085E05C2183E05D2181E05E217FE05F21C2
:103C80007DE060217BE0612179E0622177E06321C2
:103C900075E0642173E0652171E066216FE06721C2
:103CA0006DE068216BE0692169E06A2167E06B21C2
:103CB00065E06C2163E06D2161E06E215FE06F21C2
:103CC0005DE070215BE0712159E0722157E07321C2
:103CD00055E0742153E0752151E076214FE07721C2
:103CE0004DE078214BE0792149E07A2147E07B21C2
:103CF00045E07C2143E07D2141E07E213FE07F21C2
:103D00003DE080213BE0812139E0822137E08321C1
:103D100035E0842133E0852131E086212FE08721C1
:103D20002DE088212BE0892129E08A2127E08B21C1
:103D300025E08C2123E08D2121E08E211FE08F21C1
:103D40001DE090211BE0912119E0922117E09321C1
:103D500015E0942113E0952111E096210FE09721C1
:103D60000DE098210BE0992109E09A2107E09B21C1
:103D700005E09C2103E005481060002070BD00BFF5
:103D800000201060024800EBC100F7E700000206C7
:103D9000F4AD00082DE9FE4F04460F46002500262D
:103DA0004FF003096069B0F808806069B0F80AA0B4
:103DB000A069B0F808B08220005D10B90020BDE80D
:103DC000FE8FB8F1000F73D0002000900190029098
:103DD000A6E0B9F1030F06D0B9F1050F6AD0B9F129
:103DE0000B0F68D18CE0606850F83800806900687B
:103DF00000F0004010B14FF00B0990E0606850F8FF
:103E00003800866A4FB33078012826DB3078F028F6
:103E100023DC05EBC501A06810F81100401CC0B2FE
:103E200005EBC502A16801F812003178884214D16F
:103E3000002005EBC502A16801F812000090019076
:103E400002906A462946204600F09EFC10B14FF0D1
:103E50000B0964E04FF0050949E057B33078FC28BE
:103E60002AD105EBC501A06800EB4100821D29465F
:103E7000204600F089FC60B105EBC501A06810F890
:103E8000110020F0010005EBC502A16801F8120045
:103E90000BE005EBC501A06810F8110040F001002F
:103EA00005EBC502A16801F812004FF00B0936E0DE
:103EB0003AE001E01CE030E00FB1307870B1A7B912
:103EC0003078FF2802D03078FE280ED105EBC501EE
:103ED000A06810F8110000F0010030B92946204612
:103EE00005F0E6F94FF00B0901E04FF00B0916E081
:103EF0006A462946204605F085FA4FF00B090EE088
:103F0000681CC5B208F101001FFA80F80AF101002F
:103F10001FFA80FA4FF0030901E0FF204FE700BFCE
:103F2000D8457FF756AF00BF002048E72DE9FF4F87
:103F300083B080468B461546109C02AA59464046DF
:103F4000D8F8E83198470646029818B1029807B0A9
:103F5000BDE8F08F3079A84209DC3F48009000228C
:103F600029465846236800F080F93B48EFE711984E
:103F700078B1306800EB05100078022809D1374885
:103F80000090002229465846236800F06EF9334815
:103F9000DDE7306800EB051090F80190306800EB29
:103FA00005104768306800EB0510D0F80CA02068B9
:103FB00010B12068B84243D8D8F824204846069962
:103FC00090470290029848B1029800903A462946DC
:103FD0005846236800F049F90298B8E7316801EBC8
:103FE0000511886822680699FCF746F9B9F1090FAE
:103FF00009D12068B84206D20020316801EB0511D2
:104000008968226888542760BAF1000F08D02A46D0
:1040100031464046D0470290029808B1029896E790
:10402000306800EB0510007800F0040030B12A463B
:1040300059464046D8F8EC31984788E7002086E793
:104040002760074800903A4629465846236800F002
:104050000CF903487BE70000110009060200010685
:1040600010000706704703460020704702469F2A4B
:1040700004D1087808B10348704700BF00BF002092
:10408000FAE70000300009062DE9FF4F85B006462B
:1040900092469B46129D202D03D9FF2009B0BDE812
:1040A000F08F30460699FDF796FE8046B8F1FE0F78
:1040B00001DB4046F2E704AB02224146304600F005
:1040C00063FF07460FB9FF20E8E704AA0221304644
:1040D00000F039FF07460FB1FF20DFE71798A8B1BE
:1040E000042053464246CDE900B09DF810103046FA
:1040F00001F07AF89DF81000C0EBC00000EB400121
:1041000006F1280000EB8100856309E00220534698
:104110004246CDE900B09DF81010304601F064F839
:104120009DF81000C0EBC00000EB400106F1280034
:1041300000EB8100C5609DF81010C1EBC10101EBDF
:10414000410206F1280101EB8201139881F84B002E
:104150004FF0000911E0149810F809109DF81000B4
:10416000C0EBC00000EB400206F1280000EB82002B
:10417000143000F8091009F10109A945EBD317988B
:1041800080B1C2208DF80800002408E0E00025FA84
:1041900000F0C1B202AA201D1154601CC4B2042C4C
:1041A000F4DB3BE0042D29D8C5F10400202141EACD
:1041B0008000C01CC0B28DF80800042410E09DF8F7
:1041C0001000C0EBC00000EB400106F1280000EB3E
:1041D00081001430211F405C02A90855601CC4B244
:1041E000082CECDB9DF81000C0EBC00000EB400198
:1041F00006F1280000EB810005610FE021208DF819
:104200000800002408E0E00025FA00F0C1B202AA8C
:10421000201D1154601CC4B2042CF4DB0AF0FF0012
:104220008DF809004FEA1A208DF80A008DF80BB0BE
:104230009DF81010C1EBC10101EB410206F128010C
:1042400001EB82011598086502AB42460221304617
:1042500005F0EEF8074637B19DF81010304604F02F
:10426000F7FFFF201AE7002018E730B50546039C4A
:10427000002030BD70B50546304800EB05142068BD
:10428000804700283ED02079042802DA04202071DB
:1042900052E02079082803DA2079401C20714BE095
:1042A000A07A38B90120A07205EB4501491CC8B2BB
:1042B00000F05AF9208900283EDDE08821898842F3
:1042C0000DDAE088401C80B2E0802189884233D139
:1042D00005EB4501C91CC8B200F046F92CE0E07AB4
:1042E000002829DD207B401CC0B22073E17A88427F
:1042F00022DB0020207305EB4501491CC8B200F009
:1043000033F919E02079042802DD0420207110E03F
:10431000207918B12079401E20710AE0A07A012886
:1043200007D10020A07205EB4501891CC8B200F03E
:104330001BF90020E080207370BD0000642900207C
:104340000B48807A0A4AD27A904201D10020704705
:104350000748807A064A115C1046807A401CC0B239
:1043600090720A2801DB002090720846EFE70000F7
:104370009429002001460020244A914201D10120C5
:1043800042E0234A914201D102203DE0214A91427C
:1043900002D14FF4803037E01F4A914202D14FF4EE
:1043A000003031E01D4A914202D14FF480202BE0D1
:1043B000B1F1804F01D1012026E0194A914201D18B
:1043C000022021E0174A914201D104201CE0164A44
:1043D000914201D1082017E0144A914201D11020E6
:1043E00012E0134A914201D120200DE0114A91427E
:1043F00001D1402008E0104A914201D1802003E021
:104400000E4A914200D1881570470000000001401B
:1044100000040140004001400044014000480140C8
:104420000004004000080040000C00400010004064
:104430000014004000180040001C00400020004014
:1044400010B504464FF44070FDF7FAFD1821201D09
:10445000FEF760FD20600A49206808602068FEF7CA
:1044600009FB4FF4E130FEF7DBFC2268118850684D
:10447000FEF776FD00F006F8FDF784FD10BD0000A4
:104480002000002010B500F02DF800F001F810BD5C
:104490001CB501211120FDF7E9FE00208DF8040074
:1044A0008DF8060001208DF8070002208DF8050028
:1044B0001020009069460948FDF720FC0820009074
:1044C00069460648FDF71AFC02208DF80700012016
:1044D000009069460248FDF711FC1CBD0010024027
:1044E000000002400021154A9172D1721173002020
:1044F00019E04FF4FA71124A02EB00121181022105
:104500000F4A02EB0012117100210D4A02EB00125A
:1045100091720B4A02EB0012D172094A02EB0012AF
:104520001173411CC8B20328E3DB0649044A116039
:104530000549116105491162704700009429002066
:10454000642900203D1F0008551F00086D1F00084A
:1045500010B5002404E02046FFF78CFE601CC4B2B6
:10456000032CF8DB10BD00000649C97A054A5054F7
:104570001146C97A491CC9B2D1720A2901DB00214E
:10458000D1727047942900202DE9FF5F04460D4643
:1045900091469A466F4884420BD06F48844208D0B7
:1045A0006E48844205D06E48844202D06D488442F1
:1045B00007D12046FFF7DEFE83460121FDF786FE88
:1045C00006E02046FFF7D6FE83460121FDF75EFE9A
:1045D0002DB900212046FEF7F0FABDE8FF9F5D48A7
:1045E00084420BD05C48844208D05C48844205D0A9
:1045F0005B48844202D05B48844202D15A48066834
:1046000002E0594800684608642D0AD242F20F7849
:1046100042F21070B6FBF0F0B0FBF5F0401E87B22E
:1046200013E040F6B830854209D24FF063086420A9
:10463000B6FBF0F0B0FBF5F0401E87B205E04FF09E
:104640000008B6FBF5F0401E87B20297ADF8048073
:104650000020ADF80C00ADF806008DF80E0001A9A1
:104660002046FEF7D1FA01212046FEF797FA0122F3
:1046700011462046FEF7BEFA01212046FEF79DFABC
:104680004FF0000B3348844202D03548844202D1B7
:104690004FF0190B4FE0B4F1804F02D14FF01C0BDB
:1046A00049E03248844202D14FF01D0B43E03048CC
:1046B000844202D14FF01E0B3DE02E48844202D1CD
:1046C0004FF0320B37E02C48844202D14FF0360BCA
:1046D00031E02A48844202D14FF0370B2BE02748C3
:1046E000844202D14FF0370B25E02448844202D1A6
:1046F0004FF0370B1FE01848844202D02048844214
:1047000002D14FF02C0B16E01448844202D14FF036
:10471000180B10E01348844202D14FF01A0B0AE044
:104720001848844202D14FF02B0B04E01548844214
:1047300001D14FF02D0B8DF800B08DF801908DF860
:1047400002A001208DF803006846FDF73DFC00BF84
:1047500043E7000000000140000401400040014028
:1047600000440140004801404C2400200004004067
:1047700000080040000C0040001000400014004001
:10478000001C0040001800402DE9F04F8DB0044699
:104790008846154661690989606800EBC10000EB35
:1047A000C8000C9061694989606800EBC10000EBAA
:1047B000C80B4FF000090026DBF8000080680B9062
:1047C0000C98006880690088C0F30A0028800020E7
:1047D000A87000BF00200890099009F10100DBF8E3
:1047E000001001EB0010D0F808A0DAF80000000C6F
:1047F00007909AF800707FB3F01940282CD8781EE3
:10480000012101EBD0000690BAF80000C0F30720A8
:104810000590012000210AAA06ABCDE90032CDE9BE
:10482000021008AB2046059A0799FEF759FD18B10A
:10483000FF200DB0BDE8F08F002206F00700291D13
:1048400001EBD601CDE901020091F8B2134608A9A7
:10485000FCF731F93E4400BF09F1010000F0FF0907
:104860000B9800784845B5DC701E012101EBD000A3
:10487000E8700020DDE770B504460D462E88F01183
:104880000F2843D2DFE800F03A08191A1B1C1D1E3E
:104890001F2021292A423200802E06D18020005D6F
:1048A00050B1204603F0E8FE06E07F20005D18B11D
:1048B0002946204600F0BCFE28E000BF00BF00BF34
:1048C00000BF00BF00BF00BF00BF8220005D18B165
:1048D0002946204600F0C4FF18E000BF7E20005D9E
:1048E00018B12946204601F025F90FE08120005D2E
:1048F00018B12946204600F029FF07E0206A007819
:1049000018B12946204600F0B0FE00BF00BF70BDC0
:104910003EB505460C4601208DF8010000208DF8BB
:10492000020001208DF803005D4885425AD1012123
:104930000220FDF79BFC092208215A48FDF726FAC0
:10494000092211465748FDF721FA4FF440700190B3
:1049500002208DF808008DF8090000208DF80A006B
:1049600001208DF80B0001A94E48FDF7C7F9012180
:104970004806FDF78BFC2846FBF7E8FD4A48FBF7A5
:10498000ABFF0020484988710120C87100200872DF
:1049900048728872C8728870C87005200871062035
:1049A00048710C802846FBF77AFE00203F49887248
:1049B000C872012008730020088048808880C88061
:1049C0000881012048730846FBF7DCFD0122022123
:1049D0002846FBF75BFE14208DF800006846FDF7C3
:1049E000F3FA5AE001210220FDF740FC09220521DB
:1049F0002C48FDF7CBF9092206212A48FDF7C6F914
:104A00006020019002208DF808008DF80900002038
:104A10008DF80A0001208DF80B0001A92148FDF74F
:104A20006DF901218806FDF731FC2846FBF78EFD64
:104A30001D48FBF751FF00201B498871C87108729F
:104A400048728872C8728870C87005200871062084
:104A500048710C802846FBF722FE0E20FBF722FF50
:104A60000E20124988720020C872012008730020AD
:104A7000088048808880C8800881012048730846E3
:104A8000FBF780FD012202212846FBF7FFFD4020B5
:104A90008DF800006846FDF797FA01203EBD000042
:104AA000006400400004024064A6002070A60020BC
:104AB000F0B585B007460C46208800900020019094
:104AC000A0788DF8090000208DF80800E0788DF8B6
:104AD0000A00002506E0201D415D0DF10B00415547
:104AE000681CC5B2E078A842F5DC69463846FBF799
:104AF00003FF0646042E02D1FF2005B0F0BD0020C2
:104B0000FBE700008AB0002007900890099000227F
:104B10001821142005F000FC2649086008460068AA
:104B200040B906E024A0FEF7BBFB4FF47A7005F015
:104B300003F9F7E73CE00023642201A91D4800685F
:104B400005F016FC002833D024A0FEF7A9FB02983C
:104B500080B2ADF81C009DF811008DF81E009DF884
:104B600012008DF81F00002405E00DF11300015D17
:104B700008A80155641C9DF81F00A042F5DC1E48E2
:104B8000006848B19DF80400012805D11A49086859
:104B900007A9FFF770FE0BE01748406840B19DF889
:104BA0000400022804D11449486807A9FFF763FEEE
:104BB000C1E700003400002043726561742074680E
:104BC000652043414E4F70656E20517565756520B7
:104BD0006661696C656421200D0A00007468726565
:104BE00061642067657420612063616E2070616379
:104BF0006B6567650D0A00003C0000201CB5094884
:104C00000F2100234FF40072CDE9001006A10848DF
:104C100005F062FE0348006810B906A0FEF740FBED
:104C20001CBD00003800002043414E4F70656E00EF
:104C3000054B000843414E4F70656E2064617461FE
:104C400070726F636573732074687265616420634A
:104C5000726561746564206661696C6564210D0A22
:104C6000000000002DE9F84306460F4690463946FD
:104C70003046FDF7B0F80546FE2D02DB8520BDE885
:104C8000F8836B4642462946304600F0DBF904467D
:104C90000CB1FF20F3E79DF80010304604F0D8FA7D
:104CA0000020ECE710B50446054B002241F2030159
:104CB0002046FDF7EBFB0020D4F80C12087010BD65
:104CC000C120000870472DE9FE4F04460F461546E7
:104CD0009946DDE90CA802AB2A463946204600F089
:104CE00053F9064636B9012D04D19DF80810204627
:104CF00004F0AEFA9EBB022D31D19DF80810C1EB35
:104D0000C10101EB410204F1280101EB8201B1F97B
:104D10004C00FCF78DF99DF80810C1EBC10101EBC7
:104D2000410204F1280101EB8201A1F84C00852128
:104D30009DF80800C0EBC00000EB400204F1280021
:104D400000EB820081709DF80800C0EBC00000EB12
:104D5000400104F1280000EB8100C0F804804B46BC
:104D60003A4629462046CDE900A804F0B2FB0646A3
:104D700016B1FF20BDE8FE8F0020FBE700BF054A0B
:104D8000128802F04002002AF9D0C2B2014B9A8088
:104D9000704700000010014006480168064800689E
:104DA000814203D904480068081A70470248006825
:104DB000401AFAE7E0240020E424002001460868B5
:104DC000007870472DE9F84F04468B4690461D4603
:104DD000DDF828900020C9F8000059462046FCF76D
:104DE000FAFF8246BAF1FE0F04DB0020286085201E
:104DF000BDE8F88F6B4602225146204600F0C4F809
:104E000007461FB1002028608520F1E79DF80000CB
:104E1000C0EBC00000EB400104F1280000EB810072
:104E20008078012834D09DF80000C0EBC00000EB72
:104E3000400104F1280000EB8100807880280CD02C
:104E40009DF80000C0EBC00000EB400104F1280019
:104E500000EB8100807885280ED19DF80000C0EB22
:104E6000C00000EB400104F1280000EB8100406825
:104E7000C9F80000002028609DF80000C0EBC000C9
:104E800000EB400104F1280000EB81008078AFE7DF
:104E90009DF80000C0EBC00000EB400104F12800C9
:104EA00000EB8100C068A8B99DF80000C0EBC0000D
:104EB00000EB400104F1280000EB810001699DF83E
:104EC0000000C0EBC00000EB400204F1280000EB42
:104ED0008200C1609DF80000C0EBC00000EB400202
:104EE00004F1280000EB82002968C068814203D2E7
:104EF000002028608A207BE79DF80000C0EBC000FE
:104F000000EB400104F1280000EB8100C06828603C
:104F100000260EE09DF80000C0EBC00000EB400151
:104F200004F1280000EB81001430805D08F80600D1
:104F3000761C2868B042EDD89DF80010204604F099
:104F400087F9012054E730B503460C46002117E0ED
:104F5000C1EBC10000EB400503F1280000EB850028
:104F6000807858B91170C1EBC10000EB400503F126
:104F7000280000EB85004470002030BD481CC1B201
:104F80000129E5DBFF20F8E770B504460D46002156
:104F90002FE0C1EBC10000EB400604F1280000EB5C
:104FA0008600807818B3C1EBC10000EB400604F125
:104FB000280000EB86008078852818D0C1EBC1005E
:104FC00000EB400604F1280010F82600A8420ED19C
:104FD000C1EBC10000EB400604F1280000EB8600A5
:104FE0004078904203D103B11970002070BD481C75
:104FF000C1B20129CDDBFF20F8E730B50346C1EB94
:10500000C10000EB400403F1280000EB8400C068FD
:1050100010B90020106013E0C1EBC10000EB4004A8
:1050200003F1280000EB8400C468C1EBC10000EB71
:10503000400503F1280000EB85000069201A10608C
:10504000002030BD70B504460D46002124E0C1EBC0
:10505000C10000EB400604F1280000EB86008078D8
:10506000C0B1C1EBC10000EB400604F1280010F80C
:105070002600A8420ED1C1EBC10000EB400604F1AE
:10508000280000EB86004078904203D103B11970EC
:10509000002070BD481CC1B20129D8DBFF20F8E711
:1050A0002DE9F84304468846154600200090286004
:1050B00041462046FCF78FFE0746FE2F02DB852087
:1050C000BDE8F8836B46022239462046FFF75CFFB5
:1050D00006460EB18520F3E79DF80000C0EBC00046
:1050E00000EB400104F1280000EB810040682860DB
:1050F0009DF80000C0EBC00000EB400104F1280067
:1051000000EB8100807801280BD09DF80000C0EBF7
:10511000C00000EB400104F1280000EB8100807822
:10512000CEE79DF80010204604F092F80120C7E772
:10513000F8B504461B4B002241F217012046FDF74B
:10514000A5F9002084F8E001002513E0D4F8A000C0
:1051500030F8250086B25EB100203346124A294657
:1051600000902046FDF7B4FBD4F8A41021F81500F8
:10517000681CC5B2D4F89C000078A842E6DCD4F8DC
:10518000A800008860B1D4F8A80006883346074A12
:10519000002120460096FDF79BFBA4F8AC0000BF61
:1051A000F8BD000069200008850A000825220008D3
:1051B00070B5044600250BE0D4F8A41031F91500B1
:1051C000FBF736FFD4F8A41021F81500681CC5B20F
:1051D000D4F89C000078A842EEDCB4F9AC00FBF7F0
:1051E00027FFA4F8AC0070BD2DE9F84304460D4636
:1051F00017469846DDE90896022E05D0032E03D007
:10520000042E01D0052E13D1002040F6B833664A93
:10521000294600902046FDF75BFBC5EBC50101EB7D
:10522000410204F1280101EB8201A1F84C0015E0D4
:10523000C5EBC50101EB410204F1280101EB82013C
:10524000B1F94C00FBF7F4FEC5EBC50101EB4102DF
:1052500004F1280101EB8201A1F84C00C5EBC50067
:1052600000EB400104F1280000F82170C5EBC500F7
:1052700000EB400104F1280000EB8100A0F8088059
:10528000C5EBC50000EB400104F1280000EB8100F4
:1052900080F80A90C5EBC50000EB400104F128003E
:1052A00000EB810086700021C5EBC50000EB4002D9
:1052B00004F1280000EB8200C170C5EBC50000EBD3
:1052C000400204F1280000EB8200C160C5EBC5007C
:1052D00000EB400204F1280000EB82000161C5EB05
:1052E000C50000EB400204F1280000EB820080F8CA
:1052F0003410C5EBC50000EB400204F1280000EBC0
:10530000820080F83510C5EBC50000EB400204F1C7
:10531000280000EB820080F83610C5EBC50000EBDA
:10532000400204F1280000EB82008163C5EBC50058
:1053300000EB400204F1280000EB8200C163C5EBE2
:10534000C50000EB400204F1280000EB820080F869
:105350004010C5EBC50000EB400204F1280000EB53
:10536000820080F84110C5EBC50000EB400204F15B
:10537000280000EB820080F84210C5EBC50000EB6E
:10538000400204F1280000EB820080F84B10C5EBCE
:10539000C50000EB400204F1280000EB820001652B
:1053A0000020BDE8F883000019250008002002490C
:1053B0000860024908607047E0240020DC240020D7
:1053C00010B504462046FFF7B3FE204600F0A0F8D3
:1053D00010BD10B504462046FFF7EAFE204600F057
:1053E000D7F810BDF0B504461D46C1EBC10000EB77
:1053F000400704F1280000EB8700006910442028D2
:1054000001D9FF20F0BDC1EBC10000EB400704F162
:10541000280000EB870000698718C1EBC10000EB92
:10542000400C04F1280000EB8C00C068874201D9D1
:10543000FF20E7E7C1EBC10000EB400704F12800C3
:1054400000EB8700066900230DE0C1EBC10000EB13
:10545000400704F1280000EB87001430F718C05D06
:10546000E854581CC3B29342EFD3C1EBC10000EB28
:10547000400704F1280000EB870000698718C1EBA2
:10548000C10000EB400C04F1280000EB8C00076128
:105490000020B7E70748FEF7D3FF06480649086033
:1054A00004F03EFCFAF778FFFAF76CFF04F046FDD3
:1054B00000BFFEE70825002010000020FEB50446CE
:1054C0000D4645F4E066ADF8006001208DF802005D
:1054D00000208DF803006946D4F8E401FFF7E8FAEC
:1054E000FEBDFEB504460D4616460020ADF8000090
:1054F0008DF8020002208DF803008DF804608DF80D
:1055000005506946D4F8E401FFF7D2FAFEBD000069
:10551000F8B504461C4B002241F20C012046FCF772
:10552000B5FF194B002241F20D012046FCF7AEFFFA
:10553000D4F83C01008828B3D4F84001007808B3BF
:10554000D4F83C0106883346104A002120460096D4
:10555000FDF7BEF9A4F83401002510E004F1B40011
:10556000405D0F2809D020680078A84205D0D4F803
:105570004001017804F5A2704155681CC5B2802D28
:10558000ECDB00BFF8BD0000A92000082B1E0008BE
:1055900010B50446B4F93401FBF74AFDA4F8340110
:1055A00010BDF0B587B004460D46202006900120BE
:1055B00005AA06ABCDE9012000930390C5EBC50019
:1055C00000EB400704F1280000EB870000F1140312
:1055D000C5EBC50000EB400704F1280000EB870095
:1055E000827AC5EBC50000EB400704F1280000EB10
:1055F000870001892046FDF773FE064616B1304646
:1056000007B0F0BDC5EBC50000EB400204F1280077
:1056100000EB82000699C1600021C5EBC50000EBDC
:10562000400204F1280000EB820001610020E7E75E
:105630002DE9F84305460C46E078082801D0BDE87E
:10564000F883207800F07F062179607941EA00270D
:1056500094F80680E01D009043463A4631462846BD
:10566000D5F83CC2E04700BFE9E770B504460D46F7
:1056700094F87C007F2807D094F87C00052803D09C
:1056800094F87C0004285FD1687920B1687921689A
:105690000978884258D12879802824D004DC012850
:1056A00007D002284FD111E0812829D082284AD181
:1056B00032E094F87C007F2803D094F87C00042822
:1056C00003D10521204604F035F83CE094F87C0035
:1056D0007F2803D094F87C00052803D104212046BC
:1056E00004F028F82FE094F87C00052803D094F803
:1056F0007C00042803D17F21204604F01BF822E01F
:10570000D4F8940018B12046D4F8941088470021AA
:10571000204604F00FF816E02046FFF74FFB064640
:10572000D4F8980018B12046D4F898108847FF2084
:10573000216808703146204603F012FF0021204600
:1057400003F0F8FF00BF00BF70BD00002DE9FE4F61
:1057500004460F46387800F07F05B878012829D133
:1057600020680078A84276D12068007800F5E066CD
:10577000ADF8006001208DF8030000208DF80200D4
:1057800094F87C008DF8040094F8E00148B19DF88D
:10579000040040F080008DF80400002084F8E0014F
:1057A00002E0012084F8E0016946D4F8E401FFF743
:1057B0007FF950E0387900F07F08D4F84001017893
:1057C00004F5A27041559038405D404509D04246ED
:1057D00029462046D4F8DC31984704F1B40000F89B
:1057E000058004F1B400405D20B929462046D4F874
:1057F000D821904704F1B400405D0F282AD000263C
:1058000022E0D4F8A00050F82600C0F307494D4527
:1058100018D1D4F8A00030F826001FFA80FAD4F886
:10582000A41031F91600FBF703FC002053460B4A85
:10583000314600902046FDF74BF8D4F8A41021F82B
:10584000160000BF701CC6B2D4F89C000078B042AD
:10585000D7DC00BF00BFBDE8FE8F0000850A00084E
:105860002DE9F04F8DB004460F4600200B90824684
:1058700083460A90022009904FF00008002500207E
:105880000C90B87800287DD160698688A0698088EE
:105890000790002E77D0A8E00998022802D00428AB
:1058A0000CD113E0606850F8360080690A900A98BD
:1058B00000683988884202D10420099094E0681C6D
:1058C000C5B2701C86B2022009908DE06069C6885E
:1058D000A069C0880790606800EBC60050F83500EA
:1058E00080680B9000200C905CE0002005900690F2
:1058F000606800EBC60050F835100C98401C01EBB6
:105900000010D0F808A0BAF1000F03D1FF200DB0AD
:10591000BDE8F08F9AF80090B9F1000F3DD008EB88
:105920000900F978B0EBC10F37DC002005AACDE9FA
:105930000020CDE902084FEAE87008EB5070C01073
:10594000A8EBC000C2B2381D00EBE80100234846B6
:10595000FBF7B1F8A9F10100012101EBE00004908F
:105960000120002104AACDE900210290BAF800002C
:10597000C0F30722DAF80000010C05AB2046FEF761
:10598000D5FA01E036E0BCE00890089808B1FF20A5
:10599000BDE708EB090000F0FF080C98401CC0B2FE
:1059A0000C9000BF0B9801780C9881429DDCE06858
:1059B000C0B1606850F83600806D00880690069887
:1059C00078B1E16831F91500FBF732FB0020009057
:1059D000226929462046069BFCF77AFFE16821F8F8
:1059E000150000BF002092E700BF079886427FF7AE
:1059F00053AF9DE0B8780128FBD109906069068912
:105A0000A06900890790002E7BD08DE009980128BD
:105A100004D0042816D005280CD175E0606850F831
:105A2000360080690A900A9800683988884202D155
:105A30000420099077E0681CC5B2701C86B2012072
:105A4000099070E0606850F83600D0F828B09BF8F4
:105A50000000FD2802D10520099064E09BF80000B9
:105A6000FC2816D105EBC501A06810F8110000F064
:105A7000010058B105EBC503A26802EB4302911D7A
:105A8000D4F8E401FFF714F8002040E7052009905E
:105A900049E09BF80000FF2803D09BF80000FE2897
:105AA00030D105EBC502A16801EB4201B1F902005A
:105AB000FBF7BEFA05EBC502A16801EB4201488085
:105AC00005EBC502A16801EB4201B1F90400FBF747
:105AD000AFFA05EBC502A16801EB4201888005EB36
