:020000040800F2
:10000000507E002055020008E10900082D09000873
:10001000DD090008B5030008A91100080000000070
:100020000000000000000000000000009D0100082A
:10003000B907000800000000F1010008C50C000825
:100040006F0200086F0200086F0200086F020008CC
:100050006F0200086F0200086F0200086F020008BC
:100060006F0200086F0200086F0200086F020008AC
:100070006F0200086F0200086F0200086F0200089C
:100080006F0200086F0200086F0200086F0200088C
:100090006F0200086F0200086F0200086F0200087C
:1000A0006F0200086F0200086F0200086F0200086C
:1000B0006F0200086F0200086F0200086F0200085C
:1000C0006F0200086F0200086F0200086F0200084C
:1000D0006F020008B10D00086F0200086F020008EF
:1000E0006F0200086F0200086F0200086F0200082C
:1000F0006F0200086F0200086F0200086F0200081C
:100100006F0200086F0200086F0200086F0200080B
:100110006F0200086F020008610D00086F020008FE
:100120006F0200086F0200086F0200086F020008EB
:100130006F0200086F0200086F0200086F020008DB
:100140006F0200086F0200086F0200086F020008CB
:10015000B90300086F020008D90300086F02000805
:100160006F0200086F0200086F0200086F020008AB
:100170006F0200086F0200086F0200086F0200089B
:100180006F0200086F020008DFF80CD000F0ACF836
:1001900000480047BD160008507E00202A4B196811
:1001A0000868B0E8F04F80F30988BFF36F8F4FF015
:1001B000000080F3118870470000000006480068C6
:1001C000006880F3088862B661B6BFF34F8FBFF353
:1001D0006F8F00DF00BF00BF08ED00E0DFF80C000C
:1001E000016841F470010160704700BF88ED00E0D4
:1001F000EFF30980BFF36F8F134B1A681EF0100FD7
:1002000008BF20ED108A20E9F04F106008B44FF0CD
:10021000100080F31188BFF34F8FBFF36F8F02F090
:100220006BF94FF0000080F3118808BC196808686A
:10023000B0E8F04F1EF0100F08BFB0EC108A80F34A
:100240000988BFF36F8F704728000020EFF3058007
:10025000704700000648804706480047FEE7FEE773
:10026000FEE7FEE7FEE7FEE7FEE7FEE7FEE7FEE766
:10027000F90C000889010008D2B201E000F8012B56
:10028000491EFBD270470022F6E710B513460A4616
:1002900004461946FFF7F0FF204610BD421C10F837
:1002A000011B0029FBD1801A7047034611F8012B6E
:1002B00000F8012B002AF9D11846704730B50B46DB
:1002C000014600202022012409E021FA02F59D4286
:1002D00005D303FA02F5491B04FA02F52844151E5A
:1002E000A2F10102F1DC30BD064C074D06E0E068EA
:1002F00040F0010394E8070098471034AC42F6D36D
:10030000FFF746FFCC2B0008EC2B00081CB5154866
:10031000012100234A02CDE9001013A1154802F083
:10032000FFFA1548022100230A02CDE9001013A1AB
:10033000154802F0F5FA1548032100234FF4007226
:10034000CDE9001012A1154802F0EAFA1448042180
:100350000023CA01CDE9001012A1154802F0E0FA0D
:100360001CBD000000000020765461736B54617363
:100370006B310000E1250008040000207654617311
:100380006B5461736B3200004527000808000020A1
:10039000765461736B5461736B3300008D270008D2
:1003A0000C000020765461736B5461736B34000051
:1003B000D527000800BFFEE710B50549054800F045
:1003C0007FF918B10249034800F03EF810BD000063
:1003D000008800208864024010B50A490A4800F0ED
:1003E0006FF968B100BF4021084800F017FE0028EF
:1003F000F9D00449044800F027F8002004490870A7
:1004000010BD000000800028B864024000100140C8
:10041000900000200246094B9A4201D2084801E0B0
:100420000648103801F000531BB1064B0B40C36067
:1004300002E0044B0B4083607047000010640240F0
:10044000006002407D0F7D0F0246094B9A4201D2A7
:10045000084801E00648103801F000531BB1064B74
:100460000B40C36002E0044B0B4083607047000008
:1004700010640240006002407D0F7D0F00B591B016
:100480000121880500F0F4FA344800F06DF84FF0CF
:1004900000600290324803904020059000200790B1
:1004A0004FF480600890002009900A900B904FF460
:1004B00080300C9000200D9003200E9000200F90B3
:1004C000109002A9254800F04BF946208DF8040051
:1004D00004208DF8050000208DF8060001208DF81D
:1004E000070001A800F07EFA012210211B4800F04D
:1004F00019F94FF020511948FFF78CFF1748303891
:1005000000F032F84FF00060029015480390002090
:10051000059007904FF480600890002009900A90A1
:100520004FF480700B9040020C9000200D9003203F
:100530000E9000200F90109002A90848303800F06B
:100540000FF9002210210548303800F0EBF805497A
:1005500002483038FFF75EFF11B000BDB8640240BA
:100560000410014000080020016821F00101016031
:100570000021016041608160C16001612121416110
:100580004A49884204D13D21484A103A91608CE0A2
:1005900046491831884205D14FF47461434A103AF4
:1005A000916082E041493031884205D14FF47411A5
:1005B0003E4A103A916078E03C494831884205D182
:1005C0004FF07461394A103A91606EE037496031FA
:1005D000884204D13649354A103AD16065E0334942
:1005E0007831884204D13349304A103AD1605CE016
:1005F0002E499031884204D12F492C4A103AD160BB
:1006000053E02A49A831884205D14FF03D51274A8D
:10061000103AD16049E02949884204D13D21274A56
:10062000083A116041E025491831884205D14FF45C
:100630007461224A083A116037E02049303188421B
:1006400005D14FF474111D4A083A11602DE01B4981
:100650004831884205D14FF07461184A083A116058
:1006600023E016496031884204D11149134A121F10
:1006700011601AE011497831884204D10D490F4ABE
:10068000121F116011E00D499031884204D10A49CE
:100690000A4A121F116008E00849A831884204D1B3
:1006A0004FF03D51054A121F116070471060024023
:1006B0003D000020400F002000003D20106402405B
:1006C00070B50246002000240025124EB24201D22D
:1006D000114B01E00F4B103B104E0E4036B11E2661
:1006E00006EAD124166806EA040502E0566906F017
:1006F000800501F000560EB15C6800E01C68084EF1
:10070000344004EA010616B10DB1012000E00020DA
:1007100070BD000010640240006002403C0F3C0FBE
:100720007D0F7D0F10B501F080034BB122B14369FD
:1007300043F08003436103E0436923F08003436196
:1007400080290BD02AB1036801F01E042343036003
:1007500004E0036801F01E04A343036010BD000021
:1007600010B500220268134B1A40CC680B68234373
:100770004C6923438C692343CC6923430C6A23438C
:100780004C6A23438C6A23434C6B23438C6B234377
:100790001A430260426922F00702D1E90B34234375
:1007A0001A4342610B6943604B6883608B68C36086
:1007B00010BD00003F801CF07047F0B50A460021D4
:1007C0000023002400BF3DE0012505FA01F3156870
:1007D00005EA03049C4234D105684F000326BE405D
:1007E000B543056015794E00B54006683543056090
:1007F0001579012D02D01579022D16D185684F008B
:100800000326BE40B543856055794E00B5408668E5
:1008100035438560456801268E40B543456045688F
:1008200096798E40B6B235434560C5684F000326C1
:10083000BE40B543C560D5794E00B540C668354366
:10084000C560491C1029BFD3F0BDF0B500230024BA
:100850004D07ED0E02FA05F3CE1000F1200555F814
:1008600026504E07F70E0F26BE40B543CF1000F1BD
:10087000200646F82750CE1000F1200555F82650E6
:1008800045EA0304CE1000F1200545F82640F0BDEE
:10089000018370472349096888B223490968098898
:1008A00081423EDB204909684989491C1E4A126879
:1008B00051811D490968C989491C1B4A1268D181A7
:1008C00019490968C989184A12681289914203D1E5
:1008D0000021154A1268D181134909680988091A4B
:1008E000114A12681269104B1B68DB8922F8131039
:1008F0000D49096849890C4A12681289914210DD34
:100900000021094A12689181074A1268D181064A7A
:100910001268518104490968898A491C024A12688F
:10092000918270478C6402409400002000BFFEE773
:100930000448006900F0100008B901207047002049
:10094000FCE70000001002400448006900F00800C5
:1009500008B9012070470020FCE7000000100240A9
:100960000448006900F0010008B101207047002030
:10097000FCE70000000002401CB50121084600F021
:1009800077F8C020009001208DF8040000208DF839
:10099000060003208DF8050001208DF80700694648
:1009A0000348FFF70AFFC0210148FFF771FF1CBD94
:1009B00000000240014678220A800A220A81054A84
:1009C0004A60054A0A6100228A81CA814A818A8274
:1009D0007047000080790020F879002000BFFEE712
:1009E0007047000070B5002100230F22C4781CB3AB
:1009F000174C246804F4E064C4F5E064C4F30721F0
:100A0000C1F10404E3B20A4144789C40E1B2847825
:100A1000144021430C07210E0E4C057861550478D3
:100A200004F01F050124AC4005786D11AD0005F1FF
:100A3000E025C5F8004109E0047804F01F05012411
:100A4000AC40054D0678761145F8264070BD000093
:100A50000CED00E000E400E080E100E00249014329
:100A6000024A1160704700000000FA050CED00E03A
:100A700029B1064A12680243044B1A6004E0034A93
:100A800012688243014B1A60704700003038024000
:100A900029B1064A12680243044B1A6004E0034A73
:100AA00012688243014B1A607047000020380240F0
:100AB00029B1064A12680243044B1A6004E0034A53
:100AC00012688243014B1A607047000044380240AC
:100AD00029B1064A12680243044B1A6004E0034A33
:100AE00012688243014B1A607047000024380240AC
:100AF000F0B5002100220024022500260223324FF7
:100B00003F6807F00C0121B1042905D0082937D12D
:100B100005E02E4F076036E02D4F076033E02A4F87
:100B20003F1F3F68C7F38056274F3F1F3F6807F0BE
:100B30003F036EB1264FB7FBF3F7DFF88CC0ACF183
:100B4000040CDCF800C0CCF3881C07FB0CF40CE0B0
:100B50001E4FB7FBF3F7DFF870C0ACF1040CDCF804
:100B600000C0CCF3881C07FB0CF4174F3F1F3F68F5
:100B7000C7F301477F1C7D00B4FBF5F7076002E077
:100B8000124F076000BF00BF0F4F3F6807F0F00132
:100B90000909104F7A5C0768D74047600A4F3F68E1
:100BA00007F4E051890A0B4F7A5C4768D7408760A9
:100BB000054F3F6807F46041490B064F7A5C476870
:100BC000D740C760F0BD0000083802400024F400A0
:100BD00000127A00180000200CB50020019000904F
:100BE0003448006840F480303249086000BF314822
:100BF000006800F4003000900198401C01900098BB
:100C000018B90198B0F5A04FF1D12A48006800F456
:100C1000003010B10120009001E000200090009809
:100C2000012846D123484030006840F080502149D7
:100C3000403108602048006840F440401E49086088
:100C40001C48083000681B490831086008460068E5
:100C500040F4004008600846006840F4A050086076
:100C60001648091F0860081F006840F08070091FBF
:100C7000086000BF0F48006800F000700028F9D03D
:100C800040F205700E4908600A480830006820F0FC
:100C900003000849083108600846006840F0020077
:100CA000086000BF03480830006800F00C00082806
:100CB000F8D10CBD003802400070004008544007D5
:100CC000003C024010B500BF102080F31188BFF334
:100CD0004F8FBFF36F8F00BF01F052FE18B14FF07E
:100CE00080500449086000BF002080F3118800BFD5
:100CF00010BD000004ED00E010B51548006840F498
:100D00007000134908601348006840F00100114961
:100D1000086000200F49083108600E4800680E493D
:100D200008400C4908600D48091D0860081F00684C
:100D300020F48020091F0860002006490C3108605B
:100D4000FFF74AFF4FF0006001498039086010BD8D
:100D500088ED00E000380240FFFFF6FE103000246E
:100D600010B50121064800F012F840B105480068AE
:100D7000401C044908600121014800F005F810BD3D
:100D80000010004014000020CA430282704730B5B2
:100D90000246002000230024158A05EA01039589F4
:100DA00005EA010413B10CB1012000E0002030BDC0
:100DB00010B540F22441064800F03DF930B1FFF78C
:100DC00069FD40F22441024800F08BF810BD00009C
:100DD0000010014010B588B00446FFF74FFB012119
:100DE0000846FFF745FE01211020FFF761FE0722AC
:100DF00009213148FFF729FD07220A212E48FFF774
:100E000024FD4FF40070029002208DF80C008DF844
:100E10000D0000208DF80E0001208DF80F0002A9B2
:100E20002548FFF7CAFC4FF48060029002A92248CF
:100E3000FFF7C3FC214800F079F804940020ADF8D6
:100E40001400ADF81600ADF81800ADF81C000C2029
:100E5000ADF81A0004A9194800F03CF925208DF8D6
:100E6000040005208DF8050000208DF80600012003
:100E70008DF8070001A8FFF7B5FD012240F22441DB
:100E80000E4800F002F901210C4800F039F840F258
:100E900024410A4800F025F801224021074800F0CB
:100EA0003BF801228021054800F036F84021034834
:100EB00000F00EF808B010BD000002400010014024
:100EC0000246182901D20020704713461846FBE756
:100ED00001F40072B2F5007F00D100BFCA43028066
:100EE000704710B50022002340F66A14A14200D1D9
:100EF00000BF0A1201249440A3B2DC43048010BD59
:100F000021B1828942F40052828104E082894DF647
:100F1000FF731A40828170471AB1838A0B43838220
:100F200002E0838A8B4383827047000010B5044639
:100F30003248844208D101211020FFF7C9FD002169
:100F40001020FFF7C5FD57E02D48844209D101214B
:100F50004804FFF79DFD00214FF40030FFF798FD96
:100F60004AE02848844209D101218804FFF790FD16
:100F700000214FF48020FFF78BFD3DE022488442A2
:100F800009D10121C804FFF783FD00214FF400209F
:100F9000FFF77EFD30E01D48844209D1012108059C
:100FA000FFF776FD00214FF48010FFF771FD23E07D
:100FB0001748844208D101212020FFF789FD002134
:100FC0002020FFF785FD17E01248844209D1012156
:100FD0008807FFF75DFD00214FF08040FFF758FDC7
:100FE0000AE00D48844207D101214005FFF750FD7A
:100FF00000216005FFF74CFD10BD0000001001400E
:101000000044004000480040004C004000500040B8
:101010000014014000780040007C0040024600209F
:10102000B1F5007F00D100BF13880B400BB1012048
:1010300000E00020704770B5024600240023002520
:10104000002040F66A16B14200D100BFC1F342153C
:1010500001F01F03012606FA03F3012D02D1968940
:10106000334006E0022D02D1168A334001E0968A11
:1010700033400C12012606FA04F41688344013B1EA
:101080000CB1012000E0002070BDF0B50346002443
:1010900000260025002040F66A17B94200D100BFA3
:1010A0001846C1F3421401F01F06012707FA06F59E
:1010B000012C01D10C3004E0022C01D1103000E0F1
:1010C00014301AB107682F43076002E00768AF4386
:1010D0000760F0BD2DE9FF4705460E460024A146F6
:1010E00000BFA046B08900B100BF2C8A24F4405450
:1010F000F08804432C82AC8941F20C608443B088B0
:1011000031890843718908430443AC81AC8A24F4D3
:101110004074B0890443AC826846FFF7E9FC20487C
:10112000854202D01F48854202D1DDF80C9001E0D3
:10113000DDF80890A88900F4004040B109EBC9002F
:1011400000EB091031684900B0FBF1F707E009EB4B
:10115000C90000EB091031688900B0FBF1F7642089
:10116000B7FBF0F004012009642101FB1078A88985
:1011700000F4004040B1322000EBC800B0FBF1F0B9
:1011800000F00700044308E0322000EB081064215F
:10119000B0FBF1F000F00F0004432C81BDE8FF87A5
:1011A000001001400014014000BFFEE70FB4054BE2
:1011B00010B503A9044A029800F02CF810BC5DF8A1
:1011C00014FB0000A1160008980000200FB4084B83
:1011D00010B504A902AA039800F01CF8044602A95D
:1011E000002000F0F3F8204610BC5DF814FB00006E
:1011F000CD13000802E008C8121F08C1002AFAD166
:1012000070477047002001E001C1121F002AFBD186
:10121000704700002DE9FF4F8BB09A460F460546F8
:10122000002606E025280BD052460D9990476D1CEC
:10123000761C28780028F5D10FB03046BDE8F08F35
:101240000024A0460122604900E0044315F8013F54
:10125000203B02FA03F00842F7D128782E2817D154
:1012600015F8010F44F004042A280ED06FF02F0265
:101270002878A0F1300109290AD808EB880102EB8F
:10128000410100EB01086D1CF2E757F8048B6D1C5F
:10129000287869283ED006DC0028CDD063280BD002
:1012A000642804D136E0732810D075284BD05246FC
:1012B0000D999047761C85E017F8040B8DF8000017
:1012C00000208DF80100E946012003E057F8049B57
:1012D0004FF0FF3061074FF0000401D40AE0641CB6
:1012E00044450DDA8442FADB19F804100029F6D1DE
:1012F00006E0641C8442FCDB19F804100029F8D1D4
:10130000264404E019F8010B52460D999047641EDB
:10131000F8D257E001CF4FF00A0B002802DA404222
:101320002D2102E0210504D52B218DF82410012167
:1013300003E0E10705D02021F7E70DF1200908912E
:101340000CE00021F9E701CF4FF00A0BF9E759460D
:10135000FEF7B4FF01F1300209F8012D0028F6D1A3
:10136000ADEB090000F1200B600701D44FF001083C
:10137000D84502DDA8EB0B0000E0002080460024E9
:1013800006E009A85246005D0D999047641C761C42
:1013900008988442F5DB04E0302052460D999047CE
:1013A000761CB8F10001A8F10108F5DC05E019F898
:1013B000010B52460D999047761CBBF10001ABF131
:1013C000010BF4DC6D1C34E7092801000A68531C8A
:1013D0000B6010707047000070B50546304800EB98
:1013E00005142068804700283ED02079052802DABD
:1013F0000520207152E020790A2803DA2079401C68
:1014000020714BE0A07A38B90120A07205EB4501AC
:10141000491CC8B200F0F2F8208900283EDDE088BF
:10142000218988420DDAE088401C80B2E080218961
:10143000884233D105EB4501C91CC8B200F0DEF883
:101440002CE0E07A002829DD207B401CC0B220730C
:10145000E17A884222DB0020207305EB4501491C1C
:10146000C8B200F0CBF819E02079052802DD05208C
:10147000207110E0207918B12079401E20710AE017
:10148000A07A012807D10020A07205EB4501891C34
:10149000C8B200F0B3F80020E080207370BD0000F7
:1014A0000C7A00200B48807A0A4AD27A904201D105
:1014B000002070470748807A064A115C1046807AFF
:1014C000401CC0B290720A2801DB002090720846CE
:1014D000EFE700003C7A002010B504464FF440705E
:1014E000FFF7BCFA1821201DFFF7EAFC206007492E
:1014F000206808602068FFF75DFA4FF4E130FFF7DD
:1015000069FC00F005F8FFF737FA10BD94000020E1
:1015100010B500F02DF800F001F810BD1CB5012148
:101520001120FFF7A5FA00208DF804008DF80600C1
:1015300001208DF8070002208DF805001020009092
:1015400069460948FFF739F90820009069460648BE
:10155000FFF733F902208DF807000120009069465B
:101560000248FFF72AF91CBD0010024000000240AB
:101570000021174A9172D1721173002018E0642182
:10158000144A02EB001211810221124A02EB0012EE
:10159000117100210F4A02EB001291720D4A02EB09
:1015A0000012D1720B4A02EB00121173411CC8B237
:1015B0000328E4DB642207490A830522CA76064928
:1015C000044A116005491161054911627047000024
:1015D0003C7A00200C7A00203109000849090008F3
:1015E0006109000810B5002404E02046FFF7F4FE6E
:1015F000601CC4B2032CF8DB10BD00000649C97A98
:10160000054A50541146C97A491CC9B2D1720A29F7
:1016100001DB0021D17270473C7A00202DE9F041B6
:1016200007463E4656B900BF102080F31188BFF32D
:101630004F8FBFF36F8F00BF00BFFEE713480068F6
:10164000864201D100241EE000F06CFC756900F0B8
:1016500093FC0F480068854203D00E48006885421D
:1016600001D102240FE00C48854205D1B06A08B9C7
:10167000032408E0022406E00848854200D00DB9A2
:10168000042400E001242046BDE8F0812800002069
:101690002C000020300000206C01002058010020A8
:1016A00000BF054A128802F04002002AF9D0C2B2F7
:1016B000014B9A8070470000001001400548FFF779
:1016C0000BFF044804490860FEF720FE00F052FEBC
:1016D00000BFFEE79C000020100000202DE9F04133
:1016E00005460E461C4807681C480068001D00F0AF
:1016F0005FFB50B91948006890F82C100120884011
:1017000017490968814316480160681C38B936B129
:1017100012480168091D134800F0F8FB1AE07C1913
:101720000E4800684460BC4207D20C480168091D9D
:101730000D48006800F0D0FB0CE008480168091D66
:101740000A48006800F0C8FB09480068844201D2DA
:1017500007480460BDE8F0813C000020280000201C
:10176000400000206C010020300000202C000020F0
:101770005800002010B5044600F0D4FB244800684F
:10178000401C234908602348006840B92148046090
:101790000846006801280DD100F030F90AE01E4823
:1017A000006838B91B480068C06AE16A884201D8FD
:1017B0001848046019480068401C18490860084629
:1017C0000068606494F82C1001208840144909686E
:1017D000084313490860E16A01EB8101114A02EBF9
:1017E0008100211D00F092FB00F0C6FB0A48006852
:1017F00068B108480068C06AE16A884207D24FF0C1
:10180000805009490860BFF34F8FBFF36F8F10BD41
:101810003800002028000020440000205400002050
:1018200040000020B800002004ED00E070B523E087
:1018300000F05AFE1348006808B9012000E00020BB
:10184000054601F041F9BDB900F06CFB0D48C068D8
:10185000C468201D00F0ACFA0B480068401E0A491D
:1018600008600A480068401E0849086000F084FBD0
:10187000204600F00DF800BF044800680028D7D1CA
:1018800070BD000058010020380000203400002006
:1018900010B50446206B00F08DFB204600F08AFB5B
:1018A00010BD000030B54FF4F043174800F00704B6
:1018B0002CB1C01D20F00700134C041B1B1B02465B
:1018C000124C22600024114D6C60D018083820F0B2
:1018D00007000F4C206000240D4D2D686C600C4DEE
:1018E0002D682C601146441A4C60094C24680C6029
:1018F000084D4C682C60084D4C682C604FF000443B
:10190000064D2C6030BD0000800100206C000020DE
:10191000740000207C00002078000020800000205F
:1019200000BFFFF783FF064800680128F9D94FF090
:10193000805004490860BFF34F8FBFF36F8FF0E70B
:10194000B800002004ED00E02DE9F05F82460E466D
:1019500017469B46DDF828800C9CB900A522206B19
:10196000FEF78AFC781E216B01EB800929F007093C
:1019700009F0070008B9012000E0002050B900BFBD
:10198000102080F31188BFF34F8FBFF36F8F00BF1C
:1019900000BFFEE7002507E0715D04F1340041550A
:1019A000705D00B902E06D1C102DF5D300BF002161
:1019B00043200155B8F1050F01D34FF00408C4F8D6
:1019C0002C80201D00F085FA04F1180000F081FA47
:1019D0002461C8F10500A06164620020E064206514
:1019E00084F854005A465146484600F0CBF920602E
:1019F0000B9808B10B980460BDE8F09F10B5002467
:101A000007E004EB84010F4A02EB810000F054FA76
:101A1000641C052CF5D30C4800F04EFA0B4800F07E
:101A20004BFA0B4800F048FA0A4800F045FA0A4819
:101A300000F042FA0448094908600448084908606F
:101A400010BD0000B80000201C0100203001002063
:101A500044010020580100206C0100202C000020CF
:101A60003000002010B50146164800E00068036809
:101A70008B42FBD30246436813448B4204D1436834
:101A80004C682344436001460A464B68134404688B
:101A9000A34211D10C4C03682468A34208D04B68C0
:101AA0000468646823444B6003681B680B6005E0AE
:101AB000054B1B680B6001E003680B60884200D097
:101AC000016010BD6C000020740000202DE9F0477B
:101AD00007460C4690460026206848B320464168D9
:101AE0004968416000F1080142688A4202D14168B8
:101AF000496841604168D1F80C9000BF20464168B8
:101B00004968416000F1080142688A4202D1416897
:101B1000496841604168CD6806EBC60007EB80016B
:101B200043460122284600F0C7FA761C4D45E5D110
:101B30003046BDE8F08700000A490968096809B91C
:101B4000012100E0002121B14FF0FF31064A116070
:101B500006E004490968C968C868034A4168116019
:101B6000704700002C000020580000200246002191
:101B700001E0521C491C1078A528FAD0890888B2C7
:101B8000704700000E480068401C08B9012000E0C2
:101B9000002050B900BF102080F31188BFF34F8F91
:101BA000BFF36F8F00BF00BFFEE700BF102080F3C0
:101BB0001188BFF34F8FBFF36F8F00BF00BFFEE7E9
:101BC0008400002010B502460020114652B900BF23
:101BD000102383F31188BFF34F8FBFF36F8F00BFC4
:101BE00000BFFEE70B4C4B69A34201D1012300E08B
:101BF000002373B1084C8B6AA34201D1012300E09A
:101C0000002333B98B6A0BB9012300E0002303B131
:101C1000012010BD6C0100204401002070B5054674
:101C20000E4631462846FEF740FB2846FEF736FBB7
:101C3000044602E020202855641C0F2CFAD3002013
:101C40002855281970BD00002DE9F04104464FF0D9
:101C5000000800F049FC4648006808B9FFF722FE7A
:101C600044480068204000286BD1D4B1083404F007
:101C70000700B0B104F00700C0F10800044404F00C
:101C8000070008B9012000E0002050B900BF102073
:101C900080F31188BFF34F8FBFF36F8F00BF00BF7A
:101CA000FEE7002C4DD034480068844249D8334EBA
:101CB0003046056801E02E462D686868A04202D2D1
:101CC00028680028F7D12A480068854239D0306852
:101CD00000F10808286830606868001B102819D9CE
:101CE0002F1907F0070008B9012000E0002050B9C3
:101CF00000BF102080F31188BFF34F8FBFF36F8FA9
:101D000000BF00BFFEE76868001B78606C60384663
:101D1000FFF7A8FE184968680968081A164908609C
:101D20000846006816490968884203D212480068CC
:101D3000134908600F496868096808436860002013
:101D4000286000F0C1FE08F0070008B9012000E09B
:101D5000002050B900BF102080F31188BFF34F8FCF
:101D6000BFF36F8F00BF00BFFEE74046BDE8F081C4
:101D70007400002080000020780000206C0000200B
:101D80007C000020001F4FF080730360001F21F0D3
:101D900001030360001F054B036014380260001F3D
:101DA0006FF002030360203870470000851B0008B5
:101DB00001460A69D1E901309860D1E90103586010
:101DC0005068884201D1886850600020086110681E
:101DD000401E1060106870472DE9F04105468846A6
:101DE00016460024052700F07FFB22480068804546
:101DF0003AD300BF7F1E07EB87021F4B03EB820124
:101E000004EBC40205EB82000122FFF75FFE0444ED
:101E1000002FEFD104EBC40105EB8100022217492A
:101E20000968FFF753FE044404EBC40105EB81008D
:101E3000022213490968FFF749FE044404EBC40178
:101E400005EB810004220F49FFF740FE044404EB38
:101E5000C40105EB810003220B49FFF737FE044460
:101E600016B10A480068306000F02EFE2046BDE83A
:101E7000F081000038000020B80000202C00002075
:101E800030000020580100206C01002014000020C8
:101E900070B505460C46214601A0FFF787F970BDD5
:101EA000C8CECEF1A3BA257320B7A2CFD6D5BBD268
:101EB000E7B3F60D0A00000000F1080141604FF0A1
:101EC000FF31816000F10801C16001610021016002
:101ED000704700210161704710B502460B685C1C19
:101EE0000CB9106907E002F1080000E0406844689E
:101EF00024689C42FAD944684C604C68A1608860B0
:101F000041600A611468641C146010BD42684A6034
:101F100093688B60936859609160086103685B1CEB
:101F20000360704700BF102080F31188BFF34F8F0C
:101F3000BFF36F8F00BF0E480068401C0C4908605B
:101F400008460068012812D10A480068C0B208B9E2
:101F5000012000E0002050B900BF102080F311885C
:101F6000BFF34F8FBFF36F8F00BF00BFFEE7704717
:101F70008400002004ED00E00D48006850B900BF67
:101F8000102080F31188BFF34F8FBFF36F8F00BF16
:101F900000BFFEE706480068401E05490860084685
:101FA000006820B9002080F3118800BF00BF70478F
:101FB0008400002070B506463546002E3FD0083D0F
:101FC0002C461F4960680968084008B1012000E0FC
:101FD000002050B900BF102080F31188BFF34F8F4D
:101FE000BFF36F8F00BF00BFFEE7206808B9012074
:101FF00000E0002050B900BF102080F31188BFF32B
:102000004F8FBFF36F8F00BF00BFFEE70C496068C2
:102010000968084098B1206888B90949606809686A
:102020008843606000F060FA064960680968084407
:10203000044908602046FFF715FD00F045FD70BD1E
:10204000800000207800002003484FF0E021486124
:1020500007200861704700003F90020070B50446F9
:102060000025D4B11248006808B9012000E0002022
:1020700050B900BF102080F31188BFF34F8FBFF31A
:102080006F8F00BF00BFFEE700F02EFA0021204650
:10209000FFF724FB00F018FD05463DB94FF08050D6
:1020A00004490860BFF34F8FBFF36F8F70BD00000E
:1020B0006000002004ED00E02DE9F04107460C46E9
:1020C00090461E4617B91948006800E03846054694
:1020D000256005F134006060E86A2061286BE061EA
:1020E000686CA060207B032807D100F0FDF9A86A86
:1020F00008B10220207300F0E7FC00206061E86C6A
:10210000A061052E01D0267303E03846FFF786FA5A
:102110002073B8F1000F04D0286BFFF727FD20844F
:1021200001E000202084BDE8F081000028000020AC
:10213000FEB50546002028702B48006802902A4909
:10214000096801EBC1018800FFF77EFD0446002C01
:1021500048D06A4620460299FFF73EFE029064216D
:102160000098B0FBF1F000900098002837D00020D4
:10217000019030E0019800EBC00004EB8000806922
:102180000099B0FBF1F6019800EBC00004EB800071
:1021900041682846FFF742FD05465EB1019800EB15
:1021A000C00004EB8000334610A182692846FFF787
:1021B0000DF809E0019800EBC00004EB80000EA1CF
:1021C00082692846FFF702F82846FEF767F80544BB
:1021D0000198401C0190DDE901018842CAD32046E4
:1021E000FFF7E8FEFEBD0000380000200925750954
:1021F00009257525250D0A0009257509093C312594
:10220000250D0A007FB5054600202870304800687B
:1022100003902F49096801EBC1018800FFF714FD05
:102220000446002C53D0002220460399FFF7D4FD2A
:1022300003900020029043E0029800EBC00004EB02
:102240008000007B012806D0022806D0032806D093
:10225000042808D105E0522607E0422605E053266F
:1022600003E0442601E0002600BF00BF029800EB17
:10227000C00004EB800041682846FFF7CFFC05460C
:10228000029800EBC00004EB80008068029901EB2B
:10229000C10104EB8101098CCDE90010029800EB2B
:1022A000C00004EB800032460AA103692846FEF70D
:1022B0008DFF2846FDF7F2FF05440298401C02906E
:1022C000DDE902018842B7D32046FFF773FE7FBDE8
:1022D000380000200925630925750925750925752C
:1022E0000D0A000070B505462C4655B900BF1020F8
:1022F00080F31188BFF34F8FBFF36F8F00BF00BF14
:10230000FEE774B31748006884422AD0FFF70AFE3C
:102310002046FFF757FC10B3201DFFF749FD94F846
:102320002C10012088401049096808430E490860B4
:10233000E16A01EB81010D4A02EB8100211DFFF7EB
:10234000E5FD0849E06A0968C96A884207D34FF089
:10235000805007490860BFF34F8FBFF36F8FFFF7BF
:102360000BFE70BD2800002040000020B8000020B7
:1023700004ED00E01CB51B4800210B468022CDE98E
:10238000001019A11A4800F0CBFA0446012C17D10D
:1023900000BF102080F31188BFF34F8FBFF36F8F02
:1023A00000BF4FF0FF301349086001201249086058
:1023B0000020124908601249086000F013FA10E08A
:1023C000601C08B1012000E0002050B900BF1020BF
:1023D00080F31188BFF34F8FBFF36F8F00BF00BF33
:1023E000FEE71CBD5C00002049444C450000000095
:1023F0002119000858000020440000203C00002063
:102400001400002070B50546FFF78CFD15B92E4865
:10241000006800E028460446201DFFF7C9FC78B993
:10242000E06A00EB8000294951F8200040B994F897
:102430002C10012088402649096881432448016006
:10244000A06A18B104F11800FFF7B2FC211D214861
:10245000FFF75CFDFFF790FD1F48006828B1FFF70C
:1024600061FDFFF769FBFFF787FD174800688442AD
:1024700029D119480068D0B11848006808B901206E
:1024800000E0002050B900BF102080F31188BFF396
:102490004F8FBFF36F8F00BF00BFFEE74FF080503C
:1024A0000F490860BFF34F8FBFF36F8F0BE00948F0
:1024B00000680C490968884203D10020024908607D
:1024C00001E000F019F870BD28000020B8000020DD
:1024D000400000206C01002044000020600000202B
:1024E00004ED00E03800002002480068401C01496B
:1024F000086070476000002010B53148006818B1CE
:102500000120304908605AE000202E4908602E481A
:1025100000682E490860084600682D49096888420D
:102520000BD92C49096801F14C00C96C274A126883
:10253000274B1B68D21A11440160244800682449C3
:10254000086024480068006822490968096B8842CD
:1025500005D82048016834310068FFF799FC1E480F
:102560000068B0FA80F0C0F11F0101EB81001B4A46
:1025700052F8200008B1012000E0002050B900BF4F
:10258000102080F31188BFF34F8FBFF36F8F00BF10
:1025900000BFFEE701EB8102104B03EB82004268B3
:1025A0005268426000F108024368934202D14268D7
:1025B000526842604268D268064B1A6000BF10BD84
:1025C000600000204C000020140000206800002063
:1025D000640000202800002040000020B8000020F7
:1025E000FEB044E0FEF75EFF0446002C3CD0012C18
:1025F00004D0042C1ED0072C34D127E0FFF792FC26
:102600001BA0FEF7D3FD26A0FEF7D0FD01A8FFF723
:10261000F9FD01A92EA0FEF7C9FD2FA0FEF7C6FD0A
:1026200001A8FFF785FD01A929A0FEF7BFFDFFF76F
:10263000A3FC18E0FFF776FC32A0FEF7B7FDFFF72A
:102640009BFC37480068FFF7DDFE0CE0FFF76AFCF3
:1026500034A0FEF7ABFDFFF78FFC31480068FFF7B1
:1026600041FE00E000BF00BF1420FFF7F7FCB9E710
:102670003D3D3D3D3D3D3D3D3D3D3D3D3D3D3D3D8A
:102680003D3D3D3D3D3D3D3D3D3D3D3D3D3D3D3D7A
:102690003D3D3D3D3D3D3D3D3D3D3D3D3D0D0A000A
:1026A000C8CECEF1C3FB202020202020C8CECEF102
:1026B000D7B4CCAC20D3C5CFC8BCB6202020CAA389
:1026C000D3E0D5BB20C8CECEF1D0F2BAC50D0A00FA
:1026D00025730D0A000000000D0AC8CECEF1C3FB21
:1026E00020202020202020D4CBD0D0BCC6CAFD2062
:1026F0002020202020202020CAB9D3C3C2CA0D0A1E
:10270000000000004B31BCFCB0B4CFC2A3ACB9D2C6
:10271000C6F0C8CECEF1765461736B320D0A00005C
:10272000040000204B5755BCFCB0B4CFC2A3ACBDD5
:10273000ABC8CECEF1765461736B32BBD6B8B40D54
:102740000A00000012E0FFF7EDFB09A0FEF72EFDE6
:10275000FFF712FC0C48006808B9012000E00020D7
:10276000094908604FF4FA70FFF778FCEBE70000C6
:10277000C8CECEF1765461736B32D5FDD4DAD4CBAA
:10278000D0D00D0A000000009C02404212E0FFF78A
:10279000C9FB09A0FEF70AFDFFF7EEFB0C48006835
:1027A00008B9012000E00020094908604FF41670C4
:1027B000FFF754FCEBE70000C8CECEF1765461730E
:1027C0006B33D5FDD4DAD4CBD0D00D0A0000000095
:1027D0009802404204E0FEF705FF0A20FFF73EFCA6
:1027E000F9E700001CB5474800684749884201D016
:1027F000012000E0002050B900BF102080F31188B4
:10280000BFF34F8FBFF36F8F00BF00BFFEE73D48A0
:1028100000683D49491E884201D0012000E00020A7
:1028200050B900BF102080F31188BFF34F8FBFF362
:102830006F8F00BF00BFFEE7344908460078019063
:10284000FF200A4610700846007800909DF80000AE
:1028500000F0F0009DF80020904201D1012000E03E
:10286000002050B900BF102080F31188BFF34F8FB4
:10287000BFF36F8F00BF00BFFEE79DF8000000F0C0
:102880001000234A10700720224A106009E02148F6
:102890000068401E1F4A10609DF800004006000EB0
:1028A00000909DF8000000F080008028EFD01948CB
:1028B00000680002174A10601046008800F4E060CB
:1028C0001060124A019810700E482030006840F4E1
:1028D00070000C49203108600846006840F07040E4
:1028E0000860FFF7B1FB00200B490860FDF776FC9C
:1028F0000A48006840F0404008490860FDF75EFC67
:1029000000201CBD00ED00E071C20F4100E400E0BA
:10291000880000208C0000208400002034EF00E0BC
:102920002DE9FF4F85B0804689461746DDE912AB99
:10293000B800FFF789F9064656B15820FFF784F929
:1029400004460CB1266304E03046FFF733FB00E099
:1029500000247CB10020CDE900ABCDE902403A462D
:1029600049464046089BFEF7EFFF2046FEF702FF70
:10297000012501E04FF0FF35284609B0BDE8F08F92
:102980002DE9F0414FF0000844480068002877D155
:1029900043480068451C4248056015BB4148006833
:1029A000006808B9012000E0002050B900BF1020E5
:1029B00080F31188BFF34F8FBFF36F8F00BF00BF4D
:1029C000FEE73848076838480068364908603648E6
:1029D000076036480068401C34490860FFF7ACF8CF
:1029E00000BF3348006885423CD300BF2D480068D3
:1029F000006808B9012000E0002020B14FF0FF304E
:102A00002B4908602DE027480068C068C4686668E4
:102A1000B54202D22648066023E0201DFFF7C8F920
:102A2000A06A18B104F11800FFF7C2F994F82C104D
:102A3000012088401F49096808431E490860E16A6F
:102A400001EB81011C4A02EB8100211DFFF75EFAB8
:102A50001A49E06A0968C96A8842C7D34FF0010879
:102A6000C4E700BF15480068C06A00EB8000124947
:102A700051F82000012801D94FF0010805E0FFE7D7
:102A80000F480068401C0E4908600E48006808B1F5
:102A90004FF001084046BDE8F081000060000020D2
:102AA0003C0000202C0000203000002050000020BE
:102AB0005800002040000020B8000020280000201E
:102AC000480000204C00002070B500240026364845
:102AD000006850B900BF102080F31188BFF34F8FFA
:102AE000BFF36F8F00BF00BFFEE7FFF71BFA2E4852
:102AF0000068401E2C4908600846006800284FD135
:102B00002A48006800284BD024E02948C068C468DF
:102B100004F11800FFF74CF9201DFFF749F994F86C
:102B20002C10012088402349096808432149086086
:102B3000E16A01EB8101204A02EB8100211DFFF7D0
:102B4000E5F91E49E06A0968C96A884202D3012092
:102B50001B4908601648006808B9012000E0002001
:102B60000028D2D00CB1FEF7E7FF1648056865B122
:102B700000BFFFF705FF10B10120114908606D1E6D
:102B8000002DF6D100200F4908600D48006838B1CB
:102B9000012630070C490860BFF34F8FBFF36F8FDA
:102BA000FFF7EAF9304670BD6000002038000020D1
:102BB0004401002040000020B80000202800002030
:102BC0004C0000204800002004ED00E0EC2B000841
:102BD000000000209C000000F4110008882C000870
:102BE0009C000020B47D00000412000800000000DA
:102BF00000000000000000000000000000000000D5
:102C000000000000000000000102030401020304B0
:102C10000607080900000000000000000000000096
:102C200000000000000000000000000000000000A4
:102C30000000000000000000000000000000000094
:102C40000000000000000000000000000000000084
:102C50000000000000000000000000000000000074
:102C60000000000000000000000000000000000064
:102C7000AAAAAAAA000000000000000000000000AC
:082C800000000000000000004C
:040000050800018965
:00000001FF
