:020000040800F2
:1000000058B5002065020008691700083D16000871
:1000100065170008090500082F40000800000000CF
:10002000000000000000000000000000AD0100081A
:10003000871200080000000001020008D139000802
:100040007F0200087F0200087F0200087F0200088C
:100050007F0200087F0200087F0200087F0200087C
:100060007F0200087F0200087F0200087F0200086C
:100070007F0200087F0200087F0200087F0200085C
:100080007F0200087F0200087F0200087F0200084C
:100090000D0500087F0200087F0200087F020008AB
:1000A0007F0200087F0200087F0200087F0200082C
:1000B0007F0200087F0200087F0200087F0200081C
:1000C0007F0200087F0200087F0200087F0200080C
:1000D0007F020008113C00087F0200087F02000830
:1000E0007F0200087F0200087F0200087F020008EC
:1000F0007F0200087F0200087F0200087F020008DC
:100100007F020008FD1C00087F0200087F02000833
:100110007F0200087F0200086D3A00087F02000895
:100120007F0200087F0200087F0200087F020008AB
:100130007F0200087F0200087F0200087F0200089B
:10014000810500087F0200087F0200087F02000886
:10015000D10D00087F020008110E00087F02000880
:100160007F0200087F0200087F0200087F0200086B
:100170007F0200087F0200087F0200087F0200085B
:100180007F0200087F020008DFF80CD000F0EEF8D4
:1001900000480047795B000858B5002030BF72B6B0
:1001A000704762B6704780F3088870472A4B196819
:1001B0000868B0E8F04F80F30988BFF36F8F4FF005
:1001C000000080F3118870470000000006480068B6
:1001D000006880F3088862B661B6BFF34F8FBFF343
:1001E0006F8F00DF00BF00BF08ED00E0DFF80C00FC
:1001F000016841F470010160704700BF88ED00E0C4
:10020000EFF30980BFF36F8F134B1A681EF0100FC6
:1002100008BF20ED108A20E9F04F106008B44FF0BD
:10022000100080F31188BFF34F8FBFF36F8F0AF078
:1002300089FB4FF0000080F3118808BC196808683A
:10024000B0E8F04F1EF0100F08BFB0EC108A80F33A
:100250000988BFF36F8F704728000020EFF30580F7
:10026000704700000648804706480047FEE7FEE763
:10027000FEE7FEE7FEE7FEE7FEE7FEE7FEE7FEE756
:10028000053A00088901000840EA01039B0703D0F2
:1002900009E008C9121F08C0042AFAD203E011F8C5
:1002A000013B00F8013B521EF9D27047D2B201E087
:1002B00000F8012B491EFBD270470022F6E710B56B
:1002C00013460A4604461946FFF7F0FF204610BDC4
:1002D000421C10F8011B0029FBD1801A704730B571
:1002E00004460020034600E05B1C934203D2E05C1E
:1002F000CD5C401BF8D030BD034611F8012B00F84F
:10030000012B002AF9D1184670472DE9F05F054608
:10031000002092469B4688460646814640241BE0C4
:10032000284641464746224600F041F853465A4681
:10033000C01A914110D311461846224600F028F801
:100340002D1A67EB01084F4622460120002100F0DC
:100350001FF817EB00094E41201EA4F10104DFDC59
:10036000484631462A464346BDE8F09F064C074DB5
:1003700006E0E06840F0010394E807009847103475
:10038000AC42F6D3FFF704FF9CBC0008BCBC0008DD
:10039000202A04DB203A00FA02F100207047914045
:1003A000C2F1200320FA03F3194390407047202A3A
:1003B00004DB203A21FA02F00021704721FA02F30F
:1003C000D040C2F12002914008431946704770B5F1
:1003D0008C1810F8015B15F0070301D110F8013BF0
:1003E0002A1106D110F8012B03E010F8016B01F877
:1003F000016B5B1EF9D12B0705D40023521E0DD4CF
:1004000001F8013BFAE710F8013BCB1A921C03E01C
:1004100013F8015B01F8015B521EF9D5A142D8D354
:10042000002070BD1CB52148012100234A02CDE9FE
:1004300000101FA121480AF065FF21480221002376
:100440000A02CDE900101FA121480AF05BFF2148F4
:10045000032100234FF40072CDE900101EA12148B2
:100460000AF050FF204804210023CA01CDE9001002
:100470001EA121480AF046FF05F032F805F008FBFE
:100480001E481F4908601F480968C1F8E4011C495B
:100490000868002109F0D2FC19490868052109F013
:1004A000CDFC0321174804F0A7FE1CBD000000206E
:1004B000765461736B5461736B3100002DAA000890
:1004C00004000020765461736B5461736B3200003A
:1004D000A9AB000808000020765461736B54617367
:1004E0006B330000D1AB00080C0000207654617320
:1004F0006B5461736B340000F9AB0008B421002029
:10050000C40000200064004000BFFEE710B588B0C2
:100510000020019000BF1021EFF3118081F31188BA
:10052000BFF34F8FBFF36F8F00BF044603AA0021B4
:10053000104800F086F901208DF808000E48006888
:1005400030B1002301AA02A90B4800680AF018FE86
:1005500000BF84F3118800BF019848B1019838B1F9
:100560004FF0805005490860BFF34F8FBFF36F8F86
:1005700008B010BD00640040BC00002004ED00E0A5
:1005800000B587B00020009009F0EAFE02AA002121
:100590000F4800F056F901208DF804000D4800685E
:1005A00030B100236A4601A90A4800680AF0E8FD54
:1005B00009F000FF009848B1009838B14FF0805022
:1005C00005490860BFF34F8FBFF36F8F07B000BDC1
:1005D00000680040BC00002004ED00E010B50446B7
:1005E0000B48844209D10121480601F035FA002167
:1005F0004FF0007001F030FA08E00121880601F0A8
:100600002BFA00214FF0806001F026FA10BD0000A7
:100610000064004010B50021837A012202FA03F140
:100620003D4A126842F001023B4B1A603A4A1C32C2
:1006300012688A43384B1C331A60027BCAB9364AA7
:100640000C3212688A43344B0C331A604288C388D8
:1006500042EA0343304A4032847A42F83430028816
:10066000838842EA03432C4A4032847A02EBC40274
:100670005360027B012A19D1274A0C3212680A43BF
:10068000254B0C331A604288038842EA0343224A0E
:100690004032847A42F83430C288838842EA034385
:1006A0001D4A4032847A02EBC4025360C27A3AB9DE
:1006B000194A121D12688A43174B1B1D1A6006E067
:1006C000154A121D12680A43134B1B1D1A6002893A
:1006D00032B9114A143212688A430F4B14331A602C
:1006E0000289012A06D10C4A143212680A430A4BC5
:1006F00014331A60427B012A06D1074A1C32126861
:100700000A43054B1C331A60034A126822F00102A7
:10071000014B1A6010BD0000006600401AB1436929
:100720000B43436102E043698B434361704730B53B
:10073000024600200023146824F0020414601468A8
:1007400044F00104146000E05B1C546804F00104F0
:100750001CB94FF6FF74A342F6D1546804F00104AB
:100760000CB900206CE08C79012C04D1146844F0A1
:100770008004146003E0146824F080041460CC79D1
:10078000012C04D1146844F04004146003E01468A0
:1007900024F0400414600C7A012C04D1146844F055
:1007A0002004146003E0146824F0200414604C7AE0
:1007B000012C04D1146844F01004146003E01468A0
:1007C00024F0100414608C7A012C04D1146844F0D5
:1007D0000804146003E0146824F008041460CC7A60
:1007E000012C04D1146844F00404146003E014687C
:1007F00024F0040414608C78A407CD7844EA0564DE
:100800000D7944EA05444D7944EA05540D886D1E7E
:100810002C43D461146824F001041460002300E028
:100820005B1C546804F001041CB14FF6FF74A34232
:10083000F6D1546804F001040CB1002000E001205E
:1008400030BD10B500F5D87303EB01131B6803F03E
:1008500004031372137A53B900F5D87303EB011331
:100860001B6840F2FF7404EA5353136009E000F57B
:10087000D87303EB01131B686FF0604404EAD303E1
:10088000536000F5D87303EB01131B6803F00203F8
:10089000537200F5D87303EB01135B6803F00F0389
:1008A000937200F5D87303EB01135B681B0AD374D2
:1008B00000F5D87303EB01139B68D37200F5D8736E
:1008C00003EB01139B681C0A147300F5D87303EB48
:1008D00001139B681C0C547300F5D87303EB0113D0
:1008E0009B681B0E937300F5D87303EB0113DB6851
:1008F000D37300F5D87303EB0113DB681C0A14747F
:1009000000F5D87303EB0113DB681C0C547400F57D
:10091000D87303EB0113DB681B0E937421B9C36812
:1009200043F02003C36003E0036943F02003036145
:1009300010BD00000B49096841F00101094A11602E
:100940001146096843F60E729143064A116011463A
:10095000096841EA002111601146096821F001018E
:10096000116070470066004000218171C171017201
:1009700041728172C1728170C170032101710221C3
:10098000417101210180704710B502460020936833
:1009900003F08063B3F1806F00D110E0936803F03F
:1009A0000063B3F1006F01D1012008E0936803F008
:1009B0008053B3F1805F01D1022000E004200428BD
:1009C00074D002F5C07303EB00131B6803F001043D
:1009D00002F5C07303EB00131C600B7A7BB94B7AF2
:1009E0000C8843EA445302F5C07404EB00142468F5
:1009F000234302F5C07404EB0014236010E00B7A6B
:100A00004C6843EAC4034C7A234302F5C07404EBF8
:100A100000142468234302F5C07404EB001423601F
:100A20008B7A03F00F038B7202F5C07303EB001394
:100A30005B6823F00F0402F5C07303EB00135C60E6
:100A400002F5C07303EB00135B688C7A234302F555
:100A5000C07404EB001463608B7B1C064B7B44EA80
:100A600003440B7B44EA0323CC7A234302F5C0748E
:100A700004EB0014A3608B7C1C064B7C44EA03440B
:100A80000B7C44EA0323CC7B234302F5C07404EBC4
:100A90000014E36002F5C07303EB00131B6843F01E
:100AA000010402F5C07303EB00131C6010BD70B5A8
:100AB00000254FF4803404E0802001F00BF900B1F0
:100AC00003E0201EA4F10104F6D100BF0CB90320FD
:100AD00070BD40F2FF5001F0D3F82846F8E700005F
:100AE00070B5044605E01648056805F0450000B1FC
:100AF00000E0F8E700BF042001F0ECF820B104208A
:100B000001F0BEF8032070BD012001F0E3F820B130
:100B1000012001F0B5F80120F5E709482438006804
:100B2000A04201D01020EEE740F2FF5001F0A8F8FB
:100B300003482038006808210840C0B2E3E70000FD
:100B4000342C014070B500264FF4803505E0114883
:100B5000046804F0450000B103E0281EA5F101057A
:100B6000F5D100BF15B104F0040028B1032604201C
:100B700001F086F8304670BD012001F0ABF818B1E5
:100B80000126012001F07CF840F2FF5001F078F8D6
:100B90003046F0E7342C014010B505E00B480468FE
:100BA00004F0450000B100E0F8E700BF042001F0C8
:100BB00091F820B1042001F063F8032010BD40F249
:100BC000FF5001F05DF80020F8E70000342C0140F0
:100BD0002DE9F04105460E464FF0000805E020489B
:100BE000076807F0450000B100E0F8E700BF042007
:100BF00001F070F828B1042001F042F80320BDE8AC
:100C0000F081012001F066F820B1012001F038F8F0
:100C10000120F4E7124824380068A84201D01020CF
:100C2000EDE740F2FF5001F02BF80D482038046842
:100C300004F4604018B9200C30804046DFE704F42B
:100C4000005008B11320DAE704F4804008B1102006
:100C5000D5E704F4004008B10F20D0E74046CEE7C6
:100C6000342C014070B500264FF4803505E00F4864
:100C7000046804F0450000B103E0281EA5F1010559
:100C8000F5D100BF15B104F0040028B103260420FB
:100C900000F0F6FF304670BD04F0400018B10026A9
:100CA000402000F0EDFF3046F5E70000342C014015
:100CB00070B504460D46D4F8A00050F82500C0F3E6
:100CC00007464FF0FF30D4F8A41021F81500012199
:100CD00004F1B400815531462046D4F8B020904745
:100CE00070BD2DE9FF4FDDE90D456CE0A5EB020A73
:100CF0004FFA8AF3002B04DD91F800A00AFA03FAF8
:100D000005E091F800A0C3F1000B4AFA0BFA0AF0D3
:100D1000FF0C002B02DDC5F1080A01E0C2F1080A50
:100D20000AF0FF08804501DD824600E0C2465646D3
:100D300005EB060B4FF0FF0A0AFA0BFAC5F1080E95
:100D40004FF0FF0B4BFA0EFB4AEA0B0A0AF0FF07C3
:100D50002CEA070994F800A00AEA070A84F800A020
:100D600094F800A04AEA090A84F800A002EB060AF7
:100D70000AF0FF0A5246BAF1070F0BDD0022DDF838
:100D80000CA0BAF1000F02D04FF0FF3A01E04FF093
:100D9000010A514405EB060A0AF0FF0A5546BAF16A
:100DA000070F0BDD0025DDF83CA0BAF1000F02D0E3
:100DB0004FF0FF3A01E04FF0010A5444A0EB060A5D
:100DC0000AF0FF0000BF002890DCBDE8FF8F0000A4
:100DD00010B500BF1021EFF3118081F31188BFF32C
:100DE0004F8FBFF36F8F00BF04460749074800F0DD
:100DF000B5F918B10449054800F052F800BF84F372
:100E0000118800BF10BD00000088002088640240E7
:100E100010B500BF1021EFF3118081F31188BFF3EB
:100E20004F8FBFF36F8F00BF04460C490C4800F092
:100E300095F968B100BF40210A4803F02DF8002859
:100E4000F9D00649064800F02BF800200649087042
:100E500000BF84F3118800BF10BD0000008000288F
:100E6000B864024000100140A40000200246094B73
:100E70009A4201D2084801E00648103801F00053B8
:100E80001BB1064B0B40C36002E0044B0B40836078
:100E90007047000010640240006002407D0F7D0F2B
:100EA0000246094B9A4201D2084801E00648103830
:100EB00001F000531BB1064B0B40C36002E0044B32
:100EC0000B408360704700001064024000600240E5
:100ED0007D0F7D0F21B1026842F00102026003E044
:100EE000026822F0010202607047000000B591B074
:100EF0000121880500F090FD344800F06DF84FF0B6
:100F00000060029032480390402005900020079036
:100F10004FF480600890002009900A900B904FF4E5
:100F200080300C9000200D9003200E9000200F9038
:100F3000109002A9254800F061F946208DF80400C0
:100F400004208DF8050000208DF8060001208DF8A2
:100F5000070001A800F00AFC012210211B4800F044
:100F60002FF94FF020511948FFF780FF174830380C
:100F700000F032F84FF00060029015480390002016
:100F8000059007904FF480600890002009900A9027
:100F90004FF480700B9040020C9000200D900320C5
:100FA0000E9000200F90109002A90848303800F0F1
:100FB00025F9002210210548303800F001F90549D3
:100FC00002483038FFF752FF11B000BDB86402404C
:100FD0000410014000080020016821F001010160B7
:100FE0000021016041608160C16001612121416196
:100FF0004A49884204D13D21484A103A91608CE028
:1010000046491831884205D14FF47461434A103A79
:10101000916082E041493031884205D14FF474112A
:101020003E4A103A916078E03C494831884205D107
:101030004FF07461394A103A91606EE0374960317F
:10104000884204D13649354A103AD16065E03349C7
:101050007831884204D13349304A103AD1605CE09B
:101060002E499031884204D12F492C4A103AD16040
:1010700053E02A49A831884205D14FF03D51274A13
:10108000103AD16049E02949884204D13D21274ADC
:10109000083A116041E025491831884205D14FF4E2
:1010A0007461224A083A116037E0204930318842A1
:1010B00005D14FF474111D4A083A11602DE01B4907
:1010C0004831884205D14FF07461184A083A1160DE
:1010D00023E016496031884204D11149134A121F96
:1010E00011601AE011497831884204D10D490F4A44
:1010F000121F116011E00D499031884204D10A4954
:101100000A4A121F116008E00849A831884204D138
:101110004FF03D51054A121F1160704710600240A8
:101120003D000020400F002000003D2010640240E0
:1011300021B1026842F02002026003E0026822F05E
:10114000200202607047014600200A6802F0010296
:101150000AB1012000E000207047000070B502468F
:10116000002000240025124EB24201D2114B01E0B2
:101170000F4B103B104E0E4036B11E2606EAD1240E
:10118000166806EA040502E0566906F0800501F0DB
:1011900000560EB15C6800E01C68084E344004EA5A
:1011A000010616B10DB1012000E0002070BD000065
:1011B00010640240006002403C0F3C0F7D0F7D0F29
:1011C00010B501F080034BB122B1436943F08003B5
:1011D000436103E0436923F08003436180290BD01E
:1011E0002AB1036801F01E042343036004E003688E
:1011F00001F01E04A343036010BD000010B50022DF
:101200000268134B1A40CC680B6823434C69234394
:101210008C692343CC6923430C6A23434C6A2343E0
:101220008C6A23434C6B23438C6B23431A43026029
:10123000426922F00702D1E90B3423431A43426189
:101240000B6943604B6883608B68C36010BD00000E
:101250003F801CF041607047C160704770B5054623
:101260000E46144600212846FFF734FE3146284634
:10127000FFF7F2FF21462846FFF7ECFF0121284641
:10128000FFF728FE70BD70470146481C80B10A4830
:10129000B0F90000814205D107480088401E00B225
:1012A000054A1080002001EB4102044B03F8320094
:1012B0004FF0FF3070470000DC00002074A40020D5
:1012C0002DE9FC4107460D46002600240020009031
:1012D000019008205B490860102048604020886029
:1012E0000020C8604FF480600861084600F03EFDB1
:1012F0001020FFF7F5FB044614B12046BDE8FC8141
:101300005148008800044F49086037204860402059
:1013100088600020C8604FF480600861084600F0D3
:1013200025FD3720FFF7DCFB04460CB12046E5E73E
:101330004FF0FF3045490860082048603020886041
:101340000220C8600020086101204861084600F0C2
:10135000A7FC00203B49086033204860402088609B
:101360000020C8604FF480600861084600F0FEFC71
:101370003320FFF7B5FB04460CB12046BEE70CE076
:101380004FF4001000F0A6FC38B1314800684DF869
:101390002600761C022E00D307E02D484C3800684A
:1013A00040F22A6108400028EAD000BF082000F07F
:1013B00091FC20B1082000F063FC04209EE702208D
:1013C00000F088FC20B1022000F05AFC022095E7D2
:1013D000202000F07FFC20B1202000F051FC0620EE
:1013E0008CE74FF4007000F075FC28B14FF40070EA
:1013F00000F046FC072081E740F2FF5000F040FC7F
:1014000000980006009901F47F4140EA012000990C
:1014100001F47F0140EA1120009940EA1160686000
:1014200001980006019901F47F4140EA01200199E9
:1014300001F47F0140EA1120019940EA116028601F
:1014400020465BE7B0A10020B0000020C4A100202E
:10145000802C0140F0B50A4600210023002400BF83
:101460003DE0012505FA01F3156805EA03049C42F5
:1014700034D105684F000326BE40B5430560157999
:101480004E00B5400668354305601579012D02D040
:101490001579022D16D185684F000326BE40B5434D
:1014A000856055794E00B54086683543856045684E
:1014B00001268E40B5434560456896798E40B6B2A8
:1014C00035434560C5684F000326BE40B543C5603F
:1014D000D5794E00B540C6683543C560491C102912
:1014E000BFD3F0BDF0B5002300244D07ED0E02FA86
:1014F00005F3CE1000F1200555F826504E07F70EE3
:101500000F26BE40B543CF1000F1200646F8275005
:10151000CE1000F1200555F8265045EA0304CE1000
:1015200000F1200545F82640F0BD0183704770B5F5
:1015300004460E46D4F83C01008860B3002527E03D
:1015400004F1B400405D0F2820D020680078A84244
:101550001CD004F5A270405D00280BDCD4F83801E3
:1015600020B129462046D4F838219047012104F1C2
:10157000B400415504F5A270405D401EC1B204F5AF
:10158000A27041552946204604F006FB681CC5B2EE
:10159000802DD5DB05E0B4F93401FFF775FEA4F822
:1015A000340170BD2349096888B223490968098854
:1015B00081423EDB204909684989491C1E4A12685C
:1015C00051811D490968C989491C1B4A1268D1818A
:1015D00019490968C989184A12681289914203D1C8
:1015E0000021154A1268D181134909680988091A2E
:1015F000114A12681269104B1B68DB8922F813101C
:101600000D49096849890C4A12681289914210DD16
:101610000021094A12689181074A1268D181064A5D
:101620001268518104490968898A491C024A126872
:10163000918270478C640240A800002000BFFEE742
:101640001CB5044600200190009022480088000448
:10165000214908600D204860402088600020C86053
:101660004FF480600861084600F080FB1B4800686A
:10167000009002E0194800680090009800F04500D2
:101680000028F7D0012000F025FB20B1012000F058
:10169000F7FA01201CBD042000F01CFB20B104203F
:1016A00000F0EEFA0320F5E70C48243800680D2816
:1016B00001D01020EEE740F2FF5000F0E1FA0748B9
:1016C0002038006801900198C0F34320207000206A
:1016D000E0E70000B0000020B0A10020342C014061
:1016E0000448006900F0100008B90120704700208C
:1016F000FCE70000001002400448006900F0080008
:1017000008B9012070470020FCE7000000100240EB
:101710000448006900F0010008B101207047002072
:10172000FCE70000000002401CB50121084600F063
:1017300073F9C020009001208DF8040000208DF87E
:10174000060003208DF8050001208DF8070069468A
:101750000348FFF77FFEC0210148FFF7E6FE1CBDEE
:101760000000024000BFFEE77047000070B5002196
:1017700000230F22C4781CB3174C246804F4E064DF
:10178000C4F5E064C4F30721C1F10404E3B20A41E3
:1017900044789C40E1B28478144021430C07210E28
:1017A0000E4C05786155047804F01F050124AC4007
:1017B00005786D11AD0005F1E025C5F8004109E09F
:1017C000047804F01F050124AC40054D067876111D
:1017D00045F8264070BD00000CED00E000E400E09C
:1017E00080E100E002490143024A116070470000B5
:1017F0000000FA050CED00E070B504460D461646F3
:10180000204608F0FDFB002070BD0000F8B504463E
:101810000E461746A834B4F90400FFF735FDA08042
:1018200054F8A809008880B1D4F8A800058805EB11
:101830004500C0EBC5100023054A1946009020461C
:1018400001F0D8FFA4F8AC0000BF0020F8BD0000F4
:10185000D119000870B504460D461646204604F01E
:101860000BFA204604F0C2F9002070BD30B50346E3
:101870000C46D3F80C02007860B9002106E0002085
:10188000D3F8105245F82100481CC1B293F8090260
:101890008842F4DC002030BD70B505460C464FF0A0
:1018A000FF3004EBC402A96801EB4201488000202C
:1018B00004EBC402A96801EB4201C880E1B22846EA
:1018C00008F07AF870BD70B505460C464FF0FF3051
:1018D00004EBC402A96801EB4201888004EBC40157
:1018E000A86810F8110020F0010004EBC402A968F8
:1018F00001F81200E1B2284608F05EF870BD000061
:101900002DE9F84304464FF4C05760690589A06982
:10191000B0F80880BDB114E06A4639462046D4F8D4
:10192000E83198470646009830B90A493068C162E4
:101930003068C1633068C165781C87B2681C85B2A5
:1019400000BF4545E8DD0021204603F0DFF8BDE893
:10195000F8830000BD3A00082DE9F0410446002557
:1019600060690689A069078986B32DE005EBC50289
:10197000A16801EB4201B1F90200FFF785FC05EB1C
:10198000C502A16801EB4201488005EBC502A168D0
:1019900001EB4201B1F90400FFF776FC05EBC5024B
:1019A000A16801EB42018880002005EBC502A16817
:1019B00001F8120005EBC502A16801EB4201C880E5
:1019C000681CC5B2701C86B2BE42CFDDBDE8F08196
:1019D000FEB504460E46D4F8A8000088A8B12068D9
:1019E000007800F5E065ADF8005001208DF80300A7
:1019F00000208DF8020094F87C008DF80400694600
:101A0000D4F8E40103F0C6FC05E0B4F9AC00FFF73C
:101A10003BFCA4F8AC00FEBD29B1064A12680243A3
:101A2000044B1A6004E0034A12688243014B1A60B7
:101A3000704700003038024029B1064A126802435C
:101A4000044B1A6004E0034A12688243014B1A6097
:101A5000704700004038024029B1064A126802432C
:101A6000044B1A6004E0034A12688243014B1A6077
:101A7000704700002038024029B1064A126802432C
:101A8000044B1A6004E0034A12688243014B1A6057
:101A9000704700004438024029B1064A12680243E8
:101AA000044B1A6004E0034A12688243014B1A6037
:101AB0007047000024380240F0B5002100220024C5
:101AC000022500260223324F3F6807F00C0121B1A6
:101AD000042905D0082937D105E02E4F076036E0EC
:101AE0002D4F076033E02A4F3F1F3F68C7F38056F2
:101AF000274F3F1F3F6807F03F036EB1264FB7FBEC
:101B0000F3F7DFF88CC0ACF1040CDCF800C0CCF3C8
:101B1000881C07FB0CF40CE01E4FB7FBF3F7DFF853
:101B200070C0ACF1040CDCF800C0CCF3881C07FBDF
:101B30000CF4174F3F1F3F68C7F301477F1C7D0020
:101B4000B4FBF5F7076002E0124F076000BF00BF6B
:101B50000F4F3F6807F0F0010909104F7A5C0768E2
:101B6000D74047600A4F3F6807F4E051890A0B4F9E
:101B70007A5C4768D7408760054F3F6807F460414B
:101B8000490B064F7A5C4768D740C760F0BD00003C
:101B9000083802400024F40000127A0018000020E7
:101BA0002DE9F8430546884614461E466A464146D6
:101BB0002846D5F8E83198470746009830B9387973
:101BC000A04203DD386800EB0410C6600098BDE851
:101BD000F88300007CB505460024002000900190A9
:101BE00000260DB1022600E000262248006800F021
:101BF000007008B10E207CBD1F49098888B2694673
:101C0000FFF75EFB04460CB12046F4E7019800F4B0
:101C1000802060B318480088000418490860372005
:101C20004860402088600020C8604FF480600861F0
:101C3000084600F09BF83720FEF752FF04460CB12F
:101C40002046D8E70D48066006200C494860402031
:101C500088600020C8604FF480600861084600F08A
:101C600085F80620FEF73CFF04462046C3E7252002
:101C7000C1E70000142C0140B0000020B0A10020FA
:101C80000149086070470000382C01400146034AB2
:101C9000106820F0FF00084310607047042C0140DA
:101CA00000210B4B02681A601B1D42681A601A1D46
:101CB000116821F0F701D0E902231A4303691A439E
:101CC00043691A431143024A083211607047000009
:101CD000242C014001460020034A12680A400AB140
:101CE000012000E000207047342C014002480068C9
:101CF00000F0030070470000002C014010B500F018
:101D0000B1FD10BD00210A4A116847F6FF629143F8
:101D1000027D83681A4343681A43C3681A43036801
:101D20001A4303691A431143014A116070470000C6
:101D3000042C014000200B490860091D0860091DA2
:101D40000860091D0860074924310860091D086002
:101D5000091D086004480349383108600020091D46
:101D600008607047002C0140FF07C0000021094BAC
:101D700002681A601A1D11686FF30A01D0E9012385
:101D80001A43C3681A4303691A431143014A121DD7
:101D900011607047082C014001490860704700003D
:101DA000002C01402DE9FC4104460D46606946883F
:101DB00066B1C5EBC50000EB400104F1280010F846
:101DC00021003044A1694988884201DDBDE8FC81D9
:101DD000C5EBC50000EB400204F1280010F822001A
:101DE0003044616851F83000806B07784FF0FF3164
:101DF000C5EBC50000EB400204F1280000EB8200B7
:101E0000A0F84C108521C5EBC50000EB400204F1A1
:101E1000280000EB820081702D49C5EBC50000EB66
:101E2000400204F1280000EB8200807ACDE9000135
:101E3000C5EBC50000EB400C04F1280000EB8C0062
:101E40000389C5EBC50000EB400C04F1280010F835
:101E50002C20C5EBC50000EB400C04F1280000EB82
:101E60008C004178204607F0B8FE1949C5EBC50043
:101E700000EB400204F1280000EB82004160C5EB5A
:101E8000C50000EB400104F1280000EB8100006D6B
:101E900058B1C5EBC50000EB400104F1280000EB90
:101EA00081003946026D20469047C5EBC50000EB26
:101EB000400104F1280000EB810040680449884299
:101EC00003D1E9B2204607F046FD00BF7EE70000DF
:101ED000000004052DE9FF4104460D46C5EBC50091
:101EE00000EB400104F1280000EB8100C06888B9D4
:101EF000C5EBC50000EB400104F1280000EB8100B8
:101F00000169C5EBC50000EB400204F1280000EBBD
:101F10008200C160C5EBC50000EB400104F1280060
:101F200000EB8100C0680390012003AACDE90020E6
:101F30000290C5EBC50000EB400704F1280000EB60
:101F4000870000F11403C5EBC50000EB400704F166
:101F5000280000EB8700827AC5EBC50000EB400744
:101F600004F1280000EB87000189204602F09AFE68
:101F700006461EB1304604B0BDE8F0810020FAE705
:101F8000F0B504461546C1EBC10000EB400704F173
:101F9000280000EB870000692844202801D9FF2091
:101FA000F0BDC1EBC10000EB400704F1280000EBDD
:101FB0008700066900220FE09F5CC1EBC10000EBC7
:101FC000400C04F1280000EB8C00143006EB020CEE
:101FD00000F80C70501CC2B2AA42EDD3C1EBC10094
:101FE00000EB400704F1280000EB87000069471967
:101FF000C1EBC10000EB400C04F1280000EB8C00A9
:1020000007610020CCE7000070B590B004460E4692
:10201000154600BF1A48FFF796F80028FAD118486D
:10202000FEF7DAFF4FF0006001901648029003942B
:1020300004950020059006904FF480600790800082
:1020400008908000099000200A904FF440300B90D7
:1020500004200C9003200D904FF400000E9080108F
:102060000F9001A90648FFF7C9F820210448FFF79F
:102070005FF801210248FEF72DFF10B070BD00008F
:1020800058640240802C014070B504460025164873
:102090000078032802D12725284670BD1248007811
:1020A00038B111480078012803D00F480078022881
:1020B00017D1B4F5805F02D127252846EDE7E0B2BD
:1020C000FFF788FD054665B90848006820F4C05050
:1020D0000649086008460068204308600846006812
:1020E00008602846D9E70000AC000020042C01401D
:1020F000F0B5014600200022BE4B1B7881F8563017
:10210000BD4B1B88A1F85430BC4B1B681A0E9309B9
:102110000B70C2F383034B7002F003038B70B74B59
:102120001B68C3F30742CA70B44B1B88C3F3072272
:102130000A71B24B1A784A715B681A0E1301CB8090
:10214000AE4B5B68C3F30742CB8843EA1213CB80E4
:1021500002F00F030B72A94B9B88C3F30722D3092C
:102160004B72C2F380138B72C2F34013CB72C2F373
:1021700000130B7300234B739E4B1B783BB19D4B9D
:102180001B78012B03D09B4B1B78032B4FD193075C
:102190001B0D0B61994B1A790B6943EA82030B61A2
:1021A000964B9B681A0E0B6943EA92130B61C2F3BC
:1021B000C2030B7502F007034B75904B9B68C3F38A
:1021C000074253098B75C2F38203CB7593075B0FEC
:1021D0000B768A4B1B89C3F307220B7E43EAD2138B
:1021E0000B760B695B1C0024C1E912340B7E9B1C2F
:1021F000012404FA03F3DC17D1E91256A5FB037C92
:1022000006FB03C305FB0433C1E912730C7A0123F7
:10221000A3400B650024D1E912650B6DA6FB037C7E
:1022200005FB03C306FB0433C1E912732EE0714BB7
:102230001B78022B2AD1714B1A7993069B0A0B61EA
:102240006E4B9B681A0E0B6943EA02230B616B4BC2
:102250009B68C3F307420B6913430B61674B1B89F0
:10226000C3F307220B695B1C4FF40074A3FB044605
:102270004FF480630025A4FB037C06FB03C304FB2F
:102280000533C1E912734FF400730B65C2F3801379
:1022900001F8193F93065B0E4B70584B1A7A4B7836
:1022A00043EAD2134B7002F07F038B70534BDB6811
:1022B0001A0ED309CB70C2F341130B71C2F3820320
:1022C0004B7193071B0F8B714C4BDB68C3F30742B9
:1022D0008B7943EA92138B71C2F34013CB710023C5
:1022E0000B7202F001034B72444B9B89C3F307222C
:1022F000D3098B72C2F38013CB72C2F340130B73FA
:10230000C2F300134B73C2F381038B7302F0030318
:10231000CB733A4B1A7B53080B7401234B74384B25
:102320001B681A0ECA741939354B1B68C3F3074270
:102330001402CC85324B1B88C3F30722CB8D134389
:10234000CB852F4B1A7814060C635B681A0E0B6B47
:1023500043EA02440C632A4B5B68C3F307420B6BEE
:1023600043EA02240C63264B9B88C3F307220B6BC2
:1023700013430B63224B1A7934235A54204B9B6826
:102380001A0E35235A541E4B9B68C3F3074214069A
:102390008C631B4B1B89C3F307228B6B43EA0244FC
:1023A0008C63174B1A7A8B6B43EA02248C63144BB1
:1023B000DB681A0E8B6B13438B63114BDB68C3F323
:1023C00007423C235B5C43EA12143C235C54130732
:1023D0001C0DCC870A4B9B89C3F30722CB8F134379
:1023E000CB87074B1A7B540840235C5401244123BC
:1023F0005C54F0BDAC000020B0000020DCA1002047
:10240000ECA100203EB5002401213F48FFF704FB6A
:102410000121C802FFF730FB0121C802FFF73CFB96
:102420004FF4F850019002208DF808008DF8090053
:1024300000208DF80A0001208DF80B0001A9334817
:10244000FFF708F80420019001A93148FFF702F8CE
:102450000C2208212D48FFF745F80C2209212B48B2
:10246000FFF740F80C220A212848FFF73BF80C221E
:102470000B212648FFF736F80C2211462348FFF7B8
:1024800031F80C2202212248FFF72CF800214FF4EA
:102490000060FFF701FBFFF74DFC31208DF80000D5
:1024A00000208DF801008DF8020001208DF8030056
:1024B0006846FFF75BF900F0E3F8044614B900F052
:1024C0002DF804461CB91348FFF712FE044634B930
:1024D0001049B1F85410080400F06CFD044624B90A
:1024E0004FF40060FFF7D0FD04461CB10A480078A5
:1024F000032806D10020FFF7C9FB002000F072FD81
:10250000044620463EBD00000C004000000802408A
:10251000000C024000A20020AC00002038B50024CE
:1025200001200090FFF7E2FB10B92524204638BDBA
:102530004D480078042824D000204C49086002202F
:102540004860C02088600020C8604FF48060086147
:102550000846FFF70BFCFEF7F5FA04460CB12046DF
:10256000E5E743480068434908604148001D0068AA
:1025700048603F480830006888603D480C3000687B
:10258000C8603948007858B137480078012807D02A
:1025900035480078062803D033480078022816D141
:1025A00000203249086003204860402088600020F5
:1025B000C8604FF4806008610846FFF7D7FB6946A2
:1025C0000320FEF705FB04460CB12046AFE7264882
:1025D0000078032816D1BDF80000000423490860E4
:1025E00003204860402088600020C8604FF480606D
:1025F00008610846FFF7BAFBFEF7A4FA04460CB1DF
:10260000204694E71848007804282AD0BDF8000036
:1026100019490860BDF80000000414490860092049
:102620004860C02088600020C8604FF48060086166
:102630000846FFF79BFBFEF785FA04460CB12046DF
:1026400075E70B4800680D4908600948001D0068DF
:102650004860074808300068886005480C3000680A
:10266000C860002063E70000AC000020B0A100209B
:10267000142C0140ECA10020B0000020DCA10020BF
:102680002DE9F0470027002400260025A046A1469A
:1026900076206E4908750020086048608860C86030
:1026A00008610846FFF72EFB0320FFF775FB68481B
:1026B000006840F480706649086000BF12E00020A6
:1026C0006449086048608860C8604FF480600861B1
:1026D0000846FFF74BFBFEF7EAF9044604B903E0AE
:1026E000781CC7B24A2FEADB00BF14B12046BDE810
:1026F000F0874FF4D57057490860082048604020A3
:1027000088600020C8604FF4806008610846FFF7C9
:102710002DFBFEF7A7FA044624B901204E490870A4
:102720004FF0804900204B49086037204860402026
:1027300088600020C8604FF4806008610846FFF799
:1027400015FB3720FEF7CCF90446002C4CD135E0C0
:102750000020404908603720486040208860002001
:10276000C8604FF4806008610846FFF7FFFA372021
:10277000FEF7B6F904460CB12046B8E7374849EAF7
:10278000000034490860292048604020886000200B
:10279000C8604FF4806008610846FFF7E7FAFEF76B
:1027A000FBF904460CB12046A1E729481030066821
:1027B000012080EAD67080F001086D1CB8F1000F8E
:1027C00003D14FF6FF708542C2D34FF6FF708542AA
:1027D00002D31B2420468AE706F08040061E33D031
:1027E00002201D4908702FE01DE01D4819490860AE
:1027F00001204860402088600020C8604FF480605D
:1028000008610846FFF7B2FAFEF7C6F904460CB1B4
:1028100020466CE70E4810300668012080EAD6702A
:1028200080F001086D1CB8F1000F03D14FF6FF7066
:102830008542DAD34FF6FF70854202D31B2420462F
:1028400055E7032004490870204650E798A100206E
:10285000042C0140B0A10020AC000020000010803A
:102860000080FF8010B54FF48070FFF733FA78B323
:102870004C480078012814D100204B4908600C20F6
:102880004860402088600020C8604FF48060086184
:102890000846FFF76BFA0C20FEF722F9434908704F
:1028A00002E00020414908704148006840F480700F
:1028B0003F490860081D00684CF23A3188433C49A2
:1028C000091D086001203B4908703848007810BD98
:1028D000FFE70220FFF7FEF978B10220FFF7D0F9F9
:1028E0003348001D00684CF23A3188433049091DD5
:1028F000086002202D490870E9E70820FFF7EAF98F
:1029000078B10820FFF7BCF92948001D00684CF297
:102910003A3188432649091D08600420234908707C
:10292000D5E72020FFF7D6F978B12020FFF7A8F9E6
:102930001F48001D00684CF23A3188431C49091DAC
:102940000860062019490870C1E71020FFF7C2F996
:1029500078B11020FFF794F91548001D00684CF27B
:102960003A3188431249091D086005200F49087053
:10297000ADE74FF40070FFF7ADF980B14FF4007090
:10298000FFF77EF90A48001D00684CF23A3188438F
:102990000749091D086007200449087097E70020CF
:1029A00095E70000B5000020B0A10020B60000208F
:1029B000382C0140B70000202DE9F84F814617461A
:1029C00098460A9C4FF0000AD3464D464FF0FF361A
:1029D000B9F1000F02D12620BDE8F88F002086490A
:1029E000086086480078022805D10402780A40EA87
:1029F000C8574FEA68280020814988604860401E17
:102A00000860012048610020C86008610846FFF79F
:102A100047F979481838006800F0007008B10E20B6
:102A2000DAE7002C21DDB4F5006F1EDC601E2040CB
:102A3000D8B9204602F088FD00907248046010204A
:102A400070494860402088600020C8604FF4806072
:102A500008610846FFF78AF91020FEF741F8824620
:102A6000BAF1000F03D05046B6E72620B4E700982D
:102A7000000163498860084644604FF0FF300860F9
:102A8000012048610220C860002008610846FFF765
:102A900007F95C48076011205A4948604020886067
:102AA0000020C8604FF4806008610846FFF75EF9B7
:102AB0001120FEF715F88246BAF1000F01D05046FA
:102AC0008AE75148007800285CD1FDF768FB18E0E0
:102AD0004FF40040FFF7FEF878B14FF0000B06E02E
:102AE00045485430006845F82B000BF1010BBBF151
:102AF000080FF5D32035454E03E00EB904206BE7EF
:102B0000761E3D480830006840F22A6108400028DF
:102B1000DED00820FFF7DEF820B10820FFF7B0F87C
:102B2000042059E70220FFF7D5F820B10220FFF773
:102B3000A7F8022050E72020FFF7CCF820B1202092
:102B4000FFF79EF8062047E74FF40070FFF7C2F842
:102B500028B14FF40070FFF793F807203CE704E03A
:102B600025485430006828602D1D4FF40010FFF7F1
:102B7000B1F80028F4D1FDF714FB40F2FF50FFF745
:102B80007FF836E020480078012832D10020204923
:102B900008702049087020490870174810300068F4
:102BA00040F22A3108431449103108601248006885
:102BB00040F0080010490860002221464846FFF70F
:102BC00023FA00E0761E1548006800F0006038B96E
:102BD0001148007820B90E48007808B9002EF1D1CC
:102BE0000EB90420F8E60A48007810B1084890F8B9
:102BF00000A05046F0E600002C2C0140AC00002064
:102C0000C4A10020B0A10020B4000020FFFF7F007D
:102C1000B6000020B5000020B7000020006402408C
:102C20002DE9FE4F83460E46914600200290002576
:102C300034462148007818B1680240EAD45564024D
:102C40000BF00300F0B14FF0000A18E04FF40070F1
:102C500000904FEA4A20071945EBE0733A461748BF
:102C6000FFF7AAFE02904FF4007214495846FDF790
:102C70000BFB0BF5007B0AF1010000F0FF0ACA45CF
:102C8000E4DB16E0B9F1010F09D14FF400702246E0
:102C90002B4600905846FFF78FFE029009E04FF454
:102CA000007022462B46CDE90009584600F008F88E
:102CB00002900298BDE8FE8FAC00002058A20020D0
:102CC0002DE9FF5F17469846DDE90E464FF00009F3
:102CD000CA464FF0FF35AC49009808600020AB4968
:102CE0000860AB480078022805D10402780A40EA5F
:102CF000C8574FEA68280020A64988604860401EEF
:102D00000860012048610020C86008610846FEF79D
:102D1000C7FF9E481838006800F0007018B10E20F8
:102D200004B0BDE8F09F002C21DDB4F5006F1EDC7F
:102D3000601E2040D8B9204602F006FC8346964823
:102D40000460102094494860402088600020C860DA
:102D50004FF4806008610846FFF708F81020FDF77F
:102D6000BFFE8146B9F1000F03D04846D8E72620C0
:102D7000D6E7012E71D906FB04F0B0F1007F01D334
:102D80002620CDE74FEA0B108249886006FB04F04D
:102D900048604FF0FF300860012048610220C860A1
:102DA000002008610846FEF77BFF7B480760122081
:102DB00079494860402088600020C8604FF48060F6
:102DC00008610846FEF7D2FF1220FDF789FE814612
:102DD000B9F1000F01D04846A2E7704800780028FA
:102DE0007ED1FDF7DCF91EE04FF40040FEF772FFE4
:102DF000A8B14FF0000A08E0644854300068624906
:102E0000096841F82A000AF1010ABAF1080FF3D360
:102E10005D48006820305C490860614D03E00DB9F1
:102E200004207DE76D1E59480830006840F22A31C1
:102E300008400028D8D00820FEF74CFF20B1082019
:102E4000FEF71EFF04206BE70220FEF743FF28B1C8
:102E50000220FEF715FF022062E792E02020FEF735
:102E600039FF20B12020FEF70BFF062058E74FF472
:102E70000070FEF72FFF28B14FF40070FEF700FF3F
:102E800007204DE70AE04148543000683E49096890
:102E900008603D480068001D3B4908604FF4001081
:102EA000FEF718FF0028EED14FF48070FEF712FFF6
:102EB00020B33748007838B135480078012803D06E
:102EC00033480078022819D10020334908600C20CB
:102ED0004860402088600020C8604FF4806000E0B7
:102EE00013E008610846FEF741FF0C20FDF7F8FDEE
:102EF0008146B9F1000F01D0484611E7FDF751F9BD
:102F000040F2FF50FEF7BCFE3BE024480078012869
:102F100037D1002023490870012023490870002080
:102F20002249087019481030006840F22A310843DD
:102F30001649103108601548006840F00800134930
:102F4000086006FB04F100220098FFF75DF800E03E
:102F50006D1E1748006800F0006008B9002DF7D119
:102F60000DB90420DCE600BF1048007818B90D4800
:102F700000780028F8D00B48007810B1094890F884
:102F800000904846CCE60000B80000202C2C014000
:102F9000AC000020C4A10020B0A10020B40000209B
:102FA000FFFF7F00B6000020B5000020B700002022
:102FB0000064024010B5044609480460072008492F
:102FC0004860402088600020C8604FF4806008613D
:102FD0000846FEF7CBFE0720FDF782FD10BD00007E
:102FE000B0A1002001460020012900D011B9024BF8
:102FF000197000E026207047B40000202DE9FF5F23
:1030000086B017469846149D00260020059004902F
:10301000002481460390824602900195DDF818B0A5
:10302000DDF818B0BBF1000F03D126200AB0BDE8CF
:10303000F09F0020C9490860C94988604860401E67
:103040000860012048610020C86008610846FEF75A
:1030500027FEC2481838006800F0007008B10E2042
:10306000E4E7C0480078022805D10502780A40EA62
:10307000C8574FEA6828002D1FDDB5F5006F1CDC2E
:10308000681E2840C8B9284602F05EFA0590B64886
:1030900005601020B4494860402088600020C86066
:1030A0004FF4806008610846FEF760FE1020FDF7CF
:1030B00017FD06461EB13046B8E72620B6E7AB48F6
:1030C00000880004A84908600D20486040208860FE
:1030D0000020C8604FF4806008610846FEF746FE95
:1030E0000D20FDF7FDFC06460EB130469EE79B48DD
:1030F0001838006803904FF0FF341CE0641E9B48B2
:1031000000880004984908600D20486040208860CD
:103110000020C8604FF4806008610846FEF726FE74
:103120000D20FDF7DDFC06460EB130467EE78B48EC
:10313000183800680390039800F4807008B9002CD8
:10314000DCD10CB9292071E787480760182086492F
:103150004860402088600020C8604FF480600861AB
:103160000846FEF703FE1820FDF7BAFC06460EB12E
:1031700030465BE700207E490870059800017849D9
:103180008860084645604FF0FF30086001204861C4
:103190000020C86008610846FEF782FD4FF0FF344A
:1031A0007448007800287ED1FCF7F9FF45E04FF421
:1031B0008040FEF78FFDD8B30198A0EB09002028CE
:1031C00022D20198A0EB090000F0030020B9019879
:1031D000A0EB0900800804E00198A0EB090080083A
:1031E000401C02904FF0000A0AE05C495431DBF8C1
:1031F000000008600AF1010A0BF1040B09F104094F
:1032000002988245F1D310E04FF0000A06E05BF827
:103210002A005249543108600AF1010ABAF1080F34
:10322000F5D30BF1200B09F120096FF0404404E0C5
:10323000FFE70CB90420F9E6641E4848083000682E
:1032400040F21A6108400028B1D00820FEF742FD84
:1032500020B10820FEF714FD0420E7E60220FEF767
:1032600039FD20B10220FEF70BFD0220DEE6102022
:10327000FEF730FD20B11020FEF702FD0520D5E657
:103280004FF40070FEF726FD30B14FF40070FEF7EA
:10329000F7FC0720CAE606E0FCF783FF40F2FF5088
:1032A000FEF7EEFC41E03348007801283DD10020D4
:1032B000314908702E49087030490870274810308D
:1032C000006840F21A310843244910310860402256
:1032D00029460698FEF798FE2048006840F008004E
:1032E0001E49086000E0641E2548006800F0006088
:1032F00008B9002CF7D11CB9FFF784F8042095E633
:103300004FF0FF3400E0641E1C48007820B91A48D2
:10331000007808B9002CF6D10CB9042086E61648CE
:10332000007810B11448007880E640F2FF50FEF7B4
:10333000A7FC04A8FEF784F9064603E004A8FEF7FC
:103340007FF906463EB99DF810000728F6D09DF893
:1033500010000628F2D0304668E600002C2C014010
:10336000C4A10020AC000020B0A10020B0000020CB
:10337000B5000020B4000020B6000020B7000020F7
:10338000006402402DE9FE4F064689469246002021
:10339000029000254C462148007818B1680240EAA6
:1033A000D455640206F00300F0B14FF0000B18E0B2
:1033B0004FF4007231461A48FCF766FF4FF4007074
:1033C00000904FEA4B20071945EBE0733A4614484A
:1033D000FFF714FE029006F500760BF1010000F0F5
:1033E000FF0BD345E4DB16E0BAF1010F09D14FF42E
:1033F000007022462B4600903046FFF7FFFD0290FA
:1034000009E04FF4007022462B46CDE9000A304611
:1034100000F008F802900298BDE8FE8FAC00002092
:1034200058A200202DE9FF5F84B0DDE91247002695
:10343000002003900290002580468146019007FB02
:1034400004FBDDF810A0DDF810A0BAF1000F03D1E5
:10345000262008B0BDE8F09F0020DC490860DC4968
:1034600088604860401E0860012048610020C860F4
:1034700008610846FEF714FCD4481838006800F0CC
:10348000007008B10E20E4E7D2480078022808D185
:103490000402DDE90601400A40EAC1504912CDE9C3
:1034A0000601002C1FDDB4F5006F1CDC601E2040FF
:1034B000C8B9204602F048F80390C74804601020BD
:1034C000C5494860402088600020C8604FF4806093
:1034D00008610846FEF74AFC1020FDF701FB06468E
:1034E0001EB13046B5E72620B3E7012F6FD907FBA1
:1034F00004F0B0F1007F01D32620AAE7B548007898
:1035000038B1B4480078012803D0B24800780228C6
:103510002DD1B24800880004AF49086037204860C8
:10352000402088600020C8604FF480600861084631
:10353000FEF71CFC3720FDF7D3FA06460EB13046E5
:1035400087E7A54807601720A349486040208860A6
:103550000020C8604FF4806008610846FEF706FC52
:103560001720FDF7BDFA06460EB1304671E79A49BD
:103570000698086019204860402088600020C860D4
:103580004FF4806008610846FEF7F0FB1920FDF754
:10359000A7FA06460EB130465BE7039800018C4956
:1035A000886007FB04F048604FF0FF30086001209E
:1035B00048610020C86008610846FEF771FB884832
:1035C0000078002874D1451EFCF7E9FD42E0E4E0F4
:1035D0004FF48040FEF77EFBB8B3ABEB0800202829
:1035E0001FD2ABEB080000F0030018B9ABEB0800EA
:1035F000800803E0ABEB08008008401C01904FF00E
:1036000000090AE071495431DAF80000086009F154
:1036100001090AF1040A08F1040801988145F1D36F
:1036200010E04FF0000906E05AF8290067495431CC
:10363000086009F10109B9F1080FF5D30AF1200A70
:1036400008F120086FF0404504E0FFE70DB90420C1
:10365000FFE66D1E5D480830006840F21A310840F0
:103660000028B5D00820FEF735FB20B10820FEF772
:1036700007FB0420EDE60220FEF72CFB20B1022020
:10368000FEF7FEFA0220E4E61020FEF723FB20B14D
:103690001020FEF7F5FA0520DBE64FF40070FEF788
:1036A00019FB30B14FF40070FEF7EAFA0720D0E6BC
:1036B0002CE04FF48070FEF70DFB00B34548007816
:1036C00038B144480078012803D0424800780228E5
:1036D00015D10020404908600C20486040208860D7
:1036E0000020C8604FF4806008610846FEF73EFB8A
:1036F0000C20FDF7F5F906460EB13046A9E6FCF7B9
:1037000050FD40F2FF50FEF7BBFA46E03448007827
:10371000012842D100203349087001203249087045
:1037200000203249087029481030006840F21A31F0
:10373000084326491031086007FB04F14022049831
:10374000FEF762FC2148006840F008001F4908604D
:103750004FF0FF3500E06D1E2548006800F0006066
:1037600008B9002DF7D11DB9FEF74CFE042070E614
:103770004FF0FF3500E06D1E1C48007820B9194855
:10378000007808B9002DF6D10DB9042061E615487E
:10379000007810B1134800785BE640F2FF50FEF766
:1037A0006FFA02A8FDF74CFF064603E002A8FDF7FA
:1037B00047FF06463EB99DF808000728F6D09DF859
:1037C00008000628F2D0304643E600002C2C0140C9
:1037D000C4A10020AC000020B0A10020B000002057
:1037E000B4000020B6000020B5000020B700002083
:1037F000006402402DE9F05F82468B469146984670
:103800000026274C40E0B9F1000F3AD02078B8BB31
:103810002448B0F90000401C864205D121480088A8
:10382000401C00B21F49088001F054FF054647467E
:103830004FF6FF70874201D2384601E04FF6FF7025
:10384000074619480068A8420AD917480068401B73
:10385000B84205D9E81914490860384606F054FB07
:10386000C4F80890C4F804A0C4F80CB008EB050034
:1038700020610A986061012020703046BDE8F09F09
:10388000FFE7701C06B218340648B0F90000401C6F
:10389000864201DC082EB6DB4FF0FF30EEE7000079
:1038A00074A40020DC000020D80000200CB500200B
:1038B000019000903448006840F48030324908603C
:1038C00000BF3148006800F4003000900198401CAF
:1038D0000190009818B90198B0F5A04FF1D12A488D
:1038E000006800F4003010B10120009001E00020D9
:1038F00000900098012846D123484030006840F0ED
:1039000080502149403108602048006840F4404020
:103910001E4908601C48083000681B4908310860CF
:103920000846006840F4004008600846006840F41B
:10393000A05008601648091F0860081F006840F082
:103940008070091F086000BF0F48006800F0007019
:103950000028F9D040F205700E4908600A48083086
:10396000006820F003000849083108600846006834
:1039700040F00200086000BF03480830006800F013
:103980000C000828F8D10CBD00380240007000403F
:1039900008544007003C024001464FF480620A8010
:1039A00020220A81044A4A60044A0A6100228A816C
:1039B000CA814A818A827047189D002018A1002080
:1039C00070B504460D46204606F030F970BD000083
:1039D00010B500BF102080F31188BFF34F8FBFF3E5
:1039E0006F8F00BF07F0D4FC18B14FF0805004492E
:1039F000086000BF002080F3118800BF10BD0000E8
:103A000004ED00E010B51548006840F4700013495B
:103A100008601348006840F0010011490860002068
:103A20000F49083108600E4800680E4908400C49EB
:103A300008600D48091D0860081F006820F48020F8
:103A4000091F0860002006490C310860FFF72EFFAF
:103A50004FF0006001498039086010BD88ED00E03A
:103A600000380240FFFFF6FE1030002410B501219F
:103A7000064800F012F840B105480068401C0449AF
:103A800008600121014800F005F810BD0010004059
:103A900014000020CA430282704730B5024600205D
:103AA00000230024158A05EA0103958905EA01042B
:103AB00013B10CB1012000E0002030BD2DE9F04130
:103AC00004460E4617468220005DE0B3022F04D064
:103AD000032F03D0052F37D101E000BF00BF61697C
:103AE0000989606800EBC108A6EB0800C0F3C705B0
:103AF00005EBC502A16801EB4201B1F90200FDF737
:103B0000C3FB05EBC502A16801EB4201488005EB50
:103B1000C502A16801EB4201B1F90400FDF7B4FB55
:103B200005EBC502A16801EB42018880002005EB8E
:103B3000C502A16801F8120029462046FDF7ACFE37
:103B40000020BDE8F08101E000BF00BF0020F8E7E1
:103B50002DE9F0414FF6FF7601F0BCFD07462948FC
:103B6000006800EB07080025274C25E0207800F0CE
:103B70000100F0B12069404513D8606910B90220F6
:103B8000207016E06069B7FBF0F100FB117061690D
:103B9000081A2061032020702069B04209D22669EA
:103BA00007E02069A0EB080020612069B04200D244
:103BB0002669681C05B218341448B0F90000854223
:103BC000D4DD10480660304606F09EF900250E4C04
:103BD00010E0207800F0020048B1207820F00200C8
:103BE0002070A06818B1D4E9022160689047681C71
:103BF00005B218340548B0F900008542E9DDBDE89A
:103C0000F0810000D800002074A40020DC00002017
:103C100010B500BF1021EFF3118081F31188BFF3BD
:103C20004F8FBFF36F8F00BF044640F22441074817
:103C300000F03FF920B1FDF7B5FC044800F0F2F9BF
:103C400000BF84F3118800BF10BD000000100140C8
:103C500010B588B00446FDF749F901210846FDF783
:103C6000DBFE01211020FDF707FF07220921334861
:103C7000FDF738FC07220A213048FDF733FC4FF4EA
:103C80000070029002208DF80C008DF80D000020CD
:103C90008DF80E0001208DF80F0002A92748FDF7CE
:103CA000D9FB4FF48060029002A92448FDF7D2FBB3
:103CB000234800F079F804940020ADF81400ADF822
:103CC0001600ADF81800ADF81C000C20ADF81A0075
:103CD00004A91B4800F03CF925208DF804000220BF
:103CE0008DF8050000208DF8060001208DF80700F2
:103CF00001A8FDF73BFD012240F22441104800F0ED
:103D000002F901210E4800F02EF840F224410C483F
:103D100000F0CFF80A4800F085F901224021084858
:103D200000F02DF801228021054800F028F84021FC
:103D3000034800F00FF808B010BD0000000002407A
:103D4000001001400246182901D200207047134696
:103D50001846FBE701F40072B2F5007F00D100BF06
:103D6000CA430280704721B1828942F400528281A5
:103D700004E082894DF6FF731A40828170471AB1C0
:103D8000838A0B43838202E0838A8B43838270475A
:103D900070B504460D462A4621460248FDF75EFAF4
:103DA00070BD00008864024010B504463248844269
:103DB00008D101211020FDF76FFE00211020FDF732
:103DC0006BFE57E02D48844209D101214804FDF7DC
:103DD00043FE00214FF40030FDF73EFE4AE0284844
:103DE000844209D101218804FDF736FE00214FF4F9
:103DF0008020FDF731FE3DE02248844209D10121B7
:103E0000C804FDF729FE00214FF40020FDF724FE31
:103E100030E01D48844209D101210805FDF71CFE50
:103E200000214FF48010FDF717FE23E0174884426D
:103E300008D101212020FDF72FFE00212020FDF7D1
:103E40002BFE17E01248844209D101218807FDF7B3
:103E500003FE00214FF08040FDF7FEFD0AE00D4813
:103E6000844207D101214005FDF7F6FD00216005E0
:103E7000FDF7F2FD10BD00000010014000440040BD
:103E800000480040004C0040005000400014014039
:103E900000780040007C004002460020B1F5007F21
:103EA00000D100BF13880B400BB1012000E00020BF
:103EB000704770B50246002400230025002040F61C
:103EC0006A16B14200D100BFC1F3421501F01F03D1
:103ED000012606FA03F3012D02D19689334006E04C
:103EE000022D02D1168A334001E0968A33400C122B
:103EF000012606FA04F41688344013B10CB10120EF
:103F000000E0002070BDF0B5034600240026002527
:103F1000002040F66A17B94200D100BF1846C1F32D
:103F2000421401F01F06012707FA06F5012C01D102
:103F30000C3004E0022C01D1103000E014301AB132
:103F400007682F43076002E00768AF430760F0BDD2
:103F50002DE9FF4705460E460024A14600BFA046B6
:103F6000B08900B100BF2C8A24F44054F088044387
:103F70002C82AC8941F20C608443B08831890843BB
:103F8000718908430443AC81AC8A24F44074B0893D
:103F90000443AC826846FDF78FFD2048854202D07D
:103FA0001F48854202D1DDF80C9001E0DDF8089051
:103FB000A88900F4004040B109EBC90000EB0910EA
:103FC00031684900B0FBF1F707E009EBC90000EBED
:103FD000091031688900B0FBF1F76420B7FBF0F0FD
:103FE00004012009642101FB1078A88900F4004035
:103FF00040B1322000EBC800B0FBF1F000F0070048
:10400000044308E0322000EB08106421B0FBF1F01B
:1040100000F00F0004432C81BDE8FF870010014031
:104020000014014001468888C0F30800704700BFB3
:10403000FEE770470FB4054B10B503A9044A029878
:1040400000F0B8F810BC5DF814FB0000B956000889
:10405000F42300200FB4084B10B504A902AA03985A
:1040600000F0A8F8044602A9002000F0B7FE2046A0
:1040700010BC5DF814FB0000DD4D000802E008C82C
:10408000121F08C1002AFAD170477047002001E0D2
:1040900001C1121F002AFBD1704700002DE9FC5F0F
:1040A00081468A4614469846DDE90C6B01AA5146C2
:1040B0004846D9F8E83198470546019810B101986B
:1040C000BDE8FC9F2879A04209DC2C4800231A4651
:1040D00021460090504600F099FE2848F0E70E98DF
:1040E00080B1286800EB0410007800F0010048B1AE
:1040F000234800231A4621460090504600F086FED1
:104100001F48DDE7B8F1000F02D14FF00060D7E79C
:10411000286800EB041040683168884206D9286896
:1041200000EB0410406830601648C9E7286800EBCF
:10413000041040788BF80000286800EB04104768F2
:10414000286800EB04103A4681684046FCF79CF86A
:104150009BF80000092801D037600DE0286800EBCB
:10416000041040683168884205D2002008F8070032
:10417000781C306000E037600020A1E711000906DC
:10418000010001060500040570477047704770473D
:1041900070477047704710B5029C10BD704710B54E
:1041A0000446206A007820B981220021204601F0CF
:1041B00006FD10BD2DE9FF4F8DB09B460F4604460E
:1041C000002606E025280BD05A460F999047641C1C
:1041D000761C20780028F5D111B03046BDE8F08F6C
:1041E0000025A8460122984900E0054314F8013F44
:1041F000203B02FA03F00842F7D120782E2817D18D
:1042000014F8010F45F004052A280ED06FF02F0294
:104210002078A0F1300109290AD808EB880102EBC7
:10422000410100EB0108641CF2E757F8048B641CA1
:1042300020786C280DD004DC4C2812D06A2811D1CB
:1042400004E074280DD07A280CD10AE045F400155A
:1042500007E0617845F48015814202D1641C05F5C0
:104260008015641C2278692A45D008DC002AB3D066
:10427000582A69D0632A10D0642A08D13BE0702AFA
:1042800067D0732A13D0752A5CD0782A5CD0104688
:104290005A460F999047761CD3E017F8040B8DF817
:1042A000000000208DF80100E946012003E057F8E6
:1042B000049B4FF0FF3069074FF0000501D40AE07E
:1042C0006D1C45450DDA8542FADB19F80510002909
:1042D000F6D106E06D1C8542FCDB19F805100029BB
:1042E000F8D12E4404E019F8010B5A460F99904773
:1042F0006D1EF8D2A5E00A200021CDE90801C5F322
:10430000025002280DD001CFC117031E71F1000326
:104310000DDA4FF0000CD0EB0C006CEB01012D23FB
:1043200008E0FF1D27F00707F7E80201EDE72B057E
:1043300004D52B238DF8283001233BE0EB0739D03F
:104340002023F7E70A2000E010200021CDE9080132
:1043500007E01020002145F00405CDE908014FF0E9
:104360000808C5F3025002280FD001CF00214FF0FA
:10437000000A2B071FD5702A0DD0DDE908C38CF089
:10438000100C5CEA030C0CD015E0FF1D27F00707AA
:10439000F7E80201EBE740228DF828204FF0010AF0
:1043A0000BE050EA010306D030238DF828308DF859
:1043B000292002239A46582A04D024A20DF120096C
:1043C0000B9209E026A2F9E7DDE90823FBF79DFF40
:1043D0000B9B9B5C09F8013D50EA0102F4D1ADEB67
:1043E000090020300890680701D44FF001080899AF
:1043F000884502DDA8EB010000E000208046002592
:1044000006E00AA85A46405D0F9990476D1C761C3D
:104410005545F6DB04E030205A460F999047761C4C
:10442000B8F10001A8F10108F5DC05E019F8010B6D
:104430005A460F999047761C0899481E0890002903
:10444000F4DC641CC5E60000092801003031323379
:1044500034353637383961626364656600000000C0
:1044600030313233343536373839414243444546AA
:104470000000000070B505460B4642F27804181B98
:10448000A34270D070DC42F20604A3EB0400A34206
:104490006BD077DC41F20244A3EB0400A3426FD05F
:1044A0002DDC41F21204A3EB0400A34269D00EDC20
:1044B000A3F5805012286DD2DFE800F0F1F06CEF28
:1044C0006CEE6C6CED6C6C6CECEB6C6CEAE90628D9
:1044D00061D008DC01285FD002285ED004285DD0BE
:1044E000052857D1C3E10E2859D0B0F5F77F57D032
:1044F000A0F2EE30002854D00128F2D1C1E140F200
:10450000FE56841BB04278D01DDC40F20126A0EBA1
:104510000604B04272D00BDC012870D0B0F5FF7FEA
:104520006ED0A0F2FF1000286BD00128D9D1B2E1E3
:10453000A4F2FD14002C7DD0012C7CD0022C7BD069
:10454000032CCED1B1E140F20166A01BB44274D07D
:104550000DDC012C72D0022C71D0032C70D0B4F57C
:10456000C06FBED1B0E126E253E0BCE10AE0012811
:1045700067D0022866D0032877D00428B1D1B0E1F3
:1045800081E16CE11D2871D01CDCA0F102001B2828
:1045900091D207E0F0E06CE163E164E165E16AE19A
:1045A0006BE16CE1DFE800F0EBEAE9E8E7E8E8E876
:1045B000E6E5E4E3E2E1E0DFDEDDDCDBE8E8E8E8D5
:1045C000DAD9D8002A286BD00BDCA0F11E000B280A
:1045D000DED2DFE800F0E2E1E0DFDEDDD1D1DCDBDE
:1045E000DA0066287CD00DDC2B287AD05C2879D0C4
:1045F000632878D0652899D1D3E158E14DE144E1B1
:1046000045E146E16A286FD06B286ED06E288DD1C7
:10461000CFE143F6EC76841BB04267D067DCB0F59F
:10462000E47F72D046DC4C2870D020DC05286ED0A8
:1046300012DC08E033E134E135E147E13EE13FE1FE
:1046400040E145E149E1012875D0022874D00328F2
:1046500073D0042885D1B6E108286FD009286ED020
:104660000A286DD0492889D1B7E138E169E140F2E3
:104670009916841BB0426AD013DC7C2868D0882845
:1046800067D0892866D0B0F5CC7FB4D1AFE1E4E043
:10469000E1E0DEE0DBE0D8E0D5E0D2E0CFE0CCE066
:1046A00077E1012C57D0022C6AD00F2C69D01F2C37
:1046B000A1D1A6E143F68F76841BB04262D027DCFD
:1046C000B0F5627F5FD013DCB0F5227F5CD0A0F242
:1046D0008920002862D0012861D002288BD19AE17C
:1046E00061E158E159E15AE15FE160E1B1E128E0BF
:1046F000A0F28930002853D00F2852D0102851D072
:10470000A0F6FE300028A5D18FE17CE167E15CE1F5
:10471000572C75D008DC392C73D03A2C72D0542C1D
:1047200071D0552C96D18AE1592C6DD05A2C6CD071
:104730005B2C8FD18BE140E141E142E147E148E16F
:1047400049E1262C78D043DC262C15D22BE050E111
:1047500047E148E149E14EE1F1E0EEE0EBE0E8E07D
:10476000E5E0E2E0DFE0DCE0D9E0D6E0D3E0D0E075
:10477000CDE0C8E0C5E0C2E006E1BEE0BBE0B4E0E9
:104780003BE13CE153E148E13FE100E1FDE0E6E0EF
:10479000E3E0E0E0DDE0DAE0D7E0D4E037E138E183
:1047A0003DE13EE13FE1DFE804F0EFEEEFEDECEB61
:1047B000EFEAE9E8E7EFEFEFEFEFEFEFEFEFE6EF2C
:1047C000E5EFE4E3EFE2EFE1EFE0DFDEDDEFEFDC8A
:1047D000602C6ED01ADC342C6CD008DC272C6AD00C
:1047E000282C69D0292C68D02A2C8CD161E1352C59
:1047F00070D0362C6FD05C2C6ED05E2C92D162E1E2
:104800001FE116E117E118E11DE11EE19B2C6ED0BE
:1048100008DC612C6CD0922C6BD0952C6AD0972C34
:1048200087D15AE1A4F29E34002C6ED00E2C6DD0AC
:10483000B4F5807FD9D158E133E100215BE101215A
:1048400059E1022157E1032155E1042153E10521FA
:1048500051E106214FE107214DE108214BE10921FA
:1048600049E10A2147E10B2145E10C2143E10D21FA
:1048700041E10E213FE10F213DE110213BE11121FA
:1048800039E1122137E1132135E1142133E11521FA
:1048900031E116212FE117212DE118212BE11921FA
:1048A00029E11A2127E11B2125E11C2123E11D21FA
:1048B00021E10AE1FFE0F6E0F7E0F8E01E211AE16D
:1048C0001F2118E1202116E1212114E1222112E10A
:1048D000232110E1F1E0F2E0F3E024210BE12521B6
:1048E00009E1262107E1272105E1282103E1F6E07E
:1048F000EDE0EEE0EFE02921FDE02A21FBE02B21B5
:10490000F9E02C21F7E02D21F5E0EAE0EBE02E21A3
:10491000F1E02F21EFE03021EDE03121EBE0322119
:10492000E9E03321E7E03421E5E03521E3E0362119
:10493000E1E03721DFE03821DDE03921DBE03A2119
:10494000D9E03B21D7E03C21D5E03D21D3E03E2119
:10495000D1E03F21CFE04021CDE04121CBE0422119
:10496000C9E09CE099E096E093E090E08DE08AE079
:1049700087E084E081E07EE07BE078E075E072E053
:104980006FE06CE069E066E0B1E04321B3E0442110
:10499000B1E04521AFE04621ADE04721ABE0482141
:1049A000A9E04921A7E04A21A5E04B21A3E04C2141
:1049B000A1E04D219FE04E219DE04F219BE0502141
:1049C00099E0512197E0522195E0532193E0542141
:1049D00091E055218FE056218DE057218BE0582141
:1049E00089E0592187E05A2185E05B2183E05C2141
:1049F00081E05D217FE05E217DE05F217BE0602141
:104A000079E0612177E0622175E0632173E0642140
:104A100071E065216FE066216DE067216BE0682140
:104A200069E0692167E06A2165E06B2163E06C2140
:104A300061E06D215FE06E215DE06F215BE0702140
:104A400059E0712157E0722155E0732153E0742140
:104A500051E075214FE076214DE077214BE0782140
:104A600049E0792147E07A2145E07B2143E07C2140
:104A700041E07D213FE07E213DE07F213BE0802140
:104A800039E0812137E0822135E0832133E0842140
:104A900031E085212FE086212DE087212BE0882140
:104AA00029E0892127E08A2125E08B2123E08C2140
:104AB00021E08D211FE08E211DE08F211BE0902140
:104AC00019E0912117E0922115E0932113E0942140
:104AD00011E095210FE096210DE097210BE0982140
:104AE00009E0992107E09A2105E09B2103E00548B0
:104AF0001060002070BD00BF00201060024800EB75
:104B0000C100F7E700000206A0B700082DE9FE4F3C
:104B100004460F46002500264FF003096069B0F8EF
:104B200008806069B0F80AA0A069B0F808B08220D7
:104B3000005D10B90020BDE8FE8FB8F1000F73D002
:104B40000020009001900290A6E0B9F1030F06D07A
:104B5000B9F1050F6AD0B9F10B0F68D18CE060682C
:104B600050F838008069006800F0004010B14FF044
:104B70000B0990E0606850F83800866A4FB33078CF
:104B8000012826DB3078F02823DC05EBC501A0687E
:104B900010F81100401CC0B205EBC502A16801F875
:104BA00012003178884214D1002005EBC502A168BB
:104BB00001F812000090019002906A4629462046B2
:104BC00000F056FA10B14FF00B0964E04FF0050900
:104BD00049E057B33078FC282AD105EBC501A0681D
:104BE00000EB4100821D2946204600F041FA60B1E9
:104BF00005EBC501A06810F8110020F0010005EBDD
:104C0000C502A16801F812000BE005EBC501A06820
:104C100010F8110040F0010005EBC502A16801F891
:104C200012004FF00B0936E03AE001E01CE030E002
:104C30000FB1307870B1A7B93078FF2802D0307842
:104C4000FE280ED105EBC501A06810F8110000F098
:104C5000010030B92946204604F0AEFE4FF00B09A2
:104C600001E04FF00B0916E06A462946204604F0A1
:104C70004DFF4FF00B090EE0681CC5B208F10100B2
:104C80001FFA80F80AF101001FFA80FA4FF00309B9
:104C900001E0FF204FE700BFD8457FF756AF00BFC8
:104CA000002048E72DE9FF4F83B080468B4615462C
:104CB000109C02AA59464046D8F8E8319847064663
:104CC000029818B1029807B0BDE8F08F3079A84279
:104CD00009DC3F480090002229465846236800F02E
:104CE00095F83B48EFE7119878B1306800EB051074
:104CF0000078022809D137480090002229465846FA
:104D0000236800F083F83348DDE7306800EB0510D6
:104D100090F80190306800EB05104768306800EBB0
:104D20000510D0F80CA0206810B12068B84243D814
:104D3000D8F824204846069990470290029848B136
:104D4000029800903A4629465846236800F05EF8DB
:104D50000298B8E7316801EB051188682268069966
:104D6000FBF792FAB9F1090F09D12068B84206D2CF
:104D70000020316801EB051189682268885427609A
:104D8000BAF1000F08D02A4631464046D04702907B
:104D9000029808B1029896E7306800EB0510007899
:104DA00000F0040030B12A4659464046D8F8EC31AC
:104DB000984788E7002086E72760074800903A4632
:104DC00029465846236800F021F803487BE7000095
:104DD0001100090602000106100007060A68531CAC
:104DE0000B6010707047704703460020704700004A
:104DF00002469F2A04D1087808B10348704700BFD3
:104E000000BF0020FAE700003000090630B5054673
:104E1000039C002030BD000070B50546304800EB13
:104E200005142068804700283ED02079052802DA42
:104E30000520207152E020790A2803DA2079401CED
:104E400020714BE0A07A38B90120A07205EB450132
:104E5000491CC8B200F0FCF8208900283EDDE0883B
:104E6000218988420DDAE088401C80B2E0802189E7
:104E7000884233D105EB4501C91CC8B200F0E8F8FF
:104E80002CE0E07A002829DD207B401CC0B2207392
:104E9000E17A884222DB0020207305EB4501491CA2
:104EA000C8B200F0D5F819E02079052802DD052008
:104EB000207110E0207918B12079401E20710AE09D
:104EC000A07A012807D10020A07205EB4501891CBA
:104ED000C8B200F0BDF80020E080207370BD000073
:104EE00058A100200B48807A0A4AD27A904201D118
:104EF000002070470748807A064A115C1046807A85
:104F0000401CC0B290720A2801DB00209072084653
:104F1000EFE7000088A1002010B504464FF4407070
:104F2000FCF760FC1821201DFEF70CFF20600C49E7
:104F3000206808602068FEF72FFD4FF4E130FEF78F
:104F400087FE226811885068FEF722FF00F00AF8F9
:104F5000FCF7EAFBFDF756FA04F0DEFF10BD000097
:104F6000A800002010B500F02DF800F001F810BDE9
:104F70001CB501211120FCF74FFD00208DF8040025
:104F80008DF8060001208DF8070002208DF805003D
:104F90001020009069460948FCF75CFA0820009050
:104FA00069460648FCF756FA02208DF807000120F2
:104FB000009069460248FCF74DFA1CBD0010024003
:104FC000000002400021174A9172D1721173002033
:104FD00018E06421144A02EB001211810221124AE6
:104FE00002EB0012117100210F4A02EB00129172C4
:104FF0000D4A02EB0012D1720B4A02EB0012117340
:10500000411CC8B20328E4DB642207490A83052255
:10501000CA760649044A11600549116105491162C1
:105020007047000088A1002058A10020E116000868
:10503000F91600081117000810B5002404E02046F6
:10504000FFF7EAFE601CC4B2032CF8DB10BD0000C1
:105050000649C97A054A50541146C97A491CC9B251
:10506000D1720A2901DB0021D172704788A100208A
:105070002DE9F04F8DB004468846154661690989CF
:10508000606800EBC10000EBC8000C9061694989C1
:10509000606800EBC10000EBC80B4FF00009002670
:1050A000DBF8000080680B900C980068806900882D
:1050B000C0F30A0028800020A87000BF00200890DC
:1050C000099009F10100DBF8001001EB0010D0F8A5
:1050D00008A0DAF80000000C07909AF800707FB37F
:1050E000F01940282CD8781E012101EBD000069041
:1050F000BAF80000C0F307200590012000210AAA99
:1051000006ABCDE90032CDE9021008AB2046059A86
:105110000799FEF7C3FF18B1FF200DB0BDE8F08F6F
:10512000002206F00700291D01EBD601CDE901029E
:105130000091F8B2134608A9FBF7D3FD3E4400BF27
:1051400009F1010000F0FF090B9800784845B5DC33
:10515000701E012101EBD000E8700020DDE770B582
:1051600004460D462E88F0110F2843D2DFE800F0E8
:105170003A08191A1B1C1D1E1F2021292A42320021
:10518000802E06D18020005D50B1204603F0F0FD56
:1051900006E07F20005D18B12946204600F0BCFDE6
:1051A00028E000BF00BF00BF00BF00BF00BF00BFBE
:1051B00000BF8220005D18B12946204600F0C6FEDF
:1051C00018E000BF7E20005D18B12946204601F09E
:1051D0002BF80FE08120005D18B12946204600F031
:1051E00029FE07E0206A007818B12946204600F021
:1051F000B0FD00BF00BF70BD3EB505460C460120A6
:105200008DF8010000208DF8020001208DF80300C8
:105210005C48854258D101210220FCF7FDFB0922A0
:1052200008215948FCF75EF9092211465648FCF757
:1052300059F94FF44070019002208DF808008DF864
:10524000090000208DF80A0001208DF80B0001A94B
:105250004D48FCF7FFF801214806FCF7EDFB284616
:10526000FBF7BCF94948FBF77FFB002047498871F1
:10527000C871087248728872C8728870C870052038
:105280000871062048710C802846FBF750FA002070
:105290003F498872C8720120087300200880488046
:1052A0008880C8800881012048730846FBF7B2F95E
:1052B000012202212846FBF731FA14208DF8000064
:1052C0006846FCF753FA5AE001210220FCF7A4FBE0
:1052D000092205212C48FCF705F9092206212A4854
:1052E000FCF700F96020019002208DF808008DF88D
:1052F000090000208DF80A0001208DF80B0001A99B
:105300002148FCF7A7F801218806FCF795FB284601
:10531000FBF764F91D48FBF727FB00201B49887148
:10532000C871087248728872C8728870C870052087
:105330000871062048710C802846FBF7F8F90E200A
:10534000FBF7F8FA0E20124988720020C87201207B
:1053500008730020088048808880C8800881012068
:1053600048730846FBF756F9012202212846FBF74D
:10537000D5F940208DF800006846FCF7F7F90120C8
:105380003EBD0000006400400004024058A400201C
:1053900064A40020F0B585B007460C462088009034
:1053A00000200190A0788DF8090000208DF80800F9
:1053B000E0788DF80A00002506E0201D415D0DF122
:1053C0000B004155681CC5B2E078A842F5DC69467F
:1053D0003846FBF7D9FA0646042E02D1002005B064
:1053E000F0BD0120FBE700008AB000200790089084
:1053F000099000221821142005F0A4FC2649086019
:105400000846006840B906E024A0FEF713FE4FF4FA
:105410007A7005F0A3F8F7E73CE00023642201A9C5
:105420001D48006805F0BAFC002833D024A0FEF720
:1054300001FE029880B2ADF81C009DF811008DF8B5
:105440001E009DF812008DF81F00002405E00DF1EC
:105450001300015D08A80155641C9DF81F00A042BF
:10546000F5DC1E48006848B19DF80400012805D10C
:105470001A49086807A9FFF772FE0BE01748406851
:1054800040B19DF80400022804D11449486807A9D6
:10549000FFF765FEC1E70000BC00002043726561B4
:1054A00074207468652043414E4F70656E205175BD
:1054B000657565206661696C656421200D0A0000D0
:1054C0007468726561642067657420612063616E31
:1054D000207061636B6567650D0A0000C4000020E1
:1054E0001CB50948052100234FF40072CDE90010D6
:1054F00006A1084805F006FF0348006810B906A099
:10550000FEF798FD1CBD0000C000002043414E4F37
:1055100070656E00E953000843414E4F70656E2080
:105520006461746170726F6365737320746872650F
:1055300061642063726561746564206661696C658D
:1055400064210D0A000000000146002002E049101D
:10555000421CD0B20129FAD1704700002DE9F04178
:1055600007463E4656B900BF102080F31188BFF3AE
:105570004F8FBFF36F8F00BF00BFFEE71348006877
:10558000864201D100241EE004F0EAFE756904F0B1
:1055900011FF0F480068854203D00E48006885421D
:1055A00001D102240FE00C48854205D1B06A08B948
:1055B000032408E0022406E00848854200D00DB923
:1055C000042400E001242046BDE8F08128000020EA
:1055D0002C00002030000020DC240020C824002003
:1055E00010B50446054B002241F203012046FCF7AA
:1055F000D7FA0020D4F80C12087010BD6D180008FE
:1056000070472DE9FE4F04460F4615469946DDE9E1
:105610000CA802AB2A463946204600F092F806460E
:1056200036B9012D04D19DF80810204604F093F9F5
:105630009EBB022D31D19DF80810C1EBC10101EBD9
:10564000410204F1280101EB8201B1F94C00FBF7A2
:105650001BFE9DF80810C1EBC10101EB410204F1F2
:10566000280101EB8201A1F84C0085219DF808007A
:10567000C0EBC00000EB400204F1280000EB820008
:1056800081709DF80800C0EBC00000EB400104F100
:10569000280000EB8100C0F804804B463A462946BA
:1056A0002046CDE900A804F098FA064616B1FF207E
:1056B000BDE8FE8F0020FBE700BF054A128802F01C
:1056C0004002002AF9D0C2B2014B9A807047000014
:1056D000001001400648016806480068814203D96D
:1056E00004480068081A704702480068401AFAE740
:1056F000D0000020D40000200146086800787047E0
:1057000030B503460C46002117E0C1EBC10000EBA9
:10571000400503F1280000EB8500807858B911702E
:10572000C1EBC10000EB400503F1280000EB850050
:105730004470002030BD481CC1B20129E5DBFF20C8
:10574000F8E770B504460D4600212FE0C1EBC1001B
:1057500000EB400604F1280000EB8600807818B3C7
:10576000C1EBC10000EB400604F1280000EB86000D
:105770008078852818D0C1EBC10000EB400604F109
:10578000280010F82600A8420ED1C1EBC10000EBA2
:10579000400604F1280000EB86004078904203D1D7
:1057A00003B11970002070BD481CC1B20129CDDBC6
:1057B000FF20F8E730B50346C1EBC10000EB400421
:1057C00003F1280000EB8400C06810B900201060CD
:1057D00013E0C1EBC10000EB400403F1280000EB33
:1057E0008400C468C1EBC10000EB400503F1280050
:1057F00000EB85000069201A1060002030BD000019
:10580000F8B50446204B002241F217012046FCF770
:10581000C7F9002084F8E001002516E0D4F8A000C4
:1058200030F8250086B276B10020009006EB4600E5
:10583000C0EBC613154A29462046FDF7DBFFD4F816
:10584000A41021F81500681CC5B2D4F89C0000789B
:10585000A842E3DCD4F8A800008898B1D4F8A800E6
:10586000068806EB4600C0EBC610009006EB46002B
:10587000C0EBC613064A00212046FDF7BBFFA4F883
:10588000AC0000BFF8BD00000D180008B10C000806
:10589000D119000870B5044600250BE0D4F8A41017
:1058A00031F91500FBF7F0FCD4F8A41021F815002D
:1058B000681CC5B2D4F89C000078A842EEDCB4F9AC
:1058C000AC00FBF7E1FCA4F8AC0070BD2DE9F84397
:1058D00004460D4617469846DDE90896022E05D087
:1058E000032E03D0042E01D0052E12D10020664BCA
:1058F000664A294600902046FDF77CFFC5EBC501AE
:1059000001EB410204F1280101EB8201A1F84C00F6
:1059100015E0C5EBC50101EB410204F1280101EBE3
:105920008201B1F94C00FBF7AFFCC5EBC50101EBFF
:10593000410204F1280101EB8201A1F84C00C5EB02
:10594000C50000EB400104F1280000F82170C5EB10
:10595000C50000EB400104F1280000EB8100A0F835
:105960000880C5EBC50000EB400104F1280000EB06
:10597000810080F80A90C5EBC50000EB400104F1FE
:10598000280000EB810086700021C5EBC50000EB0C
:10599000400204F1280000EB8200C170C5EBC50095
:1059A00000EB400204F1280000EB8200C160C5EB6F
:1059B000C50000EB400204F1280000EB8200016109
:1059C000C5EBC50000EB400204F1280000EB8200AB
:1059D00080F83410C5EBC50000EB400204F128004C
:1059E00000EB820080F83510C5EBC50000EB4002EB
:1059F00004F1280000EB820080F83610C5EBC500EA
:105A000000EB400204F1280000EB82008163C5EB4B
:105A1000C50000EB400204F1280000EB8200C163E6
:105A2000C5EBC50000EB400204F1280000EB82004A
:105A300080F84010C5EBC50000EB400204F12800DF
:105A400000EB820080F84110C5EBC50000EB40027E
:105A500004F1280000EB820080F84210C5EBC5007D
:105A600000EB400204F1280000EB820080F84B10AC
:105A7000C5EBC50000EB400204F1280000EB8200FA
:105A800001650020BDE8F883D8B80500A51D000811
:105A9000002002490860024908607047D0000020D9
:105AA000CC00002010B504462046FFF7A9FE204692
:105AB00000F09CF810BD10B504462046FFF7EAFE42
:105AC000204600F0D9F810BDF0B504461D46C1EBE4
:105AD000C10000EB400704F1280000EB87000069DB
