:020000040800F2
:100000002081002065020008090F0008B50D0008D6
:10001000050F0008610400088D3000080000000092
:10002000000000000000000000000000AD0100081A
:10003000A90A00080000000001020008A92B00081E
:100040007F0200087F0200087F0200087F0200088C
:100050007F0200087F0200087F0200087F0200087C
:100060007F0200087F0200087F0200087F0200086C
:100070007F0200087F0200087F0200087F0200085C
:100080007F0200087F0200087F0200087F0200084C
:100090007F0200087F0200087F0200087F0200083C
:1000A0007F0200087F0200087F0200087F0200082C
:1000B0007F0200087F0200087F0200087F0200081C
:1000C0007F0200087F0200087F0200087F0200080C
:1000D0007F020008952C00087F0200087F020008BC
:1000E0007F0200087F0200087F0200087F020008EC
:1000F0007F0200087F0200087F0200087F020008DC
:100100007F020008291200087F0200087F02000811
:100110007F0200087F020008452C00087F020008CB
:100120007F0200087F0200087F0200087F020008AB
:100130007F0200087F0200087F0200087F0200089B
:100140007F0200087F0200087F0200087F0200088B
:10015000650600087F020008850600087F02000887
:100160007F0200087F0200087F0200087F0200086B
:100170007F0200087F0200087F0200087F0200085B
:100180007F0200087F020008DFF80CD000F0E2F8E0
:1001900000480047C53600082081002030BF72B6F5
:1001A000704762B6704780F3088870472A4B196819
:1001B0000868B0E8F04F80F30988BFF36F8F4FF005
:1001C000000080F3118870470000000006480068B6
:1001D000006880F3088862B661B6BFF34F8FBFF343
:1001E0006F8F00DF00BF00BF08ED00E0DFF80C00FC
:1001F000016841F470010160704700BF88ED00E0C4
:10020000EFF30980BFF36F8F134B1A681EF0100FC6
:1002100008BF20ED108A20E9F04F106008B44FF0BD
:10022000100080F31188BFF34F8FBFF36F8F04F07E
:10023000DDF84FF0000080F3118808BC19680868E9
:10024000B0E8F04F1EF0100F08BFB0EC108A80F33A
:100250000988BFF36F8F704728000020EFF30580F7
:10026000704700000648804706480047FEE7FEE763
:10027000FEE7FEE7FEE7FEE7FEE7FEE7FEE7FEE756
:10028000DD2B00088901000840EA01039B0703D029
:1002900009E008C9121F08C0042AFAD203E011F8C5
:1002A000013B00F8013B521EF9D27047D2B201E087
:1002B00000F8012B491EFBD270470022F6E710B56B
:1002C00013460A4604461946FFF7F0FF204610BDC4
:1002D000421C10F8011B0029FBD1801A704703460D
:1002E00011F8012B00F8012B002AF9D118467047AC
:1002F0002DE9F05F0546002092469B46884606465B
:10030000814640241BE0284641464746224600F0ED
:1003100042F853465A46C01A914110D31146184626
:10032000224600F029F82D1A67EB01084F462246B5
:100330000120002100F020F817EB00094E41201E9B
:10034000A4F10104DFDC484631462A464346BDE8B5
:10035000F09F0000064C074D06E0E06840F0010306
:1003600094E8070098471034AC42F6D3FFF710FF2B
:10037000984A0008B84A0008202A04DB203A00FA0C
:1003800002F1002070479140C2F1200320FA03F3EC
:10039000194390407047202A04DB203A21FA02F0EA
:1003A0000021704721FA02F3D040C2F120029140AF
:1003B00008431946704700001CB515480121002369
:1003C0004A02CDE9001013A1154804F00FFA1548B0
:1003D000022100230A02CDE9001013A1154804F000
:1003E00005FA1548032100234FF40072CDE90010EF
:1003F00012A1154804F0FAF9144804210023CA0197
:10040000CDE9001012A1154804F0F0F91CBD000060
:1004100000000020765461736B5461736B310000EF
:10042000D544000804000020765461736B54617356
:100430006B320000514600080800002076546173BA
:100440006B5461736B330000794600080C00002088
:10045000765461736B5461736B340000A1460008DD
:1004600000BFFEE770B500254FF4803404E0802023
:1004700000F0C6FE00B103E0201EA4F10104F6D195
:1004800000BF0CB9032070BD40F2FF5000F08EFE9B
:100490002846F8E770B5044605E01648056805F0FB
:1004A000450000B100E0F8E700BF042000F0A8FE1E
:1004B00020B1042000F07AFE032070BD012000F07E
:1004C0009FFE20B1012000F071FE0120F5E70948F0
:1004D00024380068A04201D01020EEE740F2FF501F
:1004E00000F064FE03482038006808210840C0B2CC
:1004F000E3E70000342C014070B500264FF480354E
:1005000005E01148046804F0450000B103E0281E2E
:10051000A5F10105F5D100BF15B104F0040028B123
:100520000326042000F042FE304670BD012000F09A
:1005300067FE18B10126012000F038FE40F2FF509E
:1005400000F034FE3046F0E7342C014010B505E0F1
:100550000B48046804F0450000B100E0F8E700BF74
:10056000042000F04DFE20B1042000F01FFE032007
:1005700010BD40F2FF5000F019FE0020F8E7000027
:10058000342C01402DE9F04105460E464FF000089D
:1005900005E02048076807F0450000B100E0F8E7F3
:1005A00000BF042000F02CFE28B1042000F0FEFD66
:1005B0000320BDE8F081012000F022FE20B10120DF
:1005C00000F0F4FD0120F4E7124824380068A84246
:1005D00001D01020EDE740F2FF5000F0E7FD0D489C
:1005E0002038046804F4604018B9200C308040467C
:1005F000DFE704F4005008B11320DAE704F4804088
:1006000008B11020D5E704F4004008B10F20D0E76E
:100610004046CEE7342C014070B500264FF48035BB
:1006200005E00F48046804F0450000B103E0281E0F
:10063000A5F10105F5D100BF15B104F0040028B102
:100640000326042000F0B2FD304670BD04F04000E7
:1006500018B10026402000F0A9FD3046F5E7000063
:10066000342C014010B50549054800F0A1F918B136
:100670000249034800F03EF810BD00000088002049
:100680008864024010B50A490A4800F091F968B13F
:1006900000BF4021084802F033FC0028F9D004498B
:1006A000044800F027F800200449087010BD00003D
:1006B00000800028B8640240001001409000002033
:1006C0000246094B9A4201D2084801E00648103818
:1006D00001F000531BB1064B0B40C36002E0044B1A
:1006E0000B408360704700001064024000600240CD
:1006F0007D0F7D0F0246094B9A4201D2084801E066
:100700000648103801F000531BB1064B0B40C36084
:1007100002E0044B0B40836070470000106402400D
:10072000006002407D0F7D0F21B1026842F001029E
:10073000026003E0026822F00102026070470000DC
:1007400000B591B00121880500F026FC344800F086
:100750006DF84FF000600290324803904020059001
:10076000002007904FF480600890002009900A90C4
:100770000B904FF480300C9000200D9003200E90D1
:1007800000200F90109002A9254800F061F9462042
:100790008DF8040004208DF8050000208DF8060077
:1007A00001208DF8070001A800F0B0FB0122102104
:1007B0001B4800F02FF94FF020511948FFF780FF38
:1007C0001748303800F032F84FF0006002901548BA
:1007D00003900020059007904FF48060089000205F
:1007E00009900A904FF480700B9040020C9000200A
:1007F0000D9003200E9000200F90109002A9084841
:10080000303800F025F9002210210548303800F07A
:1008100001F9054902483038FFF752FF11B000BD19
:10082000B86402400410014000080020016821F073
:10083000010101600021016041608160C1600161CE
:10084000212141614A49884204D13D21484A103A58
:1008500091608CE046491831884205D14FF47461AB
:10086000434A103A916082E041493031884205D1D3
:100870004FF474113E4A103A916078E03C49483197
:10088000884205D14FF07461394A103A91606EE0A8
:1008900037496031884204D13649354A103AD1602F
:1008A00065E033497831884204D13349304A103AFF
:1008B000D1605CE02E499031884204D12F492C4A06
:1008C000103AD16053E02A49A831884205D14FF04F
:1008D0003D51274A103AD16049E02949884204D164
:1008E0003D21274A083A116041E0254918318842E4
:1008F00005D14FF47461224A083A116037E020496B
:100900003031884205D14FF474111D4A083A116004
:100910002DE01B494831884205D14FF07461184AD7
:10092000083A116023E016496031884204D1114928
:10093000134A121F11601AE011497831884204D11C
:100940000D490F4A121F116011E00D499031884284
:1009500004D10A490A4A121F116008E00849A83167
:10096000884204D14FF03D51054A121F1160704773
:10097000106002403D000020400F002000003D209C
:100980001064024021B1026842F02002026003E0DC
:10099000026822F0200202607047014600200A68C7
:1009A00002F001020AB1012000E0002070470000BF
:1009B00070B50246002000240025124EB24201D23A
:1009C000114B01E00F4B103B104E0E4036B11E266E
:1009D00006EAD124166806EA040502E0566906F024
:1009E000800501F000560EB15C6800E01C68084EFE
:1009F000344004EA010616B10DB1012000E00020E8
:100A000070BD000010640240006002403C0F3C0FCB
:100A10007D0F7D0F10B501F080034BB122B143690A
:100A200043F08003436103E0436923F080034361A3
:100A300080290BD02AB1036801F01E042343036010
:100A400004E0036801F01E04A343036010BD00002E
:100A500010B500220268134B1A40CC680B68234380
:100A60004C6923438C692343CC6923430C6A234399
:100A70004C6A23438C6A23434C6B23438C6B234384
:100A80001A430260426922F00702D1E90B34234382
:100A90001A4342610B6943604B6883608B68C36093
:100AA00010BD00003F801CF0704700002DE9FC41A4
:100AB00007460D46002600240020009001900820E3
:100AC0005B49086010204860402088600020C860B2
:100AD0004FF480600861084600F0DEFB1020FFF74D
:100AE000D9FC044614B12046BDE8FC815148008879
:100AF00000044F490860372048604020886000208B
:100B0000C8604FF480600861084600F0C5FB3720DC
:100B1000FFF7C0FC04460CB12046E5E74FF0FF307C
:100B20004549086008204860302088600220C8607D
:100B30000020086101204861084600F047FB0020C2
:100B40003B49086033204860402088600020C8602E
:100B50004FF480600861084600F09EFB3320FFF7E9
:100B600099FC04460CB12046BEE70CE04FF400109F
:100B700000F046FB38B1314800684DF82600761C7D
:100B8000022E00D307E02D484C38006840F22A615D
:100B900008400028EAD000BF082000F031FB20B157
:100BA000082000F003FB04209EE7022000F028FB51
:100BB00020B1022000F0FAFA022095E7202000F090
:100BC0001FFB20B1202000F0F1FA06208CE74FF443
:100BD000007000F015FB28B14FF4007000F0E6FA49
:100BE000072081E740F2FF5000F0E0FA009800068D
:100BF000009901F47F4140EA0120009901F47F014E
:100C000040EA1120009940EA1160686001980006EE
:100C1000019901F47F4140EA0120019901F47F012B
:100C200040EA1120019940EA1160286020465BE704
:100C3000787A00209C0000208C7A0020802C0140D3
:100C4000F0B50A4600210023002400BF3DE0012545
:100C500005FA01F3156805EA03049C4234D10568DE
:100C60004F000326BE40B543056015794E00B540E0
:100C70000668354305601579012D02D01579022DDE
:100C800016D185684F000326BE40B543856055796F
:100C90004E00B540866835438560456801268E4024
:100CA000B5434560456896798E40B6B23543456098
:100CB000C5684F000326BE40B543C560D5794E00D8
:100CC000B540C6683543C560491C1029BFD3F0BD87
:100CD000F0B5002300244D07ED0E02FA05F3CE1007
:100CE00000F1200555F826504E07F70E0F26BE409E
:100CF000B543CF1000F1200646F82750CE1000F182
:100D0000200555F8265045EA0304CE1000F12005D1
:100D100045F82640F0BD018370470000234909686B
:100D200088B223490968098881423EDB2049096865
:100D30004989491C1E4A126851811D490968C9899F
:100D4000491C1B4A1268D18119490968C989184A86
:100D500012681289914203D10021154A1268D1818B
:100D6000134909680988091A114A12681269104B57
:100D70001B68DB8922F813100D49096849890C4A60
:100D800012681289914210DD0021094A126891818E
:100D9000074A1268D181064A1268518104490968DC
:100DA000898A491C024A1268918270478C64024009
:100DB0009400002000BFFEE71CB50446002001900F
:100DC0000090224800880004214908600D204860F6
:100DD000402088600020C8604FF4806008610846A9
:100DE00000F05AFA1B480068009002E019480068B9
:100DF0000090009800F045000028F7D0012000F096
:100E0000FFF920B1012000F0D1F901201CBD042020
:100E100000F0F6F920B1042000F0C8F90320F5E74E
:100E20000C48243800680D2801D01020EEE740F26D
:100E3000FF5000F0BBF90748203800680190019886
:100E4000C0F3432020700020E0E700009C00002059
:100E5000787A0020342C01400448006900F010002A
:100E600008B9012070470020FCE700000010024094
:100E70000448006900F0080008B90120704700200C
:100E8000FCE70000001002400448006900F0010087
:100E900008B1012070470020FCE70000000002407C
:100EA0001CB50121084600F077F8C0200090012011
:100EB0008DF8040000208DF8060003208DF8050051
:100EC00001208DF8070069460348FFF7B9FEC021ED
:100ED0000148FFF720FF1CBD0000024001467822B8
:100EE0000A800A220A81054A4A60054A0A610022EC
:100EF0008A81CA814A818A827047000090790020E5
:100F0000087A002000BFFEE77047000070B500219E
:100F100000230F22C4781CB3174C246804F4E06447
:100F2000C4F5E064C4F30721C1F10404E3B20A414B
:100F300044789C40E1B28478144021430C07210E90
:100F40000E4C05786155047804F01F050124AC406F
:100F500005786D11AD0005F1E025C5F8004109E007
:100F6000047804F01F050124AC40054D0678761185
:100F700045F8264070BD00000CED00E000E400E004
:100F800080E100E002490143024A1160704700001D
:100F90000000FA050CED00E029B1064A1268024390
:100FA000044B1A6004E0034A12688243014B1A6042
:100FB000704700003038024029B1064A12680243E7
:100FC000044B1A6004E0034A12688243014B1A6022
:100FD000704700002038024029B1064A12680243D7
:100FE000044B1A6004E0034A12688243014B1A6002
:100FF000704700004438024029B1064A1268024393
:10100000044B1A6004E0034A12688243014B1A60E1
:101010007047000024380240F0B50021002200246F
:10102000022500260223324F3F6807F00C0121B150
:10103000042905D0082937D105E02E4F076036E096
:101040002D4F076033E02A4F3F1F3F68C7F380569C
:10105000274F3F1F3F6807F03F036EB1264FB7FB96
:10106000F3F7DFF88CC0ACF1040CDCF800C0CCF373
:10107000881C07FB0CF40CE01E4FB7FBF3F7DFF8FE
:1010800070C0ACF1040CDCF800C0CCF3881C07FB8A
:101090000CF4174F3F1F3F68C7F301477F1C7D00CB
:1010A000B4FBF5F7076002E0124F076000BF00BF16
:1010B0000F4F3F6807F0F0010909104F7A5C07688D
:1010C000D74047600A4F3F6807F4E051890A0B4F49
:1010D0007A5C4768D7408760054F3F6807F46041F6
:1010E000490B064F7A5C4768D740C760F0BD0000E7
:1010F000083802400024F40000127A001800002092
:101100007CB50546002400200090019000260DB11A
:10111000022600E000262248006800F0007008B1B6
:101120000E207CBD1F49098888B26946FFF7BEFCC6
:1011300004460CB12046F4E7019800F4802060B327
:10114000184800880004184908603720486040208B
:1011500088600020C8604FF480600861084600F095
:101160009BF83720FFF796F904460CB12046D8E7E4
:101170000D48066006200C49486040208860002029
:10118000C8604FF480600861084600F085F80620CA
:10119000FFF780F904462046C3E72520C1E7000099
:1011A000142C01409C000020787A0020014908603E
:1011B00070470000382C01400146034A106820F0B7
:1011C000FF00084310607047042C014000210B4BC6
:1011D00002681A601B1D42681A601A1D116821F00E
:1011E000F701D0E902231A4303691A4343691A43FA
:1011F0001143024A0832116070470000242C01405C
:1012000001460020034A12680A400AB1012000E0AA
:1012100000207047342C01400248006800F00300B1
:1012200070470000002C014010B500F07FFC10BD9D
:1012300000210A4A116847F6FF629143027D8368E4
:101240001A4343681A43C3681A4303681A4303697D
:101250001A431143014A116070470000042C0140F9
:1012600000200B490860091D0860091D0860091D60
:101270000860074924310860091D0860091D0860DD
:1012800004480349383108600020091D0860704790
:10129000002C0140FF07C0000021094B02681A60C2
:1012A0001A1D11686FF30A01D0E901231A43C368BC
:1012B0001A4303691A431143014A121D1160704712
:1012C000082C01400149086070470000002C0140D3
:1012D00070B590B004460E46154600BF1A48FFF799
:1012E0005CFB0028FAD11848FFF7A0FA4FF0006025
:1012F00001901648029003940495002005900690F2
:101300004FF48060079080000890800009900020D2
:101310000A904FF440300B9004200C9003200D9065
:101320004FF400000E9080100F9001A90648FFF7BF
:101330008FFB20210448FFF725FB01210248FFF71E
:10134000F3F910B070BD000058640240802C0140D9
:1013500070B50446002516480078032802D12725D9
:10136000284670BD1248007838B11148007801282D
:1013700003D00F480078022817D1B4F5805F02D15E
:1013800027252846EDE7E0B2FFF7BAFE054665B926
:101390000848006820F4C050064908600846006804
:1013A000204308600846006808602846D9E7000026
:1013B00098000020042C0140F0B5014600200022D6
:1013C000BE4B1B7881F85630BD4B1B88A1F85430BA
:1013D000BC4B1B681A0E93090B70C2F383034B704E
:1013E00002F003038B70B74B1B68C3F30742CA704C
:1013F000B44B1B88C3F307220A71B24B1A784A71A7
:101400005B681A0E1301CB80AE4B5B68C3F30742D7
:10141000CB8843EA1213CB8002F00F030B72A94B67
:101420009B88C3F30722D3094B72C2F380138B72DC
:10143000C2F34013CB72C2F300130B7300234B7340
:101440009E4B1B783BB19D4B1B78012B03D09B4BD4
:101450001B78032B4FD193071B0D0B61994B1A7906
:101460000B6943EA82030B61964B9B681A0E0B696A
:1014700043EA92130B61C2F3C2030B7502F0070338
:101480004B75904B9B68C3F3074253098B75C2F3AE
:101490008203CB7593075B0F0B768A4B1B89C3F3D3
:1014A00007220B7E43EAD2130B760B695B1C0024E8
:1014B000C1E912340B7E9B1C012404FA03F3DC17F0
:1014C000D1E91256A5FB037C06FB03C305FB0433DD
:1014D000C1E912730C7A0123A3400B650024D1E902
:1014E00012650B6DA6FB037C05FB03C306FB0433EF
:1014F000C1E912732EE0714B1B78022B2AD1714B7C
:101500001A7993069B0A0B616E4B9B681A0E0B6946
:1015100043EA02230B616B4B9B68C3F307420B69E1
:1015200013430B61674B1B89C3F307220B695B1CD9
:101530004FF40074A3FB04464FF480630025A4FB22
:10154000037C06FB03C304FB0533C1E912734FF4AC
:1015500000730B65C2F3801301F8193F93065B0E0D
:101560004B70584B1A7A4B7843EAD2134B7002F007
:101570007F038B70534BDB681A0ED309CB70C2F319
:1015800041130B71C2F382034B7193071B0F8B71D5
:101590004C4BDB68C3F307428B7943EA92138B71A0
:1015A000C2F34013CB7100230B7202F001034B72A4
:1015B000444B9B89C3F30722D3098B72C2F3801378
:1015C000CB72C2F340130B73C2F300134B73C2F31D
:1015D00081038B7302F00303CB733A4B1A7B5308DE
:1015E0000B7401234B74384B1B681A0ECA741939DB
:1015F000354B1B68C3F307421402CC85324B1B8862
:10160000C3F30722CB8D1343CB852F4B1A781406D7
:101610000C635B681A0E0B6B43EA02440C632A4BA3
:101620005B68C3F307420B6B43EA02240C63264B4F
:101630009B88C3F307220B6B13430B63224B1A796E
:1016400034235A54204B9B681A0E35235A541E4B90
:101650009B68C3F3074214068C631B4B1B89C3F3BF
:1016600007228B6B43EA02448C63174B1A7A8B6B0D
:1016700043EA02248C63144BDB681A0E8B6B134312
:101680008B63114BDB68C3F307423C235B5C43EA8B
:1016900012143C235C5413071C0DCC870A4B9B8906
:1016A000C3F30722CB8F1343CB87074B1A7B540816
:1016B00040235C54012441235C54F0BD9800002079
:1016C0009C000020A47A0020B47A00203EB50024BB
:1016D00001213F48FFF760FC0121C802FFF77CFCB5
:1016E0000121C802FFF788FC4FF4F8500190022056
:1016F0008DF808008DF8090000208DF80A000120FF
:101700008DF80B0001A93348FFF79AFA04200190E5
:1017100001A93148FFF794FA0C2208212D48FFF760
:10172000D7FA0C2209212B48FFF7D2FA0C220A2102
:101730002848FFF7CDFA0C220B212648FFF7C8FAFC
:101740000C2211462348FFF7C3FA0C22022122483B
:10175000FFF7BEFA00214FF40060FFF74DFCFFF7E2
:101760007FFD31208DF8000000208DF801008DF8FC
:10177000020001208DF803006846FFF7C7FB00F068
:10178000E3F8044614B900F02DF804461CB91348D8
:10179000FFF712FE044634B91049B1F8541008049A
:1017A00000F06CFD044624B94FF40060FFF7D0FD53
:1017B00004461CB10A480078032806D10020FFF730
:1017C000FBFC002000F072FD044620463EBD0000F8
:1017D0000C00400000080240000C0240C87A0020C3
:1017E0009800002038B5002401200090FFF714FD78
:1017F00010B92524204638BD4D480078042824D04F
:1018000000204C49086002204860C0208860002009
:10181000C8604FF4806008610846FFF73DFDFEF7A1
:101820006BFE04460CB12046E5E743480068434997
:1018300008604148001D006848603F480830006863
:1018400088603D480C300068C8603948007858B15D
:1018500037480078012807D035480078062803D09B
:1018600033480078022816D100203249086003204E
:101870004860402088600020C8604FF480600861A4
:101880000846FFF709FD69460320FEF77BFE044684
:101890000CB12046AFE726480078032816D1BDF8E2
:1018A000000000042349086003204860402088604D
:1018B0000020C8604FF4806008610846FFF7ECFC28
:1018C000FEF71AFE04460CB1204694E7184800784B
:1018D00004282AD0BDF8000019490860BDF80000AE
:1018E00000041449086009204860C0208860002076
:1018F000C8604FF4806008610846FFF7CDFCFEF732
:10190000FBFD04460CB1204675E70B4800680D4905
:1019100008600948001D00684860074808300068F2
:10192000886005480C300068C860002063E700004C
:1019300098000020787A0020142C0140B47A00200E
:101940009C000020A47A00202DE9F0470027002405
:1019500000260025A046A14676206E490875002085
:10196000086048608860C86008610846FFF760FC4E
:101970000320FFF7A7FC6848006840F480706649C0
:10198000086000BF12E00020644908604860886079
:10199000C8604FF4806008610846FFF77DFCFEF7E1
:1019A00061FD044604B903E0781CC7B24A2FEADBA4
:1019B00000BF14B12046BDE8F0874FF4D5705749F9
:1019C000086008204860402088600020C8604FF40C
:1019D000806008610846FFF75FFCFEF71DFE0446C5
:1019E00024B901204E4908704FF0804900204B492E
:1019F000086037204860402088600020C8604FF4AD
:101A0000806008610846FFF747FC3720FEF742FD7B
:101A10000446002C4CD135E00020404908603720B6
:101A20004860402088600020C8604FF480600861F2
:101A30000846FFF731FC3720FEF72CFD04460CB1B9
:101A40002046B8E7374849EA0000344908602920B1
:101A50004860402088600020C8604FF480600861C2
:101A60000846FFF719FCFEF771FD04460CB120464D
:101A7000A1E7294810300668012080EAD67080F07E
:101A800001086D1CB8F1000F03D14FF6FF708542BD
:101A9000C2D34FF6FF70854202D31B2420468AE74B
:101AA00006F08040061E33D002201D4908702FE04A
:101AB0001DE01D48194908600120486040208860E9
:101AC0000020C8604FF4806008610846FFF7E4FB1F
:101AD000FEF73CFD04460CB120466CE70E48103082
:101AE0000668012080EAD67080F001086D1CB8F10C
:101AF000000F03D14FF6FF708542DAD34FF6FF7027
:101B0000854202D31B24204655E703200449087070
:101B1000204650E7607A0020042C0140787A0020AB
:101B200098000020000010800080FF8010B54FF466
:101B30008070FFF765FB78B34C480078012814D11A
:101B400000204B4908600C2048604020886000203D
:101B5000C8604FF4806008610846FFF79DFB0C20C9
:101B6000FEF798FC4349087002E0002041490870E4
:101B70004148006840F480703F490860081D0068D3
:101B80004CF23A3188433C49091D086001203B4929
:101B900008703848007810BDFFE70220FFF730FBDF
:101BA00078B10220FFF702FB3348001D00684CF2B9
:101BB0003A3188433049091D086002202D490870D8
:101BC000E9E70820FFF71CFB78B10820FFF7EEFAE1
:101BD0002948001D00684CF23A3188432649091D06
:101BE0000860042023490870D5E72020FFF708FB90
:101BF00078B12020FFF7DAFA1F48001D00684CF288
:101C00003A3188431C49091D0860062019490870AB
:101C1000C1E71020FFF7F4FA78B11020FFF7C6FAF9
:101C20001548001D00684CF23A3188431249091DDD
:101C3000086005200F490870ADE74FF40070FFF70A
:101C4000DFFA80B14FF40070FFF7B0FA0A48001DC8
:101C500000684CF23A3188430749091D08600720A3
:101C60000449087097E7002095E70000A1000020D4
:101C7000787A0020A2000020382C0140A300002028
:101C80002DE9F84F8146174698460A9C4FF0000A06
:101C9000D3464D464FF0FF36B9F1000F02D1262052
:101CA000BDE8F88F00208649086086480078022841
:101CB00005D10402780A40EAC8574FEA6828002094
:101CC000814988604860401E08600120486100200A
:101CD000C86008610846FFF779FA79481838006843
:101CE00000F0007008B10E20DAE7002C21DDB4F519
:101CF000006F1EDC601E2040D8B9204601F088FC31
:101D0000009072480460102070494860402088604C
:101D10000020C8604FF4806008610846FFF7BCFAF5
:101D20001020FEF7B7FB8246BAF1000F03D05046F1
:101D3000B6E72620B4E700980001634988600846AA
:101D400044604FF0FF300860012048610220C86005
:101D5000002008610846FFF739FA5C480760112047
:101D60005A494860402088600020C8604FF4806075
:101D700008610846FFF790FA1120FEF78BFB8246B8
:101D8000BAF1000F01D050468AE751480078002888
:101D90005CD1FEF704FA18E04FF40040FFF730FA88
:101DA00078B14FF0000B06E045485430006845F824
:101DB0002B000BF1010BBBF1080FF5D32035454E7D
:101DC00003E00EB904206BE7761E3D48083000683A
:101DD00040F22A6108400028DED00820FFF710FA00
:101DE00020B10820FFF7E2F9042059E70220FFF7AD
:101DF00007FA20B10220FFF7D9F9022050E720208E
:101E0000FFF7FEF920B12020FFF7D0F9062047E7C1
:101E10004FF40070FFF7F4F928B14FF40070FFF7AA
:101E2000C5F907203CE704E02548543000682860E5
:101E30002D1D4FF40010FFF7E3F90028F4D1FEF751
:101E4000B0F940F2FF50FFF7B1F936E020480078D2
:101E5000012832D10020204908702049087020490B
:101E6000087017481030006840F22A3108431449BE
:101E7000103108601248006840F0080010490860FE
:101E8000002221464846FFF723FA00E0761E154857
:101E9000006800F0006038B91148007820B90E4899
:101EA000007808B9002EF1D10EB90420F8E60A48EE
:101EB000007810B1084890F800A05046F0E6000005
:101EC0002C2C0140980000208C7A0020787A002089
:101ED000A0000020FFFF7F00A2000020A100002042
:101EE000A3000020006402402DE9FE4F83460E4609
:101EF000914600200290002534462148007818B110
:101F0000680240EAD45564020BF00300F0B14FF0D0
:101F1000000A18E04FF4007000904FEA4A200719B9
:101F200045EBE0733A461748FFF7AAFE02904FF4DC
:101F3000007214495846FEF7A7F90BF5007B0AF129
:101F4000010000F0FF0ACA45E4DB16E0B9F1010F19
:101F500009D14FF4007022462B4600905846FFF7F7
:101F60008FFE029009E04FF4007022462B46CDE927
:101F70000009584600F008F802900298BDE8FE8F6C
:101F800098000020207B00202DE9FF5F174698462F
:101F9000DDE90E464FF00009CA464FF0FF35AC4967
:101FA000009808600020AB490860AB480078022820
:101FB00005D10402780A40EAC8574FEA6828002091
:101FC000A64988604860401E0860012048610020E2
:101FD000C86008610846FFF7F9F89E48183800689D
:101FE00000F0007018B10E2004B0BDE8F09F002C86
:101FF00021DDB4F5006F1EDC601E2040D8B92046FC
:1020000001F006FB8346964804601020944948601E
:10201000402088600020C8604FF480600861084656
:10202000FFF73AF91020FEF735FA8146B9F1000FB3
:1020300003D04846D8E72620D6E7012E71D906FB03
:1020400004F0B0F1007F01D32620CDE74FEA0B105A
:102050008249886006FB04F048604FF0FF3008605A
:10206000012048610220C860002008610846FFF78F
:10207000ADF87B48076012207949486040208860AD
:102080000020C8604FF4806008610846FFF704F93B
:102090001220FEF7FFF98146B9F1000F01D0484642
:1020A000A2E77048007800287ED1FEF778F81EE09D
:1020B0004FF40040FFF7A4F8A8B14FF0000A08E081
:1020C0006448543000686249096841F82A000AF1FE
:1020D000010ABAF1080FF3D35D48006820305C496B
:1020E0000860614D03E00DB904207DE76D1E59487D
:1020F0000830006840F22A3108400028D8D0082073
:10210000FFF77EF820B10820FFF750F804206BE7B6
:102110000220FFF775F828B10220FFF747F80220E8
:1021200062E792E02020FFF76BF820B12020FFF754
:102130003DF8062058E74FF40070FFF761F828B12A
:102140004FF40070FFF732F807204DE70AE04148EE
:10215000543000683E49096808603D480068001D29
:102160003B4908604FF40010FFF74AF80028EED111
:102170004FF48070FFF744F820B33748007838B147
:1021800035480078012803D033480078022819D157
:102190000020334908600C204860402088600020FF
:1021A000C8604FF4806000E013E008610846FFF764
:1021B00073F80C20FEF76EF98146B9F1000F01D0DB
:1021C000484611E7FDF7EDFF40F2FF50FEF7EEFF46
:1021D0003BE024480078012837D1002023490870CB
:1021E0000120234908700020224908701948103046
:1021F000006840F22A31084316491031086015483A
:10220000006840F008001349086006FB04F1002252
:102210000098FFF75DF800E06D1E1748006800F0B9
:10222000006008B9002DF7D10DB90420DCE600BF2D
:102230001048007818B90D4800780028F8D00B48ED
:10224000007810B1094890F800904846CCE60000AC
:10225000A40000202C2C0140980000208C7A002043
:10226000787A0020A0000020FFFF7F00A20000205D
:10227000A1000020A30000200064024010B5044625
:102280000948046007200849486040208860002011
:10229000C8604FF4806008610846FEF7FDFF072024
:1022A000FEF7F8F810BD0000787A00200146002003
:1022B000012900D011B9024B197000E026207047A7
:1022C000A00000202DE9FF5F86B017469846149DB8
:1022D0000026002005900490002481460390824649
:1022E00002900195DDF818B0DDF818B0BBF1000FD1
:1022F00003D126200AB0BDE8F09F0020C94908603C
:10230000C94988604860401E08600120486100207B
:10231000C86008610846FEF759FFC24818380068CF
:1023200000F0007008B10E20E4E7C04800780228F1
:1023300005D10502780A40EAC8574FEA6828002DFF
:102340001FDDB5F5006F1CDC681E2840C8B92846A3
:1023500001F05EF90590B64805601020B449486068
:10236000402088600020C8604FF480600861084603
:10237000FEF792FF1020FEF78DF806461EB130469C
:10238000B8E72620B6E7AB4800880004A8490860F3
:102390000D204860402088600020C8604FF48060B5
:1023A00008610846FEF778FF0D20FEF773F8064631
:1023B0000EB130469EE79B481838006803904FF0F6
:1023C000FF341CE0641E9B480088000498490860A4
:1023D0000D204860402088600020C8604FF4806075
:1023E00008610846FEF758FF0D20FEF753F8064631
:1023F0000EB130467EE78B4818380068039003988A
:1024000000F4807008B9002CDCD10CB9292071E7E8
:10241000874807601820864948604020886000206F
:10242000C8604FF4806008610846FEF735FF182049
:10243000FEF730F806460EB130465BE700207E49D5
:1024400008700598000178498860084645604FF09B
:10245000FF300860012048610020C860086108461C
:10246000FEF7B4FE4FF0FF347448007800287ED1A8
:10247000FDF795FE45E04FF48040FEF7C1FED8B36E
:102480000198A0EB0900202822D20198A0EB0900B6
:1024900000F0030020B90198A0EB0900800804E0D7
:1024A0000198A0EB09008008401C02904FF0000A40
:1024B0000AE05C495431DBF8000008600AF1010AC7
:1024C0000BF1040B09F1040902988245F1D310E0E5
:1024D0004FF0000A06E05BF82A00524954310860C8
:1024E0000AF1010ABAF1080FF5D30BF1200B09F13B
:1024F00020096FF0404404E0FFE70CB90420F9E63E
:10250000641E48480830006840F21A6108400028FC
:10251000B1D00820FEF774FE20B10820FEF746FE79
:102520000420E7E60220FEF76BFE20B10220FEF752
:102530003DFE0220DEE61020FEF762FE20B11020F4
:10254000FEF734FE0520D5E64FF40070FEF758FE86
:1025500030B14FF40070FEF729FE0720CAE606E00E
:10256000FDF71FFE40F2FF50FEF720FE41E033482A
:10257000007801283DD10020314908702E490870AB
:102580003049087027481030006840F21A3108437B
:10259000244910310860402229460698FEF798FE2B
:1025A0002048006840F008001E49086000E0641EF2
:1025B0002548006800F0006008B9002CF7D11CB96C
:1025C000FFF784F8042095E64FF0FF3400E0641E26
:1025D0001C48007820B91A48007808B9002CF6D1B8
:1025E0000CB9042086E61648007810B1144800782B
:1025F00080E640F2FF50FEF7D9FD04A8FEF7DCFBB1
:10260000064603E004A8FEF7D7FB06463EB99DF850
:1026100010000728F6D09DF810000628F2D03046AA
:1026200068E600002C2C01408C7A002098000020E5
:10263000787A00209C000020A1000020A00000204B
:10264000A2000020A3000020006402402DE9FE4FFC
:102650000646894692460020029000254C462148B5
:10266000007818B1680240EAD455640206F003000D
:10267000F0B14FF0000B18E04FF4007231461A48E9
:10268000FDF702FE4FF4007000904FEA4B2007194F
:1026900045EBE0733A461448FFF714FE029006F546
:1026A00000760BF1010000F0FF0BD345E4DB16E0F0
:1026B000BAF1010F09D14FF4007022462B46009069
:1026C0003046FFF7FFFD029009E04FF4007022460C
:1026D0002B46CDE9000A304600F008F80290029837
:1026E000BDE8FE8F98000020207B00202DE9FF5FD1
:1026F00084B0DDE9124700260020039002900025F7
:1027000080468146019007FB04FBDDF810A0DDF850
:1027100010A0BAF1000F03D1262008B0BDE8F09F49
:102720000020DC490860DC4988604860401E086081
:10273000012048610020C86008610846FEF746FD98
:10274000D4481838006800F0007008B10E20E4E7A3
:10275000D2480078022808D10402DDE90601400AC7
:1027600040EAC1504912CDE90601002C1FDDB4F545
:10277000006F1CDC601E2040C8B9204600F048FFF6
:102780000390C74804601020C54948604020886015
:102790000020C8604FF4806008610846FEF77CFDA9
:1027A0001020FDF777FE06461EB13046B5E726201D
:1027B000B3E7012F6FD907FB04F0B0F1007F01D31D
:1027C0002620AAE7B548007838B1B4480078012837
:1027D00003D0B248007802282DD1B2480088000406
:1027E000AF49086037204860402088600020C860FA
:1027F0004FF4806008610846FEF74EFD3720FDF774
:1028000049FE06460EB1304687E7A5480760172007
:10281000A3494860402088600020C8604FF4806071
:1028200008610846FEF738FD1720FDF733FE06461F
:102830000EB1304671E79A49069808601920486041
:10284000402088600020C8604FF48060086108461E
:10285000FEF722FD1920FDF71DFE06460EB130469B
:102860005BE7039800018C49886007FB04F048602F
:102870004FF0FF300860012048610020C860086107
:102880000846FEF7A3FC88480078002874D1451E4E
:10289000FDF785FC42E0E4E04FF48040FEF7B0FC39
:1028A000B8B3ABEB080020281FD2ABEB080000F058
:1028B000030018B9ABEB0800800803E0ABEB08009D
:1028C0008008401C01904FF000090AE07149543122
:1028D000DAF80000086009F101090AF1040A08F1B8
:1028E000040801988145F1D310E04FF0000906E09B
:1028F0005AF8290067495431086009F10109B9F112
:10290000080FF5D30AF1200A08F120086FF04045BE
:1029100004E0FFE70DB90420FFE66D1E5D480830B6
:10292000006840F21A3108400028B5D00820FEF7B0
:1029300067FC20B10820FEF739FC0420EDE60220F8
:10294000FEF75EFC20B10220FEF730FC0220E4E638
:102950001020FEF755FC20B11020FEF727FC0520C3
:10296000DBE64FF40070FEF74BFC30B14FF4007023
:10297000FEF71CFC0720D0E62CE04FF48070FEF739
:102980003FFC00B34548007838B14448007801283E
:1029900003D042480078022815D100204049086041
:1029A0000C204860402088600020C8604FF48060A0
:1029B00008610846FEF770FC0C20FDF76BFD06462B
:1029C0000EB13046A9E6FDF7ECFB40F2FF50FEF7F2
:1029D000EDFB46E034480078012842D1002033491D
:1029E00008700120324908700020324908702948D7
:1029F0001030006840F21A3108432649103108604F
:102A000007FB04F140220498FEF762FC21480068AD
:102A100040F008001F4908604FF0FF3500E06D1ED0
:102A20002548006800F0006008B9002DF7D11DB9F5
:102A3000FEF74CFE042070E64FF0FF3500E06D1EFF
:102A40001C48007820B91948007808B9002DF6D143
:102A50000DB9042061E61548007810B113480078DC
:102A60005BE640F2FF50FEF7A1FB02A8FEF7A4F9D7
:102A7000064603E002A8FEF79FF906463EB99DF818
:102A800008000728F6D09DF808000628F2D0304646
:102A900043E600002C2C01408C7A00209800002096
:102AA000787A00209C000020A0000020A2000020D6
:102AB000A1000020A3000020006402400CB500200B
:102AC000019000903448006840F48030324908603A
:102AD00000BF3148006800F4003000900198401CAD
:102AE0000190009818B90198B0F5A04FF1D12A488B
:102AF000006800F4003010B10120009001E00020D7
:102B000000900098012846D123484030006840F0EA
:102B100080502149403108602048006840F440401E
:102B20001E4908601C48083000681B4908310860CD
:102B30000846006840F4004008600846006840F419
:102B4000A05008601648091F0860081F006840F080
:102B50008070091F086000BF0F48006800F0007017
:102B60000028F9D040F205700E4908600A48083084
:102B7000006820F003000849083108600846006832
:102B800040F00200086000BF03480830006800F011
:102B90000C000828F8D10CBD00380240007000403D
:102BA00008544007003C024010B500BF102080F3DD
:102BB0001188BFF34F8FBFF36F8F00BF01F046FE48
:102BC00018B14FF080500449086000BF002080F326
:102BD000118800BF10BD000004ED00E010B51548DD
:102BE000006840F47000134908601348006840F022
:102BF00001001149086000200F49083108600E48A3
:102C000000680E4908400C4908600D48091D08601D
:102C1000081F006820F48020091F08600020064972
:102C20000C310860FFF74AFF4FF00060014980391E
:102C3000086010BD88ED00E000380240FFFFF6FE9E
:102C40001030002410B50121064800F012F840B100
:102C500005480068401C044908600121014800F053
:102C600005F810BD0010004014000020CA43028285
:102C7000704730B50246002000230024158A05EA7B
:102C80000103958905EA010413B10CB1012000E0AC
:102C9000002030BD10B540F22441064800F03DF957
:102CA00030B1FEF73BF840F22441024800F08BF8C7
:102CB00010BD00000010014010B588B00446FDF7BB
:102CC0003FFD01210846FEF767F901211020FEF7BC
:102CD00083F9072209213148FDF7FAFF07220A216B
:102CE0002E48FDF7F5FF4FF40070029002208DF89A
:102CF0000C008DF80D0000208DF80E0001208DF8DD
:102D00000F0002A92548FDF79BFF4FF48060029059
:102D100002A92248FDF794FF214800F079F80494B5
:102D20000020ADF81400ADF81600ADF81800ADF8AD
:102D30001C000C20ADF81A0004A9194800F03CF959
:102D400025208DF8040005208DF8050000208DF861
:102D5000060001208DF8070001A8FEF7D7F8012230
:102D600040F224410E4800F002F901210C4800F025
:102D700039F840F224410A4800F025F801224021A8
:102D8000074800F03BF801228021054800F036F8A2
:102D90004021034800F00EF808B010BD00000240CA
:102DA000001001400246182901D200207047134646
:102DB0001846FBE701F40072B2F5007F00D100BFB6
:102DC000CA430280704710B50022002340F66A14FF
:102DD000A14200D100BF0A1201249440A3B2DC43F7
:102DE000048010BD21B1828942F40052828104E046
:102DF00082894DF6FF731A40828170471AB1838A27
:102E00000B43838202E0838A8B43838270470000F6
:102E100010B504463248844208D101211020FEF743
:102E2000EBF800211020FEF7E7F857E02D48844228
:102E300009D101214804FEF7BFF800214FF400300A
:102E4000FEF7BAF84AE02848844209D101218804F3
:102E5000FEF7B2F800214FF48020FEF7ADF83DE018
:102E60002248844209D10121C804FEF7A5F80021B7
:102E70004FF40020FEF7A0F830E01D48844209D14D
:102E800001210805FEF798F800214FF48010FEF7A5
:102E900093F823E01748844208D101212020FEF74F
:102EA000ABF800212020FEF7A7F817E01248844273
:102EB00009D101218807FEF77FF800214FF08040FB
:102EC000FEF77AF80AE00D48844207D10121400557
:102ED000FEF772F800216005FEF76EF810BD0000E5
:102EE000001001400044004000480040004C0040F9
:102EF000005000400014014000780040007C004079
:102F000002460020B1F5007F00D100BF13880B40BE
:102F10000BB1012000E00020704770B5024600248C
:102F200000230025002040F66A16B14200D100BF00
:102F3000C1F3421501F01F03012606FA03F3012D28
:102F400002D19689334006E0022D02D1168A334021
:102F500001E0968A33400C12012606FA04F4168822
:102F6000344013B10CB1012000E0002070BDF0B579
:102F70000346002400260025002040F66A17B942C7
:102F800000D100BF1846C1F3421401F01F0601270B
:102F900007FA06F5012C01D10C3004E0022C01D116
:102FA000103000E014301AB107682F43076002E0C8
:102FB0000768AF430760F0BD2DE9FF4705460E46A1
:102FC0000024A14600BFA046B08900B100BF2C8AF2
:102FD00024F44054F08804432C82AC8941F20C6004
:102FE0008443B08831890843718908430443AC8124
:102FF000AC8A24F44074B0890443AC826846FEF77E
:103000000BF82048854202D01F48854202D1DDF8E6
:103010000C9001E0DDF80890A88900F4004040B170
:1030200009EBC90000EB091031684900B0FBF1F76A
:1030300007E009EBC90000EB091031688900B0FB1B
:10304000F1F76420B7FBF0F004012009642101FBD3
:103050001078A88900F4004040B1322000EBC8008D
:10306000B0FBF1F000F00700044308E0322000EB71
:1030700008106421B0FBF1F000F00F0004432C8134
:10308000BDE8FF87001001400014014000BFFEE7CB
:103090000FB4054B10B503A9044A029800F02CF8B0
:1030A00010BC5DF814FB0000A9360008A800002041
:1030B0000FB4084B10B504A902AA039800F01CF83D
:1030C000044602A9002000F077F9204610BC5DF804
:1030D00014FB0000B933000802E008C8121F08C141
:1030E000002AFAD170477047002001E001C1121F89
:1030F000002AFBD1704700002DE9FF4F8DB09B46A1
:103100000F460446002606E025280BD05A460F99A4
:103110009047641C761C20780028F5D111B0304609
:10312000BDE8F08F0025A8460122984900E005433C
:1031300014F8013F203B02FA03F00842F7D120784F
:103140002E2817D114F8010F45F004052A280ED0B7
:103150006FF02F022078A0F1300109290AD808EB7E
:10316000880102EB410100EB0108641CF2E757F80B
:10317000048B641C20786C280DD004DC4C2812D001
:103180006A2811D104E074280DD07A280CD10AE005
:1031900045F4001507E0617845F48015814202D1BD
:1031A000641C05F58015641C2278692A45D008DC6A
:1031B000002AB3D0582A69D0632A10D0642A08D1D3
:1031C0003BE0702A67D0732A13D0752A5CD0782A26
:1031D0005CD010465A460F999047761CD3E017F8FA
:1031E000040B8DF8000000208DF80100E946012055
:1031F00003E057F8049B4FF0FF3069074FF00005DC
:1032000001D40AE06D1C45450DDA8542FADB19F858
:1032100005100029F6D106E06D1C8542FCDB19F88B
:1032200005100029F8D12E4404E019F8010B5A4684
:103230000F9990476D1EF8D2A5E00A200021CDE934
:103240000801C5F3025002280DD001CFC117031E9B
:1032500071F100030DDA4FF0000CD0EB0C006CEBB9
:1032600001012D2308E0FF1D27F00707F7E8020101
:10327000EDE72B0504D52B238DF8283001233BE007
:10328000EB0739D02023F7E70A2000E010200021C7
:10329000CDE9080107E01020002145F00405CDE943
:1032A00008014FF00808C5F3025002280FD001CFE3
:1032B00000214FF0000A2B071FD5702A0DD0DDE941
:1032C00008C38CF0100C5CEA030C0CD015E0FF1D59
:1032D00027F00707F7E80201EBE740228DF82820E6
:1032E0004FF0010A0BE050EA010306D030238DF8BD
:1032F00028308DF8292002239A46582A04D024A287
:103300000DF120090B9209E026A2F9E7DDE9082377
:10331000FCF7EEFF0B9B9B5C09F8013D50EA0102B4
:10332000F4D1ADEB090020300890680701D44FF0CC
:1033300001080899884502DDA8EB010000E00020A3
:103340008046002506E00AA85A46405D0F9990473E
:103350006D1C761C5545F6DB04E030205A460F996B
:103360009047761CB8F10001A8F10108F5DC05E0F2
:1033700019F8010B5A460F999047761C0899481E78
:1033800008900029F4DC641CC5E60000092801004F
:1033900030313233343536373839616263646566CB
:1033A000000000003031323334353637383941428D
:1033B00043444546000000000A68531C0B6010702F
:1033C0007047000070B50546304800EB05142068D2
:1033D000804700283ED02079052802DA0520207198
:1033E00052E020790A2803DA2079401C20714BE052
:1033F000A07A38B90120A07205EB4501491CC8B27A
:1034000000F0F6F8208900283EDDE0882189884216
:103410000DDAE088401C80B2E0802189884233D1F7
:1034200005EB4501C91CC8B200F0E2F82CE0E07AD7
:10343000002829DD207B401CC0B22073E17A88423D
:1034400022DB0020207305EB4501491CC8B200F0C7
:10345000CFF819E02079052802DD0520207110E061
:10346000207918B12079401E20710AE0A07A012845
:1034700007D10020A07205EB4501891CC8B200F0FD
:10348000B7F80020E080207370BD00001C7A002097
:103490000B48807A0A4AD27A904201D100207047C4
:1034A0000748807A064A115C1046807A401CC0B2F8
:1034B00090720A2801DB002090720846EFE70000B6
:1034C0004C7A002010B504464FF44070FDF75AFDC9
:1034D0001821201DFFF766FC20600949206808605C
:1034E0002068FDF7FBFC4FF4E130FFF7E5FB00F04F
:1034F00009F8FDF7D5FCFEF7E9F800F031FC10BD46
:103500009400002010B500F02DF800F001F810BD77
:103510001CB501211120FDF73FFD00208DF80400AE
:103520008DF8060001208DF8070002208DF80500B7
:103530001020009069460948FDF782FB08200090A2
:1035400069460648FDF77CFB02208DF80700012044
:10355000009069460248FDF773FB1CBD0010024055
:10356000000002400021174A9172D17211730020AD
:1035700018E06421144A02EB001211810221124A60
:1035800002EB0012117100210F4A02EB001291723E
:103590000D4A02EB0012D1720B4A02EB00121173BA
:1035A000411CC8B20328E4DB642207490A830522D0
:1035B000CA760649044A116005491161054911623C
:1035C000704700004C7A00201C7A0020590E000839
:1035D000710E0008890E000810B5002404E0204692
:1035E000FFF7F0FE601CC4B2032CF8DB10BD000036
:1035F0000649C97A054A50541146C97A491CC9B2CC
:10360000D1720A2901DB0021D17270474C7A002067
:103610000146002002E04910421CD0B20129FAD133
:10362000704700002DE9F04107463E4656B900BFFD
:10363000102080F31188BFF34F8FBFF36F8F00BF4F
:1036400000BFFEE713480068864201D100241EE057
:1036500000F09CFC756900F0C3FC0F4800688542CF
:1036600003D00E480068854201D102240FE00C48C7
:10367000854205D1B06A08B9032408E0022406E0B7
:103680000848854200D00DB9042400E001242046FA
:10369000BDE8F081280000202C0000203000002030
:1036A0007C0100206801002000BF054A128802F05A
:1036B0004002002AF9D0C2B2014B9A807047000044
:1036C000001001400548FFF7FDFE0448044908606A
:1036D000FCF772FE00F03AFE00BFFEE7AC000020EF
:1036E000100000202DE9F04105460E461C480768F1
:1036F0001C480068001D00F08FFB50B91948006895
:1037000090F82C1001208840174909688143164819
:103710000160681C38B936B112480168091D1348A8
:1037200000F028FC1AE07C190E4800684460BC4296
:1037300007D20C480168091D0D48006800F000FC24
:103740000CE008480168091D0A48006800F0F8FB11
:1037500009480068844201D207480460BDE8F0814E
:103760003C00002028000020400000207C010020B8
:10377000300000202C0000205800002010B5044626
:1037800000F004FC24480068401C234908602348DA
:10379000006840B9214804600846006801280DD13E
:1037A00000F030F90AE01E48006838B91B4800688C
:1037B000C06AE16A884201D8184804601948006864
:1037C000401C1849086008460068606494F82C1092
:1037D0000120884014490968084313490860E16AD8
:1037E00001EB8101114A02EB8100211D00F0C2FBB7
:1037F00000F0F6FB0A48006868B108480068C06A33
:10380000E16A884207D24FF0805009490860BFF34F
:103810004F8FBFF36F8F10BD3800002028000020AD
:10382000440000205400002040000020C800002078
:1038300004ED00E070B523E000F0D0FD134800680F
:1038400008B9012000E00020054601F0A3F8BDB949
:1038500000F09CFB0D48C068C468201D00F0DCFA35
:103860000B480068401E0A4908600A480068401E6C
:103870000849086000F0B4FB204600F00DF800BFD6
:10388000044800680028D7D170BD000068010020FE
:10389000380000203400002010B50446206B00F0F2
:1038A000BDFB204600F0BAFB10BD000030B54FF460
:1038B000F043174800F007042CB1C01D20F00700AA
:1038C000134C041B1B1B0246124C22600024114D9A
:1038D0006C60D018083820F007000F4C20600024DE
:1038E0000D4D2D686C600C4D2D682C601146441AEE
:1038F0004C60094C24680C60084D4C682C60084DE5
:103900004C682C604FF00044064D2C6030BD000028
:10391000900100206C000020740000207C0000203A
:10392000780000208000002000BFFFF783FF0648DA
:1039300000680128F9D94FF0805004490860BFF3AE
:103940004F8FBFF36F8FF0E7C800002004ED00E059
:103950002DE9F05F82460E4617469B46DDF828802B
:103960000C9CB900A522206BFCF7A0FC781E216BF3
:1039700001EB800929F0070909F0070008B90120C7
:1039800000E0002050B900BF102080F31188BFF381
:103990004F8FBFF36F8F00BF00BFFEE7002507E02A
:1039A000715D04F134004155705D00B902E06D1C99
:1039B000102DF5D300BF002143200155B8F1050FAC
:1039C00001D34FF00408C4F82C80201D00F0B5FA94
:1039D00004F1180000F0B1FA2461C8F10500A061FB
:1039E00064620020E064206584F854005A46514621
:1039F000484600F09FF920600B9808B10B980460CE
:103A0000BDE8F09F10B5002407E004EB84010F4AE5
:103A100002EB810000F084FA641C052CF5D30C48FD
:103A200000F07EFA0B4800F07BFA0B4800F078FAC1
:103A30000A4800F075FA0A4800F072FA0448094989
:103A4000086004480849086010BD0000C800002054
:103A50002C010020400100205401002068010020BA
:103A60007C0100202C0000203000002010B5014611
:103A7000164800E0006803688B42FBD302464368A7
:103A800013448B4204D143684C682344436001468D
:103A90000A464B6813440468A34211D10C4C0368D6
:103AA0002468A34208D04B680468646823444B60D0
:103AB00003681B680B6005E0054B1B680B6001E0A9
:103AC00003680B60884200D0016010BD6C000020CC
:103AD000740000202DE9F04707460C46904600266A
:103AE000206848B3204641684968416000F10801F8
:103AF00042688A4202D14168496841604168D1F810
:103B00000C9000BF204641684968416000F10801FF
:103B100042688A4202D14168496841604168CD6883
:103B200006EBC60007EB800143460122284600F061
:103B3000F7FA761C4D45E5D13046BDE8F087000028
:103B40000A490968096809B9012100E0002121B189
:103B50004FF0FF31064A116006E004490968C96860
:103B6000C868034A41681160704700002C000020BB
:103B7000580000200246002101E0521C491C107828
:103B8000A528FAD0890888B2704700000E4800685E
:103B9000401C08B9012000E0002050B900BF1020EF
:103BA00080F31188BFF34F8FBFF36F8F00BF00BF4B
:103BB000FEE700BF102080F31188BFF34F8FBFF3E3
:103BC0006F8F00BF00BFFEE78400002070B5054680
:103BD0000E4631462846FCF782FB2846FCF778FB68
:103BE000044602E020202855641C0F2CFAD3002044
:103BF0002855281970BD00002DE9F04104464FF00A
:103C0000000800F0EBFB4648006808B9FFF74EFEDD
:103C100044480068204000286BD1D4B1083404F037
:103C20000700B0B104F00700C0F10800044404F03C
:103C3000070008B9012000E0002050B900BF1020A3
:103C400080F31188BFF34F8FBFF36F8F00BF00BFAA
:103C5000FEE7002C4DD034480068844249D8334EEA
:103C60003046056801E02E462D686868A04202D201
:103C700028680028F7D12A480068854239D0306882
:103C800000F10808286830606868001B102819D9FE
:103C90002F1907F0070008B9012000E0002050B9F3
:103CA00000BF102080F31188BFF34F8FBFF36F8FD9
:103CB00000BF00BFFEE76868001B78606C60384694
:103CC000FFF7D4FE184968680968081A16490860A1
:103CD0000846006816490968884203D212480068FD
:103CE000134908600F496868096808436860002044
:103CF000286000F04FFE08F0070008B9012000E03E
:103D0000002050B900BF102080F31188BFF34F8FFF
:103D1000BFF36F8F00BF00BFFEE74046BDE8F081F4
:103D20007400002080000020780000206C0000203B
:103D30007C000020001F4FF080730360001F21F003
:103D400001030360001F054B036014380260001F6D
:103D50006FF0020303602038704700008D3B0008BD
:103D600010B5104890F82C100FA0FFF791F90D48EE
:103D7000B0F8541013A0FFF78BF90A4AD2E91202E7
:103D8000000D40EA023113A0FFF782F90548016DEA
:103D900016A0FFF77DF9034890F8561018A0FFF71A
:103DA00077F910BDC87A002043617264204D616EBE
:103DB00075666163747572657249443A25640D0ACB
:103DC0000000000043617264205243413A25640DB3
:103DD0000A0000004361726420436170616369748A
:103DE000793A2564204D420D0A0000004361726457
:103DF00020426C6F636B53697A653A25640D0A0043
:103E0000436172642043617264547970653A256439
:103E10000D0A0D0A0000000001460A69D1E90130CF
:103E20009860D1E9010358605068884201D18868E0
:103E30005060002008611068401E106010687047D4
:103E40002DE9F0410546884616460024052700F076
:103E5000C5FA2248006880453AD300BF7F1E07EBB1
:103E600087021F4B03EB820104EBC40205EB8200C7
:103E70000122FFF72FFE0444002FEFD104EBC40111
:103E800005EB8100022217490968FFF723FE04446D
:103E900004EBC40105EB8100022213490968FFF716
:103EA00019FE044404EBC40105EB810004220F4910
:103EB000FFF710FE044404EBC40105EB810003226C
:103EC0000B49FFF707FE044416B10A48006830604A
:103ED00000F060FD2046BDE8F081000038000020C1
:103EE000C80000202C0000203000002068010020C5
:103EF0007C0100201400002070B505460C462146C8
:103F000001A0FFF7C5F870BDC8CECEF1A3BA2573E6
:103F100020B7A2CFD6D5BBD2E7B3F60D0A0000007A
:103F200000F1080141604FF0FF31816000F10801AC
:103F3000C16001610021016070470021016170478B
:103F400010B502460B685C1C0CB9106907E002F161
:103F5000080000E04068446824689C42FAD944683C
:103F60004C604C68A160886041600A611468641C00
:103F7000146010BD42684A6093688B609368596012
:103F80009160086103685B1C0360704700BF1020EC
:103F900080F31188BFF34F8FBFF36F8F00BF0E48C0
:103FA0000068401C0C49086008460068012812D1CE
:103FB0000A480068C0B208B9012000E0002050B9EA
:103FC00000BF102080F31188BFF34F8FBFF36F8FB6
:103FD00000BF00BFFEE770478400002004ED00E052
:103FE0000D48006850B900BF102080F31188BFF35E
:103FF0004F8FBFF36F8F00BF00BFFEE7064800681A
:10400000401E054908600846006820B9002080F37A
:10401000118800BF00BF70478400002070B50646BD
:104020003546002E3FD0083D2C461F496068096880
:10403000084008B1012000E0002050B900BF102066
:1040400080F31188BFF34F8FBFF36F8F00BF00BFA6
:10405000FEE7206808B9012000E0002050B900BF49
:10406000102080F31188BFF34F8FBFF36F8F00BF15
:1040700000BFFEE70C4960680968084098B12068F5
:1040800088B90949606809688843606000F0A6F94A
:104090000649606809680844044908602046FFF73B
:1040A000E5FC00F077FC70BD800000207800002067
:1040B00003484FF0E0214861072008617047000085
:1040C0003F90020070B504460025D4B11248006844
:1040D00008B9012000E0002050B900BF102080F393
:1040E0001188BFF34F8FBFF36F8F00BF00BFFEE794
:1040F00000F074F900212046FFF7F4FA00F04AFCC2
:1041000005463DB94FF0805004490860BFF34F8F1A
:10411000BFF36F8F70BD00006000002004ED00E071
:104120002DE9F04107460C4690461E4617B919483E
:10413000006800E038460546256005F134006060FF
:10414000E86A2061286BE061686CA060207B03282E
:1041500007D100F043F9A86A08B10220207300F0EB
:1041600019FC00206061E86CA061052E01D0267367
:1041700003E03846FFF756FA2073B8F1000F04D079
:10418000286BFFF7F7FC208401E000202084BDE8C5
:10419000F081000028000020FEB5054600202870B0
:1041A0002B48006802902A49096801EBC101880088
:1041B000FFF722FD0446002C48D06A4620460299AB
:1041C000FFF73EFE029064210098B0FBF1F00090F2
:1041D0000098002837D00020019030E0019800EBD3
:1041E000C00004EB800080690099B0FBF1F60198F3
:1041F00000EBC00004EB800041682846FFF7E6FCB6
:1042000005465EB1019800EBC00004EB8000334628
:1042100010A182692846FEF74BFF09E0019800EBE8
:10422000C00004EB80000EA182692846FEF740FF23
:104230002846FCF74DF805440198401C0190DDE943
:1042400001018842CAD32046FFF7E8FEFEBD000008
:10425000380000200925750909257525250D0A0056
:1042600009257509093C3125250D0A007FB505464C
:10427000002028703048006803902F49096801EB3E
:10428000C1018800FFF7B8FC0446002C53D000227F
:1042900020460399FFF7D4FD03900020029043E0ED
:1042A000029800EBC00004EB8000007B012806D0E0
:1042B000022806D0032806D0042808D105E052269B
:1042C00007E0422605E0532603E0442601E00026ED
:1042D00000BF00BF029800EBC00004EB8000416803
:1042E0002846FFF773FC0546029800EBC00004EB7C
:1042F00080008068029901EBC10104EB8101098C07
:10430000CDE90010029800EBC00004EB80003246BB
:104310000AA103692846FEF7CBFE2846FBF7D8FF23
:1043200005440298401C0290DDE902018842B7D39F
:104330002046FFF773FE7FBD380000200925630982
:1043400025750925750925750D0A00001CB51B4842
:1043500000210B468022CDE9001019A11A4800F077
:1043600045FA0446012C17D100BF102080F31188B4
:10437000BFF34F8FBFF36F8F00BF4FF0FF30134974
:1043800008600120124908600020124908601249A3
:10439000086000F08DF910E0601C08B1012000E019
:1043A000002050B900BF102080F31188BFF34F8F59
:1043B000BFF36F8F00BF00BFFEE71CBD5C00002095
:1043C00049444C45000000002939000858000020ED
:1043D000440000203C000020140000200248006837
:1043E000401C0149086070476000002010B531484A
:1043F000006818B10120304908605AE000202E49B9
:1044000008602E4800682E490860084600682D495B
:10441000096888420BD92C49096801F14C00C96C24
:10442000274A1268274B1B68D21A1144016024489E
:104430000068244908602448006800682249096827
:10444000096B884205D82048016834310068FFF7BD
:1044500053FD1E480068B0FA80F0C0F11F0101EB67
:1044600081001B4A52F8200008B1012000E0002022
:1044700050B900BF102080F31188BFF34F8FBFF3F6
:104480006F8F00BF00BFFEE701EB8102104B03EB13
:10449000820042685268426000F108024368934219
:1044A00002D14268526842604268D268064B1A6084
:1044B00000BF10BD600000204C0000201400002050
:1044C0006800002064000020280000204000002038
:1044D000C8000020ADF57E7D5AE0FEF7D9FF054605
:1044E000002D52D0012D04D0042D1ED0072D4AD10D
:1044F00037E0FFF74BFD27A0FEF7CAFD31A0FEF71E
:10450000C7FD81A8FFF7B2FE81A93AA0FEF7C0FD62
:104510003AA0FEF7BDFD81A8FFF73EFE81A935A0B8
:10452000FEF7B6FDFFF75CFD2EE0FFF72FFD012241
:10453000002101A8FDF7D8FC80B93BA0FEF7A8FD3B
:10454000002405E001A8015D3CA0FEF7A1FD641C6C
:10455000B4F5007FF6D33AA0FEF79AFDFFF740FDD1
:1045600012E0FFF713FD002402E001A90C55641CC2
:10457000B4F5007FF9D30122002101A8FEF766F807
:10458000FFF72EFD00E000BF00BF1420FFF79AFDEB
:10459000A3E700003D3D3D3D3D3D3D3D3D3D3D3DB5
:1045A0003D3D3D3D3D3D3D3D3D3D3D3D3D3D3D3D3B
:1045B0003D3D3D3D3D3D3D3D3D3D3D3D3D3D3D3D2B
:1045C0003D0D0A00C8CECEF1C3FB202020202020C4
:1045D000C8CECEF1D7B4CCAC20D3C5CFC8BCB620A2
:1045E0002020CAA3D3E0D5BB20C8CECEF1D0F2BAEA
:1045F000C50D0A0025730D0A000000000D0AC8CE83
:10460000CEF1C3FB20202020202020D4CBD0D0BC52
:10461000C6CAFD202020202020202020CAB9D3C3D4
:10462000C2CA0D0A00000000534543544F522030C7
:1046300020444154413A0D0A000000002578200032
:104640000D0A4441544120454E4445440D0A0000A2
:104650000FE0FFF79BFCFFF7C3FC0648006808B9B2
:10466000012000E00020034908604FF4FA70FFF7D2
:1046700029FDEEE79C0240420FE0FFF787FCFFF7C1
:10468000AFFC0648006808B9012000E0002003499B
:1046900008604FF41670FFF715FDEEE798024042F0
:1046A00004E0FEF799FF0A20FFF70CFDF9E7000090
:1046B0001CB5474800684749884201D0012000E006
:1046C000002050B900BF102080F31188BFF34F8F36
:1046D000BFF36F8F00BF00BFFEE73D4800683D4954
:1046E000491E884201D0012000E0002050B900BFDF
:1046F000102080F31188BFF34F8FBFF36F8F00BF7F
:1047000000BFFEE73449084600780190FF200A46C2
:1047100010700846007800909DF8000000F0F0004E
:104720009DF80020904201D1012000E0002050B906
:1047300000BF102080F31188BFF34F8FBFF36F8F3E
:1047400000BF00BFFEE79DF8000000F01000234A04
:1047500010700720224A106009E021480068401EBE
:104760001F4A10609DF800004006000E00909DF862
:10477000000000F080008028EFD019480068000297
:10478000174A10601046008800F4E0601060124A7A
:10479000019810700E482030006840F470000C49F9
:1047A000203108600846006840F070400860FFF75C
:1047B0007FFC00200B490860FBF718FD0A480068E1
:1047C00040F0404008490860FBF700FD00201CBD98
:1047D00000ED00E071C20F4100E400E0880000201D
:1047E0008C0000208400002034EF00E02DE9FF4F12
:1047F00085B0804689461746DDE912ABB800FFF761
:10480000FBF9064656B15820FFF7F6F904460CB1FD
:10481000266304E03046FFF701FC00E000247CB191
:104820000020CDE900ABCDE902403A46494640467A
:10483000089BFFF78DF82046FEF7A0FF012501E059
:104840004FF0FF35284609B0BDE8F08F2DE9F04163
:104850004FF0000844480068002877D143480068BA
:10486000451C4248056015BB41480068006808B90E
:10487000012000E0002050B900BF102080F3118813
:10488000BFF34F8FBFF36F8F00BF00BFFEE7384805
:104890000768384800683649086036480760364877
:1048A0000068401C34490860FFF74AF900BF3348EC
:1048B000006885423CD300BF2D480068006808B9F5
:1048C000012000E0002020B14FF0FF302B490860AC
:1048D0002DE027480068C068C4686668B54202D207
:1048E0002648066023E0201DFFF796FAA06A18B15B
:1048F00004F11800FFF790FA94F82C10012088407A
:104900001F49096808431E490860E16A01EB8101FB
:104910001C4A02EB8100211DFFF72CFB1A49E06ABB
:104920000968C96A8842C7D34FF00108C4E700BFCD
:1049300015480068C06A00EB8000124951F8200059
:10494000012801D94FF0010805E0FFE70F48006892
:10495000401C0E4908600E48006808B14FF001087D
:104960004046BDE8F0810000600000203C000020CF
:104970002C000020300000205000002058000020B3
:1049800040000020C800002028000020480000202F
:104990004C00002070B5002400263648006850B94D
:1049A00000BF102080F31188BFF34F8FBFF36F8FCC
:1049B00000BF00BFFEE7FFF7E9FA2E480068401E7F
:1049C0002C4908600846006800284FD12A48006832
:1049D00000284BD024E02948C068C46804F11800BE
:1049E000FFF71AFA201DFFF717FA94F82C10012090
:1049F000884023490968084321490860E16A01EBBE
:104A00008101204A02EB8100211DFFF7B3FA1E4904
:104A1000E06A0968C96A884202D301201B4908601C
:104A20001648006808B9012000E000200028D2D014
:104A30000CB1FFF785F81648056865B100BFFFF7B0
:104A400005FF10B10120114908606D1E002DF6D13F
:104A500000200F4908600D48006838B10126300772
:104A60000C490860BFF34F8FBFF36F8FFFF7B8FAA1
:104A7000304670BD60000020380000205401002046
:104A800040000020C8000020280000204C0000202A
:104A90004800002004ED00E0B84A000800000020B3
:104AA000AC000000D8300008644B0008AC000020C7
:104AB00074800000E83000080000000000000000E2
:104AC00000000000000000000000000000000000E6
:104AD00000000000010203040102030406070809A4
:104AE00000000000000000000000000000000000C6
:104AF00000000000000000000000000000000000B6
:104B000000000000000000000000000000000000A5
:104B10000000000000000000000000000000000095
:104B20000000000000000000000000000000000085
:104B3000000000000000000000000000AAAAAAAACD
:104B40000000000000000000000000000000000065
:104B50000000000000000000010000000000000054
:044B60000000000051
:040000050800018965
:00000001FF
