:020000040800F2
:1000000088B900205502000831200008A51F00080B
:100010002D200008F5050008A3440008000000009A
:100020000000000000000000000000009D0100082A
:100030003314000800000000F10100087D3D0008B5
:100040006F0200086F0200086F0200086F020008CC
:100050006F0200086F0200086F0200086F020008BC
:100060006F0200086F0200086F0200086F020008AC
:100070006F0200086F0200086F0200086F0200089C
:100080006F0200086F0200086F0200086F0200088C
:10009000F90500086F0200086F0200086F020008EF
:1000A0006F0200086F0200086F0200086F0200086C
:1000B0006F0200086F0200086F0200086F0200085C
:1000C0006F0200086F0200086F0200086F0200084C
:1000D0006F020008854000086F0200086F020008E8
:1000E0006F0200086F0200086F0200086F0200082C
:1000F0006F0200086F0200086F0200086F0200081C
:100100006F0200082D2700086F0200086F02000828
:100110006F0200086F020008193E00086F02000815
:100120006F0200086F0200086F020008870F0008C6
:100130006F0200086F0200086F0200086F020008DB
:100140006D0600086F0200086F0200086F020008C9
:10015000910F00086F020008D10F00086F0200081D
:100160006F0200086F0200086F0200086F020008AB
:100170006F0200086F0200086F0200086F0200089B
:100180006F0200086F020008DFF80CD000F006F9DB
:10019000004800479D70000888B900202A4B196864
:1001A0000868B0E8F04F80F30988BFF36F8F4FF015
:1001B000000080F3118870470000000006480068C6
:1001C000006880F3088862B661B6BFF34F8FBFF353
:1001D0006F8F00DF00BF00BF08ED00E0DFF80C000C
:1001E000016841F470010160704700BF88ED00E0D4
:1001F000EFF30980BFF36F8F134B1A681EF0100FD7
:1002000008BF20ED108A20E9F04F106008B44FF0CD
:10021000100080F31188BFF34F8FBFF36F8F0BF087
:1002200009FF4FF0000080F3118808BC19680868C6
:10023000B0E8F04F1EF0100F08BFB0EC108A80F34A
:100240000988BFF36F8F704760240020EFF30580AB
:10025000704700000648804706480047FEE7FEE773
:10026000FEE7FEE7FEE7FEE7FEE7FEE7FEE7FEE766
:10027000B13D0008890100082DE9F05F0546002026
:1002800092469B4688460646814640241BE0284607
:1002900041464746224600F070F853465A46C01A77
:1002A000914110D311461846224600F057F82D1AF6
:1002B00067EB01084F4622460120002100F04EF86E
:1002C00017EB00094E41201EA4F10104DFDC484673
:1002D00031462A464346BDE8F09F40EA01039B07AA
:1002E00003D009E008C9121F08C0042AFAD203E0AB
:1002F00011F8013B00F8013B521EF9D27047D2B20F
:1003000001E000F8012B491EFBD270470022F6E7FE
:1003100010B513460A4604461946FFF7F0FF20467B
:1003200010BD421C10F8011B0029FBD1801A704738
:1003300030B504460020034600E05B1C934203D224
:10034000E05CCD5C401BF8D030BD034611F8012BBA
:1003500000F8012B002AF9D118467047202A04DB47
:10036000203A00FA02F1002070479140C2F12003C8
:1003700020FA03F3194390407047202A04DB203A07
:1003800021FA02F00021704721FA02F3D040C2F1B5
:10039000200291400843194670470000064C074D63
:1003A00006E0E06840F0010394E807009847103445
:1003B000AC42F6D3FFF7ECFE40D4000860D400084E
:1003C00070B58C1810F8015B15F0070301D110F817
:1003D000013B2A1106D110F8012B03E010F8016B44
:1003E00001F8016B5B1EF9D12B0705D40023521EC7
:1003F0000DD401F8013BFAE710F8013BCB1A921C2F
:1004000003E013F8015B01F8015B521EF9D5A1422C
:10041000D8D3002070BD00002DED088B00259FED86
:100420002E0AB0EE40AA9FED2D0AF0EE40AA9FEDF5
:100430002C0AB0EE40BA9FED2B0AB0EE409A9FED29
:10044000290AF0EE409A9FED270AF0EE40BA0A2002
:100450000BF082FB3FE024480468244800884042B7
:1004600006B200EE106AB8EEC00ADFED210A20EEF7
:10047000200ADFED200A08EE200ADFED1F0A20EE39
:10048000200AB0EE408A601B00EE100AB8EEC00AE7
:10049000F0EE000AC0EE208A254600EE104AF8EE83
:1004A000C00AB0EE480A0BEE600A0AEEE80AC0EE97
:1004B0000A0AF0EE60BA39EEAB0AF0EE409A39EE75
:1004C000290AB0EE409ABDEEC90A0C4880ED000A38
:1004D00014200BF041FBBEE70080BB450000484400
:1004E0009A99993E00000000780200209A020020AC
:1004F0006666663FCDCCCC3DCDCC4C3E1001002095
:1005000010B50BF02AFF024908600BF033F910BD5B
:10051000140000201CB52048022100230A02CDE966
:1005200000101EA120480CF0A3FA2048032100234C
:100530004FF40072CDE900101DA120480CF098FA8C
:100540001F4804210023CA01CDE900101DA1204845
:100550000CF08EFA1F48052100234FF40072CDE9FC
:1005600000101DA11F480CF083FA05F05DFD06F098
:100570000FFD1D481D4908601D480968C1F8E401C8
:100580001A49086800210AF069FF0321184805F09C
:10059000E7FB00F06BFF1CBD000000207654617388
:1005A0006B5461736B3100001DC100080400002012
:1005B000765461736B5461736B320000A1C2000802
:1005C00008000020765461736B5461736B33000034
:1005D000C1C200080C000020765461736B54617333
:1005E0006B340000E1C200080C220020440000200F
:1005F0000064004000BFFEE710B588B00020019005
:1006000000BF1021EFF3118081F31188BFF34F8FEA
:10061000BFF36F8F00BF044603AA0021104800F00B
:1006200086F901208DF808000E48006830B10023DB
:1006300001AA02A90B4800680CF058F900BF84F326
:10064000118800BF019848B1019838B14FF080502F
:1006500005490860BFF34F8FBFF36F8F08B010BD1F
:10066000006400403C00002004ED00E000B587B0CD
:10067000002000900BF068F902AA00210F4800F05A
:1006800056F901208DF804000D48006830B10023B0
:100690006A4601A90A4800680CF028F90BF07EF9B7
:1006A000009848B1009838B14FF080500549086073
:1006B000BFF34F8FBFF36F8F07B000BD00680040DE
:1006C0003C00002004ED00E010B504460B488442D5
:1006D00009D10121480601F021FE00214FF00070F0
:1006E00001F01CFE08E00121880601F017FE002140
:1006F0004FF0806001F012FE10BD00000064004069
:1007000010B50021837A012202FA03F13D4A1268F2
:1007100042F001023B4B1A603A4A1C3212688A438B
:10072000384B1C331A60027BCAB9364A0C32126845
:100730008A43344B0C331A604288C38842EA03432D
:10074000304A4032847A42F834300288838842EA60
:1007500003432C4A4032847A02EBC4025360027B8A
:10076000012A19D1274A0C3212680A43254B0C334F
:100770001A604288038842EA0343224A4032847A5C
:1007800042F83430C288838842EA03431D4A40322B
:10079000847A02EBC4025360C27A3AB9194A121D34
:1007A00012688A43174B1B1D1A6006E0154A121D7A
:1007B00012680A43134B1B1D1A60028932B9114A91
:1007C000143212688A430F4B14331A600289012ACB
:1007D00006D10C4A143212680A430A4B14331A60C9
:1007E000427B012A06D1074A1C3212680A43054B94
:1007F0001C331A60034A126822F00102014B1A608E
:1008000010BD0000006600401AB143690B4343610C
:1008100002E043698B434361704730B502460020D4
:100820000023146824F002041460146844F00104E6
:10083000146000E05B1C546804F001041CB94FF61E
:10084000FF74A342F6D1546804F001040CB90020EF
:100850006CE08C79012C04D1146844F0800414609D
:1008600003E0146824F080041460CC79012C04D1D6
:10087000146844F04004146003E0146824F0400459
:1008800014600C7A012C04D1146844F02004146024
:1008900003E0146824F0200414604C7A012C04D185
:1008A000146844F01004146003E0146824F0100489
:1008B00014608C7A012C04D1146844F0080414608C
:1008C00003E0146824F008041460CC7A012C04D1ED
:1008D000146844F00404146003E0146824F0040471
:1008E00014608C78A407CD7844EA05640D7944EA55
:1008F00005444D7944EA05540D886D1E2C43D4619E
:10090000146824F001041460002300E05B1C5468A8
:1009100004F001041CB14FF6FF74A342F6D15468F1
:1009200004F001040CB1002000E0012030BD10B53E
:1009300000F5D87303EB01131B6803F00403137273
:10094000137A53B900F5D87303EB01131B6840F217
:10095000FF7404EA5353136009E000F5D87303EB06
:1009600001131B686FF0604404EAD303536000F581
:10097000D87303EB01131B6803F00203537200F5F5
:10098000D87303EB01135B6803F00F03937200F558
:10099000D87303EB01135B681B0AD37400F5D8739B
:1009A00003EB01139B68D37200F5D87303EB0113BB
:1009B0009B681C0A147300F5D87303EB01139B6842
:1009C0001C0C547300F5D87303EB01139B681B0ECA
:1009D000937300F5D87303EB0113DB68D37300F551
:1009E000D87303EB0113DB681C0A147400F5D87389
:1009F00003EB0113DB681C0C547400F5D87303EB94
:100A00000113DB681B0E937421B9C36843F0200304
:100A1000C36003E0036943F02003036110BD0000DD
:100A20000B49096841F00101094A11601146096842
:100A300043F60E729143064A11601146096841EA75
:100A4000002111601146096821F001011160704711
:100A50000066004000218171C17101724172817292
:100A6000C1728170C17003210171022141710121A4
:100A70000180704710B502460020936803F0806340
:100A8000B3F1806F00D110E0936803F00063B3F11D
:100A9000006F01D1012008E0936803F08053B3F1A7
:100AA000805F01D1022000E00420042874D002F508
:100AB000C07303EB00131B6803F0010402F5C0735D
:100AC00003EB00131C600B7A7BB94B7A0C8843EA6A
:100AD000445302F5C07404EB00142468234302F568
:100AE000C07404EB0014236010E00B7A4C6843EAF6
:100AF000C4034C7A234302F5C07404EB0014246849
:100B0000234302F5C07404EB001423608B7A03F0D6
:100B10000F038B7202F5C07303EB00135B6823F0C5
:100B20000F0402F5C07303EB00135C6002F5C073A1
:100B300003EB00135B688C7A234302F5C07404EB6B
:100B4000001463608B7B1C064B7B44EA03440B7BE5
:100B500044EA0323CC7A234302F5C07404EB001467
:100B6000A3608B7C1C064B7C44EA03440B7C44EA68
:100B70000323CC7B234302F5C07404EB0014E36031
:100B800002F5C07303EB00131B6843F0010402F588
:100B9000C07303EB00131C6010BD70B500254FF44B
:100BA000803400E0641E24B1802001F093FD002811
:100BB000F8D014B90325284670BD40F2FF5001F06B
:100BC00045FD2846F8E700002DE9F04106460027DC
:100BD0004848056801E04748056805F045000028D9
:100BE000F9D005F0040030B10327042001F02EFDF8
:100BF0003846BDE8F08105F0010028B10127012049
:100C000001F024FD3846F4E701F05EFDB04202D069
:100C100010273846EDE740F2FF5001F017FD0020A5
:100C200001F078FD04463448204008B93846E0E732
:100C300004F0004008B11C20DBE704F0804008B15C
:100C40000920D6E704F0005008B10A20D1E704F0EB
:100C5000805008B10B20CCE704F0006008B10C20F4
:100C6000C7E704F0806008B10D20C2E704F080708F
:100C700008B10E20BDE704F4000008B10F20B8E76A
:100C800004F4800008B11020B3E704F4001008B1A8
:100C90001120AEE704F4801008B11220A9E704F493
:100CA000002008B11320A4E704F4802008B1142028
:100CB0009FE704F4003008B115209AE704F480306F
:100CC00008B1162095E704F4004008B1172090E71A
:100CD00004F4804008B118208BE704F4005008B1F8
:100CE000192086E704F0080008B11A2081E7384689
:100CF0007FE70000342C014008E0FFFD70B50025BF
:100D00001048046801E00F48046804F0450000281A
:100D1000F9D004F0040028B10325042001F096FC6A
:100D2000284670BD04F0010028B10125012001F022
:100D30008DFC2846F5E740F2FF5001F087FC28467D
:100D4000EFE70000342C014070B500250B48046823
:100D500001E00A48046804F045000028F9D004F0D6
:100D6000040028B10325042001F070FC284670BD62
:100D700040F2FF5001F06AFC2846F8E7342C0140AD
:100D80002DE9F04106460F464FF00008224805685D
:100D900001E02148056805F045000028F9D005F07C
:100DA000040038B14FF00308042001F04FFC404626
:100DB000BDE8F08105F0010030B14FF001080120DD
:100DC00001F044FC4046F3E701F07EFCB04203D062
:100DD0004FF010084046EBE740F2FF5001F036FCC0
:100DE000002001F097FC044604F4604018B9200C80
:100DF00038804046DCE704F4005008B11320D7E700
:100E000004F4804008B11020D2E704F4004008B197
:100E10000F20CDE74046CBE7342C014070B50026CB
:100E20004FF480350F48046802E06D1E0D480468D9
:100E300004F0450008B9002DF7D115B104F0040005
:100E400028B10326042001F001FC304670BD04F0F7
:100E5000400028B10026402001F0F8FB3046F5E7BD
:100E60003046F3E7342C014070B504460D46D4F803
:100E7000A00050F82500C0F307464FF0FF30D4F82B
:100E8000A41021F81500012104F1B4008155314668
:100E90002046D4F8B020904770BD2DE9FF4FDDE922
:100EA0000D456CE0A5EB020A4FFA8AF3002B04DD36
:100EB00091F800A00AFA03FA05E091F800A0C3F146
:100EC000000B4AFA0BFA0AF0FF0C002B02DDC5F109
:100ED000080A01E0C2F1080A0AF0FF08804501DDB6
:100EE000824600E0C246564605EB060B4FF0FF0A6D
:100EF0000AFA0BFAC5F1080E4FF0FF0B4BFA0EFB86
:100F00004AEA0B0A0AF0FF072CEA070994F800A046
:100F10000AEA070A84F800A094F800A04AEA090A3D
:100F200084F800A002EB060A0AF0FF0A5246BAF162
:100F3000070F0BDD0022DDF80CA0BAF1000F02D084
:100F40004FF0FF3A01E04FF0010A514405EB060A69
:100F50000AF0FF0A5546BAF1070F0BDD0025DDF850
:100F60003CA0BAF1000F02D04FF0FF3A01E04FF081
:100F7000010A5444A0EB060A0AF0FF0000BF002853
:100F800090DCBDE8FF8F10B502F0F4F910BD000051
:100F900010B500BF1021EFF3118081F31188BFF36A
:100FA0004F8FBFF36F8F00BF04460749074800F01B
:100FB000ABF918B10449054800F052F800BF84F3BA
:100FC000118800BF10BD0000008800208864024026
:100FD00010B500BF1021EFF3118081F31188BFF32A
:100FE0004F8FBFF36F8F00BF04460C490C4800F0D1
:100FF0008BF968B100BF40210A4803F087F9002847
:10100000F9D00649064800F02BF800200649087080
:1010100000BF84F3118800BF10BD000000800028CD
:10102000B8640240001001401C0000200246094B39
:101030009A4201D2084801E00648103801F00053F6
:101040001BB1064B0B40C36002E0044B0B408360B6
:101050007047000010640240006002407D0F7D0F69
:101060000246094B9A4201D2084801E0064810386E
:1010700001F000531BB1064B0B40C36002E0044B70
:101080000B40836070470000106402400060024023
:101090007D0F7D0F21B1026842F00102026003E082
:1010A000026822F0010202607047000000B591B0B2
:1010B0000121880501F012F9344800F06DF84FF075
:1010C0000060029032480390402005900020079075
:1010D0004FF480600890002009900A900B904FF424
:1010E00080300C9000200D9003200E9000200F9077
:1010F000109002A9254800F057F946208DF8040009
:1011000004208DF8050000208DF8060001208DF8E0
:10111000070001A800F08EFF012210211B4800F0FB
:1011200025F94FF020511948FFF780FF1748303854
:1011300000F032F84FF00060029015480390002054
:10114000059007904FF480600890002009900A9065
:101150004FF480700B9040020C9000200D90032003
:101160000E9000200F90109002A90848303800F02F
:101170001BF9002210210548303800F0F7F8054926
:1011800002483038FFF752FF11B000BDB86402408A
:101190000410014000080020016821F001010160F5
:1011A0000021016041608160C160016121214161D4
:1011B0004A49884204D13D21484A103A91608CE066
:1011C00046491831884205D14FF47461434A103AB8
:1011D000916082E041493031884205D14FF4741169
:1011E0003E4A103A916078E03C494831884205D146
:1011F0004FF07461394A103A91606EE037496031BE
:10120000884204D13649354A103AD16065E0334905
:101210007831884204D13349304A103AD1605CE0D9
:101220002E499031884204D12F492C4A103AD1607E
:1012300053E02A49A831884205D14FF03D51274A51
:10124000103AD16049E02949884204D13D21274A1A
:10125000083A116041E025491831884205D14FF420
:101260007461224A083A116037E0204930318842DF
:1012700005D14FF474111D4A083A11602DE01B4945
:101280004831884205D14FF07461184A083A11601C
:1012900023E016496031884204D11149134A121FD4
:1012A00011601AE011497831884204D10D490F4A82
:1012B000121F116011E00D499031884204D10A4992
:1012C0000A4A121F116008E00849A831884204D177
:1012D0004FF03D51054A121F1160704710600240E7
:1012E0003D000020400F002000003D20106402401F
:1012F00021B1026842F02002026003E0026822F09D
:10130000200202607047000070B5024600200024F1
:101310000025124EB24201D2114B01E00F4B103B9F
:10132000104E0E4036B11E2606EAD124166806EA93
:10133000040502E0566906F0800501F000560EB182
:101340005C6800E01C68084E344004EA010616B1EF
:101350000DB1012000E0002070BD000010640240CB
:10136000006002403C0F3C0F7D0F7D0F10B501F077
:1013700080034BB122B1436943F08003436103E032
:10138000436923F08003436180290BD02AB10368AD
:1013900001F01E042343036004E0036801F01E040F
:1013A000A343036010BD000010B500220268134B78
:1013B0001A40CC680B6823434C6923438C69234350
:1013C000CC6923430C6A23434C6A23438C6A23432E
:1013D0004C6B23438C6B23431A430260426922F017
:1013E0000702D1E90B3423431A4342610B6943607E
:1013F0004B6883608B68C36010BD00003F801CF0A9
:1014000041607047C160704770B505460E4614468E
:1014100000212846FFF73EFE31462846FFF7F2FF3F
:1014200021462846FFF7ECFF01212846FFF732FE50
:1014300070BD70470146481C80B10A48B0F90000F1
:10144000814205D107480088401E00B2054A10803D
:10145000002001EB4102044B03F832004FF0FF3053
:1014600070470000EC240020BCA800201CB50948EF
:101470000121CDE9001008484A0208A103680A4882
:101480000BF0F6FA0348006810B908A003F05AF808
:101490001CBD00004C0000204400002045504F536C
:1014A00032696E6974000000D114000845504F5332
:1014B0003220696E69742074687265616420637299
:1014C0006561746564206661696C6564210D0A005C
:1014D00001B58CB0012004900C980B90042008906A
:1014E000049800F5C0700990002008AACDE90020FA
:1014F00009AB01224FF4A05102900B9803F000FFBA
:10150000049800F520700990002008AACDE9002079
:1015100009AB012241F2014102900B9803F0F0FE69
:10152000049800F560700990002008AACDE9002019
:1015300009AB012241F2024102900B9803F0E0FE58
:10154000049800F590600990002008AACDE90020D9
:1015500009AB012241F2034102900B9803F0D0FE47
:10156000FE49049808440990002008AACDE900200B
:1015700009AB01224FF4C05102900B9803F0C0FE5A
:10158000F749049808440990002008AACDE90020F2
:1015900009AB012241F6010102900B9803F0B0FE65
:1015A000F049049808440990002008AACDE90020D9
:1015B00009AB012241F6020102900B9803F0A0FE54
:1015C000E949049808440990002008AACDE90020C0
:1015D00009AB012241F6030102900B9803F090FE43
:1015E00001200890FF200A90002008AACDE90020E1
:1015F0000AAB02224FF4A05102900B9803F080FE38
:10160000FF200A90002008AACDE900200AAB0222A0
:1016100041F2014102900B9803F072FEFF200A9004
:10162000002008AACDE900200AAB02224FF4C051E5
:1016300002900B9803F064FE0220089000200690B0
:1016400008AACDE9002006AB0322D10202900B9834
:1016500003F056FE0220079001200890002008AAFF
:10166000CDE9002007AB02464FF4B05102900B9831
:1016700003F046FEBD48059004200890002008AA0B
:10168000CDE9002005AB01224FF4B05102900B9838
:1016900003F036FEB648059004200890002008AA02
:1016A000CDE9002005AB02224FF4B05102900B9817
:1016B00003F026FE012007900890002008AACDE93B
:1016C000002007AB024641F2016102900B9803F043
:1016D00017FEA848059004200890002008AACDE92C
:1016E000002005AB012241F2016102900B9803F04A
:1016F00007FE012007900890002008AACDE90020ED
:1017000007AB02464FF4D05102900B9803F0F8FD5E
:101710009948059004200890002008AACDE90020EF
:1017200005AB01224FF4D05102900B9803F0E8FD75
:1017300012E000209149034646F24102CDE9001033
:1017400004990B9800F08EFE012800D105E00222DA
:1017500004990B9804F0DAFCEBE700BF87480078A7
:1017600000F0080060B18020854908800020034611
:1017700046F24002CDE9001004990B9802F094FE65
:10178000802204990B9805F0B0FC0A200AF0E4F9D5
:10179000049800F500700990002009A901234FF476
:1017A000A052CDE9001004990B9802F07DFE0020B4
:1017B0000AA902234FF4A052CDE9001004990B9816
:1017C00002F072FE002007906B480590002007A9E8
:1017D00003464FF4B052CDE9001004990B9802F083
:1017E00063FE002005A901234FF4B052CDE900109B
:1017F00004990B9802F058FE01200790002007A9D9
:1018000003464FF4B052CDE9001004990B9802F052
:101810004BFE5249803904980844099014200690E0
:10182000002009A901234FF4C052CDE9001004990A
:101830000B9802F039FE00200AA902234FF4C0528F
:10184000CDE9001004990B9802F02EFE002006A9A5
:101850000323DA02CDE9001004990B9802F024FE6C
:101860003E4980310498084409900020069009A957
:10187000012341F60102CDE9001004990B9802F012
:1018800013FE00200AA9022341F60102CDE900104F
:1018900004990B9802F008FE002006A9032341F6E4
:1018A0000102CDE9001004990B9802F0FDFD2C49CE
:1018B0008031049808440990002009A9012341F6C9
:1018C0000202CDE9001004990B9802F0EDFD2549C4
:1018D0008031049808440990002009A9012341F6A9
:1018E0000302CDE9001004990B9802F0DDFD002001
:1018F00007901E480590002007A903464FF4D052D8
:10190000CDE9001004990B9802F0CEFD002005A946
:1019100001234FF4D052CDE9001004990B9802F046
:10192000C3FD13480590002005A902234FF4D052AF
:10193000CDE9001004990B9802F0B6FD0220079043
:10194000002007A903464FF4D052CDE900100499B6
:101950000B9802F0A9FD0020079013E00002004060
:10196000000300C0000400C0000500C02000646047
:1019700010007860100041602000622068020020A2
:101980006602002082480590002007A9034641F620
:101990000122CDE9001004990B9802F085FD00208A
:1019A00005A9012341F60122CDE9001004990B9805
:1019B00002F07AFD01200790002007A9034641F6B6
:1019C0000122CDE9001004990B9802F06DFD05216C
:1019D0000B9809F043FD0A200AF0BEF80122049991
:1019E0000B9805F082FB0A200AF0B6F8012069493D
:1019F00008700020034646F26002CDE90010049909
:101A00000B9802F051FD002063490860034646F23E
:101A10007A02CDE9001004990B9802F045FD4FF4CD
:101A200096705E4908600020034646F28102CDE9C7
:101A3000001004990B9802F037FD41F288305849A4
:101A400008600020034646F28302CDE900100499A5
:101A50000B9802F029FD41F28830524908600020BD
:101A6000034646F28402CDE9001004990B9802F077
:101A70001BFD01204C4908800020034646F28602E7
:101A8000CDE9001004990B9802F00EFD00204749A3
:101A90000880034646F24002CDE9001004990B98F5
:101AA00002F002FD0A200AF057F800BF4048008803
:101AB00000F4A070B0F5A07FF8D106203B49088063
:101AC0000020034646F24002CDE9001004990B982D
:101AD00002F0EAFC0A200AF03FF800BF3448008810
:101AE00040F2211108408842F8D10F202F49088088
:101AF0000020034646F24002CDE9001004990B98FD
:101B000002F0D2FC0A200AF027F800BF284800881B
:101B100040F2371108408842F8D13F20234908801D
:101B20000020034646F24002CDE9001004990B98CC
:101B300002F0BAFC0A200AF00FF800BF1C48008827
:101B400000F48060B0F5806FF8D1FF201149087073
:101B50000020034646F26002CDE9001004990B987C
:101B600002F0A2FC0A2009F0F7FF1248012100232D
:101B70004A02CDE9001010A114480AF079FF144878
:101B800000680AF017F80020114908600DB000BD88
:101B900010004160700200209C020020B002002072
:101BA000B4020020B8020020C0020020660200201B
:101BB000680200205000002041646D697474616EF9
:101BC00063655F636F6E74726F6C000019040008C8
:101BD0004C0000202DE9FC4107460D46002600245C
:101BE00000200090019008205B49086010204860A8
:101BF000402088600020C8604FF48060086108467B
:101C000000F0E6FD1020FEF7DFFF044614B1204689
:101C1000BDE8FC815148008800044F490860372026
:101C20004860402088600020C8604FF480600861F0
:101C3000084600F0CDFD3720FEF7C6FF04460CB184
:101C40002046E5E74FF0FF3045490860082048602E
:101C5000302088600220C8600020086101204861AF
:101C6000084600F00BFD00203B4908603320486027
:101C7000402088600020C8604FF4806008610846FA
:101C800000F0A6FD3320FEF79FFF04460CB120466E
:101C9000BEE709E04FF4001000F01CFD20B100F099
:101CA00091FD4DF82600761C2E48006840F22A610E
:101CB00008400028EED0082000F00CFD28B10820D4
:101CC00000F0C4FC04242046A2E7022000F002FD3C
:101CD00028B1022000F0BAFC0224204698E7202018
:101CE00000F0F8FC28B1202000F0B0FC06242046CB
:101CF0008EE74FF4007000F0EDFC30B14FF400704F
:101D000000F0A4FC0724204682E740F2FF5000F0D8
:101D10009DFC00980006009901F47F4140EA0120F3
:101D2000009901F47F0140EA1120009940EA116016
:101D3000686001980006019901F47F4140EA0120A2
:101D4000019901F47F0140EA1120019940EA1160F4
:101D5000286020465CE70000482C00202800002076
:101D60005C2C0020342C0140F0B50A4600210023F1
:101D7000002400BF3DE0012505FA01F3156805EADE
:101D800003049C4234D105684F000326BE40B5438E
:101D9000056015794E00B540066835430560157934
:101DA000012D02D01579022D16D185684F0003262A
:101DB000BE40B543856055794E00B54086683543D1
:101DC0008560456801268E40B54345604568967933
:101DD0008E40B6B235434560C5684F000326BE400D
:101DE000B543C560D5794E00B540C6683543C5607A
:101DF000491C1029BFD3F0BDF0B5002300244D07C6
:101E0000ED0E02FA05F3CE1000F1200555F826502C
:101E10004E07F70E0F26BE40B543CF1000F1200647
:101E200046F82750CE1000F1200555F8265045EA17
:101E30000304CE1000F1200545F82640F0BD0183D3
:101E40007047F0B502460C460026506941889069FB
:101E5000478809B9FF20F0BD002314E0506800EB6B
:101E6000C1000079032801DCFF20F4E7506850F836
:101E70003100806B0578A54201D1012605E0481CA0
:101E800081B2581CC3B2B942E8DD00BF0EB9FE20D2
:101E9000E1E71846DFE770B504460E46D4F83C018A
:101EA000008860B3002527E004F1B400405D0F28EE
:101EB00020D020680078A8421CD004F5A270405DB4
:101EC00000280BDCD4F8380120B129462046D4F88C
:101ED00038219047012104F1B400415504F5A27066
:101EE000405D401EC1B204F5A2704155294620460E
:101EF00005F0E8F8681CC5B2802DD5DB05E0B4F923
:101F00003401FFF797FAA4F8340170BD234909683A
:101F100088B223490968098881423EDB2049096863
:101F20004989491C1E4A126851811D490968C9899D
:101F3000491C1B4A1268D18119490968C989184A84
:101F400012681289914203D10021154A1268D18189
:101F5000134909680988091A114A12681269104B55
:101F60001B68DB8922F813100D49096849890C4A5E
:101F700012681289914210DD0021094A126891818C
:101F8000074A1268D181064A1268518104490968DA
:101F9000898A491C024A1268918270478C64024007
:101FA0002000002000BFFEE70448006900F0100098
:101FB00008B9012070470020FCE700000010024033
:101FC0000448006900F0080008B9012070470020AB
:101FD000FCE70000001002400448006900F0010026
:101FE00008B1012070470020FCE70000000002401B
:101FF0001CB50121084600F071F9C02000900120B5
:102000008DF8040000208DF8060003208DF80500EF
:1020100001208DF8070069460348FFF7A5FEC0219F
:102020000148FFF70CFF1CBD0000024000BFFEE7A7
:102030007047000070B5002100230F22C4781CB344
:10204000174C246804F4E064C4F5E064C4F3072189
:10205000C1F10404E3B20A4144789C40E1B28478BF
:10206000144021430C07210E0E4C0578615504786D
:1020700004F01F050124AC4005786D11AD0005F199
:10208000E025C5F8004109E0047804F01F050124AB
:10209000AC40054D0678761145F8264070BD00002D
:1020A0000CED00E000E400E080E100E002490143C3
:1020B000024A1160704700000000FA050CED00E0D4
:1020C00070B504460D461646204609F04FFA00202A
:1020D00070BD0000F8B504460E461746A834B4F9A2
:1020E0000400FFF7A7F9A08054F8A809008878B188
:1020F000D4F8A800058805EB850040000023054AB8
:1021000019460090204601F035FDA4F8AC0000BF50
:102110000020F8BD9522000870B504460D4616460D
:10212000204605F069F8204605F022F8002070BD31
:1021300030B503460C46D3F80C02007860B9002194
:1021400006E00020D3F8105245F82100481CC1B227
:1021500093F809028842F4DC002030BD70B50546D2
:102160000C464FF0FF3004EBC402A96801EB4201BA
:102170004880002004EBC402A96801EB4201C8803A
:10218000E1B2284608F026FF70BD70B505460C4642
:102190004FF0FF3004EBC402A96801EB42018880D4
:1021A00004EBC401A86810F8110020F0010004EB52
:1021B000C402A96801F81200E1B2284608F00AFF3B
:1021C00070BD00002DE9F84304464FF4C057606924
:1021D0000589A069B0F80880BDB114E06A463946A7
:1021E0002046D4F8E83198470646009830B90A49A5
:1021F0003068C1623068C1633068C165781C87B2DD
:10220000681C85B200BF4545E8DD0021204602F08C
:10221000ABFFBDE8F8830000313F00082DE9F04135
:102220000446002560690689A069078986B32DE008
:1022300005EBC502A16801EB4201B1F90200FFF70D
:10224000F9F805EBC502A16801EB4201488005EBF6
:10225000C502A16801EB4201B1F90400FFF7EAF8F9
:1022600005EBC502A16801EB42018880002005EB67
:10227000C502A16801F8120005EBC502A16801EBD7
:102280004201C880681CC5B2701C86B2BE42CFDD58
:10229000BDE8F081FEB504460E46D4F8A8000088DB
:1022A000A8B12068007800F5E065ADF80050012085
:1022B0008DF8030000208DF8020094F87C008DF862
:1022C00004006946D4F8E40103F01AFE05E0B4F90D
:1022D000AC00FFF7AFF8A4F8AC00FEBD29B1064A88
:1022E00012680243044B1A6004E0034A12688243F6
:1022F000014B1A60704700003038024029B1064A8D
:1023000012680243044B1A6004E0034A12688243D5
:10231000014B1A60704700004038024029B1064A5C
:1023200012680243044B1A6004E0034A12688243B5
:10233000014B1A60704700002038024029B1064A5C
:1023400012680243044B1A6004E0034A1268824395
:10235000014B1A60704700004438024029B1064A18
:1023600012680243044B1A6004E0034A1268824375
:10237000014B1A607047000024380240F0B500217C
:1023800000220024022500260223324F3F6807F076
:102390000C0121B1042905D0082937D105E02E4FC1
:1023A000076036E02D4F076033E02A4F3F1F3F683C
:1023B000C7F38056274F3F1F3F6807F03F036EB1BA
:1023C000264FB7FBF3F7DFF88CC0ACF1040CDCF858
:1023D00000C0CCF3881C07FB0CF40CE01E4FB7FBCD
:1023E000F3F7DFF870C0ACF1040CDCF800C0CCF3FC
:1023F000881C07FB0CF4174F3F1F3F68C7F30147CA
:102400007F1C7D00B4FBF5F7076002E0124F076008
:1024100000BF00BF0F4F3F6807F0F0010909104FE0
:102420007A5C0768D74047600A4F3F6807F4E0517D
:10243000890A0B4F7A5C4768D7408760054F3F6831
:1024400007F46041490B064F7A5C4768D740C76084
:10245000F0BD0000083802400024F40000127A00A9
:10246000F42400202DE9FF4F85B0074690461C4616
:10247000DDF84C9004AA41463846D7F8E831984731
:102480008246DAF8000000EB041090F801B0DAF8A8
:10249000000000EB041040680390B9F1000F01D078
:1024A000052500E0032523464246CDE900B938461C
:1024B000069908F03DFDE0B901F042FC18E009F092
:1024C00043FA02A803AB00903846129A069904F02A
:1024D000CDF9064609F062FA07480078012803D1D1
:1024E000EE2009B0BDE8F08FAE4201D03046F8E7EB
:1024F000E5E7EF20F5E70000580000202DE9F8435C
:102500000546884614461E466A4641462846D5F882
:10251000E83198470746009830B93879A04203DD82
:10252000386800EB0410C6600098BDE8F88300002E
:102530007CB50546002400200090019000F0EAF8E8
:1025400000F0007010B10E2420467CBD3D49098882
:1025500088B26946FFF73EFB04460CB12046F4E71B
:10256000012D36D1019800F4802000282ED0354866
:1025700000880004344908603720486040208860A3
:102580000020C860A8020861084600F021F9372041
:10259000FEF71AFB04460CB12046D6E702202A4972
:1025A000086006204860402088600020C8604FF422
:1025B00080600861084600F00BF90620FEF704FB76
:1025C00004460CB12046C0E72046BEE7252420463D
:1025D000BBE7019800F4803078B31A480088000403
:1025E0001949086037204860402088600020C86092
:1025F0004FF480600861084600F0EAF83720FEF7E3
:10260000E3FA04460CB120469FE700200E4908601B
:1026100006204860402088600020C8604FF4806039
:102620000861084600F0D4F80620FEF7CDFA04460B
:102630000CB1204689E7204687E7FFE7252420469E
:1026400083E7000028000020482C00200149086092
:1026500070470000382C01400149086070470000B5
:10266000382C01400149086070470000A0802542D5
:1026700001490860704700008C85254200210B4B02
:1026800002681A601B1D42681A601A1D116821F049
:10269000F701D0E902231A4303691A4343691A4335
:1026A0001143024A0832116070470000242C014097
:1026B00010B50121C802FFF751FE00214FF4006060
:1026C000FFF74CFE10BD000001480068C0B2704723
:1026D000102C014001460020034A12680A400AB14A
:1026E000012000E000207047342C0140014600200A
:1026F000034A12680A400AB1012000E00020704736
:10270000342C01400248006800F0030070470000CC
:10271000002C014008B50146002000900248084402
:1027200000900098006808BD142C014010B500F01E
:1027300035FE10BD29B1064A12680243044B1A60E7
:1027400004E0034A12688243014B1A60704700009C
:102750003C2C014000210A4A116847F6FF62914370
:10276000027D83681A4343681A43C3681A430368A7
:102770001A4303691A431143014A1160704700006C
:10278000042C014008B531208DF8000001208DF89F
:10279000010000208DF8020001208DF8030068463A
:1027A000FFF748FC3B208DF8000001208DF8010068
:1027B00000208DF8020001208DF803006846FFF725
:1027C00039FC08BD0148006870470000802C0140BA
:1027D0000021094B02681A601A1D11686FF30A0183
:1027E000D0E901231A43C3681A4303691A4311430A
:1027F000014A121D11607047082C01400149086010
:1028000070470000002C01402DE9FC4104460D46B4
:102810006069468866B1C5EBC50000EB400104F174
:10282000280010F821003044A1694988884201DD60
:10283000BDE8FC81C5EBC50000EB400204F12800B7
:1028400010F822003044616851F83000806B07783E
:102850004FF0FF31C5EBC50000EB400204F128004A
:1028600000EB8200A0F84C108521C5EBC50000EB01
:10287000400204F1280000EB820081702D49C5EB75
:10288000C50000EB400204F1280000EB8200807AD2
:10289000CDE90001C5EBC50000EB400C04F12800B8
:1028A00000EB8C000389C5EBC50000EB400C04F184
:1028B000280010F82C20C5EBC50000EB400C04F1FB
:1028C000280000EB8C004178204608F096FC19495E
:1028D000C5EBC50000EB400204F1280000EB8200CC
:1028E0004160C5EBC50000EB400104F1280000EB9E
:1028F0008100006D58B1C5EBC50000EB400104F14B
:10290000280000EB81003946026D20469047C5EB58
:10291000C50000EB400104F1280000EB8100406895
:102920000449884203D1E9B2204608F023FB00BFE6
:102930007EE70000000004052DE9FF4104460D4636
:10294000C5EBC50000EB400104F1280000EB81005D
:10295000C06888B9C5EBC50000EB400104F1280050
:1029600000EB81000169C5EBC50000EB400204F1FA
:10297000280000EB8200C160C5EBC50000EB400100
:1029800004F1280000EB8100C0680390012003AA35
:10299000CDE900200290C5EBC50000EB400704F133
:1029A000280000EB870000F11403C5EBC50000EB25
:1029B000400704F1280000EB8700827AC5EBC500D0
:1029C00000EB400704F1280000EB87000189204656
:1029D00002F096FC06461EB1304604B0BDE8F08118
:1029E0000020FAE7F0B504461546C1EBC10000EB44
:1029F000400704F1280000EB8700006928442028E4
:102A000001D9FF20F0BDC1EBC10000EB400704F18C
:102A1000280000EB8700066900220FE09F5CC1EBF5
:102A2000C10000EB400C04F1280000EB8C001430D6
:102A300006EB020C00F80C70501CC2B2AA42EDD397
:102A4000C1EBC10000EB400704F1280000EB870058
:102A500000694719C1EBC10000EB400C04F12800EC
:102A600000EB8C0007610020CCE7000070B5044645
:102A7000002520480068032802D12725284670BD7C
:102A80001C48006838B11B480068012803D0194869
:102A9000006802282CD1B4F5805F02D12725284692
:102AA000EDE7B4F5006F13D10120FFF741FD0546B6
:102AB000F5B90020104908750860486088604FF437
:102AC0000060C860002008610846FFF743FE0FE081
:102AD0000020FFF72DFD054655B900200649087571
:102AE000086048608860C86008610846FFF732FEE9
:102AF0002846C4E724000020302C0020F0B5014611
:102B000000200022C04B1B7881F85630BF4B1B8839
:102B1000A1F85430BE4B1B681A0E93090B70C2F318
:102B200083034B7002F003038B70B94B1B68C3F334
:102B30000742CA70B64B1B88C3F307220A71B44B15
:102B40001A784A715B681A0E1301CB80B04B5B6830
:102B5000C3F30742CB8843EA1213CB8002F00F0382
:102B60000B72AB4B9B88C3F30722D3094B72C2F3A2
:102B700080138B72C2F34013CB72C2F300130B733A
:102B800000234B73A04B1B681BB19F4B1B68012B91
:102B90004FD193071B0D0B619D4B1A790B6943EACB
:102BA00082030B619A4B9B681A0E0B6943EA9213DE
:102BB0000B61C2F3C2030B7502F007034B75944B14
:102BC0009B68C3F3074253098B75C2F38203CB752D
:102BD00093075B0F0B768E4B1B89C3F307220B7E8B
:102BE00043EAD2130B760B695B1C0024C1E9123453
:102BF0000B7ED1E912469B1C012505FA03F3DF1772
:102C0000A4FB035C06FB03C304FB0733C1E91253B7
:102C10000C7A0123A3400B650027D1E912560B6DF6
:102C2000A5FB034C06FB03C305FB0733C1E91243B5
:102C300036E0754B1B68022B32D1754B1A7993061F
:102C40009B0A0B61724B9B681A0E0B6943EA0223C5
:102C50000B616F4B9B68C3F307420B6913430B6116
:102C60006B4B1B89C3F307220B6900245B1C44EBED
:102C700004074FF400760025A3FB064C07FB06C6AD
:102C800003FB05664FF480650027A4FB053C06FBAB
:102C900005C504FB0754C1E912344FF400730B65FA
:102CA000C2F3801301F8193F93065B0E4B70584B2B
:102CB0001A7A4B7843EAD2134B7002F07F038B7081
:102CC000534BDB681A0ED309CB70C2F341130B715F
:102CD000C2F382034B7193071B0F8B714C4BDB6864
:102CE000C3F307428B7943EA92138B71C2F340130B
:102CF000CB7100230B7202F001034B72444B9B8992
:102D0000C3F30722D3098B72C2F38013CB72C2F3D1
:102D100040130B73C2F300134B73C2F381038B7325
:102D200002F00303CB733A4B1A7B53080B74012355
:102D30004B74384B1B681A0ECA741939354B1B6813
:102D4000C3F307421402CC85324B1B88C3F307221E
:102D5000CB8D1343CB852F4B1A7814060C635B681D
:102D60001A0E0B6B43EA02440C632A4B5B68C3F3F5
:102D700007420B6B43EA02240C63264B9B88C3F388
:102D800007220B6B13430B63224B1A7934235A54DB
:102D9000204B9B681A0E35235A541E4B9B68C3F375
:102DA000074214068C631B4B1B89C3F307228B6BF2
:102DB00043EA02448C63174B1A7A8B6B43EA022472
:102DC0008C63144BDB681A0E8B6B13438B63114BB4
:102DD000DB68C3F307423C235B5C43EA12143C23E9
:102DE0005C5413071C0DCC870A4B9B89C3F3072245
:102DF000CB8F1343CB87074B1A7B540840235C547B
:102E0000012441235C54F0BD240000202800002050
:102E1000A8290020B829002008B5002000906846A5
:102E200000F070FC08B1FF2008BD0098C0F34320FB
:102E3000FAE710B50424FFF7EFFF0446042C01D194
:102E4000002010BDFF2C01D10220FAE70120F8E795
:102E500008B500200090FFF795FC00F069F9FFF736
:102E600027FC00F0B7F900909DF8000010B19DF824
:102E7000000008BD00F032F800909DF8000010B18D
:102E80009DF80000F5E700201249087508604860C9
:102E90008860C86008610846FFF75CFC0E48FFF7D1
:102EA0002DFE00909DF8000040B90B48B0F854008A
:102EB00002041046002100F009FC00909DF800007B
:102EC00020B94FF40060FFF7D1FD00909DF800009D
:102ED000CFE70000302C0020D829002038B500248E
:102EE00001200090FFF70EFC10B92524204638BDC4
:102EF00044480068042828D0002043490860022084
:102F00004860C02088600020C8604FF4806008617D
:102F10000846FFF75DFCFDF7F1FE04460CB12046C4
:102F2000E5E70020FFF7F6FB384908600420FFF7CB
:102F3000F1FB364948600820FFF7ECFB3349886015
:102F40000C20FFF7E7FB3149C8602E48006858B1F4
:102F50002C480068012807D02A480068062803D0BA
:102F600028480068022816D100202749086003205D
:102F70004860402088600020C8604FF4806008618D
:102F80000846FFF725FC69460320FDF7F9FE0446D5
:102F90000CB12046ABE71B48006804282ED0BDF8D2
:102FA00000001B490860BDF80000000416490860D5
:102FB00009204860C02088600020C8604FF480600D
:102FC00008610846FFF704FCFDF798FE04460CB1C3
:102FD00020468CE70020FFF79DFB0E490860042087
:102FE000FFF798FB0B4948600820FFF793FB09495E
:102FF00088600C20FFF78EFB0649C860002420463D
:1030000075E7000024000020482C0020B82900208B
:1030100028000020A829002030B58FB005460C46B6
:103020004FF0FA511D48FEF701F800211B48FEF74A
:1030300031F81A48FEF7B0F84FF0006000901848D9
:103040000190029500200390049405904FF4806055
:103050000690800007900020089009904FF44030BF
:103060000A9004200B9003200C904FF400000D9068
:1030700080100E9069460948FEF796F9012210214A
:103080000648FEF773F920210448FEF731F90121C3
:103090000248FDF7FFFF0FB030BD0000586402404A
:1030A000802C014030B58FB005460C464FF0FA51E8
:1030B0001D48FDF7BBFF00211B48FDF7EBFF1A4839
:1030C000FEF76AF84FF000600090184801900295F2
:1030D000402003900494002005904FF480600690F7
:1030E000800007900020089009904FF440300A902B
:1030F00004200B9003200C904FF400000D908010E2
:103100000E9069460848FEF74FF901221021064843
:10311000FEF72CF920210448FEF7EAF801210248C5
:10312000FDF7B8FF0FB030BD58640240802C01405D
:103130001CB501210C20FFF7D1F80C2208212348EF
:10314000FEF75AFE0C2209212048FEF755FE0C22FC
:103150000A211E48FEF750FE0C220B211B48FEF7E9
:103160004BFE0C2211461948FEF746FE0C220221A6
:103170001748FEF741FE4FF47060009002208DF872
:1031800005008DF8040000208DF8060001208DF860
:10319000070069460D48FEF7E7FD042000906946E8
:1031A0000B48FEF7E1FD4FF48050009000208DF8B1
:1031B000070069460548FEF7D7FD0121C802FFF761
:1031C000BDF801218805FFF789F81CBD0008024001
:1031D000000C0240F8B500200090002500240026D5
:1031E000002776205F4908750020086048608860E5
:1031F000C86008610846FFF7ADFA0320FFF7FEFA42
:103200000120FFF72FFA00205749086048608860C6
:10321000C8604FF4806008610846FFF7D9FAFDF7EF
:10322000BCFC00909DF8000010B19DF80000F8BDB6
:103230004FF4D5704C4908600820486040208860F1
:103240000020C8604FF4806008610846FFF7C0FAAC
:10325000FDF7E4FD00909DF8000020B901204349EE
:103260000860870712E000203F4908603720486067
:10327000402088600020C8604FF4806008610846E4
:10328000FFF7A6FA3720FDF79FFC00900020364993
:10329000086037204860402088600020C8604FF4F4
:1032A000806008610846FFF793FA3720FDF78CFC31
:1032B00000909DF80000002851D13BE000202A49F1
:1032C000086037204860402088600020C8604FF4C4
:1032D000806008610846FFF77BFA3720FDF774FC31
:1032E00000909DF8000010B19DF800009FE7204875
:1032F00038431D490860292048604020886000202C
:10330000C8604FF4806008610846FFF761FAFDF776
:103310001BFD00909DF8000010B19DF8000086E7AD
:103320000020FFF7F7F90546012080EAD57080F00C
:103330000106641C1EB94FF6FF708442BED34FF6DF
:10334000FF70844204D31B2000909DF800006EE7BC
:1033500005F08040051E02D00220044908609DF857
:10336000000064E7302C0020482C002024000020BE
:103370000000108010B50748006800F0C05040B150
:103380000120054908604FF0C25102485830FDF74E
:103390004DFE10BD006402403800002010B54FF40F
:1033A0008070FFF7A3F950B10020254908704FF451
:1033B0008070FFF751F901202249086037E00220B0
:1033C000FFF794F930B10220FFF746F902201C49BB
:1033D00008702CE00820FFF789F930B10820FFF7CA
:1033E0003BF904201649087021E02020FFF77EF900
:1033F00030B12020FFF730F906201149087016E09F
:103400001020FFF773F930B11020FFF725F90520E0
:103410000B4908700BE04FF40070FFF767F930B10B
:103420004FF40070FFF718F90720054908700021D4
:103430004CF23A30FFF77EF90148007810BD0000E9
:1034400030000020340000202DE9F0418046144671
:103450001D46069E0027002030490870304908604C
:103460003049086030490860012140F22A30FFF7F6
:1034700061F90120FFF7FCF831464046FFF7CCFD2B
:103480002A480068022808D10602020200232046CA
:103490002946FCF7F1FE04460D462548066010203B
:1034A00023494860402088600020C8604FF4806055
:1034B00008610846FFF78CF91020FDF785FB0746E9
:1034C00017B13846BDE8F0814FF0FF301949086068
:1034D00008464660902088600220C860002008618D
:1034E000012048610846FFF7C9F81148046011201F
:1034F0000F494860402088600020C8604FF4806019
:1035000008610846FFF764F91120FDF75DFB0746E7
:103510000FB13846D6E73846D4E700003000002027
:10352000340000202C0000202C2C0140240000201E
:10353000482C00205C2C00202DE9FE4F81461746C8
:103540009846DDF830A0002002903C4645461F48D2
:10355000006818B1680240EAD455640209F003001B
:10356000D0B1002615E04FF400700090700210EB0F
:10357000040B45F100035A461548FFF765FF02901A
:103580004FF4007212494846FCF7A7FE09F500798E
:10359000761C5645E7D316E0BAF1010F09D14FF476
:1035A000007022462B4600904846FFF74DFF0290E0
:1035B00009E04FF4007022462B46CDE9000A484648
:1035C00000F008F802900298BDE8FE8F2400002069
:1035D000302A00202DE9F047814614461D46DDE9DA
:1035E000086800270020324908703249086001202D
:1035F00031490860002031490860012140F22A3039
:10360000FFF798F808FB06F14846FFF705FD012093
:10361000FFF72EF82A480068022808D106020202A5
:10362000002320462946FCF727FE04460D46254880
:103630000660102023494860402088600020C86050
:103640004FF4806008610846FFF7C2F81020FDF7CC
:10365000BBFA074617B13846BDE8F0874FF0FF3098
:103660001949086008FB06F0486090208860022035
:10367000C86000200861012048610846FEF7FEFF8F
:103680001048046012200F494860402088600020E4
:10369000C8604FF4806008610846FFF799F812206F
:1036A000FDF792FA07460FB13846D5E73846D3E71B
:1036B00030000020340000202C0000202C2C014081
:1036C00024000020482C00205C2C002070B504460B
:1036D0000D4600260A48046007200949486040203A
:1036E00088600020C8604FF4806008610846FFF7DA
:1036F0006FF80720FDF768FA0646304670BD0000F7
:10370000482C002070B50446002514B9262528460B
:1037100070BD0F48008800040E4908600D20486005
:10372000402088600020C8604FF48060086108462F
:10373000FFF74EF80D20FDF747FA05460DB1284674
:10374000E6E70020FEF7E6FF20602846E0E70000FD
:1037500028000020482C002010B5002400200A4931
:1037600008600C204860402088600020C8604FF44A
:10377000806008610846FFF72BF80C20FDF724FA5B
:103780000446204610BD0000482C002070B50025DE
:103790006C1E00E0641E1848006838B917480068BD
:1037A00020B91748007808B9002CF3D1002012493D
:1037B0000860441E00E0641E1248006800F40050D7
:1037C00008B1002CF7D110480068012805D1FFF797
:1037D000C3FF054600200C4908600CB905B9042553
:1037E00040F2FF50FEF732FF0548007810B1044860
:1037F000007870BD2846FCE7380000203400002027
:1038000030000020342C01402C00002070B5002531
:103810006C1E00E0641E1848006838B9174800683C
:1038200020B91748007808B9002CF3D100201249BC
:103830000860441E00E0641E1248006800F48050D6
:1038400008B1002CF7D110480068012805D1FFF716
:1038500083FF054600200C4908600CB905B9042512
:1038600040F2FF50FEF7F2FE0548007810B1044820
:10387000007870BD2846FCE73800002034000020A6
:1038800030000020342C01402C0000202DE9F041B4
:10389000804614461D46069E002700202F490870CA
:1038A0002F4908602F4908602F490860012140F224
:1038B0002A30FEF73FFF31464046FFF7F3FB012079
:1038C000FEF7D6FE29480068022808D10602020247
:1038D000002320462946FCF7CFFC04460D46244829
:1038E0000660102022494860402088600020C8609F
:1038F0004FF4806008610846FEF76AFF1020FDF76C
:1039000063F9074617B13846BDE8F08118480460EE
:10391000182017494860402088600020C8604FF494
:10392000806008610846FEF753FF1820FDF74CF948
:1039300007460FB13846E7E74FF0FF300D49086002
:1039400008464660902088600020C8600861012019
:1039500048610846FEF792FE3846D5E73000002061
:10396000340000202C0000202C2C014024000020DA
:10397000482C00205C2C00202DE9FE4F06461746FF
:103980009846DDF830A0002002903C46454621488C
:10399000006818B1680240EAD455640206F00300DA
:1039A000E8B14FF0000917E04FF4007231461A48B1
:1039B000FCF793FC4FF4007000904FEA492010EBA5
:1039C000040B45F100035A461348FFF75FFF0290CE
:1039D00006F5007609F10109D145E5D316E0BAF103
:1039E000010F09D14FF4007022462B46009030465B
:1039F000FFF74CFF029009E04FF4007022462B467F
:103A0000CDE9000A304600F009F802900298BDE8BE
:103A1000FE8F000024000020302A00202DE9F0470E
:103A2000814615461E46DDE90878002400204949F4
:103A30000870494908600120484908600020484949
:103A40000860012140F22A30FEF774FE08FB07F1FE
:103A50004846FFF727FB0120FEF70AFE41480068B1
:103A6000022808D107020202002328463146FCF74B
:103A700003FC05460E463C48076010203A49486062
:103A8000402088600020C8604FF4806008610846CC
:103A9000FEF79EFE1020FDF797F8044614B120466D
:103AA000BDE8F0873148008800042F4908603720BE
:103AB0004860402088600020C8604FF48060086142
:103AC0000846FEF785FE3720FDF77EF804460CB168
:103AD0002046E5E72448C0F80080172022494860C6
:103AE000402088600020C8604FF48060086108466C
:103AF000FEF76EFE1720FDF767F804460CB120466E
:103B0000CEE71948056019201749486040208860B1
:103B10000020C8604FF4806008610846FEF758FE38
:103B20001920FDF751F804460CB12046B8E74FF0D4
:103B3000FF300F49086008FB07F04860902088605C
:103B40000020C8600861012048610846FEF796FD24
:103B50002046A5E730000020340000202C00002083
:103B60002C2C014024000020482C0020280000209C
:103B70005C2C00202DE9F05F82468B4691469846EA
:103B80000026274C40E0B9F1000F3AD02078B8BBAE
:103B90002448B0F90000401C864205D12148008825
:103BA000401C00B21F49088002F04AFE0546474605
:103BB0004FF6FF70874201D2384601E04FF6FF70A2
:103BC000074619480068A8420AD917480068401BF0
:103BD000B84205D9E81914490860384607F0A4FC32
:103BE000C4F80890C4F804A0C4F80CB008EB0500B1
:103BF00020610A986061012020703046BDE8F09F86
:103C0000FFE7701C06B218340648B0F90000401CEB
:103C1000864201DC082EB6DB4FF0FF30EEE70000F5
:103C2000BCA80020EC240020E82400200CB50020D3
:103C3000019000903448006840F4803032490860B8
:103C400000BF3148006800F4003000900198401C2B
:103C50000190009818B90198B0F5A04FF1D12A4809
:103C6000006800F4003010B10120009001E0002055
:103C700000900098012846D123484030006840F069
:103C800080502149403108602048006840F440409D
:103C90001E4908601C48083000681B49083108604C
:103CA0000846006840F4004008600846006840F498
:103CB000A05008601648091F0860081F006840F0FF
:103CC0008070091F086000BF0F48006800F0007096
:103CD0000028F9D040F205700E4908600A48083003
:103CE000006820F0030008490831086008460068B1
:103CF00040F00200086000BF03480830006800F090
:103D00000C000828F8D10CBD0038024000700040BB
:103D100008544007003C024001464FF480620A808C
:103D200020220A81044A4A60044A0A6100228A81E8
:103D3000CA814A818A8270472825002028290020CC
:103D400038B500200749087008F0D2FE04464FF449
:103D50007A7000232246012100900348006809F090
:103D600089F838BD580000205400002070B5044682
:103D70000D46204607F06AFA70BD000010B500BF7E
:103D8000102080F31188BFF34F8FBFF36F8F00BFF8
:103D900008F0B4FE18B14FF080500449086000BF2D
:103DA000002080F3118800BF10BD000004ED00E08A
:103DB00010B51548006840F47000134908601348B6
:103DC000006840F001001149086000200F490831E7
:103DD00008600E4800680E4908400C4908600D480C
:103DE000091D0860081F006820F48020091F086072
:103DF000002006490C310860FFF718FF4FF0006003
:103E000001498039086010BD88ED00E000380240AB
:103E1000FFFFF6FE1030002410B50121064800F027
:103E20002AF840B105480068401C04490860012197
:103E3000014800F011F810BD0010004018000020EB
:103E400021B1028842F08002028004E002884FF62D
:103E50007F731A4002807047CA430282704721B1C3
:103E6000028842F00102028004E002884FF6FE73ED
:103E70001A400280704730B502460020002300241B
:103E8000158A05EA0103958905EA010413B10CB10D
:103E9000012000E0002030BD1AB183890B438381EB
:103EA00002E083898B4383817047000000220288EF
:103EB000184B98420ED0184B98420BD0B0F1804F5F
:103EC00008D0164B984205D0154B984202D0154B9E
:103ED000984204D14FF68F731A404B881A43124B05
:103EE000984207D0114B984204D04FF6FF431A4036
:103EF0000B891A4302804B68C3620B880385054B0C
:103F0000984202D0044B984201D18B7A0386012358
:103F1000838270470000014000040140000400401B
:103F200000080040000C0040001000400014004059
:103F30002DE9F04104460E4617468220005DE0B3AD
:103F4000022F04D0032F03D0052F37D101E000BF8B
:103F500000BF61690989606800EBC108A6EB080031
:103F6000C0F3C70505EBC502A16801EB4201B1F939
:103F70000200FDF75FFA05EBC502A16801EB420103
:103F8000488005EBC502A16801EB4201B1F90400CC
:103F9000FDF750FA05EBC502A16801EB42018880EC
:103FA000002005EBC502A16801F812002946204651
:103FB000FEF7D4F80020BDE8F08101E000BF00BFAB
:103FC0000020F8E72DE9F0414FF6FF7602F038FCCB
:103FD00007462948006800EB07080025274C25E024
:103FE000207800F00100F0B12069404513D86069E5
:103FF00010B90220207016E06069B7FBF0F100FBF9
:1040000011706169081A2061032020702069B04294
:1040100009D2266907E02069A0EB08002061206929
:10402000B04200D22669681C05B218341448B0F9B1
:1040300000008542D4DD10480660304607F074FA6F
:1040400000250E4C10E0207800F0020048B12078E6
:1040500020F002002070A06818B1D4E90221606845
:104060009047681C05B218340548B0F90000854235
:10407000E9DDBDE8F0810000E8240020BCA80020B4
:10408000EC24002010B500BF1021EFF3118081F364
:104090001188BFF34F8FBFF36F8F00BF044640F20C
:1040A0002441074800F03FF920B1FDF72FFF0448F5
:1040B00000F0F2F900BF84F3118800BF10BD0000CA
:1040C0000010014010B588B00446FCF7EFFF012155
:1040D0000846FEF703F901211020FEF72FF9072209
:1040E00009213348FDF788FE07220A213048FDF7F1
:1040F00083FE4FF40070029002208DF80C008DF8C2
:104100000D0000208DF80E0001208DF80F0002A98F
:104110002748FDF729FE4FF48060029002A9244849
:10412000FDF722FE234800F079F804940020ADF852
:104130001400ADF81600ADF81800ADF81C000C2006
:10414000ADF81A0004A91B4800F03CF925208DF8B1
:10415000040002208DF8050000208DF806000120E3
:104160008DF8070001A8FDF765FF012240F2244108
:10417000104800F002F901210E4800F02EF840F23C
:1041800024410C4800F0CFF80A4800F085F90122DC
:104190004021084800F02DF801228021054800F058
:1041A00028F84021034800F00FF808B010BD0000C7
:1041B00000000240001001400246182901D20020F0
:1041C000704713461846FBE701F40072B2F5007F12
:1041D00000D100BFCA430280704721B1828942F4F6
:1041E0000052828104E082894DF6FF731A40828179
:1041F00070471AB1838A0B43838202E0838A8B4320
:104200008382704770B504460D462A46214602480F
:10421000FDF7FAF870BD00008864024010B504464E
:104220003248844208D101211020FEF797F800217E
:104230001020FEF793F857E02D48844209D1012160
:104240004804FEF76BF800214FF40030FEF766F8E3
:104250004AE02848844209D101218804FEF75EF82B
:1042600000214FF48020FEF759F83DE022488442B7
:1042700009D10121C804FEF751F800214FF40020B4
:10428000FEF74CF830E01D48844209D101210805B1
:10429000FEF744F800214FF48010FEF73FF823E0CA
:1042A0001748844208D101212020FEF757F8002149
:1042B0002020FEF753F817E01248844209D101216B
:1042C0008807FEF72BF800214FF08040FEF726F814
:1042D0000AE00D48844207D101214005FEF71EF88F
:1042E00000216005FEF71AF810BD00000010014023
:1042F0000044004000480040004C00400050004096
:104300000014014000780040007C0040024600207C
:10431000B1F5007F00D100BF13880B400BB1012025
:1043200000E00020704770B50246002400230025FD
:10433000002040F66A16B14200D100BFC1F3421519
:1043400001F01F03012606FA03F3012D02D196891D
:10435000334006E0022D02D1168A334001E0968AEE
:1043600033400C12012606FA04F41688344013B1C7
:104370000CB1012000E0002070BDF0B50346002420
:1043800000260025002040F66A17B94200D100BF80
:104390001846C1F3421401F01F06012707FA06F57B
:1043A000012C01D10C3004E0022C01D1103000E0CE
:1043B00014301AB107682F43076002E00768AF4363
:1043C0000760F0BD2DE9FF4705460E460024A146D3
:1043D00000BFA046B08900B100BF2C8A24F440542D
:1043E000F08804432C82AC8941F20C608443B0888D
:1043F00031890843718908430443AC81AC8A24F4B1
:104400004074B0890443AC826846FDF7B7FF20488A
:10441000854202D01F48854202D1DDF80C9001E0B0
:10442000DDF80890A88900F4004040B109EBC9000C
:1044300000EB091031684900B0FBF1F707E009EB28
:10444000C90000EB091031688900B0FBF1F7642066
:10445000B7FBF0F004012009642101FB1078A88962
:1044600000F4004040B1322000EBC800B0FBF1F096
:1044700000F00700044308E0322000EB081064213C
:10448000B0FBF1F000F00F0004432C81BDE8FF8782
:10449000001001400014014001468888C0F3080064
:1044A000704700BFFEE700002DE9FF4F89B00746C7
:1044B00090461C46DDE916B908AA41463846D7F8A9
:1044C000E83198478246DAF8000000EB04104078A3
:1044D0000790DAF8000000EB041040680690B9F18C
:1044E000000F01D0042500E00225DDE90601234686
:1044F00042468DE80308CDF80C9038460A9907F03B
:1045000011FFC8B9FFF71CFC15E007F01DFA05AA5A
:1045100038460A9902F018FB064607F03FFA0748AA
:104520000078012803D1EE200DB0BDE8F08FAE4237
:1045300001D03046F8E7E8E7EF20F5E75800002023
:10454000704700000FB4054B10B503A9044A029848
:1045500000F0B8F810BC5DF814FB000025680008F6
:10456000082500200FB4084B10B504A902AA03982F
:1045700000F0A8F8044602A9002000F05DFF2046E4
:1045800010BC5DF814FB00003954000802E008C8B4
:10459000121F08C1002AFAD170477047002001E0BD
:1045A00001C1121F002AFBD1704700002DE9FC5FFA
:1045B00081468A4614469846DDE90C6B01AA5146AD
:1045C0004846D9F8E83198470546019810B1019856
:1045D000BDE8FC9F2879A04209DC2C4800231A463C
:1045E00021460090504601F030F82848F0E70E9838
:1045F00080B1286800EB0410007800F0010048B199
:10460000234800231A4621460090504601F01DF829
:104610001F48DDE7B8F1000F02D14FF00060D7E787
:10462000286800EB041040683168884206D9286881
:1046300000EB0410406830601648C9E7286800EBBA
:10464000041040788BF80000286800EB04104768DD
:10465000286800EB04103A4681684046FBF73DFEAF
:104660009BF80000092801D037600DE0286800EBB6
:10467000041040683168884205D2002008F807001D
:10468000781C306000E037600020A1E711000906C7
:104690000100010605000405704770477047704728
:1046A00070477047704710B5029C10BD704710B539
:1046B0000446206A007820B981220021204602F0B9
:1046C00014FD10BD2DE9FF4F8DB09B460F460446EB
:1046D000002606E025280BD05A460F999047641C07
:1046E000761C20780028F5D111B03046BDE8F08F57
:1046F0000025A8460122984900E0054314F8013F2F
:10470000203B02FA03F00842F7D120782E2817D177
:1047100014F8010F45F004052A280ED06FF02F027F
:104720002078A0F1300109290AD808EB880102EBB2
:10473000410100EB0108641CF2E757F8048B641C8C
:1047400020786C280DD004DC4C2812D06A2811D1B6
:1047500004E074280DD07A280CD10AE045F4001545
:1047600007E0617845F48015814202D1641C05F5AB
:104770008015641C2278692A45D008DC002AB3D051
:10478000582A69D0632A10D0642A08D13BE0702AE5
:1047900067D0732A13D0752A5CD0782A5CD0104673
:1047A0005A460F999047761CD3E017F8040B8DF802
:1047B000000000208DF80100E946012003E057F8D1
:1047C000049B4FF0FF3069074FF0000501D40AE069
:1047D0006D1C45450DDA8542FADB19F805100029F4
:1047E000F6D106E06D1C8542FCDB19F805100029A6
:1047F000F8D12E4404E019F8010B5A460F9990475E
:104800006D1EF8D2A5E00A200021CDE90801C5F30C
:10481000025002280DD001CFC117031E71F1000311
:104820000DDA4FF0000CD0EB0C006CEB01012D23E6
:1048300008E0FF1D27F00707F7E80201EDE72B0569
:1048400004D52B238DF8283001233BE0EB0739D02A
:104850002023F7E70A2000E010200021CDE908011D
:1048600007E01020002145F00405CDE908014FF0D4
:104870000808C5F3025002280FD001CF00214FF0E5
:10488000000A2B071FD5702A0DD0DDE908C38CF074
:10489000100C5CEA030C0CD015E0FF1D27F0070795
:1048A000F7E80201EBE740228DF828204FF0010ADB
:1048B0000BE050EA010306D030238DF828308DF844
:1048C000292002239A46582A04D024A20DF1200957
:1048D0000B9209E026A2F9E7DDE90823FBF7CCFCFF
:1048E0000B9B9B5C09F8013D50EA0102F4D1ADEB52
:1048F000090020300890680701D44FF0010808999A
:10490000884502DDA8EB010000E00020804600257C
:1049100006E00AA85A46405D0F9990476D1C761C28
:104920005545F6DB04E030205A460F999047761C37
:10493000B8F10001A8F10108F5DC05E019F8010B58
:104940005A460F999047761C0899481E08900029EE
:10495000F4DC641CC5E60000092801003031323364
:1049600034353637383961626364656600000000AB
:104970003031323334353637383941424344454695
:10498000000000002DE9FF4F85B0804615461F4608
:10499000DDE912AB40460699FDF753FA8146B9F1BD
:1049A000FE0F03DB484609B0BDE8F08F04AB0222DE
:1049B0004946404602F03CF806460EB9FF20F2E7B1
:1049C00004AA0221404602F012F806460EB1FF206A
:1049D000E9E7149868B305202B464A46CDE90070F4
:1049E0009DF81010404602F0F1F99DF81000C0EB60
:1049F000C00000EB400108F1280000EB810080F8C6
:104A00004BA0A0208DF80800E8B28DF80900280A14
:104A10008DF80A008DF80B7010208DF80C0005241D
:104A200004E0002002A90855601CC4B2082CF8DB81
:104A300029E003202B464A46CDE900709DF810106E
:104A4000404602F0C3F99DF81000C0EBC00000EB37
:104A5000400108F1280000EB810080F84BA04020C5
:104A60008DF80800E8B28DF80900280A8DF80A00D0
:104A70008DF80B70042404E0002002A90855601C86
:104A8000C4B2082CF8DB9DF81000C0EBC00000EBAE
:104A9000400108F1280000EB8100C0F850B002ABE3
:104AA0004A460221404606F057FB064636B19DF8BD
:104AB0001010404606F05EFAFF2074E7002072E70F
:104AC00070B505460B4642F27404181BA34272D01F
:104AD00072DC42F20504A3EB0400A3426DD078DC43
:104AE00041F20144A3EB0400A34268D02EDC41F262
:104AF0001204A3EB0400A34271D00EDCA3F5805096
:104B000012286DD2DFE800F0F1F06CEF6CEE6C6C07
:104B1000ED6C6C6CECEB6C6CEAE9062861D008DC9F
:104B200001285FD002285ED004285DD0052857D127
:104B3000C9E10E2859D0B0F5F77F57D0A0F26E200A
:104B4000002854D0B0F5C07FF1D1C4E140F2024654
:104B5000841BB04278D01DDC40F20126A0EB060495
:104B6000B04272D00ADC012870D002286FD0A0F2C7
:104B7000FF1000286CD00128D9D1B6E1012C68D0F3
:104B8000B4F5FF7F7ED0A4F2FF14002C7BD0012C63
:104B9000CDD1B9E140F2FD76A01BB44274D00FDC58
:104BA000A4F2FD14002C70D0012C6FD0022C6ED01A
:104BB000032CBCD1B5E128E253E0BEE109E08CE171
:104BC00001287BD002287AD0032879D00428AED1DE
:104BD000B1E11D2875D01CDC1D2892D208E06AE1E5
:104BE000F1E072E169E16AE16BE170E171E1AAE291
:104BF000DFE800F0E9E8E9E7E6E5E9E4E9E9E9E327
:104C0000E2E1E0DFDEDDDCDBDAD9D8E9E9E9E9D7AA
:104C1000D60029286AD00BDCA0F11E000B28DCD2BC
:104C2000DFE800F0DFDEDDDCDBDAD9D1D1D8D70078
:104C3000662876D00EDC2B2874D02C2873D05D2803
:104C400072D0642898D1D6E160E150E147E148E1B3
:104C500049E14EE1672868D06B2867D06C288BD17A
:104C6000D1E143F6F076841BB0427DD07DDCB0F517
:104C7000DE7F7BD03BDC4D2879D012DCA0F1040034
:104C80000B2805E037E13DE14DE141E142E146E13C
:104C9000A3D2DFE800F0E7E6E5E4E3E29898E1E09C
:104CA000DF00B0F5CE7F6ED00CDC50286CD08028B1
:104CB0006BD08C286AD08D2889D1C2E135E136E1EC
:104CC00037E168E1A0F29D10002866D0012865D088
:104CD000022864D00F28B5D1BDE1EAE0E7E0E4E0C6
:104CE000E1E0DEE0DBE0D8E0D5E0D2E07BE140F6D9
:104CF0008B76841BB04267D024DC40F28F26A0EB79
:104D00000604B04261D012DCB0F5E67F5ED0B0F5AB
:104D1000237F5CD0A0F28D20002859D0012891D1AA
:104D2000A3E16AE161E162E163E168E169E1FD2C2F
:104D300058D0FE2C57D0A4F20D14002C54D0012CC6
:104D40008DD19CE143F25D06A01BB4424DD011DC35
:104D5000A4F54054A4F10804002C74D0392C73D06D
:104D60003A2C72D0542C03E09FE110E075E160E131
:104D7000A2D18EE1022869D0042868D0052867D026
:104D8000062899D18FE15EE155E156E157E1262CE5
:104D90005FD040DC262C16D228E056E157E158E1DE
:104DA000F7E0F4E0F1E0EEE0EBE0E8E0E5E0E2E09F
:104DB000DFE0DCE0D9E0D4E0D1E0CEE0CBE0C8E059
:104DC000C1E0BEE0BBE001E15BE150E147E148E169
:104DD00049E106E103E100E1FDE0FAE0F7E0E0E0AF
:104DE000DDE0DAE045E146E147E154E1DFE804F0E7
:104DF000EEEDEEECEBEAEEE9E8E7E6EEEEEEEEEEF7
:104E0000EEEEEEEEE5EEE4EEE3E2EEE1EEE0EEDF16
:104E1000DEDDDCEEEEDB602C6FD024DC342C6DD0DC
:104E200008DC272C6BD0282C6AD0292C69D02A2C9E
:104E300086D16AE1352C6FD0362C6ED05C2C6DD0CB
:104E40005E2C95D16BE11EE11FE120E125E126E119
:104E500027E152E1EBE0E8E0E5E0E2E0DFE0DCE082
:104E6000D9E0D6E0D3E09B2C6FD008DC612C6DD06C
:104E7000922C6CD0952C6BD0972CD9D159E1A4F2FF
:104E80009E34002C6FD00E2C6ED0B4F5807FCFD125
:104E900057E100215DE101215BE1022159E103219C
:104EA00057E1042155E1052153E1062151E1072194
:104EB0004FE108214DE109214BE10A2149E10B2194
:104EC00047E10C2145E10D2143E10E2141E10F2194
:104ED0003FE110213DE111213BE1122139E1132194
:104EE00037E1142135E1152133E1162131E1172194
:104EF0002FE118212DE119212BE112E107E1FEE05C
:104F0000FFE000E11A2124E11B2122E11C2120E124
:104F10001D211EE11E211CE1FBE0FCE0FDE01F2144
:104F200017E1202115E1212113E1222111E12321A3
:104F30000FE124210DE125210BE1262109E12721A3
:104F400007E1282105E1292103E1F4E0EBE0ECE0B1
:104F5000EDE02A21FDE02B21FBE02C21F9E02D21C1
:104F6000F7E02E21F5E0E8E0E9E02F21F1E0302143
:104F7000EFE03121EDE03221EBE03321E9E03421B3
:104F8000E7E03521E5E03621E3E03721E1E03821B3
:104F9000DFE03921DDE03A21DBE03B21D9E03C21B3
:104FA000D7E03D21D5E0A6E0A3E0A0E09DE09AE0B7
:104FB00097E094E091E08EE08BE088E085E082E08D
:104FC0007FE07CE079E076E073E070E0BDE03E21D8
:104FD000BFE03F21BDE04021BBE04121B9E04221DB
:104FE000B7E04321B5E04421B3E04521B1E04621DB
:104FF000AFE04721ADE04821ABE04921A9E04A21DB
:10500000A7E04B21A5E04C21A3E04D21A1E04E21DA
:105010009FE04F219DE050219BE0512199E05221DA
:1050200097E0532195E0542193E0552191E05621DA
:105030008FE057218DE058218BE0592189E05A21DA
:1050400087E05B2185E05C2183E05D2181E05E21DA
:105050007FE05F217DE060217BE0612179E06221DA
:1050600077E0632175E0642173E0652171E06621DA
:105070006FE067216DE068216BE0692169E06A21DA
:1050800067E06B2165E06C2163E06D2161E06E21DA
:105090005FE06F215DE070215BE0712159E07221DA
:1050A00057E0732155E0742153E0752151E07621DA
:1050B0004FE077214DE078214BE0792149E07A21DA
:1050C00047E07B2145E07C2143E07D2141E07E21DA
:1050D0003FE07F213DE080213BE0812139E08221DA
:1050E00037E0832135E0842133E0852131E08621DA
:1050F0002FE087212DE088212BE0892129E08A21DA
:1051000027E08B2125E08C2123E08D2121E08E21D9
:105110001FE08F211DE090211BE0912119E09221D9
:1051200017E0932115E0942113E0952111E09621D9
:105130000FE097210DE098210BE0992109E09A21D9
:1051400007E09B2105E09C2103E00548106000205A
:1051500070BD00BF00201060024800EBC100F7E7FF
:1051600000000206FCCE00082DE9FE4F04460F4663
:10517000002500264FF003096069B0F808806069D7
:10518000B0F80AA0A069B0F808B08220005D10B99C
:105190000020BDE8FE8FB8F1000F73D00020009012
:1051A00001900290A6E0B9F1030F06D0B9F1050F06
:1051B0006AD0B9F10B0F68D18CE0606850F8380004
:1051C0008069006800F0004010B14FF00B0990E0DA
:1051D000606850F83800866A4FB33078012826DBC3
:1051E0003078F02823DC05EBC501A06810F8110029
:1051F000401CC0B205EBC502A16801F8120031786D
:10520000884214D1002005EBC502A16801F8120004
:105210000090019002906A462946204600F0DCFC8E
:1052200010B14FF00B0964E04FF0050949E057B3A6
:105230003078FC282AD105EBC501A06800EB4100BD
:10524000821D2946204600F0C7FC60B105EBC50170
:10525000A06810F8110020F0010005EBC502A1685C
:1052600001F812000BE005EBC501A06810F8110071
:1052700040F0010005EBC502A16801F812004FF0F3
:105280000B0936E03AE001E01CE030E00FB1307885
:1052900070B1A7B93078FF2802D03078FE280ED13F
:1052A00005EBC501A06810F8110000F0010030B94D
:1052B0002946204605F08EFE4FF00B0901E04FF025
:1052C0000B0916E06A462946204605F02FFF4FF0ED
:1052D0000B090EE0681CC5B208F101001FFA80F846
:1052E0000AF101001FFA80FA4FF0030901E0FF20E4
:1052F0004FE700BFD8457FF756AF00BF002048E713
:105300002DE9FF4F83B080468B461546109C02AABC
:1053100059464046D8F8E83198470646029818B1F1
:10532000029807B0BDE8F08F3079A84209DC3F4809
:105330000090002229465846236800F086F93B4831
:10534000EFE7119878B1306800EB0510007802287B
:1053500009D137480090002229465846236800F0BA
:1053600074F93348DDE7306800EB051090F80190E0
:10537000306800EB05104768306800EB0510D0F886
:105380000CA0206810B12068B84243D8D8F8242077
:105390004846069990470290029848B102980090BA
:1053A0003A4629465846236800F04FF90298B8E774
:1053B000316801EB0511886822680699FAF78DFFBC
:1053C000B9F1090F09D12068B84206D2002031682E
:1053D00001EB05118968226888542760BAF1000F33
:1053E00008D02A4631464046D0470290029808B17C
:1053F000029896E7306800EB0510007800F0040092
:1054000030B12A4659464046D8F8EC31984788E7EB
:10541000002086E72760074800903A46294658460C
:10542000236800F012F903487BE700001100090629
:1054300002000106100007060A68531C0B6010707A
:1054400070477047034600207047000002469F2ABD
:1054500004D1087808B10348704700BF00BF00209E
:10546000FAE70000300009062DE9FF4F85B0064637
:1054700092469B46129D202D03D9FF2009B0BDE81E
:10548000F08F30460699FCF7DCFC8046B8F1FE0F41
:1054900001DB4046F2E704AB02224146304601F010
:1054A000C7FA07460FB9FF20E8E704AA02213046F1
:1054B00001F09DFA07460FB1FF20DFE71798A8B16A
:1054C000042053464246CDE900B09DF81010304606
:1054D00001F07CFC9DF81000C0EBC00000EB400127
:1054E00006F1280000EB8100856309E002205346A5
:1054F0004246CDE900B09DF81010304601F066FC40
:105500009DF81000C0EBC00000EB400106F1280040
:1055100000EB8100C5609DF81010C1EBC10101EBEB
:10552000410206F1280101EB8201139881F84B003A
:105530004FF0000911E0149810F809109DF81000C0
:10554000C0EBC00000EB400206F1280000EB820037
:10555000143000F8091009F10109A945EBD3179897
:1055600080B1C2208DF80800002408E0E00025FA90
:1055700000F0C1B202AA201D1154601CC4B2042C58
:10558000F4DB3BE0042D29D8C5F10400202141EAD9
:105590008000C01CC0B28DF80800042410E09DF803
:1055A0001000C0EBC00000EB400106F1280000EB4A
:1055B00081001430211F405C02A90855601CC4B250
:1055C000082CECDB9DF81000C0EBC00000EB4001A4
:1055D00006F1280000EB810005610FE021208DF825
:1055E0000800002408E0E00025FA00F0C1B202AA99
:1055F000201D1154601CC4B2042CF4DB0AF0FF001F
:105600008DF809004FEA1A208DF80A008DF80BB0CA
:105610009DF81010C1EBC10101EB410206F1280118
:1056200001EB82011598086502AB42460221304623
:1056300005F092FD074637B19DF81010304605F091
:1056400099FCFF201AE7002018E730B50546039CB7
:10565000002030BD70B50546304800EB05142068C9
:10566000804700283ED02079042802DA04202071E7
:1056700052E02079082803DA2079401C20714BE0A1
:10568000A07A38B90120A07205EB4501491CC8B2C7
:1056900000F092F9208900283EDDE08821898842C7
:1056A0000DDAE088401C80B2E0802189884233D145
:1056B00005EB4501C91CC8B200F07EF92CE0E07A88
:1056C000002829DD207B401CC0B22073E17A88428B
:1056D00022DB0020207305EB4501491CC8B200F015
:1056E0006BF919E02079042802DD0420207110E014
:1056F000207918B12079401E20710AE0A07A012893
:1057000007D10020A07205EB4501891CC8B200F04A
:1057100053F90020E080207370BD0000682900204C
:105720000B48807A0A4AD27A904201D10020704711
:105730000748807A064A115C1046807A401CC0B245
:1057400090720A2801DB002090720846EFE7000003
:105750009829002001460020244A914201D10120CD
:1057600042E0234A914201D102203DE0214A914288
:1057700002D14FF4803037E01F4A914202D14FF4FA
:10578000003031E01D4A914202D14FF480202BE0DD
:10579000B1F1804F01D1012026E0194A914201D197
:1057A000022021E0174A914201D104201CE0164A50
:1057B000914201D1082017E0144A914201D11020F2
:1057C00012E0134A914201D120200DE0114A91428A
:1057D00001D1402008E0104A914201D1802003E02D
:1057E0000E4A914200D18815704700000000014028
:1057F00000040140004001400044014000480140D5
:105800000004004000080040000C00400010004070
:105810000014004000180040001C00400020004020
:105820001CB504464FF44070FCF740FC1821201DC5
:10583000FEF7C2FC20601849206808602068FEF767
:105840006BFA4FF4FA20FEF73DFC2268118850688D
:10585000FEF7D8FC00F03EF8FCF7CAFB01220FA1CE
:105860000F4800F0D3FD0F4908706A4601A90BA04C
:1058700000F02BFD0198810A0BA0FEF763FE0FA03C
:10588000FEF760FE0098810A0EA0FEF75BFE0BA0FB
:10589000FEF758FE1CBD000020000020313A000039
:1058A000742C002059000020534420546F74616C04
:1058B0002053697A653A2564000000004D420D0AC4
:1058C0000D0A0000534420467265652053697A65CD
:1058D0003A25640010B500F02DF800F001F810BD75
:1058E0001CB501211120FCF7F9FC00208DF8040003
:1058F0008DF8060001208DF8070002208DF80500C4
:105900001020009069460948FCF72EFA0820009004
:1059100069460648FCF728FA02208DF807000120A6
:10592000009069460248FCF71FFA1CBD00100240B7
:10593000000002400021154A9172D17211730020BB
:1059400019E04FF4FA71124A02EB001211810221A0
:105950000F4A02EB0012117100210D4A02EB0012F6
:1059600091720B4A02EB0012D172094A02EB00124B
:105970001173411CC8B20328E3DB0649044A1160D5
:1059800005491161054911627047000098290020FE
:1059900068290020A91F0008C11F0008D91F00089E
:1059A00010B5002404E02046FFF754FE601CC4B28A
:1059B000032CF8DB10BD00000649C97A054A505493
:1059C0001146C97A491CC9B2D1720A2901DB0021EA
:1059D000D1727047982900202DE9FF5F04460D46DB
:1059E00091469A466F4884420BD06F48844208D053
:1059F0006E48844205D06E48844202D06D4884428D
:105A000007D12046FFF7A6FE83460121FCF796FC4E
:105A100006E02046FFF79EFE83460121FCF76EFC60
:105A20002DB900212046FEF71AFABDE8FF9F5D4818
:105A300084420BD05C48844208D05C48844205D044
:105A40005B48844202D05B48844202D15A480668CF
:105A500002E0594800684608642D0AD242F20F78E5
:105A600042F21070B6FBF0F0B0FBF5F0401E87B2CA
:105A700013E040F6B830854209D24FF06308642045
:105A8000B6FBF0F0B0FBF5F0401E87B205E04FF03A
:105A90000008B6FBF5F0401E87B20297ADF804800F
:105AA0000020ADF80C00ADF806008DF80E0001A93D
:105AB0002046FEF7FBF901212046FEF7C1F901223D
:105AC00011462046FEF7E8F901212046FEF7C7F906
:105AD0004FF0000B3348844202D03548844202D153
