:020000040800F2
:10000000481201208559000841560008435600084F
:100010004D560008575600086156000800000000C1
:100020000000000000000000000000009D0100082A
:100030006B56000800000000F1010008078D000861
:100040009F5900089F5900089F5900089F590008B0
:100050009F5900089F5900089F5900089F590008A0
:100060009F5900089F5900089F5900089F59000890
:100070009F5900089F5900089F5900089F59000880
:100080009F5900089F5900089F5900089F59000870
:100090006D5600089F5900089F5900089F59000895
:1000A0009F5900089F5900089F5900089F59000850
:1000B0009F5900089F5900089F5900089F59000840
:1000C0009F5900089F5900089F5900089F59000830
:1000D0009F590008050D00089F5900089F59000806
:1000E0009F5900089F5900089F5900089F59000810
:1000F0009F5900089F5900089F5900089F59000800
:100100009F590008B72C00089F5900089F59000804
:100110009F5900089F5900081F0600089F590008B2
:100120009F5900089F5900089F590008BF2C0008DC
:100130009F5900089F5900089F5900089F590008BF
:10014000D55600089F5900089F590008E978010812
:10015000890D00089F5900083F0D00089F590008AD
:100160009F5900089F5900089F5900089F5900088F
:100170009F5900089F5900089F5900089F5900087F
:100180009F5900089F590008DFF80CD017F016FEA1
:10019000004800470D040008481201202A4B196846
:1001A0000868B0E8F04F80F30988BFF36F8F4FF015
:1001B000000080F3118870470000000006480068C6
:1001C000006880F3088862B661B6BFF34F8FBFF353
:1001D0006F8F00DF00BF00BF08ED00E0DFF80C000C
:1001E000016841F470010160704700BF88ED00E0D4
:1001F000EFF30980BFF36F8F134B1A681EF0100FD7
:1002000008BF20ED108A20E9F04F106008B44FF0CD
:10021000100080F31188BFF34F8FBFF36F8F07F08B
:1002200002F84FF0000080F3118808BC19680868D4
:10023000B0E8F04F1EF0100F08BFB0EC108A80F34A
:100240000988BFF36F8F704738240020EFF30580D3
:100250007047000010B505F0A7FB9349086004F053
:1002600008FB10BD04E000F0E2FE142006F0B0FE32
:10027000F9E70BE08D48006808B9012000E0002094
:100280008A49086041F2883006F0A2FEF2E70DE0EC
:100290008648001D006808B9012000E0002083495D
:1002A000091D086041F2883006F092FEF0E7ADF5D6
:1002B0007E7D71E000F010FE0546002D69D0012D15
:1002C00004D0042D1ED0072D61D14EE008F0D8FCDB
:1002D00077A017F0B1FD82A017F0AEFD81A807F05E
:1002E00053FC81A98AA017F0A7FD8BA017F0A4FDED
:1002F00081A807F0AFFC81A985A017F09DFD08F04B
:10030000E6FC45E008F0BCFC4FF40072002101A8B7
:1003100003F059FA8BA017F08FFD002405E001A827
:10032000015D8FA017F088FD641CB4F5007FF6D343
:100330008CA017F081FD4FF40072D10001A803F0EA
:1003400042FA8CA017F078FD002405E001A8015DB9
:1003500083A017F071FD641CB4F5007FF6D381A073
:1003600017F06AFD08F0B3FC12E008F089FC0120E8
:10037000ADF800006420ADF8020000236422694655
:100380008348006805F0B9FE08F0A1FC00E000BF5A
:1003900000BFC82006F01CFE8CE71CB57D48032179
:1003A00000234FF40072CDE900107BA17D4806F0D8
:1003B00086FB7D4804210023CA01CDE900107BA102
:1003C0007D4806F07CFB7D48052100234FF4007238
:1003D000CDE900107AA17D4806F071FB7C4806212A
:1003E00000234FF40072CDE900107AA17C4806F09A
:1003F00066FB03F0FAFC08F0DDFD04F0F2F90321DE
:10040000784808F0DFFC04F076FD1CBD764800F06B
:100410003DF975487549086017F06BFA00F0F6F879
:10042000FFF7BBFFFFF716FF07F0D4F800BFFEE7AA
:1004300070B500BF1021EFF3118081F31188BFF375
:100440004F8FBFF36F8F00BF0546284680F311889A
:1004500000BF5548006807F014F80446012C07D186
:1004600034B1000762490860BFF34F8FBFF36F8F4D
:1004700070BD10B5ADF5006D40F2FF7407E055207A
:100480000DF804000A2006F0A3FD601E04B2002C43
:10049000F5DA0DF5006D10BD70B505460C46214628
:1004A00054A017F0C9FC70BD14000020980240420F
:1004B0003D3D3D3D3D3D3D3D3D3D3D3D3D3D3D3D6C
:1004C0003D3D3D3D3D3D3D3D3D3D3D3D3D3D3D3D5C
:1004D0003D3D3D3D3D3D3D3D3D3D3D3D3D0D0A00EC
:1004E000C8CECEF1C3FB202020202020C8CECEF1E4
:1004F000D7B4CCAC20D3C5CFC8BCB6202020CAA36B
:10050000D3E0D5BB20C8CECEF1D0F2BAC50D0A00DB
:1005100025730D0A000000000D0AC8CECEF1C3FB02
:1005200020202020202020D4CBD0D0BCC6CAFD2043
:100530002020202020202020CAB9D3C3C2CA0D0AFF
:100540000000000050414745305F424153455F4144
:1005500044445245535320444154413A0D0A00004B
:10056000257820000D0A4441544120454E4445441D
:100570000D0A000050414745315F424153455F41FC
:1005800044445245535320444154413A0D0A00001B
:100590006400002000000020765461736B54617386
:1005A0006B310000AF020008040000207654617334
:1005B0006B5461736B3200008F020008080000204A
:1005C000765461736B5461736B33000073020008DF
:1005D0000C000020765461736B5461736B3400001F
:1005E0006502000800640040EC2600201000002096
:1005F00004ED00E0C8CECEF1A3BA257320B7A2CF98
:10060000D6D5BBD2E7B3F60D0A00000010B5002323
:10061000022244F620610A4802F059FF10BD10B5CD
:100620000121074810F085FD40B106480068401CD4
:10063000044908600121024810F08CFD10BD000043
:10064000001000401800002010B5324890F82C101F
:1006500031A017F0F1FB2F48B0F8541035A017F077
:10066000EBFB2C4AD2E91202000D40EA023135A020
:1006700017F0E2FB2748016D38A017F0DDFB254895
:1006800090F856103AA017F0D7FB10BD1CB50446E1
:100690004FF440700EF006F903F002FB1821201D04
:1006A00000F0C8F82060384920680860206800F031
:1006B000C9F84FF4FA2000F047F922681188506811
:1006C00000F016FB00F0F4FB00F080F803F01EF8D9
:1006D00001F087FBFFF7B8FF01222CA12C4812F094
:1006E000DEF82C4908706A4601A928A004F0EAF84F
:1006F0000198810A28A017F09FFB2CA017F09CFB03
:100700000098810A2BA017F097FB2EA017F094FBFE
:100710001CBD0000B82B002043617264204D616E47
:1007200075666163747572657249443A25640D0A91
:100730000000000043617264205243413A25640D79
:100740000A00000043617264204361706163697450
:10075000793A2564204D420D0A000000436172641D
:1007600020426C6F636B53697A653A25640D0A0009
:10077000436172642043617264547970653A256400
:100780000D0A0D0A0000000020000020313A000090
:10079000643E002055000020534420546F74616C67
:1007A0002053697A653A2564000000004D420D0A25
:1007B00000000000534420467265652053697A6545
:1007C0003A2564004D420D0A0D0A00001CB50121B6
:1007D00008460FF0C7FAC020009001208DF80400F1
:1007E00000208DF8060003208DF8050001208DF80B
:1007F0000700694603480FF017F8C02101480FF0C1
:100800008FF81CBD0000024000BFFE4A128802F0B3
:100810004002002AF9D0C2B2FA4B9A8070470146D2
:1008200000BFF848008800F020000028F9D0F54803
:10083000808870470246182901D20020704713466D
:100840001846FBE701464FF480620A8020220A81A5
:10085000ED4A4A60ED4A0A6100228A81CA814A81D2
:100860008A82704700B591B0012188050FF07AFAAD
:10087000E7480EF07FFD4FF000600290E148001D58
:10088000039040200590002007904FF4806008906E
:10089000002009900A900B904FF480300C900020BB
:1008A0000D9003200E9000200F90109002A9D848C0
:1008B0000EF002FE46208DF8040004208DF805009D
:1008C00000208DF8060001208DF8070001A80DF02A
:1008D000EEFF01221021CE480EF0B5FE4FF0205160
:1008E000CB480EF09CFECA4830380EF043FD4FF066
:1008F00000600290C348001D0390002005900790FF
:100900004FF480600890002009900A904FF48070A6
:100910000B9040020C9000200D9003200E900020C0
:100920000F90109002A9BA4830380EF0C5FD002291
:100930001021B74830380EF086FEB649B44830383A
:100940000EF06DFE11B000BD10B588B00446FFF783
:1009500089FF012108460FF005FA012110200FF050
:100960005BFA07220921AC480EF0E9FF07220A21B1
:10097000A9480EF0E4FF4FF40070029002208DF8B9
:100980000C008DF80D0000208DF80E0001208DF870
:100990000F0002A9A0480EF047FF4FF480600290BC
:1009A00002A99D480EF040FF964810F0AFFC049459
:1009B0000020ADF81400ADF81600ADF81800ADF841
:1009C0001C000C20ADF81A0004A98E4810F005FD9B
:1009D00025208DF8040002208DF8050000208DF8F8
:1009E000060001208DF8070001A80DF060FF01222C
:1009F00040F22441834810F02EFE0121814810F07E
:100A000074FD40F224417F4810F060FE7D4810F0F4
:100A10009BFD012240217B4810F014FE0122802121
:100A2000784810F00FFE4021764810F046FE08B0DE
:100A300010BD2DE9F04106460C46204617F081F91D
:100A400087B200250CE0615D304610F079FD00BFF3
:100A50008021304610F024FE0028F9D0681CC5B271
:100A6000BD42F0DB00BF4021304610F019FE0028E7
:100A7000F9D0BDE8F0812DE9F04107460D46164654
:100A800000240CE0295D384610F05AFD00BF80219B
:100A9000384610F005FE0028F9D0601C84B2B4423C
:100AA000F0DB00BF4021384610F0FAFD0028F9D0F5
:100AB000BDE8F08156492C39096888B25749096860
:100AC000098881423EDB554909684989491C534AD6
:100AD0001268518151490968C989491C4F4A1268F5
:100AE000D1814E490968C9894C4A126812899142DC
:100AF00003D10021494A1268D1814849096809880F
:100B0000091A464A12681269444B1B68DB8922F8AD
:100B10001310424909684989404A12681289914272
:100B200010DD00213D4A126891813C4A1268D18152
:100B30003A4A1268518139490968898A491C374AF9
:100B40001268918270472DE9F04304460D4616461F
:100B500000202146B1F80AC0BCF1000F75D0B1F8F1
:100B60000AC0ACF1010CA1F80AC0B1F80C80B1F8D0
:100B700008C0ACF1010CE04501D1002305E0B1F85B
:100B80000CC00CF1010C1FFA8CF3B1F80C80D1F8F9
:100B900010C03CF818C0D1F8108038F81380C44554
:100BA00040DDD1F810C03CF813C0B1F80080C44457
:100BB000B1F80C90D1F8108038F81980ACEB080C23
:100BC0001FFA8CF0B04200DD0020002218E0B1F8DE
:100BD0000C80D1F810C03CF818C09444B1F80080E3
:100BE0009CFBF8F908FB19CC1FFA8CF7D1F804C06C
:100BF0001CF807C005F802C002F1010C1FFA8CF2C4
:100C000082420DE00010014008270020082B002040
:100C1000B8640240000800200000024020000020CC
:100C2000D5DB26E0D1F810C03CF813C0B1F80C9029
:100C3000D1F8108038F81980ACEB080C1FFA8CF052
:100C4000B04200DD0020002211E022E0B1F80C806B
:100C5000D1F810C03CF818C09444D1F8048018F8BA
:100C60000CC005F802C002F1010C1FFA8CF282429E
:100C7000ECDBB1F80CC00CF1010CA1F80CC0B1F820
:100C80000CC0B1F80880C44503D14FF0000CA1F8A6
:100C90000CC0BDE8F08301460A46908A7047C160E7
:100CA000704770B505460E461446002128460EF0E2
:100CB0003DFC31462846FFF7F2FF214628460EF05C
:100CC00056FC012128460EF031FC70BD70B504467B
:100CD0000D463C48007808B1012070BD012039491B
:100CE00008702A4621463848FFF7DBFF0020F4E76A
:100CF00070B504460D462A46214633483038FFF782
:100D0000D0FF70BD10B500BF1021EFF3118081F34B
:100D10001188BFF34F8FBFF36F8F00BF044640F2BF
:100D200024412A4810F0D2FC20B1FFF7C3FE274827
:100D300010F00AFC00BF84F3118800BF10BD10B58D
:100D400000BF1021EFF3118081F31188BFF34F8FA3
:100D5000BFF36F8F00BF04461D491B480EF090FC87
:100D600068B100BF4021194810F09AFC0028F9D062
:100D7000174915480EF0AEFC00201249087000BF5C
:100D800084F3118800BF10BD10B500BF1021EFF330
:100D9000118081F31188BFF34F8FBFF36F8F00BFB6
:100DA00004460C49084830380EF06AFC20B1094965
:100DB000054830380EF08EFC00BF84F3118800BF68
:100DC00010BD00001C000020B8640240001001406B
:100DD00000800028008800209A48006900F0100078
:100DE00008B9012070470020FCE79648006900F030
:100DF000080008B9012070470020FCE7924800690C
:100E000000F0010008B1012070470020FCE71CB58C
:100E1000012111200EF0A6FF00208DF804008DF8AE
:100E2000060001208DF8070002208DF80500102033
:100E30000090694683480EF0F7FC08200090694650
:100E400080480EF0F1FC02208DF807000120009090
:100E500069467D480EF0E8FC1CBD00217B4A91727A
:100E6000D1721173002019E04FF4FA71784A02EB45
:100E7000001211810221764A02EB00121171002149
:100E8000734A02EB00129172714A02EB0012D172A6
:100E90006F4A02EB00121173411CC8B20328E3DB56
:100EA0006C496B4A11606C4911616C491162704761
:100EB00010B5FFF7D2FFFFF7AAFF10BD6349C97A4B
:100EC000624A50541146C97A491CC9B2D1720A29E2
:100ED00001DB0021D17270475C48807A5B4AD27A8C
:100EE000904201D1002070475848807A574A115CDF
:100EF0001046807A401CC0B290720A2801DB0020A4
:100F000090720846EFE75148007B504AD27A9042EF
:100F100001D1002070474D48007B4C4A115C1046BF
:100F2000007B401CC0B210730A2801DB0020107344
:100F30000846EFE70146464800EB0110807A70470B
:100F400010B5434B03EB00131981414B03EB001326
:100F5000DA7200233E4C04EB0014237310BD3B48AF
:100F6000C07A3A498872704770B50546384800EB38
:100F700005142068804700283ED02079042802DA32
:100F80000420207152E02079082803DA2079401CDF
:100F900020714BE0A07A38B90120A07205EB450121
:100FA000491CC8B2FFF78AFF208900283EDDE0888F
:100FB000218988420DDAE088401C80B2E0802189D6
:100FC000884233D105EB4501C91CC8B2FFF776FF53
:100FD0002CE0E07A002829DD207B401CC0B2207381
:100FE000E17A884222DB0020207305EB4501491C91
:100FF000C8B2FFF763FF19E02079042802DD04205E
:10100000207110E0207918B12079401E20710AE08B
:10101000A07A012807D10020A07205EB4501891CA8
:10102000C8B2FFF74BFF0020E080207370BD10B501
:10103000002404E02046FFF797FF601CC4B2032C95
:10104000F8DB10BD0010024000000240782B0020A9
:10105000482B0020D90D0008EB0D0008FD0D0008FD
:101060001CB500200EF0FAFF00200EF0FAFF0EF083
:10107000CDFF00214FF400600EF0CEFE00220821CB
:10108000FE480EF05CFC00220921FC480EF057FCE3
:1010900000220A21F9480EF052FC00220B21F748E9
:1010A0000EF04DFC00220C21F4480EF048FC00220A
:1010B0000221F3480EF043FC4FF4706000900020D2
:1010C0008DF804008DF807006946EC480EF0ACFB83
:1010D000042000906946EA480EF0A6FB4FF48050C9
:1010E00000906946E5480EF09FFB1CBD10B5FFF768
:1010F000B7FF10BD2DE9F04106460027E14805681D
:1011000001E0E048056805F045000028F9D005F049
:10111000040030B1032704200FF04BF83846BDE837
:10112000F08105F0010028B1012701200FF041F8FE
:101130003846F4E70EF0BBFFB04202D01027384625
:10114000EDE740F2FF500FF034F800200EF0B4FF4E
:101150000446CD48204008B93846E0E704F0004096
:1011600008B11C20DBE704F0804008B10920D6E775
:1011700004F0005008B10A20D1E704F0805008B113
:101180000B20CCE704F0006008B10C20C7E704F0A6
:10119000806008B10D20C2E704F0807008B10E2015
:1011A000BDE704F4000008B10F20B8E704F48000A4
:1011B00008B11020B3E704F4001008B11120AEE725
:1011C00004F4801008B11220A9E704F4002008B14B
:1011D0001320A4E704F4802008B114209FE704F44E
:1011E000003008B115209AE704F4803008B11620C9
:1011F00095E704F4004008B1172090E704F480401C
:1012000008B118208BE704F4005008B1192086E7D4
:1012100004F0080008B11A2081E738467FE72DE97D
:10122000FC4107460D460026002400200090019056
:1012300008209649086010204860402088600020FF
:10124000C8604FF48060086108460EF014FF10205B
:10125000FFF750FF044614B12046BDE8FC818C48DE
:101260000088000489490860372048604020886071
:101270000020C8604FF48060086108460EF0FBFE55
:101280003720FFF737FF04460CB12046E5E74FF063
:10129000FF308049086008204860302088600220C4
:1012A000C860002008610120486108460EF00FFF69
:1012B0000020764908603320486040208860002084
:1012C000C8604FF48060086108460EF0D4FE3320F9
:1012D000FFF710FF04460CB12046BEE709E04FF4CB
:1012E00000100EF05BFF20B10EF017FF4DF8260046
:1012F000761C6448006840F22A6108400028EED05D
:1013000008200EF04BFF28B108200EF052FF0424F5
:101310002046A2E702200EF041FF28B102200EF085
:1013200048FF0224204698E720200EF037FF28B11E
:1013300020200EF03EFF062420468EE74FF400707A
:101340000EF02CFF30B14FF400700EF032FF072486
:10135000204682E740F2FF500EF02BFF0098000677
:10136000009901F47F4140EA0120009901F47F01D6
:1013700040EA1120009940EA116068600198000677
:10138000019901F47F4140EA0120019901F47F01B4
:1013900040EA1120019940EA1160286020465CE78C
:1013A0007CB5054600240020009001900EF084FEDC
:1013B00000F0007010B10E2420467CBD344909882D
:1013C00088B26946FFF72BFF04460CB12046F4E7CC
:1013D000012D36D1019800F4802000282ED02C4811
:1013E0000088000429490860372048604020886050
:1013F0000020C860A802086108460EF03CFE3720B5
:10140000FFF778FE04460CB12046D6E702201F49BC
:10141000086006204860402088600020C8604FF4C3
:101420008060086108460EF026FE0620FFF762FE87
:1014300004460CB12046C0E72046BEE725242046DE
:10144000BBE7019800F48030B8B11148008800046F
:101450000E49086037204860402088600020C8603E
:101460004FF48060086108460EF005FE3720FFF754
:1014700041FE044684B120469FE725E00008024073
:10148000000C0240342C014008E0FFFD282E002013
:10149000280000203C2E00200020FE490860062085
:1014A0004860402088600020C8604FF48060086178
:1014B00008460EF0E0FD0620FFF71CFE04460CB1C6
:1014C00020467AE7204678E72524204675E770B560
:1014D00004460025F0480068032802D12725284645
:1014E00070BDED48006838B1EB480068012803D0B2
:1014F000E948006802282CD1B4F5805F02D1272585
:101500002846EDE7B4F5006F13D10120FFF748FF3F
:101510000546F5B90020E149087508604860886013
:101520004FF40060C8600020086108460EF079FDA5
:101530000FE00020FFF734FF054655B90020D749DA
:101540000875086048608860C860086108460EF049
:1015500068FD2846C4E770B504460D460026CD4810
:1015600004600720CB494860402088600020C860A4
:101570004FF48060086108460EF07DFD0720FFF7FC
:10158000B9FD0646304670BDF0B501460020002288
:10159000C14B1B7881F85630C14B1B88A1F85430E1
:1015A000C04B1B681A0E93090B70C2F383034B7078
:1015B00002F003038B70BB4B1B68C3F30742CA7076
:1015C000B84B1B88C3F307220A71B64B1A784A71CD
:1015D0005B681A0E1301CB80B24B5B68C3F3074202
:1015E000CB8843EA1213CB8002F00F030B72AD4B92
:1015F0009B88C3F30722D3094B72C2F380138B720B
:10160000C2F34013CB72C2F300130B7300234B736E
:10161000A14B1B681BB1A04B1B68012B4FD193073B
:101620001B0D0B619F4B1A790B6943EA82030B6117
:101630009C4B9B681A0E0B6943EA92130B61C2F331
:10164000C2030B7502F007034B75964B9B68C3F3FF
:10165000074253098B75C2F38203CB7593075B0F67
:101660000B76904B1B89C3F307220B7E43EAD21300
:101670000B760B695B1C0024C1E912340B7ED1E9A7
:1016800012469B1C012505FA03F3DF17A4FB035C3C
:1016900006FB03C304FB0733C1E912530C7A012391
:1016A000A3400B650027D1E912560B6DA5FB034C37
:1016B00006FB03C305FB0733C1E9124336E0764B53
:1016C0001B68022B32D1774B1A7993069B0A0B6168
:1016D000744B9B681A0E0B6943EA02230B61714B32
:1016E0009B68C3F307420B6913430B616D4B1B8966
:1016F000C3F307220B6900245B1C44EB04074FF47F
:1017000000760025A3FB064C07FB06C603FB056617
:101710004FF480650027A4FB053C06FB05C504FBD0
:101720000754C1E912344FF400730B65C2F3801300
:1017300001F8193F93065B0E4B705A4B1A7A4B789F
:1017400043EAD2134B7002F07F038B70554BDB687A
:101750001A0ED309CB70C2F341130B71C2F382038B
:101760004B7193071B0F8B714E4BDB68C3F3074222
:101770008B7943EA92138B71C2F34013CB71002330
:101780000B7202F001034B72464B9B89C3F3072295
:10179000D3098B72C2F38013CB72C2F340130B7365
:1017A000C2F300134B73C2F381038B7302F0030384
:1017B000CB733C4B1A7B53080B7401234B743A4B8D
:1017C0001B681A0ECA741939374B1B68C3F30742DA
:1017D0001402CC85344B1B88C3F30722CB8D1343F3
:1017E000CB85314B1A7814060C635B681A0E0B6BB1
:1017F00043EA02440C632C4B5B68C3F307420B6B58
:1018000043EA02240C63284B9B88C3F307220B6B2B
:1018100013430B63244B1A7934235A54224B9B688D
:101820001A0E35235A54204B9B68C3F30742140603
:101830008C631D4B1B89C3F307228B6B43EA024465
:101840008C63194B1A7A8B6B43EA02248C63164B18
:10185000DB681A0E8B6B13438B63134BDB68C3F38C
:1018600007423C235B5C43EA12143C235C5413079D
:101870001C0DCC870C4B9B89C3F30722CB8F1343E2
:10188000CB87094B1A7B540840235C540124412325
:101890005C54F0BD282E002024000020102E0020D3
:1018A00028000020882B0020982B002070B50025F0
:1018B000FC48046801E0FB48046804F04500002887
:1018C000F9D004F0040028B1032504200EF071FCC7
:1018D000284670BD04F0010028B1012501200EF05A
:1018E00068FC2846F5E740F2FF500EF062FC2846FF
:1018F000EFE72DE9F04106460F464FF00008E948B2
:10190000056801E0E748056805F045000028F9D0C2
:1019100005F0040038B14FF0030804200EF049FC34
:101920004046BDE8F08105F0010030B14FF00108FC
:1019300001200EF03EFC4046F3E70EF0B8FBB0424B
:1019400003D04FF010084046EBE740F2FF500EF096
:1019500030FC00200EF0B0FB044604F4604018B9DF
:10196000200C38804046DCE704F4005008B1132016
:10197000D7E704F4804008B11020D2E704F4004017
:1019800008B10F20CDE74046CBE738B50024012051
:1019900000900EF06AFB10B92524204638BDC248DD
:1019A0000068042828D00020C04908600220486050
:1019B000C02088600020C8604FF48060086108463D
:1019C0000EF059FBFFF772FF04460CB12046E5E725
:1019D00000200EF071FBB649086004200EF06CFB8D
:1019E000B349486008200EF067FBB14988600C20BD
:1019F0000EF062FBAE49C860AB48006858B1AA4817
:101A00000068012807D0A8480068062803D0A64827
:101A10000068022816D10020A4490860032048600D
:101A2000402088600020C8604FF48060086108464C
:101A30000EF021FB69460320FFF75BFF04460CB163
:101A40002046ABE79848006804282ED0BDF8000077
:101A500098490860BDF80000000494490860092016
:101A60004860C02088600020C8604FF48060086132
:101A700008460EF000FBFFF719FF04460CB12046A4
:101A80008CE700200EF018FB8B49086004200EF054
:101A900013FB8949486008200EF00EFB86498860D8
:101AA0000C200EF009FB8449C8600024204675E72D
:101AB00070B500257B48046801E07A48046804F0AA
:101AC00045000028F9D004F0040028B103250420C3
:101AD0000EF06FFB284670BD40F2FF500EF069FB20
:101AE0002846F8E770B500264FF480356D48046845
:101AF00002E06D1E6B48046804F0450008B9002D33
:101B0000F7D115B104F0040028B1032604200EF02B
:101B100050FB304670BD04F0400028B10026402044
:101B20000EF047FB3046F5E73046F3E770B5002589
:101B30004FF4803400E0641E24B180200EF02EFBB0
:101B40000028F8D014B90325284670BD40F2FF5094
:101B50000EF02FFB2846F8E7F8B50020009000258E
:101B600000240026002776205449087500200860CC
:101B700048608860C860086108460EF052FA032089
:101B80000EF06FFA01200EF069FA00204749086054
:101B900048608860C8604FF48060086108460EF0B5
:101BA0006AFAFFF7C3FF00909DF8000010B19DF89E
:101BB0000000F8BD4FF4D5703C490860082048602B
:101BC000402088600020C8604FF4806008610846AB
:101BD0000EF051FAFFF786FF00909DF8000020B943
:101BE000012031490860870712E000202F49086072
:101BF00037204860402088600020C8604FF4806033
:101C0000086108460EF037FA3720FFF773FA0090A4
:101C10000020264908603720486040208860002066
:101C2000C8604FF48060086108460EF024FA37203F
:101C3000FFF760FA00909DF80000002861D14BE0AA
:101C400000201A4908603720486040208860002042
:101C5000C8604FF48060086108460EF00CFA372027
:101C6000FFF748FA00909DF8000010B19DF80000C1
:101C70009FE7134838430D490860292048604020F9
:101C800088600020C8604FF48060086108460EF04C
:101C9000F2F9FFF70DFF00909DF8000090B19DF85C
:101CA000000086E7342C014024000020282E00206C
:101CB000982B002028000020882B0020102E0020C8
:101CC0000000108000200EF0F7F90546012080EAA0
:101CD000D57080F00106641C1EB94FF6FF70844277
:101CE000AED34FF6FF70844204D31B2000909DF8C2
:101CF00000005EE705F08040051E02D00220FE498C
:101D000008609DF8000054E71CB501210C200EF07E
:101D100029F80C220821F9480DF011FE0C220921A6
:101D2000F6480DF00CFE0C220A21F4480DF007FED7
:101D30000C220B21F1480DF002FE0C221146EF4857
:101D40000DF0FDFD0C220221ED480DF0F8FD4FF4E1
:101D50007060009002208DF805008DF804000020CE
:101D60008DF8060001208DF807006946E3480DF064
:101D70005BFD042000906946E1480DF055FD4FF4ED
:101D80008050009000208DF807006946DB480DF078
:101D90004BFD0121C8020EF03FF8012188050DF02E
:101DA000E1FF1CBD08B531208DF8000000208DF842
:101DB00001008DF8020001208DF8030068460CF048
:101DC00076FD3B208DF8000001208DF801000020F9
:101DD0008DF8020001208DF8030068460CF067FDC5
:101DE00008BD08B500200090FFF7DCFFFFF78CFF6F
:101DF0000EF00CF9FFF7B0FE00909DF8000010B156
:101E00009DF8000008BDFFF7C0FD00909DF80000A0
:101E100010B19DF80000F5E70020BA490875086088
:101E200048608860C860086108460EF0FAF8B64855
:101E3000FFF7AAFB00909DF8000040B9B248B0F847
:101E40005400020410460021FFF785FB00909DF826
:101E5000000020B94FF40060FFF739FB00909DF8B7
:101E60000000CFE770B50446002514B926252846A2
:101E700070BDA64800880004A54908600D20486090
:101E8000402088600020C8604FF4806008610846E8
:101E90000EF0F1F80D20FFF72DF905460DB128469B
:101EA000E6E700200EF008F920602846E0E708B5D4
:101EB000002000906846FFF7D5FF08B1FF2008BD5D
:101EC0000098C0F34320FAE710B50424FFF7EFFFB2
:101ED0000446042C01D1002010BDFF2C01D10220AA
:101EE000FAE70120F8E710B5002400200EF0B9F859
:101EF000204610BD70B504460026002500200EF0D7
:101F0000DBF800F0007010B10E26304670BD4020A6
:101F10007F49086010204860402088600020C86029
:101F20004FF48060086108460EF0A5F81020FFF716
:101F3000E1F806460EB13046E8E774480088000430
:101F40007349086037204860402088600020C860DE
:101F50004FF48060086108460EF08DF83720FFF7D7
:101F6000C9F806460EB13046D0E74FF0FF30694958
:101F7000086040204860602088600220C86000201F
:101F800008610120486108460EF0A1F80020604970
:101F900008600D204860402088600020C8604FF431
:101FA0008060086108460EF066F80D20FFF7A2F881
:101FB00006460EB13046A9E70EE04FF400400EF0A1
:101FC000EDF848B1002504E00EF0A7F844F825002C
:101FD0006D1C082DF8D320344F48006840F22A6168
:101FE00008400028E9D008200EF0D8F828B10820D1
:101FF0000EF0DFF80426304688E702200EF0CEF817
:1020000028B102200EF0D5F8022630467EE72020C7
:102010000EF0C4F828B120200EF0CBF8062630468A
:1020200074E74FF400700EF0B9F830B14FF400705F
:102030000EF0BFF80726304668E74FF0FF3504E0A2
:102040000EF06BF82060241D6D1E4FF400100EF092
:10205000A5F808B1002DF3D140F2FF500EF0A9F819
:10206000304653E770B50446002600252B48FFF79D
:1020700041FF06460EB1304670BD284800788509FC
:10208000257026480078C0F3401565702348857890
:10209000280260802148C5786088284360801F48F6
:1020A0000579280660601D484579606840EA05406A
:1020B00060601A488579606840EA052060601748CA
:1020C000C5796068284360601448057A2572457AAE
:1020D0006572807A0509A5721048C57A2802A08128
:1020E0000E48057BA0892843A0810C48407B8508C9
:1020F000A5730A48407B13E024000020000802403A
:10210000000C0240102E0020B82B002028000020D8
:10211000282E00203C2E0020342C0140A82B00202B
:1021200000F00305E5733046A6E730B58FB00546ED
:102130000C464FF0FA51FD480DF071FA0021FB48B2
:102140000DF0F4F9F9480DF015F94FF0006000902A
:10215000F7480190029500200390049405904FF4F5
:1021600080600690800007900020089009904FF44E
:1021700040300A9004200B9003200C904FF4000094
:102180000D9080100E906946E8480DF095F90122F7
:102190001021E6480DF057FA2021E4480DF0DCF953
:1021A0000121E2480DF0C2F90FB030BD2DE9F04138
:1021B000804614461D46069E00270020DD49087013
:1021C000DD490860DD490860D949543908600121BA
:1021D00040F22A300DF0D1FF01200DF0CAFF314648
:1021E0004046FFF7A2FFD6480068022808D1060241
:1021F000020200232046294615F04EFD04460D46F6
:10220000D04806601020CF494860402088600020F8
:10221000C8604FF48060086108460DF02CFF102064
:10222000FEF768FF074617B13846BDE8F0814FF06A
:10223000FF30C5490860084646609020886002204B
:10224000C860002008610120486108460DF03FFF8A
:10225000BC4804601120BB494860402088600020D1
:10226000C8604FF48060086108460DF004FF11203B
:10227000FEF740FF07460FB13846D6E73846D4E7A9
:102280002DE9F047814614461D46DDE90868002720
:102290000020A8490870A84908600120A7490860E3
:1022A0000020A34954390860012140F22A300DF082
:1022B00064FF08FB06F14846FFF737FF01200DF0E9
:1022C00058FF9F480068022808D106020202002336
:1022D0002046294615F0E0FC04460D469948066064
:1022E000102098494860402088600020C8604FF462
:1022F0008060086108460DF0BEFE1020FEF7FAFE71
:10230000074617B13846BDE8F0874FF0FF308E49D9
:10231000086008FB06F04860902088600220C860D2
:10232000002008610120486108460DF0D0FE854874
:102330000460122083494860402088600020C86003
:102340004FF48060086108460DF095FE1220FEF7FC
:10235000D1FE07460FB13846D5E73846D3E710B56A
:1023600000240020774908600C20486040208860E5
:102370000020C8604FF48060086108460DF07BFEC5
:102380000C20FEF7B7FE0446204610BD70B50025B0
:102390006C1E00E0641E6D48006838B9664800682D
:1023A00020B96448007808B9002CF3D100206749AF
:1023B0000860441E00E0641E5D484C38006800F46C
:1023C000005008B1002CF6D15C480068012805D106
:1023D000FFF7C5FF05460020584908600CB905B94C
:1023E000042540F2FF500DF0E4FE5248007810B191
:1023F0005048007870BD2846FCE730B58FB00546E0
:102400000C464FF0FA5149480DF009F900214748B0
:102410000DF08CF845480CF0ADFF4FF000600090D7
:1024200043480190029540200390049400200590B9
:102430004FF480600690800007900020089009907B
:102440004FF440300A9004200B9003200C904FF47E
:1024500000000D9080100E90694634480DF02CF865
:102460000122102131480DF0EEF820212F480DF007
:1024700073F801212D480DF059F80FB030BD2DE94A
:10248000F041804614461D46069E0027002029493B
:1024900008702949086029490860254954390860AD
:1024A000012140F22A300DF068FE31464046FFF728
:1024B000A4FF01200DF05DFE21480068022808D12C
:1024C0000602020200232046294615F0E5FB0446D9
:1024D0000D461C48066010201A494860402088605C
:1024E0000020C8604FF48060086108460DF0C3FD0D
:1024F0001020FEF7FFFD074617B13846BDE8F08112
:102500001048046018200F4948604020886000206F
:10251000C8604FF48060086108460DF0ACFD1820DB
:10252000FEF7E8FD07469FB13846E7E758640240EA
:10253000802C014030000020340000202C000020BE
:1025400024000020282E00203C2E002038000020EF
:102550004FF0FF30FE4908600846466090208860D2
:102560000020C86008610120486108460DF0AFFDF9
:102570003846C3E72DE9F047814615461E46DDE99A
:10258000087800240020F3490870F349086001200E
:10259000F24908600020F2490860012140F22A3027
:1025A0000DF0EBFD08FB07F14846FFF726FF012081
:1025B0000DF0DFFDEB480068022808D10702020297
:1025C00000232846314615F067FB05460E46E648CF
:1025D00007601020E4494860402088600020C860FF
:1025E0004FF48060086108460DF045FD1020FEF7AD
:1025F00081FD044614B12046BDE8F087DB48008821
:102600000004D949086037204860402088600020D5
:10261000C8604FF48060086108460DF02CFD37203B
:10262000FEF768FD04460CB12046E5E7CE48C0F849
:1026300000801720CC494860402088600020C86096
:102640004FF48060086108460DF015FD1720FEF775
:1026500051FD04460CB12046CEE7C3480560192061
:10266000C1494860402088600020C8604FF4806005
:10267000086108460DF0FFFC1920FEF73BFD0446FB
:102680000CB12046B8E74FF0FF30B149086008FBB5
:1026900007F04860902088600020C8600861012031
:1026A000486108460DF013FD2046A5E770B50025EA
:1026B0006C1E00E0641EAE48006838B9A648006889
:1026C00020B9A448007808B9002CF3D10020A8490B
:1026D0000860441E00E0641EA1480830006800F451
:1026E000805008B1002CF6D19C480068012805D123
:1026F000FFF735FE05460020984908600CB905B97A
:10270000042540F2FF500DF054FD9248007810B1BE
:102710009048007870BD2846FCE791480830006872
:1027200000F4405008B1012070470020FCE77CB560
:10273000044600250020019000908C480088000489
:10274000894908600D204860402088600020C860EA
:102750004FF48060086108460DF08DFC8048083019
:102760000068009003E07E48083000680090009800
:1027700000F045000028F6D0009800F0040028B1D1
:10278000032504200DF015FD28467CBD009800F0BF
:10279000010028B1012501200DF00BFD2846F4E7CA
:1027A0000DF085FC009000980D2802D010252846D9
:1027B000EBE740F2FF500DF0FCFC00200DF07CFC3C
:1027C00001900198C0F3432020706A4901980840A5
:1027D00008B92846D9E7019800F0004008B11C204C
:1027E000D3E7019800F0804008B10920CDE70198B7
:1027F00000F0005008B10A20C7E7019800F08050AF
:1028000008B10B20C1E7019800F0006008B10C206E
:10281000BBE7019800F0806008B10D20B5E7019892
:1028200000F0807008B10E20AFE7019800F40000BE
:1028300008B10F20A9E7019800F4800008B110202A
:10284000A3E7019800F4001008B111209DE701985A
:1028500000F4801008B1122097E7019800F40020DE
:1028600008B1132091E7019800F4802008B11420EA
:102870008BE7019800F4003008B1152085E7019836
:1028800000F4803008B116207FE7019800F4004082
:1028900008B1172079E7019800F4804008B11820AA
:1028A00073E7019800F4005008B119206DE7019812
:1028B00000F0080008B11A2067E7284665E72DE90F
:1028C000FC4705460E46174698460024A1460020C0
:1028D0000190009028484068202101EA105018B962
:1028E00025242046BDE8FC871D4828380068C0B272
:1028F000801C2249B1FBF0F0019000200DF0DCFBC0
:1029000000F0007010B10E242046EBE71548006877
:10291000022810D1020200232846314615F0BCF9E6
:1029200005460E464FF4007200233846414615F026
:10293000B3F9074688460B48006838B10948006873
:10294000012803D007480068022844D1064817E050
:102950003C2E002030000020340000202C000020FD
:102960002C2C014024000020282E002028000020CC
:102970003800002008E0FFFD882B0020C0D40100B3
:1029800005602020F8494860402088600020C86029
:102990004FF48060086108460DF06DFB2020FEF7C3
:1029A000A9FB04460CB120469CE7EF4807602120B4
:1029B000ED494860402088600020C8604FF4806086
:1029C000086108460DF057FB2120FEF793FB0446F3
:1029D0000CB1204686E70020E349086026204860C5
:1029E000402088600020C8604FF48060086108467D
:1029F0000DF041FB2620FEF77DFB04460CB120467E
:102A000070E74FF0000901E009F1010901988145E3
:102A1000FAD36846FFF78BFE04464FF0FF3905E016
:102A20006846FFF784FE0446A9F10109B9F1000FD9
:102A300008D03CB99DF800000728F1D09DF80000AF
:102A40000628EDD020464DE710B54FF480700DF00C
:102A5000B4FB50B10020C54908704FF480700DF0F0
:102A6000B7FB0120C249086037E002200DF0A5FB4A
:102A700030B102200DF0ACFB0220BC4908702CE004
:102A800008200DF09AFB30B108200DF0A1FB0420C6
:102A9000B649087021E020200DF08FFB30B12020D6
:102AA0000DF096FB0620B149087016E010200DF0DD
:102AB00084FB30B110200DF08BFB0520AB49087072
:102AC0000BE04FF400700DF078FB30B14FF4007064
:102AD0000DF07EFB0720A549087000214CF23A302A
:102AE0000DF04BFBA148007810BD10B5A14800685F
:102AF00000F0C05040B101209F4908604FF0C25122
:102B00009C4858300CF08BFD10BD0146002002E0BF
:102B10004910421CD0B20129FAD17047F0B593B0E8
:102B200000250020119012900027402101A815F0E7
:102B3000FDF8002401AE00208C4908708C49086023
:102B40008E4908608E4908608E49098888B211A9AB
:102B5000FEF765FB054615B1284613B0F0BD129887
:102B600000F0807018B9129800F0007008B10120D0
:102B700000E000200746002F72D040207A4908600C
:102B800010204860402088600020C8604FF48060BA
:102B9000086108460DF06FFA1020FEF7ABFA054603
:102BA0000DB12846D9E74FF0FF3077490860402043
:102BB0004860602088600220C86000200861012011
:102BC000486108460DF083FA70486749086006209E
:102BD0004860402088600020C8604FF48060086131
:102BE00008460DF048FA0620FEF784FA05460DB1B6
:102BF0002846B2E70EE04FF400400DF0CFFA48B19E
:102C0000002404E00DF089FA46F82400641C082C26
:102C1000F8D320365A480830006840F22A6108404C
:102C20000028E8D008200DF0B9FA28B108200DF0EE
:102C3000C0FA0425284690E702200DF0AFFA28B12B
:102C400002200DF0B6FA0225284686E720200DF076
:102C5000A5FA30B120200DF0ACFA062528467CE715
:102C600027E04FF400700DF099FA30B14FF4007086
:102C70000DF09FFA072528466FE74FF0FF3404E078
:102C80000DF04BFA3060361D641E4FF400100DF04D
:102C900085FA08B1002CF3D140F2FF500DF089FA0B
:102CA0009DF8110000F00200022801D1002500E08B
:102CB0002725284651E710B5FFF7C6FE10BD10B511
:102CC000FFF713FF10BD2DE9FE4F814617469846CA
:102CD000DDF830A0002002903C4645462C480068B4
:102CE00018B1680240EAD455640209F00300D0B17B
:102CF000002615E04FF400700090700210EB040BFA
:102D000045F100035A462348FFF750FA02904FF46A
:102D100000722049484614F0F0FF09F50079761C4E
:102D20005645E7D316E0BAF1010F09D14FF4007010
:102D300022462B4600904846FFF738FA029009E0F9
:102D40004FF4007022462B46CDE9000A4846FFF7B3
:102D500097FA0290FFF71AFB00BFFFF7B5F80028BB
:102D6000FBD10298BDE8FE8F282E00203000002005
:102D70003400002000640240380000202C000020B5
:102D80002C2C0140280000203C2E002001FFFF8059
:102D900024000020102C00202DE9FE4F0646174687
:102DA0009846DDF830A0002002903C464546244875
:102DB000006818B1680240EAD455640206F00300C6
:102DC000E8B14FF0000917E04FF4007231461D489A
:102DD00014F093FF4FF4007000904FEA492010EB7D
:102DE000040B45F100035A461648FFF748FB0290D2
:102DF00006F5007609F10109D145E5D316E0BAF1EF
:102E0000010F09D14FF4007022462B460090304646
:102E1000FFF735FB029009E04FF4007022462B4685
:102E2000CDE9000A3046FFF7A5FB0290FFF73EFC14
:102E300000BFFFF749F80028FBD10298BDE8FE8FDC
:102E400024000020102C002001460020FE4A914260
:102E500001D1012026E0FD4A914201D1022021E06A
:102E6000FB4A914201D104201CE0FA4A914201D16F
:102E7000082017E0F84A914201D1102012E0F74AE9
:102E8000914201D120200DE0F54A914201D140202C
:102E900008E0F44A914201D1802003E0F24A9142D5
:102EA00000D18815704701460020012900D142E079
:102EB000022901D101203EE0042901D102203AE09B
:102EC000082901D1032036E0102901D1042032E085
:102ED000202901D105202EE0402901D106202AE039
:102EE000802901D1072026E0B1F5807F01D108209B
:102EF00021E0B1F5007F01D109201CE0B1F5806F20
:102F000001D10A2017E0B1F5006F01D10B2012E0CA
:102F1000B1F5805F01D10C200DE0B1F5005F01D16A
:102F20000D2008E0B1F5804F01D10E2003E0B1F58E
:102F3000004F00D10F20704701460020CB4A91423C
:102F400001D1012042E0CA4A914201D102203DE074
:102F5000C84A914202D14FF4803037E0C64A9142CC
:102F600002D14FF4003031E0C44A914202D14FF413
:102F700080202BE0B1F1804F01D1012026E0C04A32
:102F8000914201D1022021E0BE4A914201D10420A8
:102F90001CE0BD4A914201D1082017E0BB4A914292
:102FA00001D1102012E0BA4A914201D120200DE057
:102FB000B84A914201D1402008E0B74A914201D17C
:102FC000802003E0B54A914200D188157047014640
:102FD0000020A64A914201D101203FE0A44A91423B
:102FE00001D103203AE0A34A914201D1032035E008
:102FF000A14A914201D1032030E0A04A914201D17F
:1030000003202BE0B1F1804F01D1012026E09C4A42
:10301000914201D1022021E09A4A914201D102203D
:103020001CE0994A914201D1022017E0904A914256
:1030300001D1032012E08F4A914201D103200DE01B
:10304000944A914201D1092008E0934A914201D16A
:10305000092003E0914A914200D1092070472DE9EF
:10306000FC4706460D46144699463046FFF7ECFEEF
:10307000074601210CF076FE7C4884420BD07C4848
:10308000844208D07B48844205D07B48844202D0E9
:103090007A48844207D12046FFF74EFF07460121B8
:1030A0000CF0BAFE06E02046FFF746FF0746012176
:1030B0000CF0A1FE009502208DF8040003208DF88D
:1030C000050000208DF8060001208DF807006946F4
:1030D00030460CF0A9FB2046FFF779FF074628464B
:1030E000FFF7E1FE80463A46414630460CF027FCA9
:1030F000BDE8FC877CB505460C462846FFF7A4FED4
:10310000064601210CF02EFE009401208DF80400EB
:1031100002208DF8050000208DF806008DF80700CC
:10312000694628460CF080FB7CBD2DE9FF4F89B035
:10313000834614461D46DDE9166ABAF1000F0FD129
:10314000002120460DF0C6FB58460A99FFF7D2FF32
:10315000002258460A990CF0E7FB0DB0BDE8F08F4D
:1031600042F2107082450DD1002120460DF0B2FBD5
:1031700058460A99FFF7BEFF012258460A990CF0FB
:10318000D3FBEAE72B46224658460A99FFF767FF2A
:10319000364884420BD03648844208D035488442B1
:1031A00005D03548844202D03448844203D13C489B
:1031B000D0F8008003E03A4800684FEA5008642ED7
:1031C0000AD242F20F7942F21070B8FBF0F0B0FB75
:1031D000F6F0401E87B213E040F6B830864209D2BE
:1031E0004FF063096420B8FBF0F0B0FBF6F0401E2E
:1031F00087B205E04FF00009B8FBF6F0401E87B239
:103200000797ADF818900020ADF82000ADF81A002F
:103210008DF8220006A920460DF0D3FA6020ADF803
:1032200004000120ADF806000AFB07F042F210711D
:10323000B0FBF1F003900020ADF81000ADF80800ED
:10324000ADF812002EE00000000002400004024031
:1032500000080240000C024000100240001402402E
:1032600000180240001C0240002002400000014003
:10327000000401400040014000440140004801407A
:103280000004004000080040000C00400010004016
:103290000014004000180040001C004000200040C6
:1032A00024240020ADF81400ADF81600012D08D13B
:1032B00001A920460DF01AFB082120460DF0A3FCC1
:1032C0001FE0022D08D101A920460DF048FB08217E
:1032D00020460DF0A1FC14E0032D08D101A92046E1
:1032E0000DF08AFB082120460DF0A3FC09E0042D17
:1032F00007D101A920460DF0E5FB082120460DF07D
:10330000A1FC012120460DF0C7FA012120460DF055
:10331000E1FAE148844202D0E048844203D101212D
:1033200020460DF0C8FE00BF17E72DE9FF4F89B01A
:10333000834614461D46DDE9166ABAF1000F0FD127
:10334000002120460DF0C6FA58460A99FFF7D2FE32
:10335000002258460A990CF0E7FA0DB0BDE8F08F4C
:1033600042F2107082450DD1002120460DF0B2FAD4
:1033700058460A99FFF7BEFE012258460A990CF0FA
:10338000D3FAEAE72B46224658460A99FFF767FE2A
:10339000C14884420BD0C148844208D0C04884420E
:1033A00005D0C048844202D0BF48844203D1BF4800
:1033B000D0F8008003E0BD4800684FEA5008642E52
:1033C0000AD242F20F7942F21070B8FBF0F0B0FB73
:1033D000F6F0401E87B213E040F6B830864209D2BC
:1033E0004FF063096420B8FBF0F0B0FBF6F0401E2C
:1033F00087B205E04FF00009B8FBF6F0401E87B237
:103400000797ADF818900020ADF82000ADF81A002D
:103410008DF8220006A920460DF0D3F96020ADF802
:1034200004000020ADF806000AFB07F042F210711C
:10343000B0FBF1F003900020ADF810000420ADF8CF
:1034400008000020ADF81200ADF81400ADF8160029
:10345000012D08D101A920460DF048FA0821204687
:103460000DF0D1FB1FE0022D08D101A920460DF07F
:1034700076FA082120460DF0CFFB14E0032D08D189
:1034800001A920460DF0B8FA082120460DF0D1FB25
:1034900009E0042D07D101A920460DF013FB0821F6
:1034A00020460DF0CFFB012120460DF0F5F901215A
:1034B00020460DF00FFA7848844202D077488442C3
:1034C00003D1012120460DF0F6FD00BF45E72DE9AF
:1034D000FF5F04460D4691469A466F4884420BD0E2
:1034E0006E48844208D06E48844205D06D488442BC
:1034F00002D06D48844207D12046FFF71DFD834668
:1035000001210CF089FC06E02046FFF715FD8346FB
:1035100001210CF070FC2DB9002120460DF0DAF9E4
:10352000BDE8FF9F5C4884420BD05C48844208D0D1
:103530005B48844205D05B48844202D05A488442AA
:1035400002D15A48066802E0584800684608642DCF
:103550000AD242F20F7842F21070B6FBF0F0B0FBE4
:10356000F5F0401E87B213E040F6B830854209D22C
:103570004FF063086420B6FBF0F0B0FBF5F0401E9E
:1035800087B205E04FF00008B6FBF5F0401E87B2A9
:103590000297ADF804800020ADF80C00ADF80600ED
:1035A0008DF80E0001A920460DF00BF901212046EF
:1035B0000DF072F90122114620460DF0A3FD012104
:1035C00020460DF087F94FF0000B3348844202D0BB
:1035D0003448844202D14FF0190B4FE0B4F1804FD0
:1035E00002D14FF01C0B49E03148844202D14FF028
:1035F0001D0B43E02F48844202D14FF01E0B3DE0EB
:103600002D48844202D14FF0320B37E02B488442E0
:1036100002D14FF0360B31E02948844202D14FF0FD
:10362000370B2BE02648844202D14FF0370B25E0C0
:103630002348844202D14FF0370B1FE017488442E1
:1036400002D02048844202D14FF02C0B16E01448DF
:10365000844202D14FF0180B10E01348844202D18B
:103660004FF01A0B0AE01848844202D14FF02B0B9E
:1036700004E01548844201D14FF02D0B8DF800B0C5
:103680008DF801908DF802A001208DF803006846A6
:103690000BF00DF900BF43E70000014000040140BA
:1036A0000040014000440140004801402424002023
:1036B0000004004000080040000C004000100040E2
:1036C00000140040001C00400018004010B5002409
:1036D0000020FE490860902000F056FA002000F01B
:1036E00053FA002000F050FA002000F04DFAFF20BD
:1036F00000F04AFA44EA0024FF2000F045FA0443AF
:103700000120F349C1F88002204610BD1CB50121FB
:1037100002200CF027FB012000908DF8040000200F
:103720008DF8060003208DF8050001208DF80700B4
:103730006946E8480CF078F80120E449086000F098
:103740003CFA002000F096FAFFF7C0FFE24908803B
:103750001CBD10B500240020DC490860052000F0E5
:1037600013FAFF2000F010FA04460120D849C1F8EE
:103770008002204610BD10B504460020D3490860E1
:10378000012000F001FA204600F0FEF90120D049A6
:10379000C1F8800210BD10B50020CC490860062099
:1037A00000F0F2F90120CA49C1F8800210BD10B53D
:1037B0000020C6490860042000F0E6F90120C44951
:1037C000C1F8800210BD2DE9F04106460C461746AF
:1037D0000020BE490860032000F0D6F9C4F307407A
:1037E00000F0D2F9C4F3072000F0CEF9E0B200F007
:1037F000CBF9002505E0FF2000F0C6F97055681CE4
:1038000085B2BD42F7DB0120B0490860BDE8F08118
:1038100010B500BFFFF79DFF00F001000028F9D1AF
:1038200010BD2DE9F04106460C461746FFF7B3FFE1
:103830000020A6490860022000F0A6F9C4F3074062
:1038400000F0A2F9C4F3072000F09EF9E0B200F006
:103850009BF9002504E0705D00F096F9681C85B2C4
:10386000BD42F8DB012099490860FFF7D1FFBDE8B0
:10387000F0812DE9F04107460E461446F0B2C0F53E
:103880008075AC4200DC254612E02A4631463846B7
:10389000FFF7C7FFAC4200D10BE02F442E44601B62
:1038A00084B2B4F5807F02DD4FF4807500E02546D8
:1038B000EBE700BFBDE8F08110B50446214687A0C4
:1038C00014F0BAFA2403FFF766FFFFF7A1FF002008
:1038D0007E490860202000F057F9C4F3074000F04B
:1038E00053F9C4F3072000F04FF9E0B200F04CF9AF
:1038F00001207749C1F88002FFF78AFF10BD2DE94A
:10390000F05F81460F461646DFF8D8B14FEA173808
:10391000C7F30B0ACAF58054A64200DC344644E0E3
:103920004FEA08314FF480525846FFF74CFF00250C
:1039300008E00AEB05001BF80000FF2800D003E0B8
:10394000681C85B2A542F4DB00BFA54216DA4046EA
:10395000FFF7B2FF002507E019F8050005EB0A01A3
:103960000BF80100681C85B2A542F5DB4FEA08316F
:103970004FF480525846FFF77CFF04E02246394658
:103980004846FFF776FFA64200D10FE008F1010894
:103990004FF0000AA1442744301B86B2B6F5805F81
:1039A00002DD4FF4805400E03446B9E700BFBDE8C3
:1039B000F09F10B5FFF7EFFEFFF72AFF0020434905
:1039C0000860C72000F0E0F801204149C1F88002FA
:1039D000FFF71EFF10BDADE000BF00BF00BF00BF7E
:1039E00000BF00BF00BF00BF00BF00BF00BF00BFDF
:1039F00000BF00BF00BF00BF00BF00BF00BF00BFCF
:103A000000BF00BF00BF00BF00BF00BF00BF00BFBE
:103A100000BF00BF00BF00BF00BF00BF00BF00BFAE
:103A200000BF00BF00BF00BF00BF00BF00BF00BF9E
:103A300000BF00BF00BF00BF00BF00BF00BF00BF8E
:103A400000BF00BF00BF00BF00BF00BF00BF00BF7E
:103A500000BF00BF00BF00BF00BF00BF00BF00BF6E
:103A600000BF00BF00BF00BF00BF00BF00BF00BF5E
:103A700000BF00BF00BF00BF00BF00BF00BF00BF4E
:103A800000BF00BF00BF00BF00BF00BF00BF00BF3E
:103A900000BF00BF00BF00BF00BF00BF00BF00BF2E
:103AA00000BF00BF00BF00BF00BF00BF00BF00BF1E
:103AB00000BF00BF00BF00BF00BF00BF00BF00BF0E
:103AC00000BF00BF00BF00BF00BF0DE080824042CA
:103AD00000804042000402403C00002066653A2518
:103AE000780D0A00542E002000BF00BF00BF00BFA9
:103AF00000BF00BF00BF00BF00BF00BF00BF00BFCE
:103B000000BF00BF00BF00BF00BF00BF00BF00BFBD
:103B100000BF00BF00BF00BF00BF00BF00BF00BFAD
:103B200000BF00BF00BF00BF00BF00BF00BF00BF9D
:103B300000BF00BF011EA0F1010290B27FF44CAFA4
:103B4000704710B500200E490860B92000F01CF83D
:103B500001200C49C1F880020320FFF73CFF10BD93
:103B600010B5002006490860AB2000F00DF80120D8
:103B70000449C1F880020320FFF72DFF10BD0000AB
:103B8000808240420080404210B5044600BF0221BE
:103B900041480CF039FD0028F9D021463E480CF090
:103BA000EAFC00BF01213C480CF02EFD0028F9D0B2
:103BB00039480CF0DDFCC0B210BD00B587B0012162
:103BC00008460CF0CFF8012108030CF025F9382045
:103BD000059002208DF8180000208DF81A000320AF
:103BE0008DF8190001208DF81B0005A92B480BF05A
:103BF0001BFE0522032129480BF0A1FE052204210A
:103C000026480BF09CFE0522114624480BF097FE37
:103C1000012108030CF055F900214FF480500CF0FD
:103C200050F90020ADF800004FF48270ADF80200AA
:103C30000020ADF804000220ADF806000120ADF828
:103C400008004002ADF80A003820ADF80C00002052
:103C5000ADF80E000720ADF8100069460E480CF0D4
:103C60000FFB01210C480CF005FCFF20FFF78CFF37
:103C700007B000BD10B50446074800884FF6C7716D
:103C80000840054908800846008820430880012133
:103C900001480CF0EFFB10BD003001400004024071
:103CA0001448006840F080701249086000201249F2
:103CB00048600846006840F001000860704730B571
:103CC0000D4C636800210D4C24680D4DB4FBF5F4D8
:103CD00004FB00F202E0084C6468E11A9142FAD356
:103CE00030BD10B504464FF47A7104FB01F0FFF7C4
:103CF000E6FF10BDFCED00E0001000E024240020F1
:103D000040420F008AB000200790089009900022DE
:103D10001821142002F042F93D4908600846006865
:103D200040B906E03BA014F087F842F2107003F0AF
:103D30004FF9F7E758E000234FF47A7201A93448AD
:103D4000006802F0BDFB00284ED0029880B2ADF8AA
:103D50001C009DF811008DF81E009DF812008DF8D2
:103D60001F00002405E00DF11300015D08A80155B6
:103D7000641C9DF81F00A042F5DCBDF81C0000F09B
:103D80007F059DF8040001282DD1052D29D2DFE8FB
:103D900005F003040D161F0024E02748006820B139
:103DA0002549086807A90AF0EFF91BE02248406896
:103DB00020B12149486807A90AF0E6F912E01E4837
:103DC000806820B11C49886807A90AF0DDF909E07C
:103DD0001948C06820B11849C86807A90AF0D4F981
:103DE00000E000BF00E000BFA5E71CB513480F21AD
:103DF00000234FF40072CDE9001011A1124802F027
:103E00005EFE0E48006810B910A014F015F81CBD35
:103E1000400000204372656174207468652043414E
:103E20004E4F70656E205175657565206661696CD1
:103E3000656421200D0A0000543E0020440000204B
:103E400043414E4F70656E00053D000843414E4FA3
:103E500070656E206461746170726F636573732046
:103E6000746872656164206372656174656420665C
:103E700061696C6564210D0A000000002DE9FF4FA7
:103E800085B0074690461C46DDF84C9004AA414692
:103E90003846D7F8E83198478246DAF8000000EB58
:103EA000041090F801B0DAF8000000EB041040684C
:103EB0000390B9F1000F01D0052500E0032523464A
:103EC0004246CDE900B93846069909F0C9FFE0B984
:103ED00000F0DEFC18E004F0D3FE02A803AB009073
:103EE0003846129A06990AF041F8064604F0EFFEA9
:103EF000FE480078012803D1EE2009B0BDE8F08F1C
:103F0000AE4201D03046F8E7E5E7EF20F5E72DE9CE
:103F1000FF4F89B0074690461C46DDE916B908AA4E
:103F200041463846D7F8E83198478246DAF800002B
:103F300000EB041040780790DAF8000000EB041062
:103F400040680690B9F1000F01D0042500E0022579
:103F5000DDE90601234642468DE80308CDF80C90C2
:103F600038460A9909F04BFEC8B900F091FC15E0FB
:103F700004F086FE05AA38460A990AF0B8F8064603
:103F800004F0A5FED9480078012803D1EE200DB039
:103F9000BDE8F08FAE4201D03046F8E7E8E7EF2009
:103FA000F5E701B596B001200E90169815900CAA71
:103FB00046F24001159800F0F2FF0D900D98006850
:103FC00080680A900CAA46F24101159800F0E7FFBC
:103FD0000D900D98006880680B90042012900E9848
:103FE00000F5C0701390002012AACDE9002013AB99
:103FF00001224FF4A0510290159805F098FC0E98FC
:1040000000F520701390002012AACDE9002013AB18
:10401000012241F201410290159805F088FC0E98AA
:1040200000F560701390002012AACDE9002013ABB8
:10403000012241F202410290159805F078FC0E9899
:1040400000F590601390002012AACDE9002013AB78
:10405000012241F203410290159805F068FCA44941
:104060000E9808441390002012AACDE9002013AB4B
:1040700001224FF4C0510290159805F058FC9D495B
:104080000E9808441390002012AACDE9002013AB2B
:10409000012241F601010290159805F048FC96496D
:1040A0000E9808441390002012AACDE9002013AB0B
:1040B000012241F602010290159805F038FC8F4963
:1040C0000E9808441390002012AACDE9002013ABEB
:1040D000012241F603010290159805F028FC012009
:1040E0001290FF201490002012AACDE9002014ABFA
:1040F00002224FF4A0510290159805F018FCFF2001
:104100001490002012AACDE9002014AB022241F243
:1041100001410290159805F00AFCFF201490002040
:1041200012AACDE9002014AB02224FF4C051029034
:10413000159805F0FCFB022012900020109012AAA6
:10414000CDE9002010AB0322D1020290159805F0B2
:10415000EEFB0220119001201290002012AACDE95E
:10416000002011AB02464FF4B0510290159805F0B3
:10417000DEFB63480F9004201290002012AACDE9C4
:1041800000200FAB01224FF4B0510290159805F0BA
:10419000CEFB5C480F9004201290002012AACDE9BB
:1041A00000200FAB02224FF4B0510290159805F099
:1041B000BEFB012011901290002012AACDE9002030
:1041C00011AB024641F201610290159805F0AFFB78
:1041D0004D480F9004201290002012AACDE9002033
:1041E0000FAB012241F201610290159805F09FFB8F
:1041F000012011901290002012AACDE9002011ABED
:1042000002464FF4D0510290159805F090FB3F48BC
:104210000F9004201290002012AACDE900200FABCD
:1042200001224FF4D0510290159805F080FB12E066
:1042300000210B980B4646F24102CDE900010E9990
:104240001598FFF71BFE012800D105E002220E9908
:10425000159806F0D3FDEBE700BF0B98007800F04F
:10426000080068B180210A98018000210A980B4655
:1042700046F24002CDE900010E991598FFF747FE7E
:1042800080220E99159805F013FA0A2002F0A0FE7C
:104290000E9800F500701390002013A901234FF42D
:1042A000A052CDE900100E991598FFF730FE0020BE
:1042B00014A902234FF4A052CDE900100E991598CD
:1042C000FFF725FE0020119010480F90002011A943
:1042D00003464FF4B052CDE900100E991598FFF740
:1042E00016FE00200FA9012312E000005400002058
:1042F00000020040000300C0000400C0000500C030
:10430000200064601000786010004160200062208E
:104310004FF4B052CDE900100E991598FFF7F7FD54
:1043200001201190002011A903464FF4B052CDE9AD
:1043300000100E991598FFF7EAFDFE490E98084403
:10434000139014201090002013A901234FF4C052A1
:10435000CDE900100E991598FFF7D9FD002014A99A
:1043600002234FF4C052CDE900100E991598FFF7C3
:10437000CEFD002010A90323DA02CDE900100E992A
:104380001598FFF7C4FDEC490E98084413900020DF
:10439000109013A9012341F60102CDE900100E99F6
:1043A0001598FFF7B4FD002014A9022341F601027D
:1043B000CDE900100E991598FFF7A9FD002010A96E
:1043C000032341F60102CDE900100E991598FFF77D
:1043D0009EFDDA490E9808441390002013A901238A
:1043E00041F60202CDE900100E991598FFF78FFDF6
:1043F000D3490E9808441390002013A9012341F6D5
:104400000302CDE900100E991598FFF780FD0020FA
:104410001190CC480F90002011A903464FF4D052C0
:10442000CDE900100E991598FFF771FD00200FA936
:1044300001234FF4D052CDE900100E991598FFF7E3
:1044400066FDC1480F9000200FA902234FF4D052FF
:10445000CDE900100E991598FFF759FD0220119033
:10446000002011A903464FF4D052CDE900100E9957
:104470001598FFF74CFD00201190B4480F900020D4
:1044800011A9034641F60122CDE900100E991598B5
:10449000FFF73DFD00200FA9012341F60122CDE9E0
:1044A00000100E991598FFF732FD012011900020A1
:1044B00011A9034641F60122CDE900100E99159885
:1044C000FFF725FD0521159809F039FF0A2002F0B4
:1044D0007FFD01220E99159805F0EAF80A2002F0F6
:1044E00077FD01200990002009A9034646F26002E9
:1044F000CDE900100E991598FFF709FD00200890EE
:1045000008A9034646F27A02CDE900100E991598E3
:10451000FFF7FDFC4FF496700790002007A90346B3
:1045200046F28102CDE900100E991598FFF7EFFCD5
:1045300041F288300690002006A9034646F2830225
:10454000CDE900100E991598FFF7E1FC41F2883093
:104550000590002005A9034646F28402CDE900102B
:104560000E991598FFF7D3FC01200490002004A9B0
:10457000034646F28602CDE900100E991598FFF722
:10458000C6FC00210A9801800A980B4646F24002B8
:10459000CDE900010E991598FFF7B9FC0A2002F049
:1045A00017FD00BF0B98008800F4A070B0F5A07F45
:1045B000F8D106210A98018000210A980B4646F29C
:1045C0004002CDE900010E991598FFF7A0FC0A20E2
:1045D00002F0FEFC00BF0B98008840F22111084059
:1045E0008842F8D10F210A98018000210A980B46D1
:1045F00046F24002CDE900010E991598FFF787FCBD
:104600000A2002F0E5FC00BF0B98008840F2371149
:1046100008408842F8D13F210A98018000210A9879
:104620000B4646F24002CDE900010E991598FFF7BE
:104630006EFC0A2002F0CCFC00BF0B98008800F44E
:104640008060B0F5806FF8D1FF200990002009A9A3
:10465000034646F26002CDE900100E991598FFF767
:1046600056FC0A2002F0B4FC3948006802F075FAE2
:1046700000203749086017B000BD2DED088B82B0CF
:1046800080460025C14601AA46F26401484600F072
:1046900086FC07463868D0F808A001AA46F27801DF
:1046A000484600F07CFC07463868D0F808B001AAFC
:1046B00042F26201484600F072FC074638688068A2
:1046C00000909FED240AB0EE40AA9FED230AF0EE81
:1046D00040AA9FED220AB0EE40BA9FED210AB0EE4B
:1046E000409A9FED1F0AF0EE409A9FED1D0AF0EEF2
:1046F00040BA0A2002F06CFC5FE0DAF80040BBF838
:104700000000404206B200EE106AB8EEC00ADFEDCB
:10471000150A20EE200ADFED140A08EE200ADFED6C
:10472000130A20EE200AB0EE408A601B00EE100A49
:104730001EE000008001004080020040800300C0B5
:10474000800400C0200064601000786010004160A8
:10475000480000200080BB45000048449A99993EDB
:10476000000000006666663FCDCCCC3DCDCC4C3E13
:10477000B8EEC00AF0EE000AC0EE208A254600EE30
:10478000104AF8EEC00AB0EE480A0BEE600A0AEED4
:10479000E80AC0EE0A0AF0EE60BA39EEAB0AF0EEB3
:1047A000409A39EE290AB0EE409ABDEEC90A009847
:1047B00080ED000A142002F00BFC9EE71CB51048A7
:1047C0000221CDE900100F480A020FA10368114829
:1047D00002F075F90A48006810B90FA013F02CFB1D
:1047E0001CBD10B515480749086015480968C1F88F
:1047F000E40104490868002109F0A1FD10BD000092
:1048000048000020543E002045504F5332696E69E5
:1048100074000000A33F000845504F533220696EDA
:10482000697420746872656164206372656174657F
:1048300064206661696C6564210D0A00E421002032
:104840000064004070B5054655B900BF102080F3E4
:104850001188BFF34F8FBFF36F8F00BF00BFFEE71C
:10486000284603F072FF044614B90120114908706C
:1048700070BD38B54FF4FA74AFF2370000231A4612
:10488000214600900CA003F0E6FE0D49086038BDFB
:1048900038B500200749087002F0E9FE04464FF4DD
:1048A0007A7000232246012100900548006803F039
:1048B000A9FC38BD5400002054696D6572000000E9
:1048C000500000202DE9FC4707460C461546002005
:1048D00000908046814601AA694638460EF069FC80
:1048E00006468EB901984069801E0199498900FBEE
:1048F00001F901984089009900FB01F84FEA59003D
:1049000020604FEA580028603046BDE8FC87000070
:1049100038B50446042221466846FEF754FF009845
:1049200038BD38B50446022221466846FEF74BFFE3
:10493000BDF8000038BD13B504460122214601A888
:10494000FEF797FF1CBD38B504460D4600950222C0
:1049500021466846FEF78DFF38BD38B504460D4642
:104960000095042221466846FEF783FF38BD1028D3
:1049700004DA0121F84A02EBC002117170472DE9F7
:10498000F0410746062506260020FFF7C1FF044632
:10499000601C08B9FF2513E004F07F40B0F12A4FF6
:1049A00001D1AA250CE004F47F00B0F5881F01D1E5
:1049B000112505E004F47F40B0F56E4F00D1EE25DF
:1049C0004FF48050FFF7A4FF0446601C08B9FF268F
:1049D00013E004F07F40B0F12A4F01D1AA260CE089
:1049E00004F47F00B0F5881F01D1112605E004F41E
:1049F0007F40B0F56E4F00D1EE26A7B1012F1CD13C
:104A0000112E06D1EE2D02D10020BDE8F08101204B
:104A1000FBE7112D05D1EE2E01D10120F5E7002095
:104A2000F3E7AB20F1E7112D01D10020EDE7112EC6
:104A300001D10120E9E7AB20E7E70020E5E770B509
:104A4000092600240120FFF79AFF0446AB2C06D16B
:104A5000002000EB0430C1490860AB2070BD00208D
:104A600000EB0430BD490860601C6FF0010101EBF0
:104A7000003512E0B9480068FFF74AFF401C38B91A
:104A8000B6480068001FB549086009263046E5E7CA
:104A9000B2480068001DB1490860B0480068A842EB
:104AA000E8D3AE480068001FAC4908608020D5E715
:104AB00010B50020FEF700FF11210220FFF73BFF99
:104AC0000120FEF7F9FE10BD2DE9F04104460F4626
:104AD0004FF0090800250120FFF751FF0546AB2DD7
:104AE00001D1BDE8F081681C002101EB00369B4834
:104AF0000068001D9949086017E098480068FFF7B2
:104B000007FF401C60B9394694480068FFF71BFF57
:104B1000214692480068801CFFF715FF4046E0E7F9
:104B20008E480068001D8D4908608C480068B042BE
:104B3000E3D38020D5E72DE9F04706460F46002451
:104B400045F255584FF00109854DAA460020FFF760
:104B500016FF0446AB2C01D1BDE8F087022000EB24
:104B6000043A8048007818B97C480068851C04E045
:104B7000601C002101EB0030851E0DE02846FFF788
:104B8000D0FE8046B04506D1A81EFFF7CAFE388089
:104B90004FF0000902E02D1F5545EFD800BF4846F1
:104BA000DAE72DE9F0474FF0060906240025002733
:104BB0004FF0FF380020FFF7ABFE0646701C10B91F
:104BC0004FF0FF0916E006F07F40B0F12A4F02D106
:104BD0004FF0AA090EE006F47F00B0F5881F02D15D
:104BE0004FF0110906E006F47F40B0F56E4F01D199
:104BF0004FF0EE094FF48050FFF78AFE0646701C16
:104C000008B9FF2413E006F07F40B0F12A4F01D12C
:104C1000AA240CE006F47F00B0F5881F01D111240E
:104C200005E006F47F40B0F56E4F00D1EE24B9F1F7
:104C3000110F54D0B9F1AA0F7ED0B9F1EE0F0FD0F9
:104C4000B9F1FF0F79D1112C09D0EE2C05D111212A
:104C500041F20200FFF76FFE01E0FFF729FF9FE03E
:104C6000112C28D101203F490870002516E00620AC
:104C7000FFF757FEA84201D10FFA85F845450BD042
:104C800039492846FFF757FF0746012F04D0364819
:104C900001882846FFF718FF681C85B2102DE6DB57
:104CA00000203049087011210220FFF744FE012046
:104CB000FEF702FE12E0FF2C04D111210220FFF7C3
:104CC0003AFE0BE0AA2C07D10120FEF7F5FD1121D9
:104CD0000220FFF730FE01E0FFF7EAFE60E0112C52
:104CE00002D1FFF7E5FE43E0FF2C41D0AA2C03D10F
:104CF0000120FEF7E1FD3BE0EE2C37D10120194900
:104D00000870002517E041F20600FFF70AFEA842EE
:104D100001D10FFA85F845450BD013492846FFF716
:104D20000AFF0746012F04D00F4801882846FFF7E5
:104D3000CBFE681C85B201E01BE02EE0102DE2DB0B
:104D4000002008490870112141F20200FFF7F3FD2D
:104D50000020FEF7B1FD0BE0944000205C00002035
:104D600000000108600000205A000020FFF7A0FEAC
:104D700016E0112C03D10020FEF79EFD0CE0EE2C76
:104D800008D10020FEF798FD112141F20200FFF743
:104D9000D2FD01E0FFF78CFE02E0FFF789FE00BFC5
:104DA00000BFBDE8F08710B5FFF7FBFEFFF747FE39
:104DB00010BD38B504464FF6FF7000906946204696
:104DC000FFF7B9FEBDF8000038BD2DE9F84F0646E3
:104DD000894609200090514FDFF844A100250024A6
:104DE0004FF000084FF0000B0020FFF7C8FD05460C
:104DF000012D03D100274FF4805A08E025B94FF464
:104E000080574FF0000A02E0AB20BDE8F88FEE219A
:104E1000781CFFF790FDFFF712FE49463046FFF77A
:104E200053FE8046B8F1090F01D04046EDE701205E
:104E30003C490870002410E0B4420CD03A492046A6
:104E4000FFF779FE8346BBF1010F04D03648018895
:104E50002046FFF739FE601C84B2102CECDB0020EA
:104E6000304908703148007828B1AA210AF10300BE
:104E7000FFF761FD02E02846FEF71EFD1121B81C78
:104E8000FFF759FD0098C0E770B505460E460024AF
:104E900031462846FFF718FE0446802C04D13146DF
:104EA0002846FFF792FF0446204670BD08B5002251
:104EB0000421142001F072F81D49086008460068BA
:104EC00040B906E01BA012F0B7FF42F2107002F0EA
:104ED0007FF8F7E70EE000234FF47A726946144832
:104EE000006801F0EDFA28B1BDF80210BDF800002D
:104EF000FFF7CAFFEFE71CB51748012100234A025C
:104F0000CDE9001015A1174801F0D9FD124800683D
:104F100010B915A012F090FF1CBD0000FF0301089E
:104F200000000108600000205A0000205800002006
:104F300064000020437265617420746865205257D4
:104F400064617461205175657565206661696C6581
:104F50006421200D0A00000068000020525764619F
:104F600074610000AD4E0008525764617461207492
:104F7000687265616420637265617465642066614E
:104F8000696C6564210D0A0002469F2A04D10878E5
:104F900008B1F748704700BF00BF0020FAE770B5BE
:104FA00005460B4642F27004181BA3427DD07DDCFF
:104FB00042F20104A3EB0400A34278D059DCB3F51C
:104FC000815F75D012DCA3F58050192871D2DFE81B
:104FD00000F0FAF9F8F770F6F5F4F3F2F170F0EF8B
:104FE0007070EEEDECEBEA70E9E8E70041F2036483
:104FF000181BA3425ED021DC41F20244A3EB040063
:10500000A34274D00EDCB3F5905F71D0B3F5945F1A
:105010006FD0B3F5A05F6DD06FF4A0501844002896
:1050200047D1CCE1012876D0B0F5FF7F74D0A0F253
:10503000FF10002871D00128F2D1CAE140F2FD36FC
:10504000841BB0426AD00ADCA0F2FD10002866D0B2
:10505000012865D0022864D00328E1D1C7E1012CE2
:1050600060D0022C5FD0032C5ED0B4F5C06FD7D1D6
:10507000CBE11A2859D010DC1A28A7D2DFE800F0BB
:1050800019EEEDECEBEA19E9E8E719E6191919E56B
:10509000E4E3E2E1E0DFDEDDDCDB28287DD011DCCB
:1050A000A0F11F00092891D205E017E223E0AEE14C
:1050B00078E126E18FE1DFE800F0EEEDECEBEAE9E4
:1050C000E8E7E600302869D008DC2B2867D02C28D8
:1050D0007AD02D2879D02F28A2D1F3E1612875D07C
:1050E000682874D06A2873D06B2899D1F4E168E1FC
:1050F0005AE160E161E143F6F276841BB04268D088
:1051000068DCB0F5D87F66D033DC122876D018DCA6
:105110001228B2D20AE056E157E158E169E15CE1B8
:105120005DE15EE167E168E16DE1AFE1DFE800F0DC
:10513000E9E8E9E9E7E9E9E9E6E5E4E3E2E1E9E903
:10514000E0DF91286FD008DC51286DD054286CD056
:1051500084286BD090288AD1DEE1B0F5D07F66D06C
:10516000A0F2A110002863D0012862D00228B3D198
:10517000DCE140F2A136841BB0425BD03FDC40F260
:105180009226A0EB0604B04269D02DDCB0F5E07F9A
:105190006FD0B0F5E87F6DD01EE08BE194E18BE13C
:1051A000FEE0FBE0F8E0F5E0F2E0EFE0ECE0E9E063
:1051B000E6E0E3E0E0E0DDE0D7E0D4E0D1E0CEE01F
:1051C000CBE0C8E0C5E0C2E078E179E17EE17FE1D3
:1051D00080E1D5E14FE0ABE1B0F5247F5CD0A0F2F7
:1051E00091200028B7D1ABE1012C56D0FE2C55D030
:1051F000FF2C54D0B4F5877FADD1ABE184E143F609
:105200004A46A01BB4426ED02ADCA4F6EE30002839
:105210006AD0A0F540500838002866D0392865D0FB
:105220003A2898D1A0E179E170E171E172E177E18A
:1052300078E179E190E127E124E10EE10BE108E179
:1052400005E102E1FFE0FCE0F9E0F6E0F3E0F0E088
:10525000EDE0EAE0E7E0E4E0E1E0DEE0D9E071E1A2
:10526000012870D003286FD005286ED00628B9D148
:1052700084E15FE160E1272C68D025DCA4F1020421
:10528000232C3ED20CE013E110E10DE10AE107E12D
:1052900004E101E1FEE0FBE050E155E156E157E1B8
:1052A000DFE804F0EFEE2FEDECEB2FEAE9E8E72F73
:1052B0002F2F2F2F2F2F2F2FE62FE52FE4E32FE275
:1052C0002FE12FE0DFDEDD00602C6FD023DC2C2C03
:1052D0006DD017DC282C6BD0292C6AD02A2C69D0F1
:1052E0002B2C89D17CE141E138E139E13AE109E156
:1052F00006E103E100E1FDE0FAE0F7E0F4E0F1E0CF
:10530000EEE08DE1362C6ED0372C6DD0382C6CD081
:105310005E2C86D16EE1992C68D008DC622C6ED0B0
:10532000632C6DD0942C6CD0972CA0D16CE19D2C6B
:1053300068D0B4F5687F6ED0A4F2AE34002C6BD088
:10534000F22C94D16AE113E114E115E140E100216E
:105350006AE1012168E1022166E1032164E104219F
:1053600062E1052160E106215EE107215CE10000C8
:1053700030000906082157E1092155E10A2153E1CE
:105380000B2151E10C214FE10D214DE10E214BE1AB
:105390000F2149E1102147E1112145E1122143E1AB
:1053A000132141E114213FE115213DE124E119E1FF
:1053B00010E111E112E1162136E1172134E1182143
:1053C00032E1192130E11A212EE11B212CE11C21AF
:1053D0002AE11D2128E11E2126E11F2124E12021AF
:1053E00022E1212120E1FFE000E101E10EE12221A3
:1053F0001AE1232118E1242116E1252114E1FDE021
:10540000FEE0FFE004E126210EE127210CE1282146
:105410000AE1292108E1FDE0FEE02A2104E12B2137
:1054200002E12C2100E12D21FEE02E21FCE02F21C4
:10543000FAE03021F8E03121F6E03221F4E03321C6
:10544000F2E03421F0E03521EEE03621ECE03721C6
:10545000EAE03821E8E03921E6E03A21E4E0B5E08D
:10546000B2E0AFE0ACE0A9E0A6E0A3E0A0E09DE000
:105470009AE097E094E091E08EE08BE088E085E0B0
:1054800082E07FE03B21CFE03C21CDE03D21CBE03D
:105490003E21C9E03F21C7E04021C5E04121C3E0F2
:1054A0004221C1E04321BFE04421BDE04521BBE0F2
:1054B0004621B9E04721B7E04821B5E04921B3E0F2
:1054C0004A21B1E04B21AFE04C21ADE04D21ABE0F2
:1054D0004E21A9E04F21A7E05021A5E05121A3E0F2
:1054E0005221A1E053219FE054219DE055219BE0F2
:1054F000562199E0572197E0582195E0592193E0F2
:105500005A2191E05B218FE05C218DE05D218BE0F1
:105510005E2189E05F2187E0602185E0612183E0F1
:10552000622181E063217FE064217DE065217BE0F1
:10553000662179E0672177E0682175E0692173E0F1
:105540006A2171E06B216FE06C216DE06D216BE0F1
:105550006E2169E06F2167E0702165E0712163E0F1
:10556000722161E073215FE074215DE075215BE0F1
:10557000762159E0772157E0782155E0792153E0F1
:105580007A2151E07B214FE07C214DE07D214BE0F1
:105590007E2149E07F2147E0802145E0812143E0F1
:1055A000822141E083213FE084213DE085213BE0F1
:1055B000862139E0872137E0882135E0892133E0F1
:1055C0008A2131E08B212FE08C212DE08D212BE0F1
:1055D0008E2129E08F2127E0902125E0912123E0F1
:1055E000922121E093211FE094211DE095211BE0F1
:1055F000962119E0972117E0982115E0992113E0F1
:105600009A2111E09B210FE09C210DE09D210BE0F0
:105610009E2109E09F2107E0A02105E0A12103E0F0
:1056200005481060002070BD00BF002010600348D6
:1056300000EBC100F7E700000000020670810108DE
:10564000704738A012F0F8FB00BFFEE739A012F057
:10565000F3FB00BFFEE73BA012F0EEFB00BFFEE74E
:105660003CA012F0E9FB00BFFEE7704710B588B020
:105670000020019000BF1021EFF3118081F3118809
:10568000BFF34F8FBFF36F8F00BF044603AA002103
:10569000344809F0FEFB01208DF80800324800680C
:1056A00030B1002301AA02A92F48006800F0F7FDDD
:1056B00000BF84F3118800BF019848B1019838B148
:1056C0004FF0805029490860BFF34F8FBFF36F8FB1
:1056D00008B010BD00B587B00020009003F0D0FAEC
:1056E00002AA0021224809F0D4FB01208DF8040011
:1056F0001D48006830B100236A4601A91A480068B5
:1057000000F0CDFD03F0E3FA009848B1009838B1FD
:105710004FF0805015490860BFF34F8FBFF36F8F74
:1057200007B000BD486172644661756C740D0A0D66
:105730000A0000004D656D4D616E6167650D0A0DD3
:105740000A0000004275734661756C740D0A0D0AFB
:105750000000000055736167654661756C740D0A41
:105760000D0A0000006400404000002004ED00E04D
:10577000006800400CB50020019000907648006859
:1057800040F480307449086000BF7348006800F43A
:10579000003000900198401C0190009818B90198C1
:1057A000B0F5A04FF1D16C48006800F4003010B1A2
:1057B0000120009001E0002000900098012846D1CF
:1057C00065484030006840F08050634940310860CF
:1057D0006248006840F44040604908605E48083014
:1057E00000685D49083108600846006840F40040E0
:1057F00008600846006840F4A05008605848091F37
:105800000860081F006840F08070091F086000BF32
:105810005148006800F000700028F9D040F205708F
:10582000504908604C480830006820F003004A499D
:10583000083108600846006840F00200086000BFB8
:1058400045480830006800F00C000828F8D10CBD6D
:1058500010B54548006840F47000434908603E4870
:10586000006840F001003C49086000203A490831D6
:105870000860394800683D490840374908603C489D
:10588000091D0860081F006820F48020091F0860B7
:10589000002031490C310860FFF76CFF4FF00060C9
:1058A00031498039086010BD70B500200022022304
:1058B00000240221284D08352D6805F00C0020B188
:1058C000042806D0082834D107E02A4D2A4E356036
:1058D00033E02A4D284E35602FE01F4D2D1D2D68D9
:1058E000C5F380541C4D2D1D2D6805F03F0154B1AA
:1058F000224DB5FBF1F5184E361D3668C6F38816F5
:1059000005FB06F209E01B4DB5FBF1F5124E361D05
:105910003668C6F3881605FB06F20F4D2D1D2D685F
:10592000C5F301456D1C6B00B2FBF3F5124E3560FB
:1059300003E0104D104E356000BF00BF064D083526
:105940002D68C5F303150E4E705D0B4D2D68C540D7
:10595000094E356070BD0000003802400070004004
:1059600008544007003C024088ED00E0FFFFF6FECF
:10597000103000240024F4002424002000127A00B7
:10598000282400200648804706480047FEE7FEE737
:10599000FEE7FEE7FEE7FEE7FEE7FEE7FEE7FEE7DF
:1059A000515800088901000810B51C2002F09DFF25
:1059B000044624B100202060201D00F047FA204654
:1059C00010BD2DE9FE4F07468846002001903C4659
:1059D000009057B900BF102080F31188BFF34F8F9C
:1059E000BFF36F8F00BF00BFFEE708F07F4008B92C
:1059F000012000E0002050B900BF102080F3118882
:105A0000BFF34F8FBFF36F8F00BF00BFFEE704F1FE
:105A1000040909F10800029001F070FAD9F80C604D
:105A2000206840EA0800206026E0D6F804B0356817
:105A30000020009005F07F4A25F07F450AF0806045
:105A400028B92068284040B10120009005E0206876
:105A50002840A84201D101200090009858B10AF0D6
:105A6000807010B1019828430190206840F00071C7
:105A7000304601F090FF5E4602988642D5D12068FC
:105A800001998843206001F08BF92068BDE8FE8F02
:105A90002DE9F84F8346884614461F465D46002090
:105AA000009004F07F4008B9012000E0002050B9C8
:105AB00000BF102080F31188BFF34F8FBFF36F8FAB
:105AC00000BF00BFFEE70CB1012000E0002050B98C
:105AD00000BF102080F31188BFF34F8FBFF36F8F8B
