:020000040800F2
:1000000058B7002055020008C167000811230008F6
:10001000BD670008D50600081B7A00080000000034
:100020000000000000000000000000009D0100082A
:100030008B12000800000000F1010008F5720008B2
:100040006F0200086F0200086F0200086F020008CC
:100050006F0200086F0200086F0200086F020008BC
:100060006F0200086F0200086F0200086F020008AC
:100070006F0200086F0200086F0200086F0200089C
:100080006F0200086F0200086F0200086F0200088C
:10009000D90600086F0200086F0200086F0200080E
:1000A0006F0200086F0200086F0200086F0200086C
:1000B0006F0200086F0200086F0200086F0200085C
:1000C0006F0200086F0200086F0200086F0200084C
:1000D0006F020008FD7500086F0200086F0200083B
:1000E0006F0200086F0200086F0200086F0200082C
:1000F0006F0200086F0200086F0200086F0200081C
:100100006F020008016D00086F0200086F0200080E
:100110006F0200086F020008917300086F02000868
:100120006F0200086F0200086F0200086F020008EB
:100130006F0200086F0200086F0200086F020008DB
:100140004D0700086F0200086F0200086F020008E8
:10015000010E00086F020008410E00086F0200083F
:100160006F0200086F0200086F0200086F020008AB
:100170006F0200086F0200086F0200086F0200089B
:100180006F0200086F020008DFF80CD000F0DCF905
:1001900000480047D99F000858B700202A4B19682B
:1001A0000868B0E8F04F80F30988BFF36F8F4FF015
:1001B000000080F3118870470000000006480068C6
:1001C000006880F3088862B661B6BFF34F8FBFF353
:1001D0006F8F00DF00BF00BF08ED00E0DFF80C000C
:1001E000016841F470010160704700BF88ED00E0D4
:1001F000EFF30980BFF36F8F134B1A681EF0100FD7
:1002000008BF20ED108A20E9F04F106008B44FF0CD
:10021000100080F31188BFF34F8FBFF36F8F0EF084
:1002200085FC4FF0000080F3118808BC196808684D
:10023000B0E8F04F1EF0100F08BFB0EC108A80F34A
:100240000988BFF36F8F704768240020EFF30580A3
:10025000704700000648804706480047FEE7FEE773
:10026000FEE7FEE7FEE7FEE7FEE7FEE7FEE7FEE766
:10027000297300088901000840EA01039B0703D0A5
:1002800009E008C9121F08C0042AFAD203E011F8D5
:10029000013B00F8013B521EF9D27047D2B201E097
:1002A00000F8012B491EFBD270470022F6E710B57B
:1002B00013460A4604461946FFF7F0FF204610BDD4
:1002C00030B504460020034600E05B1C934203D295
:1002D000E05CCD5C401BF8D030BD2DE9FE4F81EADB
:1002E000030404F0004421F0004100944FF0000B9F
:1002F00023F0004350EA01045ED052EA03045BD0CD
:10030000C3F30A54C1F30A552C44A4F2F334019404
:10031000A0FB0254C1F3130141F48011C3F3130392
:1003200043F4801301FB024400FB034E840A970A46
:1003300044EA815447EA8357A4FB076802958D0A73
:1003400005FB07854FEA932C04FB0C542705029DFF
:100350004FEA065847EA1637B5EB08056EEB070C6F
:10036000870E920E47EA811742EA8312A7FB020129
:10037000B6EB0B0164EB00042B0D43EA0C335E1863
:1003800044EB1C50DA465146E7FB0201C5F3130467
:100390004FEA0B3343EA14534FEA0432019C43EA19
:1003A0000603A4F10C040294009CCDE900B400F013
:1003B0007CF803B0BDE8F08F00200146F9E70EB5E8
:1003C00040F2334102910021CDE900110A460B466B
:1003D00000F06BF803B000BDC1F30A5210B5C1F3D1
:1003E000130140F2FF3341F480119A4201DA0020F8
:1003F00010BD40F233439A42A2F2334203DC524230
:1004000000F034F810BD904010BD2DE9F05F0546B6
:10041000002092469B4688460646814640241BE0C3
:10042000284641464746224600F020F853465A46A1
:10043000C01A914110D311461846224600F096F892
:100440002D1A67EB01084F4622460120002100F0DB
:100450008DF817EB00094E41201EA4F10104DFDCEA
:10046000484631462A464346BDE8F09F202A04DB31
:10047000203A21FA02F00021704721FA02F3D0401D
:10048000C2F12002914008431946704710B5141E6E
:1004900073F1000408DA401C41F1000192185B413D
:1004A0001A4301D120F0010010BD2DE9F04D924614
:1004B0009B4611B1B1FA81F202E0B0FA80F220322B
:1004C000904600F053F804460F4640EA0A0041EA1D
:1004D0000B0153465A46084313D0114653EA010014
:1004E00019D0C8F140025046FFF7C0FF05460E463E
:1004F00050465946424600F039F8084305D00120DD
:1005000004E020463946BDE8F08D0020054346EA68
:10051000E0762C4337430A986305E40AA0EB080011
:100520000022FD0A44EA47540A3002D50020014661
:10053000E9E7010510196941DDE90845001969413C
:10054000BDE8F04DA2E70000064C074D06E0E0686C
:1005500040F0010394E8070098471034AC42F6D30A
:10056000FFF716FE3C1601085C160108202A04DB82
:10057000203A00FA02F1002070479140C2F12003B6
:1005800020FA03F319439040704770B58C1810F8A7
:10059000015B15F0070301D110F8013B2A1106D1C8
:1005A00010F8012B03E010F8016B01F8016B5B1EE2
:1005B000F9D12B0705D40023521E0DD401F8013BBD
:1005C000FAE710F8013BCB1A921C03E013F8015B29
:1005D00001F8015B521EF9D5A142D8D3002070BDAD
:1005E00010B50EF090FB024908600DF0AFFF10BD92
:1005F000140000201CB52048022100230A02CDE986
:1006000000101EA120480EF009FF204803210023FE
:100610004FF40072CDE900101DA120480EF0FEFE3F
:100620001F4804210023CA01CDE900101DA1204864
:100630000EF0F4FE1F48052100234FF40072CDE9AF
:1006400000101DA11F480EF0E9FE09F079F809F02D
:100650004FFC1D481D4908601D480968C1F8E401A8
:100660001A49086800210DF007FE0321184808F018
:10067000F1FE00F027FE1CBD0000002076546173DF
:100680006B5461736B31000015EC0008040000200E
:10069000765461736B5461736B3200004DEC00084B
:1006A00008000020765461736B5461736B33000053
:1006B0006DEC00080C000020765461736B5461737C
:1006C0006B3400008DEC0008142200204000002054
:1006D0000064004000BFFEE710B588B00020019024
:1006E00000BF1021EFF3118081F31188BFF34F8F0A
:1006F000BFF36F8F00BF044603AA0021104800F02B
:1007000086F901208DF808000E48006830B10023FA
:1007100001AA02A90B4800680EF0BEFD00BF84F3D9
:10072000118800BF019848B1019838B14FF080504E
:1007300005490860BFF34F8FBFF36F8F08B010BD3E
:10074000006400403800002004ED00E000B587B0F0
:10075000002000900DF088FF02AA00210F4800F051
:1007600056F901208DF804000D48006830B10023CF
:100770006A4601A90A4800680EF08EFD0DF09EFF42
:10078000009848B1009838B14FF080500549086092
:10079000BFF34F8FBFF36F8F07B000BD00680040FD
:1007A0003800002004ED00E010B504460B488442F8
:1007B00009D10121480606F087F900214FF00070A9
:1007C00006F082F908E00121880606F07DF9002193
:1007D0004FF0806006F078F910BD00000064004022
:1007E00010B50021837A012202FA03F13D4A126812
:1007F00042F001023B4B1A603A4A1C3212688A43AB
:10080000384B1C331A60027BCAB9364A0C32126864
:100810008A43344B0C331A604288C38842EA03434C
:10082000304A4032847A42F834300288838842EA7F
:1008300003432C4A4032847A02EBC4025360027BA9
:10084000012A19D1274A0C3212680A43254B0C336E
:100850001A604288038842EA0343224A4032847A7B
:1008600042F83430C288838842EA03431D4A40324A
:10087000847A02EBC4025360C27A3AB9194A121D53
:1008800012688A43174B1B1D1A6006E0154A121D99
:1008900012680A43134B1B1D1A60028932B9114AB0
:1008A000143212688A430F4B14331A600289012AEA
:1008B00006D10C4A143212680A430A4B14331A60E8
:1008C000427B012A06D1074A1C3212680A43054BB3
:1008D0001C331A60034A126822F00102014B1A60AD
:1008E00010BD0000006600401AB143690B4343612C
:1008F00002E043698B434361704730B502460020F4
:100900000023146824F002041460146844F0010405
:10091000146000E05B1C546804F001041CB94FF63D
:10092000FF74A342F6D1546804F001040CB900200E
:100930006CE08C79012C04D1146844F080041460BC
:1009400003E0146824F080041460CC79012C04D1F5
:10095000146844F04004146003E0146824F0400478
:1009600014600C7A012C04D1146844F02004146043
:1009700003E0146824F0200414604C7A012C04D1A4
:10098000146844F01004146003E0146824F01004A8
:1009900014608C7A012C04D1146844F008041460AB
:1009A00003E0146824F008041460CC7A012C04D10C
:1009B000146844F00404146003E0146824F0040490
:1009C00014608C78A407CD7844EA05640D7944EA74
:1009D00005444D7944EA05540D886D1E2C43D461BD
:1009E000146824F001041460002300E05B1C5468C8
:1009F00004F001041CB14FF6FF74A342F6D1546811
:100A000004F001040CB1002000E0012030BD10B55D
:100A100000F5D87303EB01131B6803F00403137292
:100A2000137A53B900F5D87303EB01131B6840F236
:100A3000FF7404EA5353136009E000F5D87303EB25
:100A400001131B686FF0604404EAD303536000F5A0
:100A5000D87303EB01131B6803F00203537200F514
:100A6000D87303EB01135B6803F00F03937200F577
:100A7000D87303EB01135B681B0AD37400F5D873BA
:100A800003EB01139B68D37200F5D87303EB0113DA
:100A90009B681C0A147300F5D87303EB01139B6861
:100AA0001C0C547300F5D87303EB01139B681B0EE9
:100AB000937300F5D87303EB0113DB68D37300F570
:100AC000D87303EB0113DB681C0A147400F5D873A8
:100AD00003EB0113DB681C0C547400F5D87303EBB3
:100AE0000113DB681B0E937421B9C36843F0200324
:100AF000C36003E0036943F02003036110BD0000FD
:100B00000B49096841F00101094A11601146096861
:100B100043F60E729143064A11601146096841EA94
:100B2000002111601146096821F001011160704730
:100B30000066004000218171C171017241728172B1
:100B4000C1728170C17003210171022141710121C3
:100B50000180704710B502460020936803F080635F
:100B6000B3F1806F00D110E0936803F00063B3F13C
:100B7000006F01D1012008E0936803F08053B3F1C6
:100B8000805F01D1022000E00420042874D002F527
:100B9000C07303EB00131B6803F0010402F5C0737C
:100BA00003EB00131C600B7A7BB94B7A0C8843EA89
:100BB000445302F5C07404EB00142468234302F587
:100BC000C07404EB0014236010E00B7A4C6843EA15
:100BD000C4034C7A234302F5C07404EB0014246868
:100BE000234302F5C07404EB001423608B7A03F0F6
:100BF0000F038B7202F5C07303EB00135B6823F0E5
:100C00000F0402F5C07303EB00135C6002F5C073C0
:100C100003EB00135B688C7A234302F5C07404EB8A
:100C2000001463608B7B1C064B7B44EA03440B7B04
:100C300044EA0323CC7A234302F5C07404EB001486
:100C4000A3608B7C1C064B7C44EA03440B7C44EA87
:100C50000323CC7B234302F5C07404EB0014E36050
:100C600002F5C07303EB00131B6843F0010402F5A7
:100C7000C07303EB00131C6010BD000070B5044688
:100C800005E01648056805F0450000B100E0F8E70A
:100C900000BF042006F028F820B1042006F01EF85A
:100CA000032070BD012006F01FF820B1012006F0DE
:100CB00015F80120F5E7094824380068A04201D062
:100CC0001020EEE740F2FF5006F008F80348203805
:100CD000006808210840C0B2E3E70000342C01405E
:100CE00070B504460D46D4F8A00050F82500C0F3B6
:100CF00007464FF0FF30D4F8A41021F81500012169
:100D000004F1B400815531462046D4F8B020904714
:100D100070BD2DE9FF4FDDE90D456CE0A5EB020A42
:100D20004FFA8AF3002B04DD91F800A00AFA03FAC7
:100D300005E091F800A0C3F1000B4AFA0BFA0AF0A3
:100D4000FF0C002B02DDC5F1080A01E0C2F1080A20
:100D50000AF0FF08804501DD824600E0C2465646A3
:100D600005EB060B4FF0FF0A0AFA0BFAC5F1080E65
:100D70004FF0FF0B4BFA0EFB4AEA0B0A0AF0FF0793
:100D80002CEA070994F800A00AEA070A84F800A0F0
:100D900094F800A04AEA090A84F800A002EB060AC7
:100DA0000AF0FF0A5246BAF1070F0BDD0022DDF808
:100DB0000CA0BAF1000F02D04FF0FF3A01E04FF063
:100DC000010A514405EB060A0AF0FF0A5546BAF13A
:100DD000070F0BDD0025DDF83CA0BAF1000F02D0B3
:100DE0004FF0FF3A01E04FF0010A5444A0EB060A2D
:100DF0000AF0FF0000BF002890DCBDE8FF8F000074
:100E000010B500BF1021EFF3118081F31188BFF3FB
:100E10004F8FBFF36F8F00BF04460749074800F0AC
:100E20009FF918B10449054800F052F800BF84F357
:100E3000118800BF10BD00000088002088640240B7
:100E400010B500BF1021EFF3118081F31188BFF3BB
:100E50004F8FBFF36F8F00BF04460C490C4800F062
:100E60007FF968B100BF40210A4806F00BFD002859
:100E7000F9D00649064800F02BF800200649087012
:100E800000BF84F3118800BF10BD0000008000285F
:100E9000B8640240001001401C0000200246094BCB
:100EA0009A4201D2084801E00648103801F0005388
:100EB0001BB1064B0B40C36002E0044B0B40836048
:100EC0007047000010640240006002407D0F7D0FFB
:100ED0000246094B9A4201D2084801E00648103800
:100EE00001F000531BB1064B0B40C36002E0044B02
:100EF0000B408360704700001064024000600240B5
:100F00007D0F7D0F21B1026842F00102026003E013
:100F1000026822F0010202607047000000B591B043
:100F20000121880505F0A0FD344800F06DF84FF070
:100F30000060029032480390402005900020079006
:100F40004FF480600890002009900A900B904FF4B5
:100F500080300C9000200D9003200E9000200F9008
:100F6000109002A9254800F04BF946208DF80400A6
:100F700004208DF8050000208DF8060001208DF872
:100F8000070001A805F01EFC012210211B4800F0FB
:100F900019F94FF020511948FFF780FF17483038F2
:100FA00000F032F84FF000600290154803900020E6
:100FB000059007904FF480600890002009900A90F7
:100FC0004FF480700B9040020C9000200D90032095
:100FD0000E9000200F90109002A90848303800F0C1
:100FE0000FF9002210210548303800F0EBF80549D0
:100FF00002483038FFF752FF11B000BDB86402401C
:101000000410014000080020016821F00101016086
:101010000021016041608160C16001612121416165
:101020004A49884204D13D21484A103A91608CE0F7
:1010300046491831884205D14FF47461434A103A49
:10104000916082E041493031884205D14FF47411FA
:101050003E4A103A916078E03C494831884205D1D7
:101060004FF07461394A103A91606EE0374960314F
:10107000884204D13649354A103AD16065E0334997
:101080007831884204D13349304A103AD1605CE06B
:101090002E499031884204D12F492C4A103AD16010
:1010A00053E02A49A831884205D14FF03D51274AE3
:1010B000103AD16049E02949884204D13D21274AAC
:1010C000083A116041E025491831884205D14FF4B2
:1010D0007461224A083A116037E020493031884271
:1010E00005D14FF474111D4A083A11602DE01B49D7
:1010F0004831884205D14FF07461184A083A1160AE
:1011000023E016496031884204D11149134A121F65
:1011100011601AE011497831884204D10D490F4A13
:10112000121F116011E00D499031884204D10A4923
:101130000A4A121F116008E00849A831884204D108
:101140004FF03D51054A121F116070471060024078
:101150003D000020400F002000003D2010640240B0
:1011600070B50246002000240025124EB24201D282
:10117000114B01E00F4B103B104E0E4036B11E26B6
:1011800006EAD124166806EA040502E0566906F06C
:10119000800501F000560EB15C6800E01C68084E46
:1011A000344004EA010616B10DB1012000E0002030
:1011B00070BD000010640240006002403C0F3C0F14
:1011C0007D0F7D0F10B501F080034BB122B1436953
:1011D00043F08003436103E0436923F080034361EC
:1011E00080290BD02AB1036801F01E042343036059
:1011F00004E0036801F01E04A343036010BD000077
:1012000010B500220268134B1A40CC680B682343C8
:101210004C6923438C692343CC6923430C6A2343E1
:101220004C6A23438C6A23434C6B23438C6B2343CC
:101230001A430260426922F00702D1E90B342343CA
:101240001A4342610B6943604B6883608B68C360DB
:1012500010BD00003F801CF041607047C1607047C6
:1012600070B505460E46144600212846FFF74AFE93
:1012700031462846FFF7F2FF21462846FFF7ECFFEC
:1012800001212846FFF73EFE70BD70470146481C0D
:1012900080B10A48B0F90000814205D107480088B2
:1012A000401E00B2054A1080002001EB4102044BB1
:1012B00003F832004FF0FF3070470000F4240020A4
:1012C00098A600201CB509480121CDE90010084866
:1012D0004A0208A103680A480EF0A0F80348006813
:1012E00010B908A006F0EAFB1CBD00004C0000206D
:1012F0004000002045504F5332696E697400000071
:101300007914000845504F533220696E6974207477
:1013100068726561642063726561746564206661EA
:10132000696C6564210D0A001CB50C48007898B101
:1013300000200A4908700A480121CDE90010094837
:101340004A0209A103680B480EF068F804480068D7
:1013500010B909A006F0B2FB1CBD00004800002037
:10136000540000204000002045504F533269706DFA
:1013700000000000C51B000845504F533220697023
:101380006D20746872656164206372656174656460
:10139000206661696C6564210D0A00001CB509486E
:1013A0000121CDE9001008484A0208A103680B4852
:1013B0000EF034F80348006810B909A006F07EFB6F
:1013C0001CBD0000580000204000002045504F5335
:1013D0003272657475726E7A65726F00551C000802
:1013E00045504F53322072657475726E7A65726F14
:1013F000207468726561642063726561746564203D
:101400006661696C6564210D0A0000001CB509481D
:101410000121CDE9001008484A0208A103680B48E1
:101420000DF0FCFF0348006810B909A006F046FB68
:101430001CBD0000500000204000002045504F53CC
:10144000327365747A65726F00000000891D0008B0
:1014500045504F5332207365747A65726F207468FB
:101460007265616420637265617465642066616998
:101470006C6564210D0A000001B58CB00120049058
:101480000C980B9004200890049800F5C070099007
:10149000002008AACDE9002009AB01224FF4A05199
:1014A00002900B9807F0D4F9049800F52070099089
:1014B000002008AACDE9002009AB012241F2014138
:1014C00002900B9807F0C4F9049800F56070099039
:1014D000002008AACDE9002009AB012241F2024117
:1014E00002900B9807F0B4F9049800F59060099009
:1014F000002008AACDE9002009AB012241F20341F6
:1015000002900B9807F0A4F9FE490498084409904A
:10151000002008AACDE9002009AB01224FF4C051F8
:1015200002900B9807F094F9F74904980844099041
:10153000002008AACDE9002009AB012241F60101F3
:1015400002900B9807F084F9F04904980844099038
:10155000002008AACDE9002009AB012241F60201D2
:1015600002900B9807F074F9E9490498084409902F
:10157000002008AACDE9002009AB012241F60301B1
:1015800002900B9807F064F901200890FF200A9060
:10159000002008AACDE900200AAB02224FF4A05196
:1015A00002900B9807F054F9FF200A90002008AA37
:1015B000CDE900200AAB022241F2014102900B98D2
:1015C00007F046F9FF200A90002008AACDE9002084
:1015D0000AAB02224FF4C05102900B9807F038F981
:1015E000022008900A200690002008AACDE90020D9
:1015F00006AB0322D10202900B9807F029F90220D2
:10160000079001200890002008AACDE9002007AB30
:1016100002464FF4B05102900B9807F019F9BD48FB
:10162000059004200890002008AACDE9002005AB11
:1016300001224FF4B05102900B9807F009F9B64817
:10164000059004200890002008AACDE9002005ABF1
:1016500002224FF4B05102900B9807F0F9F80120E4
:1016600007900890002008AACDE9002007AB0246A9
:1016700041F2016102900B9807F0EAF8A748059043
:1016800004200890002008AACDE9002005AB012223
:1016900041F2016102900B9807F0DAF801200790FF
:1016A0000890002008AACDE9002007AB02464FF4BD
:1016B000D05102900B9807F0CBF899480590042080
:1016C0000890002008AACDE9002005AB01224FF4C4
:1016D000D05102900B9807F0BBF812E0002091491E
:1016E000034646F24102CDE9001004990B9805F03B
:1016F0008FFA012800D105E0022204990B9808F026
:1017000053F8EBE700BF8748007800F0080060B1AD
:101710008020854908800020034646F24002CDE93A
:10172000001004990B9806F07BF9802204990B981D
:1017300008F079FC01200DF0A1F8049800F5007084
:101740000990002009A901234FF4A052CDE900100F
:1017500004990B9806F064F900200AA902234FF4BB
:10176000A052CDE9001004990B9806F059F9002019
:1017700007906B480590002007A903464FF4B0522C
:10178000CDE9001004990B9806F04AF9002005A94C
:1017900001234FF4B052CDE9001004990B9806F0E4
:1017A0003FF901200790002007A903464FF4B052EB
:1017B000CDE9001004990B9806F032F951498039AF
:1017C00004980844099064200690002009A9012388
:1017D0004FF4C052CDE9001004990B9806F020F99F
:1017E00000200AA902234FF4C052CDE90010049949
:1017F0000B9806F015F9002006A90323DA02CDE9BB
:10180000001004990B9806F00BF93E4980310498BA
:10181000084409900020069009A9012341F601021D
:10182000CDE9001004990B9806F0FAF800200AA9F7
:10183000022341F60102CDE9001004990B9806F04D
:10184000EFF8002006A9032341F60102CDE90010BC
:1018500004990B9806F0E4F82B4980310498084469
:101860000990002009A9012341F60202CDE90010E8
:1018700004990B9806F0D4F8244980310498084460
:101880000990002009A9012341F60302CDE90010C7
:1018900004990B9806F0C4F8002007901D480590A5
:1018A000002007A903464FF4D052CDE90010049957
:1018B0000B9806F0B5F8002005A901234FF4D0528B
:1018C000CDE9001004990B9806F0AAF8124805908B
:1018D000002005A902234FF4D052CDE9001004994D
:1018E0000B9806F09DF802200790002007A90346F8
:1018F0004FF4D052CDE9001004990B9806F090F8FF
:10190000002013E000020040000300C0000400C0FB
:10191000000500C0200064601000F4201000416049
:101920004000C120700200206E0200200790914804
:101930000590002007A9034641F60122CDE90010D9
:1019400004990B9806F06CF8002005A9012341F6D4
:101950000122CDE9001004990B9806F061F80120EE
:101960000790002007A9034641F60122CDE90010A7
:1019700004990B9806F054F805210B980CF07CFCA8
:1019800001200CF07BFF012204990B9808F04BFB1F
:1019900001200CF073FF0020039003A9062346F2F8
:1019A000C402CDE9001004990B9806F039F8012023
:1019B0000390002003A9062346F2C402CDE90010DB
:1019C00004990B9806F02CF8002002901DE06A495B
:1019D0000298085C01060022684B029853F8200028
:1019E0006FF07F43184093184141654A029852F8BE
:1019F0002000C21718185141624A03C201200CF09E
:101A00003DFF0298401CC0B2029002981028DEDB15
:101A1000002003A9042346F2C402CDE90010049972
:101A20000B9805F0F5F89DF80C00102802D156A08F
:101A300006F044F801205A4908700020034646F297
:101A40006002CDE9001004990B9805F0E9FF002031
:101A500054490860034646F27A02CDE90010049921
:101A60000B9805F0DDFF4FF47A704F4908600020B5
:101A7000034646F28102CDE9001004990B9805F067
:101A8000CFFF41F28830494908600020034646F202
:101A90008302CDE9001004990B9805F0C1FF41F2D3
:101AA0008830434908600020034646F28402CDE9AD
:101AB000001004990B9805F0B3FF01203D49088000
:101AC0000020034646F28602CDE9001004990B98E7
:101AD00005F0A6FF002038490880034646F2400280
:101AE000CDE9001004990B9805F09AFF01200CF045
:101AF000C5FE00BF3148008800F4A070B0F5A07F9B
:101B0000F8D106202C4908800020034646F2400206
:101B1000CDE9001004990B9805F082FF01200CF02C
:101B2000ADFE00BF2548008840F2211108408842E0
:101B3000F8D10F20204908800020034646F24002D9
:101B4000CDE9001004990B9805F06AFF01200CF014
:101B500095FE00BF1948008840F2371108408842BE
:101B6000F8D1174800680CF0B7FE0020144908604F
:101B70000DB000BD10004160641001087410010830
:101B8000B4100108880100207772697465206669C5
:101B9000666F20737563636573730D0A0000000040
:101BA00078020020A4020020B8020020BC0200201D
:101BB000C0020020C80200206E0200207002002037
:101BC0004C0000207CB504460126254607201D490F
:101BD00008700020034646F26002CDE9001031464D
:101BE000284605F01DFF1F201749088000200346E6
:101BF00046F24002CDE900103146284605F010FFBC
:101C000001200CF03BFE00200F49034646F2400243
:101C1000CDE900103146284605F002FF01200CF006
:101C20002DFE00BF0948008800F48060B0F5806F89
:101C3000F8D1074800680CF04FFE00200449086006
:101C40007CBD0000780200206E020020700200209F
:101C500054000020FEB5054601272E4600200290C4
:101C600002A9062346F2C402CDE9001039463046E7
:101C700005F0D6FE01200290002002A9062346F2BC
:101C8000C402CDE900103946304605F0C9FE0024F3
:101C900018E03248005D01060022314850F8240067
:101CA0006FF07F431840921841412E4850F82400AD
:101CB000C317101859412C4A03C201200CF0DEFD55
:101CC000601CC4B2102CE4DB0120284908700020FD
:101CD000034646F26002CDE900103946304605F071
:101CE0009FFE002022490860034646F27A02CDE9B1
:101CF00000103946304605F093FE4FF4FA601D4956
:101D000008600020034646F28102CDE90010394602
:101D1000304605F085FE3F20174908800020034625
:101D200046F24002CDE900103946304605F078FE13
:101D300001200CF0A3FD00BF1048008800F4806073
:101D4000B0F5806FF8D101200D4908700D4800688A
:101D50000CF0C2FD00200B490860FEBD64100108B4
:101D600074100108B41001088801002078020020D6
:101D7000A4020020B80200206E02002070020020A1
:101D80004800002058000020FEB5054601272E46D9
:101D90000020029002A9062346F2C402CDE90010F9
:101DA0003946304605F03CFE01200290002002A991
:101DB000062346F2C402CDE900103946304605F04C
:101DC0002FFE002418E05F48005D010600225E48F7
:101DD00050F824006FF07F431840931841415B484E
:101DE00050F82400C21718185141594A03C2012063
:101DF0000CF044FD601CC4B2102CE4DB01205549FA
:101E000008700020034646F26002CDE90010394612
:101E1000304605F005FE41F288304F490860002049
:101E2000034646F27A02CDE900103946304605F005
:101E3000F7FD4FF4FA60494908600020034646F276
:101E40008102CDE900103946304605F0E9FD3F201A
:101E5000434908800020034646F24002CDE90010C5
:101E60003946304605F0DCFD01200CF007FD00BFCF
:101E70003C48008800F48060B0F5806FF8D12320E2
:101E8000394908700020034646F29802CDE9001057
:101E90003946304605F0C4FD002034490860034649
:101EA00042F28102CDE900103946304605F0B8FD16
:101EB00000202F490860034642F28102CDE900105C
:101EC0003946304605F0ACFD062022490870002056
:101ED000034646F26002CDE900103946304605F06F
:101EE0009FFD0F201E4908800020034646F2400255
:101EF000CDE900103946304605F092FD01200CF086
:101F0000BDFC1F20164908800020034646F240020F
:101F1000CDE900103946304605F082FD00BF11487A
:101F2000008800F4A050B0F5A05FF8D1012011495D
:101F30000870114800680CF0CFFC00200E490860C2
:101F4000FEBD00006410010874100108B4100108FF
:101F50008801002078020020A4020020B80200209E
:101F60006E02002070020020D002002080010020BC
:101F7000A8020020480000205000002051B182003B
:101F8000A2F1C042126842F001038200A2F1C042F5
:101F9000136009E08200A2F1C0421268034B1A40AC
:101FA0008300A3F1C0431A6070470000FEFF0F00DA
:101FB00030B50021002200230468A400A4F1C0442D
:101FC0002168424C2140D0E901452C43C5682C438F
:101FD00005692C4345692C4385692C43C5692C430D
:101FE000056A2C43456A2C43856A2C43C56A2C43F9
:101FF000056B2C4321430468A400A4F1C044216074
:102000008468082C0BD10468A400A4F1C04424689F
:1020100044F040050468A400A4F1C04425600468AD
:10202000641CA400A4F1C044226802F04042446B46
:102030002468456B6D6844EA0514456BAD6844EA55
:102040000524456BAD8944EA0544456B2D8A44EA75
:102050000554456B2D7D44EA0564456BAD692C4301
:1020600022430468641CA400A4F1C0442260C46A32
:10207000B4F5804F20D10468A400A4F1C044D4F882
:102080000431134C2340846B2468856B6D6844EAEB
:102090000514856BAD6844EA0524856BAD8944EA77
:1020A0000544856BAD692C4323430468A400A4F167
:1020B000C044C4F8043107E06FF070450468A40020
:1020C000A4F1C044C4F8045130BD00008000F7FF03
:1020D0000000F0CFF0B50A4600210023002400BF25
:1020E0003DE0012505FA01F3156805EA03049C4269
:1020F00034D105684F000326BE40B543056015790D
:102100004E00B5400668354305601579012D02D0B3
:102110001579022D16D185684F000326BE40B543C0
:10212000856055794E00B5408668354385604568C1
:1021300001268E40B5434560456896798E40B6B21B
:1021400035434560C5684F000326BE40B543C560B2
:10215000D5794E00B540C6683543C560491C102985
:10216000BFD3F0BDF0B5002300244D07ED0E02FAF9
:1021700005F3CE1000F1200555F826504E07F70E56
:102180000F26BE40B543CF1000F1200646F8275079
:10219000CE1000F1200555F8265045EA0304CE1074
:1021A00000F1200545F82640F0BD01837047F0B5E9
:1021B00002460C460026506941889069478809B953
:1021C000FF20F0BD002314E0506800EBC10000794F
:1021D000032801DCFF20F4E7506850F83100806BE1
:1021E0000578A54201D1012605E0481C81B2581CA2
:1021F000C3B2B942E8DD00BF0EB9FE20E1E71846E0
:10220000DFE770B504460E46D4F83C01008860B3A1
:10221000002527E004F1B400405D0F2820D020689D
:102220000078A8421CD004F5A270405D00280BDCA9
:10223000D4F8380120B129462046D4F838219047F7
:10224000012104F1B400415504F5A270405D401E27
:10225000C1B204F5A27041552946204607F0D0FED0
:10226000681CC5B2802DD5DB05E0B4F93401FFF759
:102270000DF8A4F8340170BD2349096888B22349D8
:102280000968098881423EDB204909684989491C5F
:102290001E4A126851811D490968C989491C1B4A97
:1022A0001268D18119490968C989184A12681289C6
:1022B000914203D10021154A1268D181134909685E
:1022C0000988091A114A12681269104B1B68DB89C8
:1022D00022F813100D49096849890C4A12681289BD
:1022E000914210DD0021094A12689181074A126863
:1022F000D181064A1268518104490968898A491CBA
:10230000024A1268918270478C64024020000020CB
:1023100000BFFEE70448006900F0100008B9012082
:1023200070470020FCE700000010024004480069EC
:1023300000F0080008B9012070470020FCE7000009
:10234000001002400448006900F0010008B10120BB
:1023500070470020FCE700000000024070B5044612
:10236000002617480588408845431548808846F66A
:102370000401884216D112488079012812D1002028
:102380000F4988712A2048812B2088810021084626
:1023900004F02EF801200A4988712B2048812A2058
:1023A000888103E00021084604F022F804F0D4F903
:1023B000002602E003480480761CAE42FAD370BDCA
:1023C000702C00208000006C10B50446002C66D1F3
:1023D0006C498871F02008804FF4A070488008464E
:1023E000808849F2413188420BD06648808846F6A1
:1023F0000401884205D06348808845F21031884244
:102400001AD12C205F4908812A2048812B208881FD
:102410000846808846F60401884205D059488088DD
:1024200045F21031884206D14FF4A070554908801A
:102430004FF4F0704880A1E05248808845F2105176
:10244000884210D14FF430504E4908814FF4285043
:1024500048814FF42C5088814FF4F07008804FF47D
:10246000487048808AE04748808841F66311884276
:102470000DD12C20434908812B2048812A208881B6
:102480004FF4F07008804FF44870488076E02220C6
:102490003C49088120204881212088816EE001206C
:1024A000384988714FF4A0700880F02048800846B1
:1024B000808849F24131884205D03248808845F20F
:1024C0001031884207D12C202E4908812A204881CA
:1024D0002B2088813FE02B48808846F60401884203
:1024E00007D12C20274908812B2048812A20888168
:1024F00031E02448808845F21051884210D14FF4D1
:102500003050204908814FF4285048814FF42C5016
:1025100088814FF4487008804FF4F07048801AE0CA
:102520001848808841F6631188420DD12C20154946
:1025300008812A2048812B2088814FF44870088028
:102540004FF4F070488006E022200E4908812120D7
:102550004881202088810B48808846F60401884203
:1025600005D00848808845F21031884206D14FF4E2
:10257000F070044908804FF4A0704880002003F0F8
:10258000C1FD10BD702C002070B504460D461646E6
:102590005B48808849F24131884205D0584880889C
:1025A00045F21031884214D15549488904F0C8F8E1
:1025B000201204F0B9F8E0B204F0B6F85049888966
:1025C00004F0BEF8281204F0AFF8E8B204F0ACF85A
:1025D0008CE04B48808845F21051884220D1484910
:1025E000488904F0ADF8201204F09EF84449498966
:1025F000491C88B204F0A4F8E0B204F095F8404910
:10260000888904F09DF8281204F08EF83C498989E5
:10261000491C88B204F094F8E8B204F085F865E04B
:102620003748808841F66311884228D13448807940
:1026300020B933480088401E001B84B230494889C5
:1026400004F07EF8201204F06FF8E0B204F06CF8A9
:10265000201204F069F8E0B204F066F8284988898D
:1026600004F06EF8281204F05FF8E8B204F05CF8A9
:10267000281204F059F8E8B204F056F836E0204881
:10268000808846F6040188421DD11D4880790128C2
:1026900004D11B480088401E001B84B21849488999
:1026A00004F04EF8201204F03FF8E0B204F03CF8D9
:1026B0001349888904F044F8281204F035F8E8B288
:1026C00004F032F812E00E488079012804D10C4859
:1026D0000088401E001B84B209494889214604F045
:1026E00045F807498889294604F040F804480089DC
:1026F000044908804FF0D840A0F8806070BD000009
:10270000702C00207E00006C00B5A1B0002020904D
:1027100001217A2004F0A8F90121084604F0B4F957
:102720004FF400401E9001208DF87C0000208DF8B1
:102730007E0002208DF87D0001208DF87F001EA90B
:10274000FE48FFF7C7FC4CF233701E9002208DF854
:102750007C0000208DF87E0003208DF87D00012094
:102760008DF87F001EA9F648FFF7B4FC4FF6807085
:102770001E9002208DF87C0000208DF87E00032042
:102780008DF87D0001208DF87F001EA9ED48FFF730
:10279000A1FC4FF480501E9002208DF87C00002098
:1027A0008DF87E0003208DF87D0001208DF87F00DC
:1027B0001EA9E548FFF78EFC4FF480501E900220C2
:1027C0008DF87C0000208DF87E0003208DF87D00C0
:1027D00001208DF87F001EA9DC48FFF77BFC0C224E
:1027E0000021D748FFF7BEFC0C220121D448FFF797
:1027F000B9FC0C220421D248FFF7B4FC0C220521BD
:10280000CF48FFF7AFFC0C220821CD48FFF7AAFC08
:102810000C220921CA48FFF7A5FC0C220A21C8484E
:10282000FFF7A0FC0C220E21C548FFF79BFC0C22F1
:102830000F21C348FFF796FC0C220721C148FFF780
:1028400091FC0C220821BF48FFF78CFC0C220921C7
:10285000BC48FFF787FC0C220A21BA48FFF782FC2C
:102860000C220B21B748FFF77DFC0C221146B5481E
:10287000FFF778FC0C220D21B248FFF773FC0C2205
:102880000E21B048FFF76EFC0C220F21AD48FFF778
:1028900069FC0C221146AC48FFF764FC0C2211467F
:1028A000AA48FFF75FFC0F200890002009903C2009
:1028B0000A9000200B900C900D900E900920019032
:1028C00000200290082003900020049005900690BC
:1028D000079006200F900020109011901020129069
:1028E0000020139015901490169017904FF480507C
:1028F0001890002019904FF480401A9000201B90EF
:1029000008A81C9001A81D900FA8FFF751FB0121FA
:102910000620FFF733FB322006F03EF901210020AC
:1029200003F024FF322006F037F9002003F0AEFB5D
:102930008749888008468088FF280ADB0846808807
:102940004FF6FF71884204D081488088B0F5134F5C
:102950007ED1D32003F0F4FE03F08EFB7C49888007
:1029600003F08AFB7A49888003F086FB78498880E7
:10297000084680884FF6FF7101EA0020744988807C
:1029800003F07AFB724989880843714988800846B8
:10299000808849F2413188425AD0BF2003F0D0FEEE
:1029A00003F06AFB6A49888003F066FB6849888007
:1029B00003F062FB6649888003F05EFB644988800F
:1029C000084680884FF6FF7101EA00206049888040
:1029D00003F052FB5E49898808435D4988800846B8
:1029E000808846F6040188427AD0D42003F0A8FEFD
:1029F00003F042FB5649888003F03EFB544988802F
:102A000003F03AFB52498880084680884FF6FF71F0
:102A100001EA00204E49888003F02EFB4C4989884A
:102A200008434B4988800846808845F21031884227
:102A300056D04FF45A4003F083FE03F01DFB444987
:102A400088804FF45B4003F07BFE03F015FB00E051
:102A500046E03F498880084680884FF6FF7101EACA
:102A600000203B4988804FF45C4003F069FE03F08E
:102A700003FB3749898808433549888008468088A0
:102A8000B0F5004F02D145F2105088803048808860
:102A900045F21051884223D0A12003F051FE03F0EB
:102AA000EBFA2B49888003F0E7FA29498880084629
:102AB00080884FF6FF7101EA00202549888003F0E5
:102AC000DBFA2349898808432149888008468088A1
:102AD00045F26171884203D141F663101C49888038
:102AE0001B48808849F24131884211D018488088BB
:102AF00045F2103188420BD01548808845F21051BC
:102B0000884205D01248808841F6631188422DD151
:102B10001048006820F00F004FF02041C1F81C0160
:102B20000846D0F81C0120F47060C1F81C0108466A
:102B3000D0F81C0140F003000EE000000004024049
:102B4000000C024000100240001402400018024035
:102B5000702C00201C0100A0C1F81C010846D0F810
:102B60001C0140F40070C1F81C0128E0FE48808878
:102B700046F60401884205D0FB4880884CF2055196
:102B800088421CD1F948006820F00F004FF0204126
:102B9000C1F81C010846D0F81C0120F47060C1F88F
:102BA0001C010846D0F81C0140F00A00C1F81C01C5
:102BB0000846D0F81C0140F44060C1F81C01EA4806
:102BC0008188EBA004F07AFFE748808849F2413120
:102BD00088427CD1CF2003F0B3FD002003F0A4FD98
:102BE000C12003F0A1FD302003F09EFDED2003F095
:102BF000A7FD642003F098FD032003F095FD12204B
:102C000003F092FD812003F08FFDE82003F098FD92
:102C1000852003F089FD102003F086FD7A2003F063
:102C200083FDCB2003F08CFD392003F07DFD2C20AB
:102C300003F07AFD002003F077FD342003F074FDEB
:102C4000022003F071FDF72003F07AFD202003F04D
:102C50006BFDEA2003F074FD002003F065FD002009
:102C600003F062FDC02003F06BFD1B2003F05CFD50
:102C7000C12003F065FD012003F056FDC52003F0DF
:102C80005FFD302003F050FD302003F04DFDC720E4
:102C900003F056FDB72003F047FD362003F050FD4A
:102CA000482003F041FD3A2003F04AFD552003F08F
:102CB0003BFDB12003F044FD002003F035FD1A2058
:102CC00003F032FDB62003F03BFD0A2000E099E05E
:102CD00003F02AFDA22003F027FDF22003F030FDCF
:102CE000002003F021FD262003F02AFD012003F03F
:102CF0001BFDE02003F024FD0F2003F015FD2A202A
:102D000003F012FD282003F00FFD082003F00CFD56
:102D10000E2003F009FD082003F006FD542003F007
:102D200003FDA92003F000FD432003F0FDFC0A2071
:102D300003F0FAFC0F2003F0F7FC002003F0F4FC92
:102D4000002003F0F1FC002003F0EEFC002003F073
:102D5000EBFCE12003F0F4FC002003F0E5FC15207F
:102D600003F0E2FC172003F0DFFC072003F0DCFC9B
:102D7000112003F0D9FC062003F0D6FC2B2003F031
:102D8000D3FC562003F0D0FC3C2003F0CDFC052002
:102D900003F0CAFC102003F0C7FC0F2003F0C4FCB2
:102DA0003F2003F0C1FC3F2003F0BEFC0F2003F0E6
:102DB000BBFC2B2003F0C4FC002003F0B5FC00207A
:102DC00003F0B2FC012003F0AFFC3F2003F0ACFCA9
:102DD0002A2003F0B5FC002003F0A6FC002003F03D
:102DE000A3FC002003F0A0FCEF2003F09DFC1120C9
:102DF00003F0A6FC782005F0CFFE292003F0A0FC0C
:102E000003F02AB95848808846F6040188427CD1EC
:102E1000112003F095FC142005F0BEFED02003F035
:102E20008FFC072003F080FC422003F07DFC1D2076
:102E300003F07AFCD12003F083FC002003F074FC43
:102E40001A2003F071FC092003F06EFCD22003F07D
:102E500077FC012003F068FC222003F065FCC02011
:102E600003F06EFC102003F05FFC3B2003F05CFCE1
:102E7000002003F059FC022003F056FC112003F05F
:102E800053FCC52003F05CFC032003F04DFCC8207C
:102E900003F056FC002003F047FC252003F044FC1F
:102EA000212003F041FC052003F03EFC002003F04C
:102EB0003BFC0A2003F038FC652003F035FC25209C
:102EC00003F032FC772003F02FFC502003F02CFCA1
:102ED0000F2003F029FC002003F026FCF82003F06B
:102EE0002FFC012003F020FCFE2003F029FC002031
:102EF00003F01AFC022003F017FC202003F020FC52
:102F0000362003F01DFC082000E039E003F00CFC43
:102F10003A2003F015FC552003F006FC2B2003F0AB
:102F20000FFC002003F000FC002003F0FDFB01205B
:102F300003F0FAFB3F2003F0F7FB2A2003F000FC2C
:102F4000002003F0F1FB002003F0EEFB012003F072
:102F5000EBFBDF2003F0E8FB782005F01DFE2920C5
:102F600003F0EEFB4CE70000702C00201C0100A0D9
:102F7000204C43442049443A25780D0A00000000C3
:102F8000FE48808845F21031884240F07C87ED2071
:102F900003F0D6FB012003F0C7FBFE2003F0C4FBC7
:102FA000EE2003F0CDFBDE2003F0BEFB212003F07A
:102FB000BBFBF12003F0C4FB012003F0B5FBDF20D5
:102FC00003F0BEFB102003F0AFFBC42003F0B8FBFE
:102FD0008F2003F0A9FBC62003F0B2FB002003F012
:102FE000A3FBE22003F0A0FBE22003F09DFBE22024
:102FF00003F09AFBBF2003F0A3FBAA2003F094FB8D
:10300000B02003F09DFB0D2003F08EFB002003F0A9
:103010008BFB0D2003F088FB002003F085FB1120C3
:1030200003F082FB002003F07FFB192003F07CFB00
:10303000002003F079FB212003F076FB002003F051
:1030400073FB2D2003F070FB002003F06DFB3D208F
:1030500003F06AFB002003F067FB5D2003F064FBD4
:10306000002003F061FB5D2003F05EFB002003F015
:103070005BFBB12003F064FB802003F055FB0020D4
:1030800003F052FB8B2003F04FFB002003F04CFBBE
:10309000962003F049FB002003F046FBB22003F02A
:1030A0004FFB002003F040FB002003F03DFB02201B
:1030B00003F03AFB002003F037FB032003F034FB5E
:1030C000002003F031FBB32003F03AFB002003F0B3
:1030D0002BFB002003F028FB002003F025FB002041
:1030E00003F022FB002003F01FFB002003F01CFB79
:1030F000002003F019FB002003F016FB002003F072
:1031000013FB002003F010FB002003F00DFB002058
:1031100003F00AFB002003F007FB002003F004FB90
:10312000002003F001FB002003F0FEFA002003F072
:10313000FBFA002003F0F8FA002003F0F5FA002073
:1031400003F0F2FA002003F0EFFA002003F0ECFAAB
:10315000002003F0E9FA002003F0E6FAB42003F0BF
:10316000EFFA8B2003F0E0FA002003F0DDFA96205E
:1031700003F0DAFA002003F0D7FAA12003F0D4FA22
:10318000002003F0D1FAB52003F0DAFA022003F0B0
:10319000CBFA002003F0C8FA032003F0C5FA0020A0
:1031A00003F0C2FA042003F0BFFA002003F0BCFAD7
:1031B000B62003F0C5FA002003F0B6FA002003F0B1
:1031C000B3FAB72003F0BCFA002003F0ADFA0020F8
:1031D00003F0AAFA3F2003F0A7FA002003F0A4FAB4
:1031E0005E2003F0A1FA002003F09EFA642003F0B1
:1031F0009BFA002003F098FA8C2003F095FA002047
:1032000003F092FAAC2003F08FFA002003F08CFA5E
:10321000DC2003F089FA002003F086FA702003F026
:1032200083FA002003F080FA902003F07DFA00205A
:1032300003F07AFAEB2003F077FA002003F074FA37
:10324000DC2003F071FA002003F06EFAB82003F0DE
:1032500077FA002003F068FA002003F065FA0020F6
:1032600003F062FA002003F05FFA002003F05CFA3A
:10327000002003F059FA002003F056FA002003F072
:1032800053FABA2003F05CFA242003F04DFA002030
:1032900003F04AFA002003F047FA002003F044FA52
:1032A000C12003F04DFA202003F03EFA002003F085
:1032B0003BFA542003F038FA002003F035FAFF20DF
:1032C00003F032FA002003F02FFAC22003F038FA9C
:1032D0000A2003F029FA002003F026FA042003F064
:1032E00023FA002003F020FAC32003F029FA3C203F
:1032F00003F01AFA002003F017FA3A2003F014FA48
:10330000002003F011FA392003F00EFA002003F038
:103310000BFA372003F008FA002003F005FA3C20EE
:1033200003F002FA002003F0FFF9362003F0FCF965
:10333000002003F0F9F9322003F0F6F9002003F041
:10334000F3F92F2003F0F0F9002003F0EDF92C2021
:1033500003F0EAF9002003F0E7F9292003F0E4F98B
:10336000002003F0E1F9262003F0DEF9002003F04D
:10337000DBF9242003F0D8F9002001E0702C0020B4
:1033800003F0D2F9242003F0CFF9002003F0CCF9A8
:10339000232003F0C9F9002003F0C6F93C2003F014
:1033A000C3F9002003F0C0F9362003F0BDF9002076
:1033B00003F0BAF9322003F0B7F9002003F0B4F9B2
:1033C0002F2003F0B1F9002003F0AEF92C2003F018
:1033D000ABF9002003F0A8F9292003F0A5F900209B
:1033E00003F0A2F9262003F09FF9002003F09CF9D6
:1033F000242003F099F9002003F096F9242003F02B
:1034000093F9002003F090F9232003F08DF90020B8
:1034100003F08AF9C42003F093F9622003F084F9E1
:10342000002003F081F9052003F07EF9002003F06D
:103430007BF9842003F078F9002003F075F9F0207F
:1034400003F072F9002003F06FF9182003F06CF913
:10345000002003F069F9A42003F066F9002003F0CE
:1034600063F9182003F060F9002003F05DF95020A3
:1034700003F05AF9002003F057F90C2003F054F937
:10348000002003F051F9172003F04EF9002003F05B
:103490004BF9952003F048F9002003F045F9F3209B
:1034A00003F042F9002003F03FF9E62003F03CF975
:1034B000002003F039F9C52003F042F9322003F06F
:1034C00033F9002003F030F9442003F02DF90020F7
:1034D00003F02AF9652003F027F9002003F024F90E
:1034E000762003F021F9002003F01EF9882003F074
:1034F0001BF9002003F018F9C62003F021F9202061
:1035000003F012F9002003F00FF9172003F00CF973
:10351000002003F009F9012003F006F9002003F070
:1035200003F9C72003F00CF9002003F0FDF8002098
:1035300003F0FAF8002003F0F7F8002003F0F4F8A5
:10354000C82003F0FDF8002003F0EEF8002003F09F
:10355000EBF8002003F0E8F8002003F0E5F8C920BC
:1035600003F0EEF8002003F0DFF8002003F0DCF8B1
:10357000002003F0D9F8002003F0D6F8002003F073
:10358000D3F8002003F0D0F8002003F0CDF800209D
:1035900003F0CAF8002003F0C7F8002003F0C4F8D5
:1035A000002003F0C1F8002003F0BEF8002003F073
:1035B000BBF8002003F0B8F8002003F0B5F80020B5
:1035C00003F0B2F8E02003F0BBF8162003F0ACF8EB
:1035D000002003F0A9F81C2003F0A6F8002003F057
:1035E000A3F8212003F0A0F8002003F09DF8362076
:1035F00003F09AF8002003F097F8462003F094F8BF
:10360000002003F091F8522003F08EF8002003F020
:103610008BF8642003F088F8002003F085F87A2006
:1036200003F082F8002003F07FF88B2003F07CF891
:10363000002003F079F8992003F076F8002003F0D9
:1036400073F8A82003F070F8002003F06DF8B9209B
:1036500003F06AF8002003F067F8C42003F064F870
:10366000002003F061F8CA2003F05EF8002003F0A8
:103670005BF8D22003F058F8002003F055F8D92069
:1036800003F052F8002003F04FF8E02003F04CF86C
:10369000002003F049F8F32003F046F8002003F07F
:1036A00043F8E12003F04CF8162003F03DF8002029
:1036B00003F03AF81C2003F037F8002003F034F848
:1036C000222003F031F8002003F02EF8362003F01A
:1036D0002BF8002003F028F8452003F025F80020FF
:1036E00003F022F8522003F01FF8002003F01CF82A
:1036F000642003F019F8002003F016F87A2003F094
:1037000013F8002003F010F88B2003F00DF80020D0
:1037100003F00AF8992003F007F8002003F004F8FA
:10372000A82003F001F8002002F0FEFFB92002F00B
:10373000FBFF002002F0F8FFC42002F0F5FF00209C
:1037400002F0F2FFCA2002F0EFFF002002F0ECFFCF
:10375000D22002F0E9FF002002F0E6FFD82002F0BC
:10376000E3FF002002F0E0FFE02002F0DDFF002098
:1037700002F0DAFFF32002F0D7FF002002F0D4FFBE
:10378000E22002F0DDFF052002F0CEFF002002F073
:10379000CBFF0B2002F0C8FF002002F0C5FF1B206A
:1037A00002F0C2FF002002F0BFFF342002F0BCFF95
:1037B000002002F0B9FF442002F0B6FF002002F022
:1037C000B3FF4F2002F0B0FF002002F0ADFF6120F8
:1037D00002F0AAFF002002F0A7FF792002F0A4FF68
:1037E000002002F0A1FF882002F09EFF002002F0DE
:1037F0009BFF972002F098FF002002F095FFA62083
:1038000002F092FF002002F08FFFB72002F08CFF41
:10381000002002F089FFC22002F086FF002002F0A3
:1038200083FFC72002F080FF002002F07DFFD1203F
:1038300002F07AFF002002F077FFD62002F074FF3A
:10384000002002F071FFDD2002F06EFF002002F088
:103850006BFFF32002F068FF002002F065FFE32019
:1038600002F06EFF052002F05FFF002002F05CFF17
:103870000A2002F059FF002002F056FF1C2002F03F
:1038800053FF002002F050FF332002F04DFF0020D4
:1038900002F04AFF442002F047FF002002F044FFFC
:1038A000502002F041FF002002F03EFF622002F0B3
:1038B0003BFF002002F038FF782002F035FF0020A7
:1038C00002F032FF882002F02FFF002002F02CFFD0
:1038D000972002F029FF002002F026FFA62002F028
:1038E00023FF002002F020FFB72002F01DFF002080
:1038F00002F01AFFC22002F017FF002002F014FFAE
:10390000C72002F011FF002002F00EFFD12002F0CC
:103910000BFF002002F008FFD52002F005FF002079
:1039200002F002FFDD2002F0FFFE002002F0FCFEAC
:10393000F32002F0F9FE002002F0F6FEE42002F08F
:10394000FFFE012002F0F0FE002002F0EDFE01205B
:1039500002F0EAFE002002F0E7FE022002F0E4FEA0
:10396000002002F0E1FE2A2002F0DEFE002002F03C
:10397000DBFE3C2002F0D8FE002002F0D5FE4B20FA
:1039800002F0D2FE002002F0CFFE5D2002F0CCFE5D
:10399000002002F0C9FE742002F0C6FE002002F0F2
:1039A000C3FE842002F0C0FE002002F0BDFE932082
:1039B00002F0BAFE002002F0B7FEA22002F0B4FE30
:1039C000002002F0B1FEB32002F0AEFE002002F0B3
:1039D000ABFEBE2002F0A8FE002002F0A5FEC4202F
:1039E00002F0A2FE002002F09FFECD2002F09CFE1D
:1039F000002002F099FED32002F096FE002002F093
:103A000093FEDD2002F090FE002002F08DFEF320F8
:103A100002F08AFE002002F087FEE52002F090FE10
:103A2000002002F081FE002002F07EFE002002F065
:103A30007BFE002002F078FE022002F075FE0020DE
:103A400002F072FE292002F06FFE002002F06CFEF0
:103A50003C2002F069FE002002F066FE4B2002F0DE
:103A600063FE002002F060FE5D2002F05DFE00209B
:103A700002F05AFE742002F057FE002002F054FEBD
:103A8000842002F051FE002002F04EFE932002F04E
:103A90004BFE002002F048FEA22002F045FE00206E
:103AA00002F042FEB32002F03FFE002002F03CFE96
:103AB000BE2002F039FE002002F036FEC42002F0E3
:103AC00033FE002002F030FECD2002F02DFE00205B
:103AD00002F02AFED32002F027FE002002F024FE8E
:103AE000DC2002F021FE002002F01EFEF32002F096
:103AF0001BFE002002F018FEE62002F021FE11203D
:103B000002F012FE002002F00FFE342002F00CFE44
:103B1000002002F009FE562002F006FE002002F00E
:103B200003FE762002F000FE002002F0FDFD77206B
:103B300002F0FAFD002002F0F7FD662002F0F4FD2D
:103B4000002002F0F1FD882002F0EEFD002002F0DE
:103B5000EBFD992002F0E8FD002002F0E5FDBB201E
:103B600002F0E2FD002002F0DFFD992002F0DCFD12
:103B7000002002F0D9FD662002F0D6FD002002F000
:103B8000D3FD552002F0D0FD002002F0CDFD5520E0
:103B900002F0CAFD002002F0C7FD452002F0C4FD7E
:103BA000002002F0C1FD432002F0BEFD002002F023
:103BB000BBFD442002F0B8FD002002F0B5FDE72077
:103BC00002F0BEFD322002F0AFFD002002F0ACFD9D
:103BD000552002F0A9FD002002F0A6FD762002F09B
:103BE000A3FD002002F0A0FD662002F09DFD002054
:103BF00002F09AFD672002F097FD002002F094FD8C
:103C0000672002F091FD002002F08EFD872002F077
:103C10008BFD002002F088FD992002F085FD002038
:103C200002F082FDBB2002F07FFD002002F07CFD4F
:103C3000992002F079FD002002F076FD772002F055
:103C400073FD002002F070FD442002F06DFD0020A5
:103C500002F06AFD562002F067FD002002F064FDCC
:103C6000232002F061FD002002F05EFD332002F00F
:103C70005BFD002002F058FD452002F055FD0020BC
:103C800002F052FDE82002F05BFD002002F04CFD46
:103C9000002002F049FD992002F046FD002002F0CC
:103CA00043FD872002F040FD002002F03DFD88200A
:103CB00002F03AFD002002F037FD772002F034FDDB
:103CC000002002F031FD662002F02EFD002002F0FF
:103CD0002BFD882002F028FD002002F025FDAA20FF
:103CE00002F022FD002002F01FFDBB2002F01CFDAF
:103CF000002002F019FD992002F016FD002002F0CC
:103D000013FD662002F010FD002002F00DFD55208D
:103D100002F00AFD002002F007FD552002F004FD2C
:103D2000002002F001FD442002F0FEFC002002F021
:103D3000FBFC442002F0F8FC002002F0F5FC5520CA
:103D400002F0F2FC002002F0EFFCE92002F0F8FCA7
:103D5000AA2002F0E9FC002002F0E6FC002002F0BC
:103D6000E3FC002002F0E0FC002002F0E9FCAA20C5
:103D700002F0DAFCCF2002F0E3FC002002F0D4FCD9
:103D8000002002F0D1FC002002F0CEFC002002F066
:103D9000CBFC002002F0C8FC002002F0C5FC002093
:103DA00002F0C2FC002002F0BFFC002002F0BCFCCC
:103DB000002002F0B9FC002002F0B6FC002002F066
:103DC000B3FC002002F0B0FC002002F0ADFC0020AB
:103DD00002F0AAFC002002F0A7FC002002F0A4FCE4
:103DE000F02002F0ADFC002002F09EFC502002F01A
:103DF0009BFC002002F098FC002002F095FC0020C3
:103E000002F092FCF32002F09BFC002002F08CFCFC
:103E1000F92002F095FC062002F086FC102002F04A
:103E200083FC292002F080FC002002F07DFC3A2077
:103E300002F086FC552002F077FC112002F080FC95
:103E4000642004F0A9FE292002F07AFC352002F05B
:103E500077FC002002F068FC512002F071FCFF208A
:103E600002F062FC532002F06BFC2C2002F05CFCA0
:103E7000552002F065FC822002F056FC2C2002F056
:103E80005FFC02F0E9B8FE48808845F21051884294
:103E90007ED155214FF4704002F068FCAA214FF208
:103EA000010002F063FC52214FF2020002F05EFCBE
:103EB00008214FF2030002F059FC01214FF20400E7
:103EC00002F054FC0D214FF4304002F04FFC0D2164
:103ED0004BF2010002F04AFC0D214BF2020002F00D
:103EE00045FC34214FF4364002F040FC34214BF2C3
:103EF000016002F03BFC34214BF2026002F036FC20
:103F00000D214FF4314002F031FC0D214BF2011034
:103F100002F02CFC0D214BF2021002F027FC3421A0
:103F20004FF4374002F022FC34214BF2017002F0D2
:103F30001DFC34214BF2027002F018FC00214FF4FA
:103F4000324002F013FC00214BF2012002F00EFC83
:103F500000214BF2022002F009FC24214FF43840EA
:103F600002F004FC24214BF6010002F0FFFB2421A7
:103F70004BF6020002F0FAFB01214FF43F4002F041
:103F8000F5FB0F214FF4334002F0F0FB0F2100E06E
:103F9000FEE34BF2013002F0E9FB0F214BF202305D
:103FA00002F0E4FB34214FF4394002F0DFFB34210E
:103FB0004BF6011002F0DAFB34214BF6021002F04E
:103FC000D5FB08214FF4354002F0D0FB08214BF21D
:103FD000015002F0CBFB08214BF2025002F0C6FB6D
:103FE00003214FF4424002F0C1FB24214FF43A4038
:103FF00002F0BCFB24214BF6012002F0B7FB242188
:104000004BF6022002F0B2FB00214FF43C4002F0DC
:10401000ADFB78214BF6014002F0A8FB00214BF6E6
:10402000024002F0A3FB00214FF43D4002F09EFB52
:1040300078214BF6015002F099FB00214BF602501B
:1040400002F094FB00214FF43E4002F08FFB64210C
:104050004BF6016002F08AFB00214FF4514002F060
:1040600085FB33214DF2011002F080FB00214DF25F
:10407000021002F07BFB34214DF2031002F076FBBC
:1040800000214DF2041002F071FB3A214DF20510AF
:1040900002F06CFB00214DF2061002F067FB4A2192
:1040A0004DF2071002F062FB00214DF2081002F001
:1040B0005DFB5C214DF2091002F058FB00214DF22E
:1040C0000A1002F053FB81214DF20B1002F04EFB5F
:1040D00000214DF20C1002F049FBA6214DF20D100B
:1040E00002F044FB00214DF20E1002F03FFBE521EF
:1040F0004DF20F1002F03AFB01214DF2101002F0C8
:1041000035FB13214DF2111002F030FB01214DF26D
:10411000121002F02BFB54214DF2131002F026FB7B
:1041200001214DF2141002F021FB82214DF21510F5
:1041300002F01CFB01214DF2161002F017FBCA2100
:104140004DF2171002F012FB02214DF2181002F08E
:104150000DFB00214DF2191002F008FB02214DF277
:104160001A1002F003FB01214DF21B1002F0FEFABF
:1041700002214DF21C1002F0F9FA34214DF21D100B
:1041800002F0F4FA02214DF21E1002F0EFFA67215C
:104190004DF21F1002F0EAFA02214DF2201002F057
:1041A000E5FA84214DF2211002F0E0FA02214DF2ED
:1041B000221002F0DBFAA4214DF2231002F0D6FA0D
:1041C00002214DF2241002F0D1FAB7214DF2251050
:1041D00002F0CCFA02214DF2261002F0C7FACF21EC
:1041E0004DF2271002F0C2FA02214DF2281002F01F
:1041F000BDFADE214DF2291002F0B8FA02214DF28B
:104200002A1002F0B3FAF2214DF22B1002F0AEFAAE
:1042100002214DF22C1002F0A9FAFE214DF22D10D0
:1042200002F0A4FA03214DF22E1002F09FFA1021A1
:104230004DF22F1002F09AFA03214DF2301002F0E5
:1042400095FA33214DF2311002F090FA03214DF22C
:10425000321002F08BFA6D214DF2331002F086FA23
:1042600000214FF4524002F081FA33214DF2012037
:1042700002F07CFA00214DF2022002F077FA01E010
:10428000702C002034214DF2032002F06FFA00213F
:104290004DF2042002F06AFA3A214DF2052002F0B4
:1042A00065FA00214DF2062002F060FA4A214DF233
:1042B000072002F05BFA00214DF2082002F056FAC6
:1042C0005C214DF2092002F051FA00214DF20A2042
:1042D00002F04CFA81214DF20B2002F047FA002146
:1042E0004DF20C2002F042FAA6214DF20D2002F010
:1042F0003DFA00214DF20E2002F038FAE5214DF290
:104300000F2002F033FA01214DF2102002F02EFAB4
:1043100013214DF2112002F029FA01214DF2122051
:1043200002F024FA54214DF2132002F01FFA012169
:104330004DF2142002F01AFA82214DF2152002F0FB
:1043400015FA01214DF2162002F010FACA214DF2A1
:10435000172002F00BFA02214DF2182002F006FAA3
:1043600000214DF2192002F001FA02214DF21A202B
:1043700002F0FCF901214DF21B2002F0F7F90221B5
:104380004DF21C2002F0F2F934214DF21D2002F012
:10439000EDF902214DF21E2002F0E8F967214DF2FD
:1043A0001F2002F0E3F902214DF2202002F0DEF995
:1043B00084214DF2212002F0D9F902214DF2222070
:1043C00002F0D4F9A4214DF2232002F0CFF902210A
:1043D0004DF2242002F0CAF9B7214DF2252002F057
:1043E000C5F902214DF2262002F0C0F9CF214DF28D
:1043F000272002F0BBF902214DF2282002F0B6F985
:10440000DE214DF2292002F0B1F902214DF22A20DD
:1044100002F0ACF9F2214DF22B2002F0A7F90221B3
:104420004DF22C2002F0A2F9FE214DF22D2002F0D7
:104430009DF903214DF22E2002F098F910214DF242
:104440002F2002F093F903214DF2302002F08EF973
:1044500033214DF2312002F089F903214DF232204F
:1044600002F084F96D214DF2332002F07FF9002132
:104470004FF4534002F07AF933214DF2013002F04B
:1044800075F900214DF2023002F070F934214DF23D
:10449000033002F06BF900214DF2043002F066F9AE
:1044A0003A214DF2053002F061F900214DF206305B
:1044B00002F05CF94A214DF2073002F057F9002171
:1044C0004DF2083002F052F95C214DF2093002F051
:1044D0004DF900214DF20A3002F048F981214DF2E8
:1044E0000B3002F043F900214DF20C3002F03EF99E
:1044F000A6214DF20D3002F039F900214DF20E30B7
:1045000002F034F9E5214DF20F3002F02FF90121CC
:104510004DF2103002F02AF913214DF2113002F061
:1045200025F901214DF2123002F020F954214DF20B
:10453000133002F01BF901214DF2143002F016F98C
:1045400082214DF2153002F011F901214DF21630A1
:1045500002F00CF9CA214DF2173002F007F90221DE
:104560004DF2183002F002F900214DF2193002F03C
:10457000FDF802214DF21A3002F0F8F801214DF257
:104580001B3002F0F3F802214DF21C3002F0EEF87D
:1045900034214DF21D3002F0E9F802214DF21E30B7
:1045A00002F0E4F867214DF21F3002F0DFF802213B
:1045B0004DF2203002F0DAF884214DF2213002F081
:1045C000D5F802214DF2223002F0D0F8A4214DF2AC
:1045D000233002F0CBF802214DF2243002F0C6F86D
:1045E000B7214DF2253002F0C1F802214DF22630FC
:1045F00002F0BCF8CF214DF2273002F0B7F80221CB
:104600004DF2283002F0B2F8DE214DF2293002F0EE
:10461000ADF802214DF22A3002F0A8F8F2214DF255
:104620002B3002F0A3F802214DF22C3002F09EF85C
:10463000FE214DF22D3002F099F803214DF22E307B
:1046400002F094F810214DF22F3002F08FF8032180
:104650004DF2303002F08AF833214DF2313002F061
:1046600085F803214DF2323002F080F86D214DF2D1
:10467000333002F07BF800214FF4544002F076F81A
:1046800033214DF2014002F071F800214DF2024059
:1046900002F06CF834214DF2034002F067F800217B
:1046A0004DF2044002F062F83A214DF2054002F06A
:1046B0005DF800214DF2064002F058F84A214DF213
:1046C000074002F053F800214DF2084002F04EF886
:1046D0005C214DF2094002F049F800214DF20A40F8
:1046E00002F044F881214DF20B4002F03FF8002126
:1046F0004DF20C4002F03AF8A6214DF20D4002F0C6
:1047000035F800214DF20E4002F030F8E5214DF26F
:104710000F4002F02BF801214DF2104002F026F874
:1047200013214DF2114002F021F801214DF2124007
:1047300002F01CF854214DF2134002F017F8012149
:104740004DF2144002F012F882214DF2154002F0B1
:104750000DF801214DF2164002F008F8CA214DF281
:10476000174002F003F802214DF2184001F0FEFF5D
:1047700000214DF2194001F0F9FF02214DF21A40DB
:1047800001F0F4FF01214DF21B4001F0EFFF00E0CA
:1047900004E302214DF21C4001F0E8FF34214DF208
:1047A0001D4001F0E3FF02214DF21E4001F0DEFF4B
:1047B00067214DF21F4001F0D9FF02214DF2204048
:1047C00001F0D4FF84214DF2214001F0CFFF0221FE
:1047D0004DF2224001F0CAFFA4214DF2234001F026
:1047E000C5FF02214DF2244001F0C0FFB7214DF278
:1047F000254001F0BBFF02214DF2264001F0B6FF3B
:10480000CF214DF2274001F0B1FF02214DF22840A7
:1048100001F0ACFFDE214DF2294001F0A7FF02219B
:104820004DF22A4001F0A2FFF2214DF22B4001F09F
:104830009DFF02214DF22C4001F098FFFE214DF228
:104840002D4001F093FF03214DF22E4001F08EFF29
:1048500010214DF22F4001F089FF03214DF230402D
:1048600001F084FF33214DF2314001F07FFF03213D
:104870004DF2324001F07AFF6D214DF2334001F0EC
:1048800075FF00214FF4554001F070FF33214DF2C8
:10489000015001F06BFF00214DF2025001F066FF64
:1048A00034214DF2035001F061FF00214DF204501C
:1048B00001F05CFF3A214DF2055001F057FF002155
:1048C0004DF2065001F052FF4A214DF2075001F01F
:1048D0004DFF00214DF2085001F048FF5C214DF2E0
:1048E000095001F043FF00214DF20A5001F03EFF54
:1048F00081214DF20B5001F039FF00214DF20C5097
:1049000001F034FFA6214DF20D5001F02FFF0021E0
:104910004DF20E5001F02AFFE5214DF20F5001F04B
:1049200025FF01214DF2105001F020FF13214DF21F
:10493000115001F01BFF01214DF2125001F016FF42
:1049400054214DF2135001F011FF01214DF214508A
:1049500001F00CFF82214DF2155001F007FF0121FB
:104960004DF2165001F002FFCA214DF2175001F02E
:10497000FDFE02214DF2185001F0F8FE00214DF22B
:10498000195001F0F3FE02214DF21A5001F0EEFE33
:1049900001214DF21B5001F0E9FE02214DF21C50A5
:1049A00001F0E4FE34214DF21D5001F0DFFE022142
:1049B0004DF21E5001F0DAFE67214DF21F5001F05A
:1049C000D5FE02214DF2205001F0D0FE84214DF29F
:1049D000215001F0CBFE02214DF2225001F0C6FE23
:1049E000A4214DF2235001F0C1FE02214DF22450CA
:1049F00001F0BCFEB7214DF2255001F0B7FE0221B7
:104A00004DF2265001F0B2FECF214DF2275001F0B9
:104A1000ADFE02214DF2285001F0A8FEDE214DF23C
:104A2000295001F0A3FE02214DF22A5001F09EFE12
:104A3000F2214DF22B5001F099FE02214DF22C5043
:104A400001F094FEFE214DF22D5001F08FFE032166
:104A50004DF22E5001F08AFE10214DF22F5001F040
:104A600085FE03214DF2305001F080FE33214DF2DE
:104A7000315001F07BFE03214DF2325001F076FE01
:104A80006D214DF2335001F071FE00214FF456407C
:104A900001F06CFE33214DF2016001F067FE002150
:104AA0004DF2026001F062FE34214DF2036001F02C
:104AB0005DFE00214DF2046001F058FE3A214DF2F6
:104AC000056001F053FE00214DF2066001F04EFE3C
:104AD0004A214DF2076001F049FE00214DF20860C5
:104AE00001F044FE5C214DF2096001F03FFE00211F
:104AF0004DF20A6001F03AFE81214DF20B6001F0A7
:104B000035FE00214DF20C6001F030FEA6214DF281
:104B10000D6001F02BFE00214DF20E6001F026FE2B
:104B2000E5214DF20F6001F021FE01214DF21060F0
:104B300001F01CFE13214DF2116001F017FE01215E
:104B40004DF2126001F012FE54214DF2136001F09B
:104B50000DFE01214DF2146001F008FE82214DF29C
:104B6000156001F003FE01214DF2166001F0FEFD1B
:104B7000CA214DF2176001F0F9FD02214DF21860D3
:104B800001F0F4FD00214DF2196001F0EFFD02216A
:104B90004DF21A6001F0EAFD01214DF21B6001F0B7
:104BA000E5FD02214DF21C6001F0E0FD34214DF2E3
:104BB0001D6001F0DBFD02214DF21E6001F0D6FD0B
:104BC00067214DF21F6001F0D1FD02214DF22060FE
:104BD00001F0CCFD84214DF2216001F0C7FD0221DE
:104BE0004DF2226001F0C2FDA4214DF2236001F0DC
:104BF000BDFD02214DF2246001F0B8FDB7214DF258
:104C0000256001F0B3FD02214DF2266001F0AEFDFA
:104C1000CF214DF2276001F0A9FD02214DF228605D
:104C200001F0A4FDDE214DF2296001F09FFD02217B
:104C30004DF22A6001F09AFDF2214DF22B6001F055
:104C400095FD02214DF22C6001F090FDFE214DF208
:104C50002D6001F08BFD03214DF22E6001F086FDE9
:104C600010214DF22F6001F081FD03214DF23060E3
:104C700001F07CFD33214DF2316001F077FD03211D
:104C80004DF2326001F072FD6D214DF2336001F0A2
:104C90006DFD55214FF4704001F068FDAA214FF2DF
:104CA000010001F063FD52214FF2020001F05EFDB0
:104CB00008214FF2030001F059FD00214FF20400DA
:104CC00001F054FDCC214FF4314001F04FFD0021A3
:104CD0004BF2011001F04AFD05214FF4364001F07E
:104CE00045FD70214FF4374001F040FD70214BF23B
:104CF000017001F03BFD01214FF4384001F036FD19
:104D000003214BF6010001F031FD03214BF60200B7
:104D100001F02CFD03214BF6030001F027FD0221D9
:104D20004FF43C4001F022FD00214BF6014001F020
:104D30001DFD00214BF6024001F018FDD0214FF47B
:104D4000494001F013FD02214CF6011001F00EFD67
:104D500050214CF6021001F009FD50214CF60310D1
:104D600001F004FD50214CF6041001F0FFFC00217D
:104D70004FF4545001F0FAFC55214FF4685001F003
:104D8000F5FC4FF4885001F0DBFC782003F00EFFB7
:104D90004FF4245001F0D4FC01F05EB9FE48808845
:104DA00049F2253188427DD147F6F001E52001F036
:104DB000DDFC4FF48071012001F0D8FC4FF4E0617C
:104DC000022001F0D3FC41F23001032001F0CEFCBF
:104DD0000021042001F0CAFC40F20221082001F069
:104DE000C5FC0021092001F0C1FC00210A2001F0CE
:104DF000BDFC00210C2001F0B9FC00210D2001F0C8
:104E0000B5FC00210F2001F0B1FC0021102001F0C1
:104E1000ADFC0721112001F0A9FC0021122001F0B6
:104E2000A5FC0021132001F0A1FC0021072001F0C6
:104E30009DFC41F29061102001F098FC40F2272186
:104E4000112001F093FC9D21122001F08FFC4FF402
:104E5000C851132001F08AFC2521292001F086FC8D
:104E60000D212B2001F082FC0721302001F07EFC77
:104E700040F20331312001F079FC0321322001F0AE
:104E800075FC40F20621352001F070FC0821362027
:104E900001F06CFC40F20641372001F067FC4FF452
:104EA000417100E058E0382001F060FC0721392012
:104EB00001F05CFC40F202613C2001F057FC08214B
:104EC0003D2001F053FC0021502001F04FFCEF2168
:104ED000512001F04BFC0021522001F047FC40F230
:104EE0003F11532001F042FC4FF42741602001F0B4
:104EF0003DFC0121612001F039FC00216A2001F014
:104F000035FC0021802001F031FC0021812001F0DE
:104F10002DFC0021822001F029FC0021832001F0DA
:104F200025FC0021842001F021FC0021852001F0D6
:104F30001DFC1021902001F019FC4FF4C06192205B
:104F400001F014FC40F23311072001F00FFC222184
:104F5000002001F00BFC1FE78F48808849F22831C0
:104F600088427DD141F28F01EC2001F0FFFB41F23C
:104F70003421EF2001F0FAFB4FF48071012001F0A1
:104F8000F5FB4FF4E061022001F0F0FB41F230014B
:104F9000032001F0EBFB0021042001F0E7FB40F2CD
:104FA0000221082001F0E2FB0021092001F0DEFBD4
:104FB00000210A2001F0DAFB01210C2001F0D6FBD0
:104FC00000210D2001F0D2FB00210F2001F0CEFBCB
:104FD0000021102001F0CAFB0721112001F0C6FBBF
:104FE0000021122001F0C2FB0021132001F0BEFBC2
:104FF0000121072001F0BAFB322003F0CDFD41F280
:105000009041102001F0B2FB40F22721112001F065
:10501000ADFB322003F0C0FD8A21122001F0A6FB77
:10502000322003F0B9FD4FF4D051132001F09EFB64
:105030000621292001F09AFB0D212B2001F096FB7F
:10504000322003F0A9FD0021202001F08FFB002178
:10505000212001F08BFB322003F09EFD002100E0B7
:1050600075E0302001F082FB40F20461312001F054
:105070007DFB40F20531322001F078FB0021352024
:1050800001F074FB40F60941362001F06FFB4FF44C
:105090000171372001F06AFB40F20131382001F044
:1050A00065FB40F20771392001F060FB00213C20D4
:1050B00001F05CFB40F60A213D2001F057FB322055
:1050C00003F06AFD0021502001F050FBEF21512038
:1050D00001F04CFB0021522001F048FB40F23F114F
:1050E000532001F043FB4FF42741602001F03EFBC9
:1050F0000121612001F03AFB00216A2001F036FB1A
:105100000021802001F032FB0021812001F02EFBE4
:105110000021822001F02AFB0021832001F026FBE0
:105120000021842001F022FB0021852001F01EFBDC
:105130001021902001F01AFB4FF4C061922001F081
:1051400015FB40F23311072001F010FB24E6124852
:10515000808849F2203188427ED10021084601F042
:1051600005FB4FF48071012001F000FB4FF4E0617A
:10517000022001F0FBFA41F23001032001F0F6FABF
:105180000021042001F0F2FA40F20221082001F08F
:10519000EDFA0021092001E0702C002001F0E6FA70
:1051A00000210A2001F0E2FA01210C2001F0DEFAD0
:1051B00000210D2001F0DAFA00210F2001F0D6FACB
:1051C000322003F0E9FC40F20111072001F0CEFA91
:1051D000322003F0E1FC4FF48651102001F0C6FAB2
:1051E0000721112001F0C2FA4FF48871122001F05A
:1051F000BDFA4FF43061132001F0B8FA00212920E4
:1052000001F0B4FA44F210012B2001F0AFFA0021B2
:10521000502001F0ABFAEF21512001F0A7FA002154
:10522000522001F0A3FA40F23F11532001F09EFA00
:105230004FF41C51602001F099FA0121612001F026
:1052400095FA00216A2001F091FA0021802001F0F6
:105250008DFA0021812000E030E001F087FA002182
:10526000822001F083FA0021832001F07FFA0021DF
:10527000842001F07BFA0021852001F077FA1021CB
:10528000902001F073FA0021922001F06FFA0121C1
:10529000932001F06BFA4FF48871952001F066FAC3
:1052A0000021972001F062FA0021982001F05EFAB7
:1052B00040F27311072001F059FA6DE5FE4880882D
:1052C00049F2313188427DD141F21401E72001F0E9
:1052D0004DFA4FF48071012001F048FA4FF400714B
:1052E000022001F043FA41F23801032001F03EFAB6
:1052F00040F20221082001F039FA0021092001F0D2
:1053000035FA00210A2001F031FA00210C2001F0C9
:105310002DFA00210D2001F029FA00210F2001F0C3
:1053200025FA0021102001F021FA0721112001F0B7
:105330001DFA0021122001F019FA0021132001F0BA
:1053400015FAC82003F028FC41F29061102001F00A
:105350000DFA40F22721112001F008FA322003F063
:105360001BFC0C21122001F001FA322003F014FC86
:105370004FF40061132001F0F9F91121292001F007
:10538000F5F90B212B2001F0F1F9322003F004FC98
:105390000021202001F0EAF940F23F11212001F024
:1053A000E5F90021302001F0E1F94FF4837131205B
:1053B00001F0DCF90021322001F0D8F94FF401713D
:1053C000352000E064E001F0D1F941F20A613620B5
:1053D00001F0CCF940F20771372001F0C7F94FF422
:1053E0008371382001F0C2F940F20771392001F0D1
:1053F000BDF940F202413C2001F0B8F940F60F41FE
:105400003D2001F0B3F90021502001F0AFF9EF2168
:10541000512001F0ABF90021522001F0A7F940F230
:105420003F11532001F0A2F94FF41C51602001F00C
:105430009DF90121612001F099F900216A2001F014
:1054400095F90021802001F091F90021812001F0DF
:105450008DF90021822001F089F90021832001F0DB
:1054600085F90021842001F081F90021852001F0D7
:105470007DF91021902001F079F94FF4C06192205C
:1054800001F074F940F23311072001F06FF983E461
:105490008948808845F2084188427DD14FF4807167
:1054A000012001F063F94FF4E061022001F05EF9A0
:1054B00041F23001032001F059F90021042001F0EC
:1054C00055F940F20721082001F050F90021092088
:1054D00001F04CF900210A2001F048F900210C20CC
:1054E00001F044F900210D2001F040F900210F20C6
:1054F00001F03CF9142003F04FFB41F2B0611020A1
:1055000001F034F90121112001F030F901211720B7
:1055100001F02CF94FF49C71122001F027F94FF49F
:105520000061132001F022F90921292001F01EF960
:1055300009212A2001F01AF90021A42001F016F90E
:105540000021502001F012F9EF21512001F00EF955
:105550000021522001F00AF940F23F11532001F0DE
:1055600005F94FF41C51602001F000F90121612080
:1055700001F0FCF800216A2001F0F8F800218020F9
:1055800001F0F4F80021812001F0F0F800218220E0
:1055900001F0ECF8002100E024E0832001F0E6F8BF
:1055A0000021842001F0E2F80021852001F0DEF8DE
:1055B0001321902001F0DAF80021922001F0D6F8B2
:1055C0000321932001F0D2F84FF48871952001F067
:1055D000CDF840F27311072001F0C8F8322003F033
:1055E000DBFAB8E43448808841F2055188427DD125
:1055F0000021072001F0BAF8322003F0CDFA4FF471
:105600008E71122001F0B2F80121A42001F0AEF851
:105610000F21082001F0AAF808210A2001F0A6F8BD
:1056200008210D2001F0A2F840F20771302001F0AE
:105630009DF80721312001F099F840F203613220F2
:1056400001F094F84FF4E061332001F08FF840F25C
:105650000221342001F08AF80221352001F086F879
:1056600041F60F71362001F081F840F207713720C2
:1056700001F07CF80021382001F078F80021392071
:1056800001F074F840F207713A2001F06FF8002140
:105690003B2001F06BF807213C2001F067F8002166
:1056A0003D2001F063F8322003F076FA0121072053
:1056B00001F05CF8012101E0702C0020172001F0BE
:1056C00055F8322003F068FA4FF4BD51102001F074
:1056D0004DF840F21721112001F048F84FF48F7176
:1056E000122001F043F84FF4706100E098E01320BD
:1056F00001F03CF800212A2001F038F80A21292085
:1057000001F034F84FF49F71122001F02FF80021BE
:10571000502001F02BF8EF21512001F027F8002153
:10572000522001F023F840F23F11532001F01EF8FF
:105730004FF41C51602001F019F80121612001F0A3
:1057400015F800216A2001F011F80021802001F0F5
:105750000DF80021812001F009F80021822001F0DC
:1057600005F80021832001F001F80021842000F0D9
:10577000FDFF0021852000F0F9FF1321902000F0AB
:10578000F5FF4FF44071922000F0F0FF05219320C7
:1057900000F0ECFF0021952000F0E8FF00219720A9
:1057A00000F0E4FF0021982000F0E0FF4FF480714A
:1057B000012000F0DBFF4FF4E061022000F0D6FF93
:1057C00041F23801032000F0D1FF0021042000F055
:1057D000CDFF00210C2000F0C9FF00210F2000F0B8
:1057E000C5FF0021202000F0C1FF0021212000F092
:1057F000BDFF2121072000F0B9FF142003F0CCF9F0
:105800006121072000F0B2FF142003F0C5F940F237
:105810007311072000F0AAFF142003F0BDF995E4EE
:10582000FE4880884BF2055188427CD10021084611
:1058300000F09CFF0021084600F098FF0021084678
:1058400000F094FF0021084600F090FF0121A42001
:1058500000F08CFF142003F09FF94FF41C516020DE
:1058600000F084FF40F20221082000F07FFF4FF497
:105870000571302000F07AFF43F21571312000F0FD
:1058800075FF40F20461322000F070FF40F61661AF
:10589000332000F06BFF42F21121342000F066FF4C
:1058A0004FF4A851352000F061FF48F2075136202F
:1058B00000F05CFF41F20741372000F057FF41F252
:1058C0000341382000F052FF2021392000F04EFF24
:1058D0001A21902000F04AFF0021102000F046FF1E
:1058E0000721112000F042FF0021122000F03EFFAE
:1058F0000021132000F03AFF142003F04DF94FF47B
:10590000E661102000F032FF40F23711112000F064
:105910002DFF142003F040F94FF4DC71122000F049
:1059200025FF142000E085E003F036F94FF47061A4
:10593000132000F01BFF80212A2000F017FF4821D0
:10594000292000F013FF142003F026F94FF4807192
:10595000012000F00BFF4FF4E061022000F006FF91
:1059600041F23801032000F001FF40F2022108203B
:1059700000F0FCFE00210A2000F0F8FE00210C20BF
:1059800000F0F4FE00210D2000F0F0FE30210E208A
:1059900000F0ECFE0021502000F0E8FEEF21512045
:1059A00000F0E4FE0021522000F0E0FE40F23F1142
:1059B000532000F0DBFE4FF41C51602000F0D6FEB7
:1059C0000121612000F0D2FE00216A2000F0CEFE0D
:1059D0001121902000F0CAFE4FF4C061922000F027
:1059E000C5FE40F20241932000F0C0FE0221942047
:1059F00000F0BCFE142003F0CFF80121072000F0D6
:105A0000B5FE142003F0C8F86121072000F0AEFEB7
:105A100040F27311072000F0A9FE0021202000F0C1
:105A2000A5FE0021212000F0A1FE2221002000F08F
:105A30009DFE11E3794880884CF2055188427CD163
:105A40000021084600F092FE0021084600F08EFE7C
:105A5000142003F0A1F80021084600F087FE002181
:105A6000084600F083FE0021084600F07FFE00217A
:105A7000084600F07BFE0121A42000F077FE1420F0
:105A800003F08AF84FF41C51602000F06FFE40F6DE
:105A90000601082000F06AFE40F20371302000F099
:105AA00065FE0121312000F061FE0421322000F06A
:105AB0005DFE4FF48171332000F058FE4FF44071C9
:105AC000342000F053FE40F20311352000F04EFE6A
:105AD0001F21362000F04AFE40F20371372000F00B
